:020000040800F2
:10000000D8BF00203D3400087D3400087F3400084C
:1000100083340008873400088B3400080000000097
:100020000000000000000000000000008F34000805
:10003000913400080000000075880008953400081D
:100040005734000857340008573400085734000864
:100050005734000857340008573400085734000854
:100060005734000857340008573400085734000844
:100070005734000857340008573400085734000834
:100080005734000857340008573400085734000824
:100090005734000857340008573400085734000814
:1000A0005734000857340008573400085734000804
:1000B00057340008050E000857340008573400086C
:1000C00057340008573400085734000857340008E4
:1000D00057340008BBFB00081DD400087D1201083E
:1000E00057340008573400085734000857340008C4
:1000F00057340008573400085734000857340008B4
:1001000057340008573400085734000857340008A3
:10011000ADFF0008B9E30008573400085734000861
:100120005734000857340008573400085734000883
:100130005734000857340008573400085734000873
:100140005734000857340008573400085734000863
:100150005734000857340008573400085734000853
:100160005734000857340008573400085734000843
:100170005734000857340008573400085734000833
:10018000573400085734000800F002F800F05CF81B
:100190000AA090E8000C82448344AAF10107DA45E2
:1001A00001D100F051F8AFF2090EBAE80F0013F0D8
:1001B000010F18BFFB1A43F001031847DCE80200E7
:1001C000FCE802000A444FF0000C10F8013B13F069
:1001D000070408BF10F8014B1D1108BF10F8015BA0
:1001E000641E05D010F8016B641E01F8016BF9D193
:1001F00013F0080F1EBF10F8014BAD1C0C1B09D1EA
:100200006D1E58BF01F801CBFAD505E014F8016B5B
:1002100001F8016B6D1EF9D59142D6D370470000ED
:100220000023002400250026103A28BF78C1FBD8FF
:10023000520728BF30C148BF0B6070471FB52DF073
:1002400036FD1FBD10B510BD2AF09AFB1146FFF711
:10025000F5FF00F09EF82AF0B8FB03B4FFF7F2FFB9
:1002600003BC2AF0BBFB0000E24800887047E1486D
:1002700012380068E0490860DE480E3800684860BF
:10028000DC480A380068886070477FB5044600255E
:1002900000BF002006F065FCD84908604FF480716B
:1002A000D74806F05DFED749086003A9002006F094
:1002B000BDF8D549086005F059FE03A8D3A1002276
:1002C000D44BCDE90021029002220A21084607F012
:1002D000A8FFD149086003A9CF48006808F033F9A6
:1002E00003A8CEA10022CF4BCDE90021029002222B
:1002F00005210A2007F095FFCB49086003A9CA48E9
:10030000006808F020F908F08DFA05460423C74A72
:100310000021C74807F04CFB0223C64A0021C6480B
:1003200007F046FB0323C54A0021C54807F040FB00
:100330000E23C44A0021C44807F03AFB0523C34AF0
:100340000021C34807F034FB1123C24A0021C248F0
:1003500007F02EFB1223C14A0021C14807F028FBF9
:100360000F23C04A0021C04807F022FB0623BF4AE2
:100370000021BF4807F01CFB1323BE4A0021BE48E2
:1003800007F016FB142007F093FD284608F04EFAFC
:100390007FBD1CB5FFF76BFF4FF4A06003F006FABA
:1003A000A82003F07FF809F076FD4FF4C87009F03B
:1003B00064FC09F092FE642009F03DFE08F09FFB0A
:1003C000642009F038FE14F0A7FE1420AB49087031
:1003D0000846007814F027F9642009F02CFE00206C
:1003E000A749087013F0D1FF0120A54908706420C7
:1003F00009F021FE4FF4E1300EF0B1F80120622146
:10040000A04BA14ACDE90010C106A04809F0A2FB0B
:100410004FF461200BF0AAFD4FF47A300FF05BFE31
:10042000002042219A4B9B4ACDE9001089069A4848
:1004300009F090FB4FF4613010F0DEFD4FF46130B5
:100440000DF06AFE642009F0F6FD00F0BBFC08F038
:10045000D0FF02E0642009F0EEFD08F03AFF4EF60E
:1004600015718842F6D109F052F900208B4981F8C4
:1004700033009FED8B0A8B4880ED0A0AB0EE020A2A
:10048000894880ED0A0A9FED890A80ED090A9FEDEF
:10049000880A80ED0B0A9FED870A80ED0C0A9FED1C
:1004A000860A80ED0D0A0020844908707B4981F896
:1004B0002B0081F82E0081F84300012081F82F00E5
:1004C000002081F83000C87481F84000012081F8D4
:1004D000280081F85100002081F822000120C87511
:1004E000002081F8290081F82A00487181F8440031
:1004F00001200872002081F84600012081F83D00AB
:100500000020087681F8200081F8210081F83F0062
:1005100008700120487300204874012088754872D3
:10052000C8730020087581F83100087481F8210033
:1005300001204875002088740120887348708870F5
:10054000C870002008710120C87200208872012044
:100550000873002081F84C0040F2DC505849C880F4
:10056000088048804FF47A708880002055490860E0
:1005700048608860C8604FF4FA705149088148812A
:100580008881C881012280214248001F03F092FF28
:100590004221414809F03AFB012280213A48001FDC
:1005A00003F088FF6221394809F030FB322009F05E
:1005B00042FD05F09CFB1423434A0021AFF2353085
:1005C00007F0F6F905F0BAFC00201CBD1CB50FE0E1
:1005D00001A8002303221F2100900B48006806F0A9
:1005E0008BF801AB00221F210748006806F0C4F910
:1005F000EEE70000227AFF1FAC120020000000206E
:10060000B81200200400002008000020746D723130
:10061000000000009B33000878000020746D7232E7
:1006200000000000C73300087C000020902100205B
:10063000DB0E0008901B0020190E000890250020FA
:100640004F0F0008902D0020D7110008903A00208D
:100650003B14000890300020B512000890400020A4
:100660004F14000890380020C7130008903C002069
:100670004514000890410020E13200080C000020E1
:1006800046010020D673002004100140B8640240E7
:100690007E740020044C004070600240A06A00207C
:1006A0009A99A93F589C0020A09C00209A99094043
:1006B000CDCC4C3E0000A0420080D444C8010020B4
:1006C000B8650020D8650020A812002010B52DEDD7
:1006D000048BFE4AFE4B0BCB40320BC2FB48FC4B5B
:1006E0000C330ECB4C300EC0FA48F94B18330ECBFE
:1006F00008300EC0F64890ED0A0AF44880ED190A59
:10070000F54800686FF03011084428B1A0F5D81002
:10071000203800287ED101E19FEDF00AF04880EDFD
:10072000100A80ED0C0A90ED0C0ADFEDEE0A20EEC7
:10073000200ABCEEC00A10EE100AEB49C8809FEDFB
:10074000EB0AE74880ED120A80ED0E0A90ED0E0AE2
:10075000DFEDE40A20EE200ABCEEC00A10EE100A1B
:1007600008819FEDE30ADE4880ED110A80ED0D0A55
:1007700090ED0D0ADFEDDB0A20EE200ABCEEC00A88
:1007800010EE100A48819FEDDB0AD54880ED040A7F
:1007900080ED000A90ED000ADFEDD20A20EE200A7B
:1007A000BCEEC00A10EE100A08809FEDD30ACC48B8
:1007B00080ED060A80ED020A90ED020ADFEDC90A1B
:1007C00020EE200ABCEEC00A10EE100A4880B0EEFF
:1007D000000AC34880ED050A80ED010A90ED010A88
:1007E000DFEDC00A20EE200ABCEEC00A10EE100AAF
:1007F00088809FEDC00ABA4880ED140A90ED140A73
:10080000DFEDB80A20EE200ABCEEC00A10EE100A96
:10081000088200E0AEE19FEDB50AB14880ED160A0E
:1008200090ED160ADFEDAF0A20EE200ABCEEC00AFA
:1008300010EE100AC8819FEDAD0AA94880ED150A97
:100840009FEDAC0A80ED080A90ED080ADFEDA50ADD
:1008500020EE200ABCEEC00A10EE100A88819FED3F
:10086000A60A9F4880ED0A0AB7EE000A80ED090A41
:10087000B7EE000A80ED070A80ED030AB7EE000A22
:1008800080ED0B0AB1EE040A9C4880ED000AB5EE3B
:10089000000A80ED010A9FED950A80ED020A9FEDA6
:1008A000950A80ED080A9FED960A80ED090A9FEDF2
:1008B000950A80ED0A0A9FED940A80ED060A9FEDE5
:1008C000920A80ED0E0A90ED0E0A10EE101A0846FC
:1008D0002DF04CF941EC190B9FED8C0B53EC102BC8
:1008E0002CF04EFE41EC180B2CF032FB8349C86310
:1008F0009FED810A084680ED200A0F21854880F887
:10090000D61180F8561080F8D6104221824880F81F
:10091000D61180F8561080F8D61017E29FED6F0AB6
:100920006F4880ED100A80ED0C0A90ED0C0ADFEDA7
:100930006D0A20EE200ABCEEC00A10EE100A6A49C9
:10094000C8809FED6A0A664880ED120A80ED0E0AA3
:1009500090ED0E0ADFED630A20EE200ABCEEC00A1D
:1009600010EE100A08819FED620A5D4880ED110AC1
:1009700080ED0D0A90ED0D0ADFED5A0A20EE200AF7
:10098000BCEEC00A10EE100A48819FED640A54487C
:1009900080ED040A80ED000A90ED000ADFED510AB7
:1009A00020EE200ABCEEC00A10EE100A08809FED6F
:1009B000520A4B4880ED060A80ED020A90ED020AC9
:1009C000DFED480A20EE200ABCEEC00A10EE100A45
:1009D0004880B0EE000A424880ED050A80ED010A29
:1009E00090ED010ADFED3F0A20EE200ABCEEC00ABE
:1009F00010EE100A88809FED3F0A394880ED140AF6
:100A000090ED140ADFED370A20EE200ABCEEC00A92
:100A100010EE100A08829FED350A314880ED160A63
:100A200090ED160ADFED2F0A20EE200ABCEEC00A78
:100A300010EE100AC8819FED2D0A294880ED150A95
:100A40009FED2C0A80ED080A90ED080ADFED250ADB
:100A500020EE200ABCEEC00A10EE100A88819FED3D
:100A6000260A1F4880ED0A0AB7EE000A80ED090A3F
:100A7000B7EE000A80ED070A80ED030AB7EE000A20
:100A800080ED0B0A9FED190A1C4880ED000A9FEDCE
:100A9000170A80ED010A9FED220A80ED080A9FEDFA
:100AA000210A80ED090A9FED170A80ED0A0A9FEDE1
:100AB0000B0A80ED060A9FED140A80ED0E0A90EDF8
:100AC0000E0A10EE101A08462EE000007C76002078
:100AD000B816002010030020AC120020CDCCCC3E74
:100AE000F816002000007A44C667002000000000CD
:100AF0009A99993ECDCC4C3FCDCCCC3D446800205A
:100B00000AD7A33BCDCC4C3ECDCCCC3C0000000062
:100B10000000F83FB88F0020B89100203333333FF6
:100B20006666263F0AD7233C2DF020F841EC190BCE
:100B30001FED0A0B53EC102B2CF022FD41EC180B8F
:100B40002CF006FAA449C8631FED150A084680ED8B
:100B5000200A4621A14880F8D61180F8561080F866
:100B6000D61064219E4880F8D61180F8561080F87F
:100B7000D610EBE01FED270A9A4880ED100A80EDB1
:100B80000C0A90ED0C0A5FED290A20EE200ABCEE5B
:100B9000C00A10EE100A9449C8809FED940A91484B
:100BA00080ED120A80ED0E0A90ED0E0A5FED330A19
:100BB00020EE200ABCEEC00A10EE100A08811FEDDC
:100BC000330A884880ED110A80ED0D0A90ED0D0A78
:100BD0005FED3C0A20EE200ABCEEC00A10EE100ABF
:100BE0004881B6EE000A7F4880ED040A80ED000AD5
:100BF00090ED000A5FED450A20EE200ABCEEC00A27
:100C000010EE100A08809FED790A764880ED060AFA
:100C100080ED020A90ED020A5FED4E0A20EE200AF6
:100C2000BCEEC00A10EE100A4880B2EE000A6D4811
:100C300080ED050A80ED010A90ED010A5FED570A8B
:100C400020EE200ABCEEC00A10EE100A88801FEDCC
:100C5000570A644880ED140A90ED140A5FED5F0AAC
:100C600020EE200ABCEEC00A10EE100A08829FEDAA
:100C70005F0A5C4880ED160A90ED160A5FED670A80
:100C800020EE200ABCEEC00A10EE100AC8811FED4B
:100C9000680A544880ED150A1FED6A0A80ED080ABB
:100CA00090ED080A5FED710A20EE200ABCEEC00A42
:100CB00010EE100A88811FED700A4A4880ED0A0A7A
:100CC000B7EE000A80ED090AB7EE000A80ED070AC8
:100CD00080ED030AB7EE000A80ED0B0AB0EE000AC1
:100CE0003D4880ED000A1FED7F0A80ED010A9FED6F
:100CF000400A80ED080A1FED750A80ED090AB7EE7B
:100D0000000A80ED0A0A1FED790A80ED060A9FEDC0
:100D1000390A80ED0E0A90ED0E0A10EE101A084600
:100D20002CF024FF41EC190B1FED880B53EC102B1A
:100D30002CF026FC41EC180B2CF00AF92649C8636C
:100D40009FED2D0A084680ED200A00BF00BF2B480A
:100D5000244BD3E901421968DB68C0E916420366F7
:100D60004165204CD4E90423D4E90614C0E91B14DE
:100D7000C0E919231B4CD4E90831D4E90A24C0E99D
:100D80001F24C0E91D311E48164CD4E90D13226BF7
:100D9000E46BC0E91734C0E915211249D1E91124E7
:100DA0000B6CC96CC0E91A24436601670D49D1E98F
:100DB0001434D1E91621C0E91D34C0E91F21BDEC6E
:100DC000048B10BD10B5FFF781FC15F019FD1AF06A
:100DD000E5FC1AF0C3FC10BD44680020B88F002069
:100DE000B8910020F8160020C6670020CDCC4C3DFD
:100DF000CDCC0C3FBC74133D8FC2753DF88B0020E9
:100E0000BC8C002010B50121FE4804F046F90121F8
:100E1000FC4804F053F910BD2DED028B5CE0072077
:100E200009F015F910EE104A20462CF09FFE41EC17
:100E3000180B9FEDF50B53EC102B2CF09FFC02D2FE
:100E4000F348046004E09FEDF30AF14880ED000AE6
:100E5000F148007880B9F14801780078401CEF4AE9
:100E60001070282902DD0120EB4908709FEDE90A86
:100E7000E74880ED000A2BE013F0F3FAE44890ED28
:100E8000000A13F07EFDE64801780078401CE44A31
:100E90001070022904DB00201146087013F08FF94E
:100EA000E04801780078401CDE4A1070022904DB1B
:100EB00000201146087014F080FBDB48D44991ED06
:100EC000000A09F073FBD24890ED000A18F057F8B9
:100ED000052002F038FB00BFA1E72DED028B35E0C5
:100EE0000B2009F0B4F810EE104A20462CF03EFE1C
:100EF00041EC180B9FEDC40B53EC102B2CF03EFC77
:100F000002D2CA48046004E09FEDC90AC74880EDD8
:100F1000000AC848007880B9C74801780078401CAA
:100F2000C54A1070282902DD0120C24908709FEDD2
:100F3000C00ABE4880ED000A04E0BC4890ED000AFB
:100F400015F070FC0A2002F0FEFA00BFC8E72DED94
:100F50000A8B82B03EE1B948007880B9B848017880
:100F60000078401CB64A1070282902DD0120B349E0
:100F700008709FEDAF0AB34880ED000A27E1052015
:100F800009F065F810EE104A20462CF0EFFD41EC18
:100F9000180B9FED9D0B53EC102B2CF0EFFB02D2A6
:100FA000A848046004E09FEDA20AA64880ED000A6C
:100FB000A54801780078401CA34A1070012955DD2E
:100FC000002011460870A148D0ED0F0AB0EE600A6B
:100FD000F6EE000A22F06EF9B0EE408A9B48D0EDA2
:100FE0000E0AB0EE600ADFED9A0A22F063F9F0EE25
:100FF000408A9648D0ED0D0AB0EE600ADFED940A03
:1010000022F058F9B0EE409A9248D0ED0A0AF0EE7C
:10101000604AD0ED090AB0EE604AD0ED080AF0EE61
:10102000603A8A48D0ED060AB0EE603AD0ED050A83
:10103000F0EE602AD0ED040AB0EE602A8148D0EDCF
:10104000000AB6EE001A60EE810AB0EE001A60EEF9
:10105000810AB0EE600A804A694601A8F0EE481A9B
:10106000B0EE681AF0EE490A24F030FB774890EDB4
:10107000060A10EE101A08462CF078FD41EC1C0B05
:101080009FED760B53EC102B2CF050F841EC1B0B22
:101090002BF05EFF08EE100A6C4890ED050A10EE8A
:1010A000101A08462CF062FD41EC1C0B9FED6B0BF7
:1010B00053EC102B2CF03AF841EC1B0B2BF048FFB3
:1010C00008EE900A614890ED040A10EE101A0846E6
:1010D0002CF04CFD41EC1C0B9FED600B53EC102BE6
:1010E0002CF024F841EC1B0B2BF032FF09EE100A18
:1010F0005648D0ED0F0AB0EE600AF6EE000A22F074
:10110000D9F810EE105A28462CF030FD41EC1C0B9B
:101110009FED540B53EC102B2CF008F841EC1B0BFB
:101120002BF016FF09EE900A4848D0ED0E0AB0EEFB
:10113000600AF6EE000A22F0BDF810EE105A2846BA
:101140002CF014FD41EC1C0B9FED460B53EC102BC7
:101150002BF0ECFF41EC1B0B2BF0FAFE0AEE100A11
:101160003A48D0ED0D0AB0EE600AF6EE000A22F021
:10117000A1F810EE105A28462CF0F8FC41EC1C0B9C
:101180009FED380B53EC102B2BF0D0FF41EC1B0BD9
:101190002BF0DEFE0AEE900A344A35493548DFED81
:1011A0002C4A9FED2B4ADFED2A3AB0EE483AF0EE9A
:1011B000682AB0EE492AF0EE691AB0EE4A1AF0EE4B
:1011C0006A0A204B93ED000A24F027FF00BF0A2093
:1011D00002F0B9F9BFE62DED028B6AE026480178EE
:1011E0000078401C244A1070042903DD00201146B9
:1011F000087000BF214908780978491C1F4B1970F5
:101200003EE0000000040040FCA9F1D24D62503FD6
:10121000240000200AD7A33B8D0000208E00002070
:101220008A0000208B00002084170020440000204A
:101230000AD7233C92000020930000209700002052
:101240009800002048000020950000200076002033
:1012500000000000400300205400002000000000B7
:101260000000B0406666666666A64C4058000020E6
:101270004C00002050000020990000209B0000201E
:101280002CF02EF941EC180B9FEDFD0B53EC102BBD
:101290002CF074FA06D2FC4890F83E0010B1002001
:1012A000FA4908709FEDFA0A1DF0DDFC142002F0E7
:1012B0004AF993E786E0F74801680068401CF54A60
:1012C00010601E2905D91F20114608600120F2492F
:1012D0000870F24801680068401CF04A10601E293E
:1012E00005D91F20114608600020ED490870ED481F
:1012F0000078E54981F83E00EA48407881F83100FD
:10130000E84880784871E748C078E74908700120CC
:10131000DD4981F8250081F84600E448C07981F86C
:101320004700E248C07808B9012000E00020D64913
:101330004875DF48B0F9080040F2DC51884204DD0E
:101340000120D14981F8220003E00020CE4981F834
:101350002200D648807980B1D448407968B1D3481A
:10136000C07850B1D148807838B1D048407820B1A9
:10137000CE48007808B1012000E00020C24981F881
:101380004100084690F8410078B9C8488078C949BA
:101390008978884209D0C448007830B9C6480078B6
:1013A00018B10120C54981F82C00002405E0BF4890
:1013B000005DC0490855601CC4B2072CF7DD32201F
:1013C00002F0C1F877E72DED028B35E0BC480078DC
:1013D00080B9BC4801880088401CBA4A108028297E
:1013E00002DD0120B64908709FEDA90AB64880EDDC
:1013F000000A1EE0042008F02AFE10EE104A2046E3
:101400002CF0B4FB41EC180B1FED810B53EC102BAF
:101410002CF0B4F902D2AC48046004E01FED7C0A61
:10142000A94880ED000AA84890ED000A26F080F94E
:1014300000BF0A2002F087F8C8E702E0322002F07D
:1014400082F8FBE702E00A2002F07DF8FBE794B0A7
:1014500001F044BF9D4801780078401C9B4A107001
:10146000022906DD002011460870994800780FF027
:101470009AFF964841784078401C944A507005295C
:1014800004DD0020114648700CF028FE4FF020517A
:10149000904804F068FA002801F0D4864FF02051FB
:1014A0008C4804F07CFA00208B4908700EF0A9F9F2
:1014B000864881788078401C844A9070012941F3E5
:1014C000B8860020114688706F4890F841000028C7
:1014D0007ED082480068824988427AD1814890ED66
:1014E000150AB5EEC00AF1EE10FA60D06F48C07967
:1014F000E8B30020089009900A90014602460B903C
:10150000794890ED060ADFED790A20EE200ABDEE5B
:10151000C00A10EE100A00B20023CDE90430CDE974
:101520000621734890ED050AB1EE400AF2EE040A76
:1015300020EE200ABDEEC00A10EE100A01B2694882
:1015400090ED010AB1EE400AF2EE040A20EE200A04
:10155000BDEEC00A10EE100A00B2664A92ED000A13
:10156000B1EE400AF2EE040A20EE200A00E01EE08E
:10157000BDEEC00A10EE102A12B2CDE90023CDE96B
:1015800002015D4890ED000AB1EE400AF2EE040A55
:1015900020EE200ABDEEC00A10EE100A00B21A4674
:1015A00001461390184610F027FA01F042BE0020C1
:1015B000089009900A90014602460B904A4890ED27
:1015C000060AF2EE040A20EE200ABDEEC00A01E08F
:1015D00028E13AE010EE100A00B20023CDE9043011
:1015E000CDE90621454890ED050AB1EE400ABDEE71
:1015F000C00A10EE100A01B2414890ED010AB1EEA6
:10160000400ABDEEC00A10EE100A00B23D4A92ED4B
:101610000D0AB1EE400ABDEEC00A10EE102A12B259
:10162000CDE90023CDE90201374890ED000AB1EE83
:10163000400ABDEEC00A10EE100A00B21A4601467A
:101640001390184610F0D8F9AFE71848C079B0B138
:101650000020089009900A90014602460B9022480B
:1016600090ED060ADFED210A20EE200ABDEEC00A49
:1016700010EE100A00B20023CDE9043046E086E007
:101680009A9999999999B93FA06A00209B000020E6
:101690000AD7A33C00020020FC0100201C0200200D
:1016A0001B02002017020020C80100200F020020AA
:1016B0009C6900209E0000204806002010030020A6
:1016C000AC000020AE00002070000020B20000201E
:1016D00076000020B8640240F8020020AC1200201E
:1016E0002E005100BC8C0020B89300200000C8429E
:1016F000B88F002050000020448E0020B8910020B8
:10170000F88B00207C760020748E0020CDE9062125
:10171000FE4890ED050AB1EE400AF2EE040A20EE12
:10172000200ABDEEC00A10EE100A00B2F84991ED91
:10173000010AB1EE400AF2EE040A20EE200ABDEEE4
:10174000C00A10EE101A09B2F24A92ED000AF2EE47
:10175000040A20EE200ABDEEC00A10EE102A12B2D2
:10176000CDE90023CDE90210EB4890ED010AF2EE3D
:10177000040A20EE200ABDEEC00A10EE100A00B2E4
:101780001A4601461390184610F036F90DE700206E
:10179000089009900A90014602460B90DF4890EDB0
:1017A000060AF2EE040A20EE200ABDEEC00A10EE90
:1017B000100A00B20023CDE90430CDE90621D84853
:1017C00090ED050AB1EE400ABDEEC00A10EE100A17
:1017D00000B2D44991ED010AB1EE400ABDEEC00A53
:1017E00010EE101A09B2D04A92ED0D0AB1EE400A7D
:1017F000BDEEC00A10EE102A12B2CDE90023CDE9E9
:101800000210CA4890ED000AB1EE400ABDEEC00ACF
:1018100010EE100A00B21A4601461390184610F056
:10182000EBF8C2E6C24890F8240018B9C148007825
:10183000002867D0C04800682CF098F99FEDBF0BD6
:1018400053EC102BCDE90E019DED0E0B51EC100B5E
:101850002BF096FECDE910019DED100B51EC100B15
:101860002BF0F8FD00B21390B64800682CF07EF91A
:101870009FEDB20B53EC102BCDE90E019DED0E0B3D
:1018800051EC100B2BF07CFECDE910019DED100BFF
:1018900051EC100B2BF0DEFD00B2129000200890EE
:1018A00009900A9003460B90A14A128C12B2DDE90E
:1018B0001201CDE90613CDE904209D48808B00B2CA
:1018C0009B49098B09B29A4A928A12B2984B1B8A99
:1018D0001BB2CDE90032CDE902109548808900B2F3
:1018E00011909348008900B210909148808800B20E
:1018F0000F908F48008800B20E900FA90EC910F00B
:101900007BF852E6904800781A2881F09084DFE84E
:1019100010F01A00CD007B018E0C09027D02F1024D
:10192000BB03F1035E04CD048E0C8305F40575063C
:101930008E0CEA065C0700087708EE086F091E0A9D
:10194000AF0A2F0B0A0C814800682CF00FF99FEDAD
:10195000800B53EC102BCDE90C019DED0C0B51ECE1
:10196000100B2BF00DFECDE90E019DED0E0B51EC91
:10197000100B2BF06FFD00B21390664800682CF03E
:10198000F5F89FED730B53EC102BCDE90C019DED99
:101990000C0B51EC100B2BF0F3FDCDE90E019DED7E
:1019A0000E0B51EC100B2BF055FD00B212906A4853
:1019B00090ED000AF2EE040A80EE201ABDEEC10A94
:1019C00010EE100A00B21190644800680A2190FBE2
:1019D000F1F000B200211090614890ED000ABDEED8
:1019E000C00A10EE100A00B2CDE908010A910B916D
:1019F0005C48DDE9122190ED000AF2EE040A20EEC7
:101A0000200ABDEEC00A10EE100A00B20023CDE994
:101A10000430CDE90621544890ED000A5FEDCD0A6F
:101A200020EE200ABDEEC00A10EE100A01B24F4AA5
:101A3000119892ED000A5FEDD30A20EE200ABDEE68
:101A4000C00A10EE102A12B2CDE90231CDE9002011
:101A5000454890ED000A5FEDDB0A20EE200ABDEE5E
:101A6000C00A10EE100A00B20F90414890ED000A33
:101A70005FEDE20A20EE200ABDEEC00A10EE100A69
:101A800000B20E903B4890ED000A5FEDE80A20EEB0
:101A9000200ABDEEC00A10EE100A00B20D90DDE97A
:101AA0000E2310990FF0A8FF01F0C2BB3248006866
:101AB0002CF05CF89FED260B53EC102BCDE90C01BC
:101AC0009DED0C0B51EC100B2BF05AFDCDE90E01E6
:101AD0009DED0E0B51EC100B2BF0BCFC00B21390E3
:101AE000264800682CF042F89FED190B53EC102BA0
:101AF000CDE90C019DED0C0B51EC100B2BF040FDD2
:101B0000CDE90E019DED0E0B3AE00000B88F0020EC
:101B1000BC8C00204C000020448E0020B893002094
:101B2000B8910020F88B00207C760020748E002075
:101B3000F86A00207500002040000020000000002E
:101B40000088C340200000207400002050000020C6
:101B500000000000000024400008002028050020AC
:101B600054060020540000207C0F0020740F002039
:101B7000780F0020680F0020240E0020280E00207F
:101B800051EC100B2BF066FC00B21290FE4800687E
:101B90002BF0ECFF1FED120B53EC102BCDE90C01D9
:101BA0009DED0C0B51EC100B2BF0EAFCCDE90E0176
:101BB0009DED0E0B51EC100B2BF04CFC00B2119074
:101BC0000020089009900A900B900023DDE9122173
:101BD0001198CDE90430CDE90621EC48B0F8480071
:101BE00000B2EA49B1F8541009B2CDE90013CDE9C9
:101BF0000203E648B0F85C0000B21A4601461090B5
:101C000018460FF0F9FE4FE7E14840680B902BF0C3
:101C1000ADFF1FED310B53EC102BCDE90C019DED09
:101C20000C0B51EC100B2BF0ABFCCDE90E019DED34
:101C30000E0B51EC100B2BF00DFC00B21390D4489E
:101C4000016808460B912BF091FF1FED3F0B53EC01
:101C5000102BCDE90C019DED0C0B51EC100B2BF072
:101C60008FFCCDE90E019DED0E0B51EC100B2BF00E
:101C7000F1FB00B21290C74890ED000AF2EE040AA0
:101C800080EE201ABDEEC10A10EE100A00B21190CB
:101C9000C14890ED000AF2EE040A80EE201ABDEE73
:101CA000C10A10EE100A00B21090002008900990AE
:101CB0000A900B90B64890ED020AF2EE040A20EE6C
:101CC000200ABDEEC00A10EE100A01B20023DDE9C1
:101CD0001202CDE90430CDE906211A46AA4890ED5A
:101CE000000AF2EE040A20EE200ABDEEC00A10EE51
:101CF000100A00B2A94991ED000AB1EE400ADFEDE9
:101D0000A80A20EE200ABDEEC00A10EE101A09B291
:101D1000CDE90013CDE902021846DDE910120FF0FB
:101D20006BFEC1E69F48D0F8DC000D902BF01EFF43
:101D30001FED790B53EC102BCDE90E019DED0E0B31
:101D400051EC100B2BF01CFCCDE910019DED100B9C
:101D500051EC100B2BF07EFB00B2139092484168BF
:101D600008460D912BF002FF1FED870B53EC102B53
:101D7000CDE90E019DED0E0B51EC100B2BF000FC8C
:101D8000CDE910019DED100B51EC100B2BF062FB17
:101D900000B212900020089009900A9002460B9021
:101DA0000023DDE91201CDE90430CDE906127D48BA
:101DB00090ED260AF2EE040A20EE200ABDEEC00ADB
:101DC00010EE100A00B2774991ED3F0AF2EE040AD4
:101DD00020EE200ABDEEC00A10EE101A09B2CDE9BD
:101DE0000013CDE90230714890ED130AF2EE040AB7
:101DF00020EE200ABDEEC00A10EE100A00B21A460C
:101E00000146119018460FF0F7FD4DE66848D0F8EE
:101E1000DC000D902BF0AAFE1FEDB30B53EC102B42
:101E2000CDE90E019DED0E0B51EC100B2BF0A8FB34
:101E3000CDE910019DED100B51EC100B2BF00AFBBE
:101E400000B213905B48416808460D912BF08EFE5E
:101E50001FEDC10B53EC102BCDE90E019DED0E0BC8
:101E600051EC100B2BF08CFBCDE910019DED100B0C
:101E700051EC100B2BF0EEFA00B2129000200890FB
:101E800009900A9002460B900023DDE91201CDE98A
:101E90000430CDE90612464890ED260AF2EE040A17
:101EA00020EE200ABDEEC00A10EE100A01B2404832
:101EB00090ED3F0AF2EE040A20EE200ABDEEC00AC1
:101EC00010EE100A00B2CDE900033B48CDE9023123
:101ED00090ED130AF2EE040A20EE200ABDEEC00ACD
:101EE00010EE100A00B21A460146119018460FF083
:101EF00083FDD9E5314800682BF038FE1FEDEC0B6F
:101F000053EC102BCDE90E019DED0E0B51EC100B97
:101F10002BF036FBCDE910019DED100B51EC100BB1
:101F20002BF098FA00B21390254800682BF01EFEA3
:101F30001FEDF90B53EC102BCDE90E019DED0E0BAF
:101F400051EC100B2BF01CFBCDE910019DED100B9B
:101F500051EC100B2BF07EFA00B2002112901948C0
:101F600090ED000ABDEEC00A10EE100A00B2CDE9F5
:101F700008010A910B91044ADDE9120192ED000A71
:101F8000F2EE040A20E000002C0E00203C6A002043
:101F90009CB7002000080020800700205C0F002074
:101FA0000000C842B8930020448E0020BC8C002062
:101FB000B8950020748E0020F88B0020240E00209D
:101FC000280E00205406002020EE200ABDEEC00A94
:101FD00010EE102A12B2FE4B93ED050A5FED100AC7
:101FE00020EE200ABDEEC00A10EE103A1BB2CDE979
:101FF0000432CDE90601F64890ED040A5FED180AB7
:1020000020EE200ABDEEC00A10EE100A01B2002335
:10201000EF4890ED050A5FED1E0A20EE200ABDEEA6
:10202000C00A10EE100A00B2E94A92ED030A5FED11
:10203000240A20EE200ABDEEC00A10EE102A12B2C9
:10204000CDE90231CDE90020E14890ED040A5FEDD1
:102050002C0A20EE200ABDEEC00A10EE100A00B2D3
:102060001190DB4890ED020A5FED330A20EE200A62
:10207000BDEEC00A10EE100A00B2109001461846DC
:10208000119A0FF0B9FC0FE50020089009900A9012
:1020900002460B90CF48808800B2CE49098809B229
:1020A0000023CDE90431CDE90602CB48808B00B294
:1020B000C949098B09B2C84A928A12B2C64B1B8A17
:1020C0001BB2CDE90032CDE90210C348808900B2CD
:1020D0001390C148008900B21290BF48808800B2B6
:1020E0001190BD48008800B2109011A90EC90FF0E0
:1020F00083FCD9E4B948D0F85C010D902BF036FD93
:102100009FEDB70B53EC102BCDE90E019DED0E0B9F
:1021100051EC100B2BF034FACDE910019DED100BB2
:1021200051EC100B2BF096F900B21390AE480068FA
:102130002BF01CFD9FEDAA0B53EC102BCDE90E01EB
:102140009DED0E0B51EC100B2BF01AFACDE910019E
:102150009DED100B51EC100B2BF07CF900B212909E
:102160000020089009900A9002460B900023DDE9B8
:102170001201CDE90430CDE906129C4890ED040A25
:10218000BDEEC00A10EE100A00B2944991ED5F0A4C
:10219000BDEEC00A10EE101A09B2CDE90013CDE968
:1021A0000230934890ED000ABDEEC00A10EE100A0E
:1021B00000B2024611908F4890ED000ABDEEC00AB1
:1021C00010EE100A01B218460FF016FC6CE48348BA
:1021D000D0F85C010D902BF0C9FC9FED810B53EC06
:1021E000102BCDE90E019DED0E0B51EC100B2BF0D9
:1021F000C7F9CDE910019DED100B51EC100B2BF040
:1022000029F900B21390784800682BF0AFFC9FEDDD
:10221000740B53EC102BCDE90E019DED0E0B51EC20
:10222000100B2BF0ADF9CDE910019DED100B51EC29
:10223000100B2BF00FF900B21290002008900990BB
:102240000A9002460B900023DDE91201CDE904302B
:10225000CDE90612654890ED040ABDEEC00A10EE05
:10226000100A00B25D4991ED5F0ABDEEC00A10EEA2
:10227000101A09B2CDE90013CDE902305E4890EDA5
:10228000010ABDEEC00A10EE100A00B211905A48C1
:1022900090ED000ABDEEC00A10EE100A00B21090D8
:1022A00001461846119A0FF0A7FBACE44B48D0F852
:1022B0005C010D902BF05AFC9FED490B53EC102B59
:1022C000CDE90E019DED0E0B51EC100B2BF058F9E2
:1022D000CDE910019DED100B51EC100B2BF0BAF86D
:1022E00000B21390404800682BF040FC9FED3C0B7F
:1022F00053EC102BCDE90E019DED0E0B51EC100BA4
:102300002BF03EF9CDE910019DED100B51EC100BB7
:102310002BF0A0F800B212900020089009900A90CB
:1023200003460B90354ADDE9120192ED020AF2EE06
:10233000040A20EE200ABDEEC00A10EE102A12B2E6
:10234000CDE90613CDE904202D4890ED000AF2EE08
:10235000040A20EE200ABDEEC00A10EE100A00B2F8
:102360000023264991ED000AF2EE040A20EE200A2D
:10237000BDEEC00A10EE101A09B2224A92ED000A10
:10238000F2EE040A20EE200ABDEEC00A10EE102A7A
:1023900012B2CDE9011300920390184890ED010AA2
:1023A000F2EE040A20EE200ABDEEC00A10EE100A7A
:1023B00000B21190144890ED000AF2EE040A20EEEB
:1023C000200ABDEEC00A10EE100A00B210901DE007
:1023D0003C6A00208011002054B90020B8950020EC
:1023E000000000000000244098070020B89700205B
:1023F000F4970020100800208C0800207817002097
:102400002C0E0020240E0020280E00200146184625
:10241000119A0FF0F1FA84E4FE48D0F85C010D90B7
:102420002BF0A4FB1FED120B53EC102BCDE90E018A
:102430009DED0E0B51EC100B2BF0A2F8CDE9100125
:102440009DED100B51EC100B2BF004F800B2139023
:10245000F148816808460D912BF088FB1FED200B99
:1024600053EC102BCDE90E019DED0E0B51EC100B32
:102470002BF086F8CDE910019DED100B51EC100BFF
:102480002AF0E8FF00B212900020089009900A900C
:1024900003460B90E14ADDE9120192ED010AF2EEEA
:1024A000040A20EE200ABDEEC00A10EE102A12B275
:1024B000CDE90613CDE90420D84890ED000AF2EEEC
:1024C000040A20EE200ABDEEC00A10EE100A01B286
:1024D0000022D348008AB23800B2CDE90020D048AB
:1024E000CDE902218089A03800B2134602460021BE
:1024F000119008460FF080FA13E4C648D0F85C014A
:102500000B902BF033FB1FED4A0B53EC102BCDE956
:102510000C019DED0C0B51EC100B2BF031F8CDE9BB
:102520000E019DED0E0B51EC100B2AF093FF00B243
:102530001390B948816808460B912BF017FB1FEDEB
:10254000580B53EC102BCDE90C019DED0C0B51EC0D
:10255000100B2BF015F8CDE90E019DED0E0B51EC93
:10256000100B2AF077FF00B21FED630B53EC102B1A
:102570001290AC4890ED000B51EC100B2BF000F8D2
:10258000CDE90E019DED0E0B51EC100B2AF062FF10
:1025900000B21FED6D0B53EC102B1190A24890ED83
:1025A000000B51EC100B2AF0EBFFCDE90E019DED75
:1025B0000E0B51EC100B2AF04DFF00B210900020D2
:1025C000089009900A9003460B9011A807C8CDE91E
:1025D0000623CDE904010021944890ED120ABDEED6
:1025E000C00A10EE100A00B2CDE9001002910B46AD
:1025F00003910846109A0FF0FFF906E48548D0F8D9
:102600005C010D902BF0B2FA1FED8B0B53EC102BED
:10261000CDE90E019DED0E0B51EC100B2AF0B0FF31
:10262000CDE910019DED100B51EC100B2AF012FFBB
:1026300000B213907848816808460D912BF096FA05
:102640001FED990B53EC102BCDE90E019DED0E0BF8
:1026500051EC100B2AF094FFCDE910019DED100B09
:1026600051EC100B2AF0F6FE00B2129000200890F8
:1026700009900A9003460B906D4ADDE9120192ED34
:10268000000ABDEEC00A10EE102A12B2CDE9061300
:10269000CDE90420674890ED000ABDEEC00A10EEB7
:1026A000100A00B20022644991ED000ADFED630ACE
:1026B00020EE200ABDEEC00A10EE101A09B2CDE9D4
:1026C00000211346CDE902205D48008802B25D4832
:1026D00090ED000ABDEEC00A10EE100A01B2002013
:1026E0000FF08AF905E44B48D0F85C010D902BF00F
:1026F0003DFA1FEDC50B53EC102BCDE90E019DEDFE
:102700000E0B51EC100B2AF03BFFCDE910019DEDB3
:10271000100B51EC100B2AF09DFE00B213903E48B6
:10272000816808460D912BF021FA1FEDD30B53EC75
:10273000102BCDE90E019DED0E0B51EC100B2AF084
:102740001FFFCDE910019DED100B51EC100B2AF08D
:1027500081FE00B212900020089009900A90034672
:102760000B90354ADDE9120192ED000ADFED330AE4
:1027700020EE200ABDEEC00A10EE102A12B2CDE9FA
:102780000613CDE90420304890ED000ABDEEC00AE2
:1027900010EE100A00B200222C4991ED000ADFED84
:1027A000270A20EE200ABDEEC00A10EE101A09B268
:1027B000CDE900211346CDE902202148008802B26C
:1027C000002108460FF018F911E21248D0F85C0118
:1027D0000D902BF0CBF99FED1E0B53EC102BCDE998
:1027E0000E019DED0E0B51EC100B2AF0C9FECDE948
:1027F00010019DED100B51EC100B2AF02BFE00B2D6
:1028000013900548816808460D912BF0AFF99FEDB4
:10281000100B21E0B8950020781700208C080020CC
:10282000589C0020B8060020B0060020F88B00203D
:102830008007002098070020680F002000007A44DD
:10284000A405002074070020880700206C0F0020DA
:10285000000000000000244053EC102BCDE90E01D5
:102860009DED0E0B51EC100B2AF08AFECDE9100104
:102870009DED100B51EC100B2AF0ECFD00B2129004
:102880000020089009900A9003460B90FE4ADDE96B
:10289000120192ED010AF2EE040A20EE200ABDEECA
:1028A000C00A10EE102A12B2CDE90613CDE90420B9
:1028B000F54890ED000AF2EE040A20EE200ABDEE83
:1028C000C00A10EE100A00B20022F04991ED010A90
:1028D000F2EE040A20EE200ABDEEC00A10EE101A35
:1028E00009B2CDE90021CDE90220E84890ED000AC7
:1028F000F2EE040A20EE200ABDEEC00A10EE100A25
:1029000000B2002302461946119018460FF074F8E1
:102910006DE1DF4800682BF029F91FED330B53EC14
:10292000102BCDE90E019DED0E0B51EC100B2AF092
:1029300027FECDE910019DED100B51EC100B2AF094
:1029400089FD00B21390D34800682BF00FF91FEDFA
:10295000400B53EC102BCDE90E019DED0E0B51EC0D
:10296000100B2AF00DFECDE910019DED100B51EC7E
:10297000100B2AF06FFD00B200211290C64890EDB6
:10298000000ABDEEC00A10EE100A00B2CDE908013F
:102990000A910B91C14ADDE9120192ED000AF2EEB3
:1029A000040A20EE200ABDEEC00A10EE102A12B270
:1029B0000023CDE90432CDE90601B94890ED010AC2
:1029C000F2EE040A20EE200ABDEEC00A10EE100A54
:1029D00000B2CDE900300293B148039390ED000AB4
:1029E000F2EE040A20EE200ABDEEC00A10EE100A34
:1029F00000B202461946119018460EF0FDFFF6E0AF
:102A0000A34800682BF0B2F81FED6F0B53EC102BAE
:102A1000CDE90E019DED0E0B51EC100B2AF0B0FD2F
:102A2000CDE910019DED100B51EC100B2AF012FDB9
:102A300000B21390974800682BF098F81FED7C0BBC
:102A400053EC102BCDE90E019DED0E0B51EC100B4C
:102A50002AF096FDCDE910019DED100B51EC100B05
:102A60002AF0F8FC00B2002112908B4890ED000A89
:102A7000BDEEC00A10EE100A00B2CDE908010A91BD
:102A80000B91864ADDE9120192ED000AF2EE040A8A
:102A900020EE200ABDEEC00A10EE102A12B200236A
:102AA000CDE90432CDE906017E4890ED010ADFED63
:102AB0007E0A20EE200ABDEEC00A10EE100A00B217
:102AC000CDE9003002937948039390ED010ADFEDE0
:102AD000760A20EE200ABDEEC00A10EE100A00B2FF
:102AE00002461946119018460EF086FFA0E368488A
:102AF00000682BF03BF81FEDAA0B53EC102BCDE92F
:102B00000E019DED0E0B51EC100B2AF039FDCDE9B5
:102B100010019DED100B51EC100B2AF09BFC00B244
:102B200013905C4800682BF021F81FEDB70B53ECB5
:102B3000102BCDE90E019DED0E0B51EC100B2AF080
:102B40001FFDCDE910019DED100B51EC100B2AF08B
:102B500081FC00B2002112904F4890ED000ABDEEBA
:102B6000C00A10EE100A00B2CDE908010A910B91DB
:102B70004A48DDE9122190ED000AF2EE040A20EE47
:102B8000200ABDEEC00A10EE100A00B2484B93EDC9
:102B9000000ABDEEC00A10EE103A1BB2CDE90430B7
:102BA000CDE90621434890ED040ABDEEC00A10EEBF
:102BB000100A01B20023404890ED510ABDEEC00A50
:102BC00010EE100A00B23D4AB2F90420CDE90231FC
:102BD000CDE900203948B0F9000011903748B0F92C
:102BE0000200109001461846119A0EF005FF1FE3EF
:102BF000274800682AF0BAFF1FEDEB0B53EC102BAF
:102C0000CDE90E019DED0E0B51EC100B2AF0B8FC36
:102C1000CDE910019DED100B51EC100B2AF01AFCC0
:102C200000B213901B4800682AF0A0FF1FEDF80BBC
:102C300053EC102BCDE90E019DED0E0B51EC100B5A
:102C40002AF09EFCCDE910019DED100B51EC100B0C
:102C50002AF000FC00B2002112900F4890ED000A0B
:102C6000BDEEC00A10EE100A00B2CDE908010A91CB
:102C70000B910A4ADDE9120192ED000AF2EE040A14
:102C800020EE200A1CE00000448E0020A408002052
:102C9000240E0020280E0020540600202C0E0020B8
:102CA00078170020BC0800200000C842B4080020AB
:102CB00010080020B8970020B895002084690020F3
:102CC000BDEEC00A10EE102A12B20023CDE9043284
:102CD000CDE906011A46FE4890ED030ADFEDFD0A34
:102CE00020EE200ABDEEC00A10EE100A00B2F8492C
:102CF00091ED020ADFEDF70A20EE200ABDEEC00AD0
:102D000010EE101A09B2CDE90232CDE90010F048F8
:102D100090ED010ADFEDEF0A20EE200ABDEEC00AB9
:102D200010EE100A00B21190E94890ED000ADFEDB4
:102D3000E90A20EE200ABDEEC00A10EE100A00B229
:102D4000109001461846119A0EF056FE70E2E248C5
:102D500000682AF00BFF9FEDE10B53EC102BCDE93F
:102D60000E019DED0E0B51EC100B2AF009FCCDE984
:102D700010019DED100B51EC100B2AF06BFB00B213
:102D80001390D84800682AF0F1FE9FEDD40B53EC65
:102D9000102BCDE90E019DED0E0B51EC100B2AF01E
:102DA000EFFBCDE910019DED100B51EC100B2AF05B
:102DB00051FB00B200211290CB4890ED000ABDEE0D
:102DC000C00A10EE100A00B2CDE908010A910B9179
:102DD000C64ADDE9120192ED000AF2EE040A20EE85
:102DE000200ABDEEC00A10EE102A12B20023CDE96F
:102DF0000432CDE906011A46B54890ED030ADFED2D
:102E0000BC0A20EE200ABDEEC00A10EE100A00B285
:102E1000B84991ED010AF7EE000A20EE200ABDEE56
:102E2000C00A10EE101A09B2CDE90232CDE9001045
:102E3000A74890ED010ADFEDAE0A20EE200ABDEEB4
:102E4000C00A10EE100A00B21190AA4890ED000AD4
:102E5000F7EE000A20EE200ABDEEC00A10EE100ABE
:102E600000B2109001461846119A0EF0C5FDDFE140
:102E7000994800682AF07AFE9FED980B53EC102BCE
:102E8000CDE90C019DED0C0B51EC100B2AF078FBF9
:102E9000CDE90E019DED0E0B51EC100B2AF0DAFA84
:102EA00000B213908F4800682AF060FE9FED8B0BF4
:102EB00053EC102BCDE90C019DED0C0B51EC100BDC
:102EC0002AF05EFBCDE90E019DED0E0B51EC100BCF
:102ED0002AF0C0FA00B21290874890ED000AF2EE94
:102EE000040A80EE201ABDEEC10A10EE100A00B2EC
:102EF0001190824890ED000AF2EE040A80EE201A4A
:102F0000BDEEC10A10EE100A00B200211090764802
:102F100090ED000ABDEEC00A10EE100A00B2CDE935
:102F200008010A910B917148DDE9122190ED000A28
:102F3000F2EE040A20EE200ABDEEC00A10EE100ADE
:102F400000B20023CDE90430CDE90621DDE910010E
:102F50008DE80B006A48039390ED000ABDEEC00AAD
:102F600010EE100A02B2002108460EF045FD5FE1A6
:102F7000594800682AF0FAFD9FED580B53EC102BCE
:102F8000CDE90C019DED0C0B51EC100B2AF0F8FA79
:102F9000CDE90E019DED0E0B51EC100B2AF05AFA03
:102FA00000B213904F4800682AF0E0FD9FED4B0BF4
:102FB00053EC102BCDE90C019DED0C0B51EC100BDB
:102FC0002AF0DEFACDE90E019DED0E0B51EC100B4F
:102FD0002AF040FA00B212904A4890ED000B8DEDB5
:102FE0000C0B9FED3E0B53EC102B9DED0C0B51EC9D
:102FF000100B2AF0C5FACDE90E019DED0E0B51EC38
:10300000100B2AF027FA00B200211190364890EDFB
:10301000000ABDEEC00A10EE100A00B2CDE90801A8
:103020000A910B913848DDE9121290ED000AF2EE98
:10303000040A20EE200ABDEEC00A10EE100A00B20B
:103040000023CDE90430CDE90612304890ED000AA6
:10305000F2EE040A20EE200ABDEEC00A10EE100ABD
:1030600000B211990093CDE901310390284890ED09
:10307000030AF2EE040A20EE200ABDEEC00A10EEAA
:10308000100A00B21090224890ED010AF2EE040AF4
:1030900020EE200ABDEEC00A10EE100A00B20F901A
:1030A0001B4890ED000AF2EE040A20EE200ABDEE65
:1030B000C00A10EE100A00B20E90154890ED040AF6
:1030C000F2EE040A20EE200ABDEEC00A22E0000063
:1030D000206B002000007A44240E00200000000035
:1030E00000002440280E0020540600202C0E002052
:1030F0000000000048B90020980700208007002049
:10310000A0070020C8B7002054000020C80E0020EF
:103110009CB7002010EE100A00B20D900EA90EC947
:103120000EF06AFC84E0A94800682AF01FFD1FED3C
:10313000150B53EC102BCDE90E019DED0E0B51EC50
:10314000100B2AF01DFACDE910019DED100B51EC8A
:10315000100B2AF07FF900B213909D4800682AF006
:1031600005FD1FED220B53EC102BCDE90E019DED5B
:103170000E0B51EC100B2AF003FACDE910019DED76
:10318000100B51EC100B2AF065F900B200211290DF
:10319000904890ED000ABDEEC00A10EE100A00B291
:1031A000CDE908010A910B918B4ADDE9120192EDFC
:1031B000000AF2EE040A20EE200ABDEEC00A10EE6C
:1031C000102A12B20023CDE90432CDE9060183486A
:1031D00090ED010ADFED820A20EE200ABDEEC00A62
:1031E00010EE100A00B21A467E4991ED000A5FED1A
:1031F000470A20EE200ABDEEC00A10EE101A09B2EE
:10320000CDE90031CDE90220774890ED000A5FED6D
:103210004F0A20EE200ABDEEC00A10EE100A00B2DE
:1032200002461946119018460EF0E6FB00E000BF7A
:1032300000BF012280216D4801F03CF962216C48F9
:1032400006F0E4FC6B48C178C078401C694AD07035
:10325000012940DD00201146C8706749674802F027
:1032600082FBC0B36449654802F099FB644800786A
:10327000052826D2DFE800F0030A11181E000120FD
:103280005F49087000200FF02AFA1AE002205C491A
:10329000087003200FF023FA13E003205849087048
:1032A00001200FF01CFA0CE00420554908700FF0C3
:1032B00016FA06E000205249087005200FF00FFAB8
:1032C00000BF00BF012280214E4801F0F3F84221E7
:1032D0004A4806F09BFC052000F035F9FEF7BAB825
:1032E0002DED028B58E006F0EBFD11F061F807F0D0
:1032F00009FC4548007850B94448007838B10120AD
:1033000043498870C87000204870087003E006F0D8
:103310004BFF07F063F83F4908680968491C3D4BBB
:1033200019602AF0DDF841EC180B9FED3B0B53ECD4
:10333000102B2AF023FA02D20020394908703949AB
:10334000887D897D491C374B99752AF0C9F841EC75
:10335000180B9FED310B53EC102B2AF00FFA02D211
:10336000002030494875304890ED000AB5EEC00A9B
:10337000F1EE10FA03D02D4890F8220020B1012080
:103380002A4981F82D0003E00020284981F82D000A
:103390004FF4FA7000F0D7F8A5E7254A1278052A0D
:1033A00004D10022234B1A80214B1A70214A128823
:1033B000214B1B781A441F4B1A801D4A1278521C4D
:1033C0001B4B1A707047704770470000240E002096
:1033D000280E0020540600202C0E002040B80020AB
:1033E0000000C842300200203402002000100140DA
:1033F000B8640240B200002020000020706002404B
:10340000B6000020004C0040C80100204806002003
:1034100070010020D00200200000000000002040C9
:10342000D4020020589C00204C980020A06A002064
:10343000B700002084000020F000002009488047E9
:1034400009480047FEE7FEE7FEE7FEE7FEE7FEE786
:10345000FEE7FEE7FEE7FEE704480549054A064B9E
:10346000704700007936000889010008D8B90020AB
:10347000D8BF0020D8BB0020D8BB0020704700BFB9
:10348000FEE700BFFEE700BFFEE700BFFEE77047B4
:103490007047000010B502F042FC02F086FD02F019
:1034A00059FC10BD70B504466FF0040000F0D0F96F
:1034B000E11704EB5171C1F3C701344A1170E117F0
:1034C00004EB5171CD1041F288304543052030495D
:1034D00008804FF0E020006940F002004FF0E0214A
:1034E000086108464561006940F00100086170BD4F
:1034F0002DE9F047074600264FF0E020D0F8149061
:103500002248007807FB00F800BF02F05BFC4FF098
:10351000E020856911E04FF0E0208469AC420CD0D6
:10352000AC4202D2281B064403E0A9EB0400284465
:1035300006442546464500D300E0ECE700BF02F014
:1035400086FCBDE8F08770B5044612480078012873
:1035500014D11148007888B90D480088844206DBF0
:103560000B48008894FBF0F5284604F069FD0848F4
:10357000008894FBF0F100FB114084B24FF47A71A3
:1035800004FB01F0FFF7B4FF70BD0000BA0000209B
:10359000BC0000200A010020FE0000200CB5002025
:1035A000019000907648006840F4803074490860CB
:1035B00000BF7348006800F4003000900198401C80
:1035C0000190009818B90198B0F5A04FF1D16C485E
:1035D000006800F4003010B10120009001E00020EC
:1035E00000900098012846D165484030006840F0BE
:1035F00080506349403108606248006840F44040B0
:10360000604908605E48083000685D49083108601C
:103610000846006840F4004008600846006840F42E
:10362000A05008605848091F0860081F006840F053
:103630008070091F086000BF5148006800F00070EA
:103640000028F9D040F20570504908604C48083015
:10365000006820F003004A49083108600846006805
:1036600040F00200086000BF45480830006800F0E4
:103670000C000828F8D10CBD10B54548006840F48E
:103680007000434908603E48006840F001003C4932
:10369000086000203A4908310860394800683D490F
:1036A0000840374908603C48091D0860081F006849
:1036B00020F48020091F0860002031490C31086087
:1036C000FFF76CFF4FF0006031498039086010BD92
:1036D00070B500200022022300240221284D083565
:1036E0002D6805F00C0020B1042806D0082834D13C
:1036F00007E02A4D2A4E356033E02A4D284E3560CA
:103700002FE01F4D2D1D2D68C5F380541C4D2D1D20
:103710002D6805F03F0154B1224DB5FBF1F5184E6F
:10372000361D3668C6F3881605FB06F209E01B4D08
:10373000B5FBF1F5124E361D3668C6F3881605FB4B
:1037400006F20F4D2D1D2D68C5F301456D1C6B0054
:10375000B2FBF3F5124E356003E0104D104E3560AC
:1037600000BF00BF064D08352D68C5F303150E4E8A
:10377000705D0B4D2D68C540094E356070BD000071
:10378000003802400070004008544007003C0240EE
:1037900088ED00E0FFFFF6FE103000240024F40066
:1037A000C000002000127A00C4000020324901430A
:1037B000324A1160704770B5002100230F22C4788F
:1037C0001CB32E4C246804F4E064C4F5E064C4F334
:1037D0000721C1F10404E3B20A4144789C40E1B2FC
:1037E0008478144021430C07210E254C057861553F
:1037F000047804F01F050124AC4005786D11AD007C
:1038000005F1E025C5F8004109E0047804F01F0542
:103810000124AC401B4D0678761145F8264070BD5A
:10382000194A0A400243154B1B1F1A60704739B1F1
:10383000124A121D12680243104B1B1D1A6006E04B
:103840000E4A121D126882430C4B1B1D1A607047F2
:10385000042808D14FF0E021096941F004014FF03C
:10386000E022116107E04FF0E021096921F0040135
:103870004FF0E022116170470000FA050CED00E006
:1038800000E400E080E100E080FFFF1F10B5044687
:103890009848844208D10121084600F086FB0021A7
:1038A000012000F082FB76E09348844208D1012198
:1038B000022000F07AFB0021022000F076FB6AE093
:1038C0008E48844208D10121042000F06EFB0021C3
:1038D000042000F06AFB5EE08948844208D101219F
:1038E000082000F062FB0021082000F05EFB52E09F
:1038F0008448844208D10121102000F056FB0021A9
:10390000102000F052FB46E07F48844208D101219C
:10391000202000F04AFB0021202000F046FB3AE086
:103920007A48844208D10121402000F03EFB00216A
:10393000402000F03AFB2EE07548844208D1012176
:10394000802000F032FB0021802000F02EFB22E0DE
:103950007048844208D10121801500F026FB002127
:10396000A01500F022FB16E06B48844208D101212B
:10397000401500F01AFB0021601500F016FB0AE06C
:103980006648844207D10121001500F00EFB00219A
:10399000201500F00AFB10BDF0B50A4600210023F7
:1039A000002400BF3DE0012505FA01F3156805EA92
:1039B00003049C4234D105684F000326BE40B54342
:1039C000056015794E00B5400668354305601579E8
:1039D000012D02D01579022D16D185684F000326DE
:1039E000BE40B543856055794E00B5408668354385
:1039F0008560456801268E40B543456045689679E7
:103A00008E40B6B235434560C5684F000326BE40C0
:103A1000B543C560D5794E00B540C6683543C5602D
:103A2000491C1029BFD3F0BD4FF6FF710160002182
:103A3000017141718171C171704708B54FF48032D5
:103A40000092009A0A430092009AC261C161009AF2
:103A5000C261C2690092C269009208BD024600209C
:103A600013690B400BB1012000E0002070470146B4
:103A7000086980B270470246002053690B400BB1C1
:103A8000012000E0002070470146486980B270477D
:103A900001837047418370470AB1018300E041838D
:103AA00070474161704742694A4042617047F0B5D2
:103AB000002300244D07ED0E02FA05F3CE1000F1AD
:103AC000200555F826504E07F70E0F26BE40B54389
:103AD000CF1000F1200646F82750CE1000F1200547
:103AE00055F8265045EA0304CE1000F1200545F8AC
:103AF0002640F0BD000002400004024000080240E1
:103B0000000C024000100240001402400018024065
:103B1000001C024000200240002402400028024015
:103B2000F948006840F00100F74908600020F649B4
:103B300008310860F4480068F4490840F249086018
:103B4000F348091D0860F348EF4984310860F048E4
:103B50001038091D0860EC48006820F48020EA490C
:103B600008600020E8490C310860E7498C310860A2
:103B700070470021E44A921C11701146087070478A
:103B800010B501460022002300204A11012A02D16B
:103B9000DD4C236808E0022A03D1DB4C7034236833
:103BA00002E0D94C7434236801F01F0201249440D0
:103BB0001C400CB1012000E0002010BD38B50020F1
:103BC00000900024002500BF3120FFF7D9FF0546F3
:103BD0000098401C00900098B0F5A04F01D0002D37
:103BE000F2D03120FFF7CCFF08B1012400E000241F
:103BF000204638BD01460020C34A106820F0F80076
:103C000040EAC10010607047C34908607047002156
:103C1000BD4A703211701170012802D004280AD1F7
:103C200004E00121B84A7032117005E00521B64A5E
:103C30007032117000E000BF00BF7047B7490860E4
:103C4000704770B5049C41EA82150126C6EB530605
:103C500045EA0645054345EA0465AB4E361D356029
:103C600070BDAD4908667047820142EA0172A64BF9
:103C700084331A607047A8498866704710B583017D
:103C800043EA016343EA02739F4C8834236010BD0A
:103C9000A14908677047A049C864704702460020E0
:103CA000994B0833186820F0EC6042EA010318438E
:103CB000954B08331860704702460020924B08333A
:103CC000186820F0784042EA010318438E4B08330D
:103CD00018607047014600208B4A0832106820F0B7
:103CE000030008431060704787480830006800F000
:103CF0000C00704701460020834A0832106820F00B
:103D0000F000084310607047014600207E4A0832E8
:103D1000106820F4E050084310607047014600200E
:103D2000794A0832106820F4604040EAC10010600F
:103D30007047F0B50021002200240225002602234E
:103D4000714F08373F6807F00C0121B1042905D0F5
:103D5000082937D105E0724F076036E0714F0760E0
:103D600033E0694F3F1D3F68C7F38056664F3F1DE4
:103D70003F6807F03F036EB16A4FB7FBF3F7DFF818
:103D800088C10CF1040CDCF800C0CCF3881C07FBE4
:103D90000CF40CE0624FB7FBF3F7DFF86CC10CF1E9
:103DA000040CDCF800C0CCF3881C07FB0CF4564F65
:103DB0003F1D3F68C7F301477F1C7D00B4FBF5F74B
:103DC000076002E0564F076000BF00BF4E4F083744
:103DD0003F6807F0F0010909534F7A5C0768D74044
:103DE0004760494F08373F6807F4E051890A4E4F52
:103DF0007A5C4768D7408760434F08373F6807F4CD
:103E00006041490B484F7A5C4768D740C760F0BDB6
:103E1000002100F44072B2F5407F0AD13A4A0832DC
:103E2000116821F4F811414A02401143364A083220
:103E30001160354A70321268C0F30B031A43324BDB
:103E400070331A6070473549443908607047334908
:103E500040390860704736490860704701460020C5
:103E6000294A8C32106820F01F004A1E1043264A4F
:103E70008C321060704701460020234A8C32106853
:103E800020F4F8504A1E40EA02201F4A8C3210608B
:103E90007047014600201C4A8C32106820F4401004
:103EA00008431060704701460020174A8C321068A2
:103EB00020F4400008431060704701460020124A79
:103EC0008C32106820F44030084310607047194964
:103ED0000860704739B10C4A3032126802430A4B0D
:103EE00030331A6006E0084A303212688243064BCB
:103EF00030331A607047F9B1034A34321268024312
:103F0000014B34331A601CE000380240FFFFF6EA30
:103F1000103000240030002000004742800E47424D
:103F20000024F40000127A00D4000020FFFCFF0FF0
:103F30005C014742E01147428F4A126882438E4B30
:103F40001A60704739B18C4A121D126802438A4BBD
:103F50001B1D1A6006E0884A121D12688243864BB8
:103F60001B1D1A60704739B1834A0C321268024334
:103F7000814B0C331A6006E07F4A0C321268824390
:103F80007D4B0C331A60704739B17B4A103212688E
:103F90000243794B10331A6006E0774A10321268F8
:103FA0008243754B10331A60704739B1724A243A14
:103FB00012680243704B243B1A6006E06E4A243AB2
:103FC000126882436C4B243B1A60704739B16A4ACD
:103FD000203A12680243684B203B1A6006E0664AAA
:103FE000203A12688243644B203B1A60704739B113
:103FF000614A1C3A126802435F4B1C3B1A6006E0A0
:104000005D4A1C3A126882435B4B1C3B1A60704746
:1040100039B1594A143A12680243574B143B1A609B
:1040200006E0554A143A12688243534B143B1A6017
:10403000704739B1504A103A126802434E4B103B58
:104040001A6006E04C4A103A126882434A4B103B11
:104050001A60704739B1484A1C3212680243464B15
:104060001C331A6006E0444A1C3212688243424BF9
:104070001C331A60704739B13F4A2032126802433C
:104080003D4B20331A6006E03B4A203212688243DF
:10409000394B20331A60704739B1374A24321268DD
:1040A0000243354B24331A6006E0334A2432126847
:1040B0008243314B24331A60704739B12E4A2C3277
:1040C000126802432C4B2C331A6006E02A4A2C3229
:1040D00012688243284B2C331A60704739B1264A44
:1040E000303212680243244B30331A6006E0224A11
:1040F000303212688243204B30331A6070470128F7
:1041000008D11D493C31096841F008011A4A3C3286
:10411000116007E018493C31096821F00801164A8E
:104120003C321160704739B1134A273A1278024382
:10413000114B273B1A7006E00F4A273A1278824348
:104140000D4B273B1A7070470B484030006840F019
:104150008070094940310860704701460020064AD6
:10416000283A12680A400AB1012000E00020704796
:1041700001492639087070473438024010B50446AA
:10418000FA48844208D101211020FFF752FF002194
:104190001020FFF74EFF57E0F548844209D1012176
:1041A0004804FFF735FF00214FF40030FFF730FFE0
:1041B0004AE0F048844209D101218804FFF728FF32
:1041C00000214FF48020FFF723FF3DE0EA488442BE
:1041D00009D10121C804FFF71BFF00214FF4002083
:1041E000FFF716FF30E0E548844209D101210805B8
:1041F000FFF70EFF00214FF48010FFF709FF23E0C7
:10420000DF48844208D101212020FFF712FF00215E
:104210002020FFF70EFF17E0DA48844209D1012180
:104220008807FFF7F5FE00214FF08040FFF7F0FE12
:104230000AE0D548844207D101214005FFF7E8FE96
:1042400000216005FFF7E4FE10BD2DE9FF4705469C
:104250000E460024A14600BFA046B08900B100BFB1
:104260002C8A24F44054F08804432C82AC8941F217
:104270000C608443B0883189084371890843044342
:10428000AC81AC8A24F44074B0890443AC826846A3
:10429000FFF74FFDB548854202D0B948854202D1AB
:1042A000DDF80C9001E0DDF80890A88900F40040EA
:1042B00040B109EBC90000EB091031684900B0FBBF
:1042C000F1F707E009EBC90000EB0910316889003C
:1042D000B0FBF1F76420B7FBF0F004012009642182
:1042E00001FB1078A88900F4004040B1322000EBB7
:1042F000C800B0FBF1F000F00700044308E03220F2
:1043000000EB08106421B0FBF1F000F00F00044353
:104310002C81BDE8FF874FF4165101600021818098
:10432000C18001810C21418100218181704710B53C
:1043300002460020108A20F470600B884C882343CA
:104340008C882343CC8823431843108210BD00215E
:10435000018041808180C180704721B1828942F40F
:104360000052828104E082894DF6FF731A408281F7
:104370007047028B02F47F420283028B0A4302835E
:10438000704721B1828942F40042828103E0828930
:10439000C2F30E028281704721B1828A42F4006228
:1043A000828204E0828A4FF2FF731A408282704751
:1043B000C1F308028280704701468888C0F3080074
:1043C0007047028A4FF6F0731A400282028A0A434B
:1043D0000282704721B1828942F00202828104E0A8
:1043E00082894FF6FD731A408281704782894FF2AD
:1043F000FF731A40828182890A4382817047028A50
:104400004FF6DF731A400282028A0A430282704723
:1044100021B1028A42F48042028204E0028A4BF611
:10442000FF731A4002827047818941F00101818146
:10443000704721B1828A42F00802828204E0828AB7
:104440004FF6F7731A4082827047028BD2B2028312
:10445000028B42EA01220283704721B1828A42F034
:104460002002828204E0828A4FF6DF731A40828241
:10447000704721B1828A42F01002828204E0828A6F
:104480004FF6EF731A4082827047828A4FF6FB73B1
:104490001A408282828A0A438282704721B1828ACC
:1044A00042F00202828204E0828A4FF6FD731A40D3
:1044B000828270471AB1838A0B43838202E0838A27
:1044C0008B4383827047F0B5034600240026002505
:1044D000002040F66A17B94200D100BF1846C1F368
:1044E000421401F01F06012707FA06F5012C01D13D
:1044F0000C3004E0022C01D1103000E014301AB16D
:1045000007682F43076002E00768AF430760F0BD0C
:1045100002460020B1F5007F00D100BF13880B4098
:104520000BB1012000E00020704701F40072B2F5E9
:10453000007F00D100BFCA430280704770B50246B9
:10454000002400230025002040F66A16B14200D165
:1045500000BFC1F3421501F01F03012606FA03F361
:10456000012D13D19689334017E00000001001405F
:104570000044004000480040004C00400050004013
:104580000014014000780040007C0040022D02D160
:10459000168A334001E0968A33400C12012606FA4F
:1045A00004F41688344013B10CB1012000E000205F
:1045B00070BD10B50022002340F66A14A14200D15C
:1045C00000BF0A1201249440A3B2DC43048010BD52
:1045D00010B50446FE48844208D101210846FFF781
:1045E00028FD00210120FFF724FD9DE0B4F1804F5C
:1045F00008D101210846FFF70BFD00210120FFF73C
:1046000007FD91E0F348844208D101210220FFF721
:10461000FFFC00210220FFF7FBFC85E0EE4884420E
:1046200008D101210420FFF7F3FC00210420FFF74B
:10463000EFFC79E0E948844208D101210820FFF726
:10464000E7FC00210820FFF7E3FC6DE0E44884422A
:1046500008D101211020FFF7DBFC00211020FFF71B
:10466000D7FC61E0DF48844208D101212020FFF718
:10467000CFFC00212020FFF7CBFC55E0DA48844234
:1046800008D101210220FFF7D4FC00210220FFF70E
:10469000D0FC49E0D548844209D101210804FFF744
:1046A000C8FC00214FF48030FFF7C3FC3CE0D04849
:1046B000844209D101214804FFF7BBFC00214FF4DB
:1046C0000030FFF7B6FC2FE0CA48844209D101212F
:1046D0008804FFF7AEFC00214FF48020FFF7A9FC0F
:1046E00022E0C548844208D101214020FFF790FC18
:1046F00000214020FFF78CFC16E0C048844208D11E
:1047000001218020FFF784FC00218020FFF780FC3E
:104710000AE0BB48844207D101218015FFF778FCED
:104720000021A015FFF774FC10BD00220288A84BE1
:1047300098420ED0AC4B98420BD0B0F1804F08D0CD
:10474000A44B984205D0A44B984202D0A34B984268
:1047500004D14FF68F731A404B881A43A04B9842EE
:1047600007D0A04B984204D04FF6FF431A400B8964
:104770001A4302804B68C3620B880385944B9842AE
:1047800002D0994B984201D18B7A03860123838210
:1047900070474FF0FF31416000210180018141806D
:1047A000817270470185828270470A460021018824
:1047B0004FF68F7319401143018070474162704773
:1047C000C16270470146486A70470146088D7047CC
:1047D00021B1028842F00202028004E002884FF612
:1047E000FD731A400280704721B1028842F0040232
:1047F000028004E002884FF6FB731A400280704783
:1048000021B1028842F08002028004E002884FF663
:104810007F731A400280704702884FF6F7731A4080
:10482000028002880A430280704702884FF6FF43E5
:104830001A40028002880A430280704721B1028830
:1048400042F00102028004E002884FF6FE731A4033
:104850000280704770B5002400220023058C4FF6BB
:10486000FE7635400584028C8388048B4FF68F7565
:104870002C40B51E2C400D882C43751E2A408D8976
:104880002A434D882A43524DA84202D0564DA84291
:1048900013D14FF6F7752A40CD892A434FF6FB75A1
:1048A0002A408D882A434FF6FF652B404FF6FF556F
:1048B0002B400D8A2B434D8A2B43838004838D68C4
:1048C0004563028470BD70B5002400220023058C6E
:1048D0004FF6EF7635400584028C8388048B48F6CA
:1048E000FF752C404FF6FF452C400D884FF6FF76A4
:1048F00006EA05252C434FF6DF752A408D8906EA26
:1049000005152A434D8806EA05152A43304DA8426D
:1049100002D0354DA8421DD14FF67F752A40CD8972
:104920004FF6FF7606EA05152A434FF6BF752A4073
:104930008D8806EA05152A434FF6FF352B404FF2C6
:10494000FF752B400D8A06EA85052B434D8A06EA42
:1049500085052B43838004838D688563028470BD45
:1049600070B5002400220023058C4FF6FF66354009
:104970000584028C8388848B4FF68F752C404FF60C
:10498000FC752C400D882C434FF6FF552A408D892D
:104990004FF6FF7606EA05252A434D8806EA0525E7
:1049A0002A430B4DA84202D00F4DA84238D14FF2F6
:1049B000FF752A40CD894FF6FF7606EA05252A4382
:1049C0004FF6FF352A408D8806EA05252A4319E06F
:1049D000000001400004004000080040000C0040BE
:1049E000001000400014004000040140004001405D
:1049F000004401400048014000180040001C0040F5
:104A0000002000404EF6FF752B404DF6FF752B4001
:104A10000D8A06EA05152B434D8A06EA05152B4338
:104A2000838084838D68C563028470BD70B5002265
:104A300000230024058C4EF6FF7635400584038C58
:104A40008488828B48F6FF752A404FF6FF452A403E
:104A50000D884FF6FF7606EA05252A434DF6FF75C9
:104A60002B408D8906EA05352B434D8806EA05352E
:104A70002B43FE4DA84202D0FD4DA84208D14BF673
:104A8000FF752C400D8A4FF6FF7606EA85152C43FC
:104A9000848082838D680564038470BD0021018059
:104AA0004180818081608181C18101824182704722
:104AB00070B50346002000241846183001258D40AB
:104AC000ACB21D8CA5431D8409B108290AD100EBA5
:104AD000610005684FF68F7635400560056815431F
:104AE00005600FE00D1FC5F34E052844056848F624
:104AF000FF763540056005684FF6FF7606EA022628
:104B00003543056070BD4163704781637047C16381
:104B10007047016470470A460021018B4FF68F737E
:104B200019401143018370470A460021018B48F662
:104B3000FF7319404FF6FF7303EA02231943018301
:104B400070470A460021818B4FF68F73194011433D
:104B5000818370470A460021818B48F6FF73194014
:104B60004FF6FF7303EA02231943818370470A4615
:104B70000021018B4FF6F7731940114301837047F1
:104B80000A460021018B4FF2FF7319404FF6FF7365
:104B900003EA02231943018370470A460021818BEF
:104BA0004FF6F77319401143818370470A4600217D
:104BB000818B4FF2FF7319404FF6FF7303EA022314
:104BC0001943818370470A460021018B4FF6FB731E
:104BD00019401143018370470A460021018B4FF6AB
:104BE000FF3319404FF6FF7303EA02231943018391
:104BF00070470A460021818B4FF6FB731940114321
:104C0000818370470A460021818B4FF6FF3319409C
:104C10004FF6FF7303EA02231943818370470A4664
:104C20000021018B4FF67F731940114301837047B8
:104C30000A460021018BC1F30E014FF6FF7303EA10
:104C400002231943018370470A460021818B4FF6E6
:104C50007F7319401143818370470A460021818B7D
:104C6000C1F30E014FF6FF7303EA02231943818358
:104C700070470A460021018C4FF6FD73194011431D
:104C8000018470470A460021018C4FF6F7731940E2
:104C90001143018470470A460021018C4FF6DF73EF
:104CA00019404FF6FF7303EA02131943018470475A
:104CB0000A460021018C4FF67F7319404FF6FF73AF
:104CC00003EA02131943018470470A460021018C4C
:104CD0004FF6FF5319404FF6FF7303EA02231943BF
:104CE000018470470A460021018C4FF2FF7319407E
:104CF0004FF6FF7303EA02231943018470470A4603
:104D00000021018C4DF6FF7319404FF6FF7303EA43
:104D1000023319430184704730B5002301248C40CD
:104D2000A3B2048C9C430484048C02FA01F5ADB256
:104D30002C43048430BD30B5002304248C40A3B23E
:104D4000048C9C430484048C02FA01F5ADB22C431C
:104D5000048430BD828B4FF2FF331A408283828BF2
:104D60004FF6FF7303EA01231A4382837047F0B5BD
:104D70000C461546002100220026078C4EF6FF7CCB
:104D800007EA0C070784818B028C4FF6FF7707EA4E
:104D9000043640F6FF4739404FF6FF7707EA05270C
:104DA00039434FF6FF7707EA0337394345F6FF7774
:104DB0003A4046F480573A4381830284F0BD828BA7
:104DC0004FF6F3731A408283828B0A4382837047C3
:104DD000F0B50C461546002100220026078C4FF640
:104DE000FF6C07EA0C070784818B028C4FF6FF7774
:104DF00007EA04264FF60C7739404FF6FF7707EAAB
:104E000003172F4339434FF2FF573A4046F4807758
:104E10003A4381830284F0BD028B4FF2FF331A4084
:104E20000283028B4FF6FF7303EA01231A430283C6
:104E30007047F0B50C461546002100220026078C6D
:104E40004FF6EF7C07EA0C070784018B028C4FF6C4
:104E5000FF7707EA041640F6FF4739404FF6FF7721
:104E600007EA033739434FF6FF7703E000000140BC
:104E70000004014007EA052739434FF65F773A40BF
:104E800046F010073A4301830284F0BD028B4FF6CF
:104E9000F3731A400283028B0A4302837047F0B512
:104EA0000C46154600210022068C4FF6FE773E4048
:104EB0000684018B028C4FF60C7631407E1C06EA8C
:104EC00003162E4331434FF6F576324044F0010687
:104ED000324301830284F0BD70B505460C4620883C
:104EE00050B92389A28861882846FFF7D8FFE18856
:104EF0002846FFF7CBFF25E0208804280AD1238924
:104F0000A28861882846FFF794FFE1882846FFF7CA
:104F100083FF17E0208808280AD12389A2886188A6
:104F20002846FFF755FFE1882846FFF748FF09E0CC
:104F30002389A28861882846FFF719FFE18828465F
:104F4000FFF708FF70BD00210180418001218180B1
:104F50000021C180018170472DE9F04105460C46D2
:104F600000260127608808B9022600E00026A088F4
:104F7000012801D1022700E001272088A0B9238958
:104F8000A28861882846FFF78AFFE1882846FFF754
:104F90007DFF23893A4631462846FFF74AFFE188DC
:104FA0002846FFF739FF13E02389A2886188284645
:104FB000FFF73FFFE1882846FFF72EFF23893A4697
:104FC00031462846FFF76BFFE1882846FFF75EFF72
:104FD000BDE8F0810146486B70470146886B704719
:104FE0000146C86B70470146086C70470A884B88B9
:104FF0001A438B881A43CB881A430B891A434B896F
:105000001A438B891A43A0F844207047002101807D
:1050100041808180C180018141818181704731B1AE
:10502000B0F8442042F40042A0F8442005E0B0F873
:105030004420C2F30E02A0F84420704721B18288B8
:1050400042F00402828004E082884FF6FB731A402B
:105050008280704721B1828842F00102828004E0A0
:1050600082884FF6FE731A40828070471AB1838996
:105070000B43838102E083898B4383817047818264
:10508000704702460020138A0B400BB1012000E05C
:1050900000207047CA430282704730B502460020A4
:1050A00000230024158A05EA0103958905EA010415
:1050B00013B10CB1012000E0002030BDCA430282D0
:1050C000704741EA0203A0F8483070471AB183895B
:1050D0000B43838102E083898B438381704721B135
:1050E000828842F00802828004E082884FF6F773DB
:1050F0001A408280704701894FF6F8721140018191
:1051000070470A46002101894FF68F7319401143F9
:105110000181704730B504460D4629462046FFF709
:10512000F0FF208940F00700208130BD2DE9F041DB
:1051300004460D4616461F46602D06D13B46012209
:1051400031462046FFF775FE05E03B460122314619
:105150002046FFF7A4FE29462046FFF7D2FF20890C
:1051600040F007002081BDE8F08130B50C460021F9
:105170000189C9B24FF6FF7505EA0325154325439A
:105180002943018130BD2DE9F04105460E46174601
:105190009846002443463A4631462846FFF7E5FF45
:1051A0002C894FF6F870044044F007044FF68F70D6
:1051B000044044F070042C81BDE8F081F0B5044651
:1051C0000D4616461F463B46324629462046FFF707
:1051D000CCFF208940F480402081F0BD82884FF6CA
:1051E0008F731A40828082880A43828070470289C6
:1051F0004FF6F8731A40028102890A430281704710
:1052000002894FF67F731A40028102890A430281A4
:105210007047F0B50C4615461E46002100220023BB
:105220000189028B038C4FF6F877394021434FF602
:10523000FC473A4040F201173A434FF6DD773B40D6
:105240004FF6FF7707EA06172F433B43018102839E
:105250000384F0BD21B1828842F08002828004E0A4
:1052600082884FF67F731A4082807047A0F85010F2
:105270007047000010B50446FB48844208D1012164
:105280008014FEF7D6FE0021A014FEF7D2FE3CE00B
:10529000F648844208D101210014FEF7B9FE00212E
:1052A0002014FEF7B5FE30E0F148844208D1012118
:1052B000C013FEF7ADFE0021E013FEF7A9FE24E0C7
:1052C000EC48844208D101214014FEF7B2FE0021CF
:1052D0006014FEF7AEFE18E0E748844209D10121D0
:1052E0000805FEF7A6FE00214FF48010FEF7A1FE90
:1052F0000BE0E248844208D101214805FEF799FEFF
:1053000000214FF40010FEF794FE10BD10B50022EE
:10531000028802F441520B884C8823438C88234333
:10532000CC8823430C8923434C8923438C89234312
:10533000CC8923431A430280838B4FF2FF742340AE
:1053400083830B8A038210BD2DE9F04F00250223D1
:1053500000244FF0010900220026002794469046C1
:10536000B0F81CA04FF2400B0AEA0B0AA0F81CA0F0
:105370004FF0020AA0F820A0858BD1F808A0BAF15E
:10538000020F01D100BF82E0B1F804A0BAF1000F12
:1053900002D14FF0010901E04FF00209DFF8E0A26D
:1053A000DAF800A00AF4000ABAF1000F09D0DFF819
:1053B000D0A2DAF800A02AF4000ADFF8C4B2CBF8D1
:1053C00000A0DFF8BCA20AF17C0ADAF800A0CAF358
:1053D000881CDFF8ACA20AF17C0ADAF800A0CAF354
:1053E0000278DFF89CA2AAF1040ADAF800A00AF019
:1053F0003F07DFF88CA2AAF1040ADAF800A00AF449
:10540000800ABAF5800F08D1DFF878A2BAFBF7FA64
:105410000AFB0CFABAFBF8F607E0DFF86CA2BAFB5D
:10542000F7FA0AFB0CFABAFBF8F6B1F806A0BAF5DF
:10543000007F0ED14FEA162A0AEB8A0A4FEA4A0A7F
:10544000D1F808B0BAFBFBFA0AF1050A1FFA8AF292
:105450000FE04FEA491AB6FBFAFA0AEB8A0A4FEA5A
:105460004A0AD1F808B0BAFBFBFA0AF1050A1FFA9A
:105470008AF24FF00A0AB2FBFAF202F00104A2EB40
:10548000040ACAF34F034FF6FF7A0AEA0424022BF8
:1054900001DBFF2B01DD02230024B1F806A04AEA5C
:1054A000040A4AEA030AA0F820A0B1F804A0B1F85F
:1054B0000CB04AEA0B0AB1F802B04AEA0B0AB1F89A
:1054C00000B04AEA0B0A4AF4006A4AEA05058583F5
:1054D000BDE8F08F0021018041808180C180018181
:1054E00041818181C18107210182704700210180B2
:1054F00041808180C18002218160002181817047CB
:1055000021B1028842F04002028004E002884FF696
:10551000BF731A400280704721B1828B42F48062CF
:10552000828304E0828B4FF6FF331A4082837047F8
:1055300002884FF2FF731A40028002880A430280F9
:105540007047B1F5804F04D1028842F48042028056
:1055500004E002884BF6FF731A40028070474FF652
:10556000FF62914204D0028842F48072028004E01B
:1055700002884FF6FF631A400280704721B182888B
:1055800042F00402828004E082884FF6FB731A40E6
:105590008280704721B1828842F01002828004E04C
:1055A00082884FF6EF731A408280704730B5002230
:1055B0000023848B4FF240052C4084830224048412
:1055C000828B0C88B4F5007F01D00C8814B94FF49D
:1055D000807308E00C88B4F5407F03D00C88B4F5E4
:1055E000807F00D100238C888D892C434D882C43EB
:1055F0001C4344F400642243828330BD0146888901
:1056000070478181704721B1028842F400520280C4
:1056100004E002884DF6FF731A400280704701884B
:1056200041F480510180704702460020012901D0D9
:10563000108B00E0908A70470146088A70471AB1C3
:1056400083880B43838002E083888B438380704789
:1056500030B5002400230C110125A540ABB2AAB13E
:1056600085881D43858014E00030014000380040EB
:10567000003C004000340140005001400054014013
:105680000838024000127A000024F40085889D4307
:10569000858030BD0246002013890B400BB10120EC
:1056A00000E000207047CA4302817047F0B502460F
:1056B000002000240023002501F00F070126BE4032
:1056C000B4B20B1101269E40B3B2968806EA0305D8
:1056D0001689264016B10DB1012000E00020F0BD72
:1056E00010B5002201F00F040123A3409AB2D34366
:1056F000038110BD016821F00101016000210160FA
:1057000041608160C160016121214161DB498842C2
:1057100004D13D21D94A103A91608CE0D749183123
:10572000884205D14FF47461D44A103A916082E006
:10573000D2493031884205D14FF47411CF4A103A22
:10574000916078E0CD494831884205D14FF07461CD
:10575000CA4A103A91606EE0C8496031884204D16B
:10576000C749C64A103AD16065E0C44978318842D9
:1057700004D1C449C14A103AD1605CE0BF499031BC
:10578000884204D1C049BD4A103AD16053E0BB49B8
:10579000A831884205D14FF03D51B84A103AD16046
:1057A00049E0BA49884204D13D21B84A083A11601B
:1057B00041E0B6491831884205D14FF47461B34ACB
:1057C000083A116037E0B1493031884205D14FF4D1
:1057D0007411AE4A083A11602DE0AC494831884254
:1057E00005D14FF07461A94A083A116023E0A74936
:1057F0006031884204D1A249A44A121F11601AE004
:10580000A2497831884204D19E49A04A121F1160F2
:1058100011E09E499031884204D19B499B4A121F56
:10582000116008E09949A831884204D14FF03D51F8
:10583000964A121F1160704710B500220268944BFF
:105840001A40CC680B6823434C6923438C6923437B
:10585000CC6923430C6A23434C6A23438C6A234359
:105860004C6B23438C6B23431A430260426922F042
:105870000702D1E90B3423431A4342610B694360A9
:105880004B6883608B68C36010BD0021016041607C
:105890008160C160016141618161C16101624162F8
:1058A0008162C162016341638163704721B1026813
:1058B00042F00102026003E0026822F0010202608D
:1058C000704721B1026842F40042026003E00268BE
:1058D00022F400420260704721B1026842F02002C7
:1058E000026003E0026822F020020260704741601B
:1058F00070470146486880B2704722B1036843F49C
:105900000023036003E0036823F4002303600161C4
:10591000704721B1026842F48022026003E002680D
:1059200022F48022026070470AB1016100E0C16088
:105930007047014600200A6802F400220AB10120E3
:1059400000E000207047014600200A6802F00102D2
:105950000AB1012000E000207047014600204A699A
:1059600002F03800704730B503460A460020002494
:10597000464DAB4202D24149103901E0434910394A
:1059800002F000550DB14C6800E00C68414D2C4010
:1059900004EA02050DB1012000E0002030BD0246FE
:1059A0003A4B9A4202D23548103801E03748103855
:1059B00001F000531BB1374B0B40C36002E0354B85
:1059C0000B408360704710B501F080034BB122B1EA
:1059D000436943F08003436103E0436923F080039C
:1059E000436180290BD02AB1036801F01E042343D0
:1059F000036004E0036801F01E04A343036010BDCC
:105A000070B50246002000240025204EB24202D28A
:105A10001A4B103B01E01D4B103B1F4E0E4036B1A0
:105A20001E2606EAD124166806EA040502E0566935
:105A300006F0800501F000560EB15C6800E01C68BD
:105A4000144E344004EA010616B10DB1012000E005
:105A5000002070BD02460D4B9A4202D20748103812
:105A600001E00A48103801F000531BB1094B0B400C
:105A7000C36002E0074B0B40836070471060024038
:105A80003D000020400F002000003D201064024037
:105A90003F801CF07D0F7D0F3C0F3C0F7CB5002537
:105AA00014E06946284602F0C1F9064666B9F8488E
:105AB00050F8254044B1012C06D0D4E9020100EB96
:105AC000810060640198A064681CC5B23F2DE8D9CC
:105AD0007CBD002400BF02E0282002F0B1FAED48AE
