:020000040800F2
:10000000C0C9002071350008B1350008B3350008BB
:10001000B7350008BB350008BF35000800000000F8
:10002000000000000000000000000000C3350008D0
:10003000C5350008000000003D900008C9350008E3
:100040008B3500088B3500088B3500088B35000890
:100050008B3500088B3500088B3500088B35000880
:100060008B3500088B3500088B3500088B35000870
:100070008B3500088B3500088B3500088B35000860
:100080008B3500088B3500088B3500088B35000850
:100090008B3500088B3500088B3500088B35000840
:1000A0008B3500088B3500088B3500088B35000830
:1000B0008B3500080D0F00088B3500088B350008C4
:1000C0008B3500088B3500088B3500088B35000810
:1000D0008B35000873080108E9DD0008E51F0108F9
:1000E0008B3500088B3500088B3500088B350008F0
:1000F0008B3500088B3500088B3500088B350008E0
:100100008B3500088B3500088B3500088B350008CF
:10011000A90C0108E5ED00088B3500088B350008B7
:100120008B3500088B3500088B3500088B350008AF
:100130008B3500088B3500088B3500088B3500089F
:100140008B3500088B3500088B3500088B3500088F
:100150008B3500088B3500088B3500088B3500087F
:100160008B3500088B3500088B3500088B3500086F
:100170008B3500088B3500088B3500088B3500085F
:100180008B3500088B35000800F002F800F05CF8B1
:100190000AA090E8000C82448344AAF10107DA45E2
:1001A00001D100F051F8AFF2090EBAE80F0013F0D8
:1001B000010F18BFFB1A43F00103184754D902007E
:1001C00074D902000A444FF0000C10F8013B13F000
:1001D000070408BF10F8014B1D1108BF10F8015BA0
:1001E000641E05D010F8016B641E01F8016BF9D193
:1001F00013F0080F1EBF10F8014BAD1C0C1B09D1EA
:100200006D1E58BF01F801CBFAD505E014F8016B5B
:1002100001F8016B6D1EF9D59142D6D370470000ED
:100220000023002400250026103A28BF78C1FBD8FF
:10023000520728BF30C148BF0B6070471FB52CF074
:100240006EFD1FBD10B510BD29F0D2FB1146FFF7A2
:10025000F5FF00F09EF829F0F0FB03B4FFF7F2FF82
:1002600003BC29F0F3FB0000E34800887047E24834
:1002700012380068E1490860DF480E3800684860BD
:10028000DD480A380068886070477FB5044600255D
:1002900000BF002007F049F8D94908604FF4807189
:1002A000D84807F041FAD849086003A9002006F0B1
:1002B000A1FCD649086006F03DFA03A8D4A10022AB
:1002C000D54BCDE90021029002220A21084608F010
:1002D0008CFBD249086003A9D048006808F017FDDC
:1002E00003A8CFA10022D04BCDE900210290022229
:1002F00005210A2008F079FBCC49086003A9CB4806
:10030000006808F004FD08F071FE05460523C84AA0
:100310000021C84807F030FF0223C74A0021C74820
:1003200007F02AFF0423C64A0021C64807F024FF2D
:100330000E23C54A0021C54807F01EFF0623C44A04
:100340000021C44807F018FF1123C34A0021C34805
:1003500007F012FF1223C24A0021C24807F00CFF27
:100360000323C14A0021C14807F006FF0723C04A02
:100370000021C04807F000FF1323BF4A0021BF48F7
:1003800007F0FAFE142008F077F9284608F032FE4C
:100390007FBD1CB5FFF76BFF4FF4A06003F0A0FA20
:1003A000A82003F019F90AF04EFA4FF4C8700AF0C9
:1003B00006F90AF078FB64200AF023FB08F083FFBB
:1003C00064200AF01EFB15F09DFD0320AC49087067
:1003D00002200870042008700846007814F0CDFF51
:1003E00064200AF00EFB14F079FE64200AF009FB89
:1003F0004FF4E1300EF0C9FD01206221A14BA24A69
:10040000CDE90010C106A1480AF038F84FF4612088
:100410000CF092FA4FF47A3010F009FD00204221DE
:100420009B4B9C4ACDE9001089069B480AF026F8B0
:100430004FF4613011F086FC4FF461300EF034FB64
:1004400064200AF0DEFA00F03DFD09F0B6FB6B48CF
:1004500080689249884209D002E064200AF0D1FA0B
:1004600009F01BFB4EF615718842F6D109F0C9FD63
:1004700000208B4981F833009FED8A0A8A4880ED7D
:100480000D0AB0EE020A894880ED0D0A9FED880A38
:1004900080ED0C0A9FED870A80ED0E0A9FED860A1B
:1004A00080ED0F0A9FED850A80ED100A0020844937
:1004B00008707B4981F82B0081F82E0081F84300F9
:1004C000012081F82F00002081F83000C87481F8E5
:1004D0004000012081F8280081F85200002081F8B6
:1004E00022000120C875002081F8290081F82A0027
:1004F000487181F8440001200872002081F846000C
:10050000012081F83D000020087681F8200081F864
:10051000210081F83F0008700120487300204874D2
:10052000012088754872C8730020087581F8310071
:10053000087481F82100012048750020887401208A
:10054000887348708870C870002008710120C872D4
:100550000020887201200873002081F84D0040F2CD
:10056000DC505849C880088048804FF47A708880F1
:1005700000205549086048608860C8604FF4FA70F0
:100580005049088148818881C881012280214148E1
:10059000001F04F029F842213F4809F0CBFF012257
:1005A00080213948001F04F01FF86221374809F004
:1005B000C1FF32200AF025FA05F07DFF1423434ADB
:1005C0000021AFF2393007F0D7FD06F09BF800208C
:1005D0001CBD1CB50FE001A8002303221F210090C1
:1005E0000A48006806F06CFC01AB00221F21074896
:1005F000006806F0A5FDEEE7227AFF1F2C1300200D
:100600000000002038130020040000200800002013
:10061000746D723100000000C734000878000020BB
:10062000746D723200000000F33400087C0000207A
:100630009C220020E30F00089C1C0020210F0008D2
:100640009C260020571000089C2E0020DF12000876
:100650009C3D00203F1500089C310020BD13000880
:100660009C430020531500089C3B0020CB1400083D
:100670009C3F0020491500089C44002005340008D8
:100680000C0000204677002004100140B8640240AE
:10069000EE770020044C0040706002403838333858
:1006A000106E00209A99A93F00A6002058A60020AD
:1006B0009A990940CDCC4C3E0000A0420080D44421
:1006C000CC01002028690020486900202813002060
:1006D00010B52DED0A8B0020FE49087001204870EE
:1006E0009FEDFD0A084680ED010A9FEDFC0A80EDB2
:1006F000020A042008749FEDFA0A084680ED080AF1
:100700009FEDF80A80ED050A9FEDF70A80ED070AD4
:100710009FEDF60A80ED060A0078E8BB084690EDEA
:10072000050A10EE101A08462CF058FA41EC1C0B82
:100730009FEDEF0B53EC102B2BF05AFF41EC1B0BF2
:100740009FEDED0B53EC102B2BF052FF41EC190BEE
:10075000E04890ED080AD0ED020AB0EE001A01EE72
:10076000200AF0EE000A60EE200A90ED011A90EDEA
:10077000060A10EE810A10EE101A08462CF02EFA26
:1007800041EC1A0B53EC192B2BF008FD41EC180B24
:100790002BF016FCCF4900E002E0C863C86200BF3E
:1007A00000BFBDEC0A8B10BD10B52DED048BFFF71B
:1007B0008FFFD34AD34B0BCB40320BC2D048D14B27
:1007C0000C330ECB4C300EC0CF48CE4B18330ECB73
:1007D00008300EC0CB4890ED0A0AC94880ED190ACE
:1007E000CA4800686FF03011084428B1A0F5D8104D
:1007F000203800287ED101E19FEDC50AC54880ED73
:10080000100A80ED0C0A90ED0C0ADFEDC30A20EE11
:10081000200ABCEEC00A10EE100AC049C8809FED45
:10082000C00ABC4880ED120A80ED0E0A90ED0E0A57
:10083000DFEDB90A20EE200ABCEEC00A10EE100A65
:1008400008819FEDB80AB34880ED110A80ED0D0ACA
:1008500090ED0D0ADFEDB00A20EE200ABCEEC00AD2
:1008600010EE100A48819FEDB00AAA4880ED040AF4
:1008700080ED000A90ED000ADFEDA70A20EE200AC5
:10088000BCEEC00A10EE100A08809FEDA80AA1482D
:1008900080ED060A80ED020A90ED020ADFED9E0A65
:1008A00020EE200ABCEEC00A10EE100A4880B0EE1E
:1008B000000A984880ED050A80ED010A90ED010AD2
:1008C000DFED950A20EE200ABCEEC00A10EE100AF9
:1008D00088809FED950A8F4880ED140A90ED140AE8
:1008E000DFED8D0A20EE200ABCEEC00A10EE100AE1
:1008F000088200E0BEE19FED8A0A864880ED160A74
:1009000090ED160ADFED840A20EE200ABCEEC00A44
:1009100010EE100AC8819FED820A7E4880ED150A0C
:100920009FED810A80ED080A90ED080ADFED7A0A52
:1009300020EE200ABCEEC00A10EE100A88819FED5E
:100940007B0A744880ED0A0AB7EE000A80ED090AB6
:10095000B7EE000A80ED070A80ED030AB7EE000A41
:1009600080ED0B0AB1EE040A714880ED000AB5EE85
:10097000000A80ED010A9FED6A0A80ED020A9FEDF0
:100980006A0A80ED080A9FED550A80ED090A9FED7D
:10099000690A80ED0A0A9FED680A80ED060A9FED5C
:1009A000660A80ED0E0A90ED0E0A10EE101A084647
:1009B0002CF014F941EC190B9FED600B53EC102B4C
:1009C0002BF016FE41EC180B2BF0FAFA5849C863CD
:1009D0009FED560A084680ED200A0F21594880F8FD
:1009E000E21180F8561080F8DA104221564880F85B
:1009F000E21180F8561080F8DA1027E29FED440AE1
:100A0000444880ED100A80ED0C0A90ED0C0ADFEDF1
:100A1000420A20EE200ABCEEC00A10EE100A3F493E
:100A2000C8809FED3F0A3B4880ED120A80ED0E0A18
:100A300090ED0E0ADFED380A20EE200ABCEEC00A67
:100A400010EE100A08819FED370A324880ED110A36
:100A500080ED0D0A90ED0D0ADFED2F0A20EE200A41
:100A6000BCEEC00A10EE100A48819FED380A2948F2
:100A700080ED040A80ED000A90ED000ADFED260A01
:100A800020EE200ABCEEC00A10EE100A08809FED8E
:100A9000270A204880ED060A80ED020A90ED020A3E
:100AA000DFED1D0A20EE200ABCEEC00A10EE100A8F
:100AB0004880B0EE000A174880ED050A80ED010A73
:100AC00090ED010ADFED140A20EE200ABCEEC00A08
:100AD0003EE00000F8170020295C0F3E0AD7A33B38
:100AE0008FC2F53C0AD7233B4260653C16FB8BBEA8
:100AF0006666666666A64C40EC51B81E85EB1640ED
:100B0000EC79002038170020200300202C1300204F
:100B1000CDCCCC3E7817002000007A44366B002004
:100B2000000000009A99993ECDCC4C3FCDCCCC3DF5
:100B3000B46B0020CDCC4C3ECDCCCC3C00000000B2
:100B40000000F83F1C9400202C9600203333333FE4
:100B500010EE100A88801FED0C0ADF4880ED140AA1
:100B600090ED140A5FED140A20EE200ABCEEC00AD4
:100B700010EE100A08821FED160AD74880ED160AFB
:100B800090ED160A5FED1C0A20EE200ABCEEC00AAA
:100B900010EE100AC8811FED1E0ACF4880ED150A1D
:100BA0001FED1F0A80ED080A90ED080A5FED260A86
:100BB00020EE200ABCEEC00A10EE100A88811FED5C
:100BC000250AC54880ED0A0AB7EE000A80ED090A39
:100BD000B7EE000A80ED070A80ED030AB7EE000ABF
:100BE00080ED0B0A1FED320ABC4880ED000A1FEDB4
:100BF000340A80ED010A9FEDBA0A80ED080A9FEDE4
:100C0000B90A80ED090A1FED350A80ED0A0A1FEDC9
:100C1000400A80ED060A1FED380A80ED0E0A90EDBD
:100C20000E0A10EE101A08462BF0D8FF41EC190BF3
:100C30001FED3E0B53EC102B2BF0DAFC41EC180BA4
:100C40002BF0BEF9A549C8631FED480A084680EDA0
:100C5000200A4621A44880F8E21180F8561080F856
:100C6000DA106421A14880F8E21180F8561080F86B
:100C7000DA10EBE0B6EE000A974880ED100A80ED3E
:100C80000C0A90ED0C0A5FED5C0A20EE200ABCEE27
:100C9000C00A10EE100A9649C8809FED920A8E484D
:100CA00080ED120A80ED0E0A90ED0E0A5FED660AE5
:100CB00020EE200ABCEEC00A10EE100A08811FEDDB
:100CC000630A854880ED110A80ED0D0A90ED0D0A4A
:100CD0005FED6F0A20EE200ABCEEC00A10EE100A8B
:100CE0004881B5EE000A7C4880ED040A80ED000AD8
:100CF00090ED000A5FED780A20EE200ABCEEC00AF3
:100D000010EE100A08809FED7B0A734880ED060AFA
:100D100080ED020A90ED020A5FED810A20EE200AC2
:100D2000BCEEC00A10EE100A4880B2EE000A6A4813
:100D300080ED050A80ED010A90ED010A5FED8A0A57
:100D400020EE200ABCEEC00A10EE100A88801FEDCB
:100D50008A0A614880ED140A90ED140A5FED920A48
:100D600020EE200ABCEEC00A10EE100A08829FEDA9
:100D7000610A594880ED160A90ED160A5FED9A0A4D
:100D800020EE200ABCEEC00A10EE100AC8811FED4A
:100D90009B0A514880ED150A1FED9D0A80ED080A57
:100DA00090ED080A5FEDA40A20EE200ABCEEC00A0E
:100DB00010EE100A88811FEDA30A474880ED0A0A49
:100DC000B7EE000A80ED090AB7EE000A80ED070AC7
:100DD00080ED030AB7EE000A80ED0B0AB0EE000AC0
:100DE0003E4880ED000A1FEDB20A80ED010A9FED3A
:100DF000420A80ED080A9FED3B0A80ED090AB7EE32
:100E0000000A80ED0A0A9FED370A80ED060A9FED81
:100E10003B0A80ED0E0A90ED0E0A10EE101A0846FD
:100E20002BF0DCFE41EC190B1FEDBC0B53EC102B2F
:100E30002BF0DEFB41EC180B2BF0C2F82749C863FE
:100E40009FED2F0A084680ED200A00BF00BF2D4805
:100E5000214BD3E901421968DB68C0E916420366F9
:100E600041651D4CD4E90423D4E90614C0E91B14E0
:100E7000C0E91923184CD4E90831D4E90A24C0E99F
:100E80001F24C0E91D312048134CD4E90D13226BF7
:100E9000E46BC0E91734C0E915210F49D1E91124E9
:100EA0000B6CC96CC0E91A24436601670A49D1E991
:100EB0001434D1E91621C0E91D34C0E91F21BDEC6D
:100EC000048B10BD10B5FFF76FFC16F095FB1CF0FE
:100ED00061FC1CF03FFC10BD78170020B46B0020B3
:100EE0006666263F0AD7233C1C9400202C960020DF
:100EF000366B0020CDCC4C3DCDCC0C3FBC74133DAB
:100F00008FC2753D589000201C91002010B5012122
:100F1000FE4804F05CF90121FC4804F069F910BDB9
:100F20002DED028B5CE0072009F077FD10EE104AF2
:100F300020462BF053FE41EC180B9FEDF50B53ECC4
:100F4000102B2BF053FC02D2F348046004E09FED19
:100F5000F30AF14880ED000AF148007880B9F148C1
:100F600001780078401CEF4A1070282902DD01202A
:100F7000EB4908709FEDE90AE74880ED000A2BE095
:100F800014F019F9E44890ED000A14F0A4FBE648C7
:100F900001780078401CE44A1070022904DB00202C
:100FA0001146087013F0B3FFE04801780078401C48
:100FB000DE4A1070042904DB00201146087015F089
:100FC000F7F9DB48D44991ED000A09F0D5FFD24882
:100FD00090ED000A18F0EDFE052002F04EFB00BF78
:100FE000A1E72DED028B35E00B2009F016FD10EE88
:100FF000104A20462BF0F2FD41EC180B9FEDC40B7C
:1010000053EC102B2BF0F2FB02D2CA48046004E030
:101010009FEDC90AC74880ED000AC848007880B92A
:10102000C74801780078401CC54A1070282902DDA5
:101030000120C24908709FEDC00ABE4880ED000A39
:1010400004E0BC4890ED000A16F0E8FA0A2002F02D
:1010500014FB00BFC8E72DED0A8B82B03EE1B94812
:10106000007880B9B84801780078401CB64A107002
:10107000282902DD0120B34908709FEDAF0AB3486B
:1010800080ED000A27E1052009F0C7FC10EE104AA8
:1010900020462BF0A3FD41EC180B9FED9D0B53EC6C
:1010A000102B2BF0A3FB02D2A848046004E09FEDB4
:1010B000A20AA64880ED000AA54801780078401CE5
:1010C000A34A1070012955DD002011460870A1487F
:1010D000D0ED0F0AB0EE600AF6EE000A20F0FEFD39
:1010E000B0EE408A9B48D0ED0E0AB0EE600ADFED0C
:1010F0009A0A20F0F3FDF0EE408A9648D0ED0D0AF2
:10110000B0EE600ADFED940A20F0E8FDB0EE409A00
:101110009248D0ED0A0AF0EE604AD0ED090AB0EE2E
:10112000604AD0ED080AF0EE603A8A48D0ED060A2F
:10113000B0EE603AD0ED050AF0EE602AD0ED040A78
:10114000B0EE602A8148D0ED000AB6EE001A60EEDB
:10115000810AB0EE001A60EE810AB0EE600A804AA1
:10116000694601A8F0EE481AB0EE681AF0EE490A96
:1011700022F0BEFF774890ED060A10EE101A0846DE
:101180002BF02CFD41EC1C0B9FED760B53EC102B40
:101190002BF004F841EC1B0B2AF012FF08EE100AAA
:1011A0006C4890ED050A10EE101A08462BF016FD5B
:1011B00041EC1C0B9FED6B0B53EC102B2AF0EEFF58
:1011C00041EC1B0B2AF0FCFE08EE900A614890ED02
:1011D000040A10EE101A08462BF000FD41EC1C0B1F
:1011E0009FED600B53EC102B2AF0D8FF41EC1B0B4A
:1011F0002AF0E6FE09EE100A5648D0ED0F0AB0EECE
:10120000600AF6EE000A20F069FD10EE105A28463A
:101210002BF0E4FC41EC1C0B9FED540B53EC102B1A
:101220002AF0BCFF41EC1B0B2AF0CAFE09EE900A23
:101230004848D0ED0E0AB0EE600AF6EE000A20F043
:101240004DFD10EE105A28462BF0C8FC41EC1C0B4B
:101250009FED460B53EC102B2AF0A0FF41EC1B0B2B
:101260002AF0AEFE0AEE100A3A48D0ED0D0AB0EEB2
:10127000600AF6EE000A20F031FD10EE105A284602
:101280002BF0ACFC41EC1C0B9FED380B53EC102BFE
:101290002AF084FF41EC1B0B2AF092FE0AEE900A22
:1012A000344A35493548DFED2C4A9FED2B4ADFEDB6
:1012B0002A3AB0EE483AF0EE682AB0EE492AF0EE4B
:1012C000691AB0EE4A1AF0EE6A0A204B93ED000A52
:1012D00023F0AAFC00BF0A2002F0CFF9BFE62DEDF3
:1012E000028B6AE0264801780078401C244A10707E
:1012F000042903DD00201146087000BF2149087849
:101300000978491C1F4B19703EE0000000040040A2
:10131000FCA9F1D24D62503F240000200AD7A33B24
:101320008D0000208E0000208A0000208B0000200D
:1013300090180020440000200AD7233C920000208F
:101340009300002097000020980000204800002013
:10135000950000207079002000000000500300205C
:1013600054000020000000000000B0406666666681
:1013700066A64C40580000204C0000205000002081
:10138000990000209B0000202BF0E2F841EC180BA4
:101390009FEDFD0B53EC102B2BF028FA06D2FC48E6
:1013A00090F83E0010B10020FA4908709FEDFA0A4B
:1013B0001DF057FF142002F060F993E784E0F7482E
:1013C00001680068401CF54A10601E2905D91F20DD
:1013D000114608600120F2490870F248016800686F
:1013E000401CF04A10601E2905D91F2011460860D4
:1013F0000020ED490870ED480078E54981F83E008D
:10140000EA48407881F83100E84880784871E74838
:10141000C078E7490870E748C079DD4981F82400C1
:10142000012081F8250081F84600002081F847005E
:1014300081F848004875E048B0F9080040F2DC51F6
:10144000884204DD0120D24981F8220003E0002017
:10145000CF4981F82200D748807980B1D5484079BA
:1014600068B1D448C07850B1D248807838B1D148FA
:10147000407820B1CF48007808B1012000E000207A
:10148000C34981F84100084690F8410078B9C9483D
:101490008078CA498978884209D0C548007830B92F
:1014A000C748007818B10120C64981F82C000024F3
:1014B00005E0C048005DC1490855601CC4B2072C56
:1014C000F7DD322002F0D9F879E72DED028B35E017
:1014D000BD48007880B9BD4801880088401CBB4ADF
:1014E0001080282902DD0120B74908709FEDAA0A63
:1014F000B74880ED000A1EE0042009F08EFA10EED5
:10150000104A20462BF06AFB41EC180B1FED800BB4
:1015100053EC102B2BF06AF902D2AD48046004E0C2
:101520009FED9D0AAA4880ED000AA94890ED000AA7
:1015300024F094FE00BF142002F09FF8C8E702E0F8
:10154000322002F09AF8FBE702E00A2002F095F858
:10155000FBE794B001F054BF9E4801780078401C2E
:101560009C4A1070022906DD0020114608709A4836
:10157000007810F0CCFD974841784078401C954A9F
:101580005070022904DD0020114648700DF06EFAFB
:101590004FF02051914804F0CAFD002801F0E48684
:1015A0004FF020518D4804F0DEFD00208C4908707A
:1015B0000EF0BCFF874881788078401C854A907087
:1015C000012941F3C886002011468870704890F8C0
:1015D000410000287ED083480068834988427AD140
:1015E000824890ED150AB5EEC00AF1EE10FA60D00F
:1015F0007048C079E8B30020089009900A9001462D
:1016000002460B907A4890ED060ADFED7A0A20EE4A
:10161000200ABDEEC00A10EE100A00B20023CDE988
:101620000430CDE90621744890ED050AB1EE400A78
:10163000F2EE040A20EE200ABDEEC00A10EE100AF7
:1016400001B26A4890ED010AB1EE400AF2EE040AD6
:1016500020EE200ABDEEC00A10EE100A00B2674A62
:1016600092ED000AB1EE400AF2EE040A20EE200AE2
:1016700000E01EE0BDEEC00A10EE102A12B2CDE965
:101680000023CDE902015E4890ED000AB1EE400A68
:10169000F2EE040A20EE200ABDEEC00A10EE100A97
:1016A00000B21A4601461390184611F043F801F0B3
:1016B00052BE0020089009900A90014602460B9005
:1016C0004B4890ED060AF2EE040A20EE200ABDEE29
:1016D000C00A01E02CE13AE010EE100A00B200234B
:1016E000CDE90430CDE90621464890ED050AB1EE7A
:1016F000400ABDEEC00A10EE100A00B2424991ED58
:10170000010AB1EE400ABDEEC00A10EE101A09B28D
:101710003E4A92ED0D0AB1EE400ABDEEC00A10EE4F
:10172000102A12B2CDE90023CDE90210384890ED1D
:10173000000AB1EE400ABDEEC00A10EE100A00B277
:101740001A4601461390184610F0F4FFAFE72748F9
:1017500090ED150AB5EEC00AF1EE10FA13D0154857
:10176000C07980B10020089009900A900146024695
:101770000B901F4890ED060ADFED1E0A20EE200AAE
:10178000BDEEC00A46E08CE09A9999999999B93FC3
:10179000106E00209B0000200AD7A33C040200200A
:1017A00000020020200200201F0200201B02002057
:1017B000CC010020130200200C6D00209E000020B0
:1017C0005C06002020030020AC000020AE000020BA
:1017D00070000020B200002076000020B8640240B3
:1017E000FC0200202C1300202E0051001C91002030
:1017F0003C9800200000C8421C94002050000020AB
:10180000A49200202C96002058900020EC79002013
:10181000D492002010EE100A00B20023CDE904306B
:10182000CDE90621FE4890ED050AB1EE400AF2EE40
:10183000040A20EE200ABDEEC00A10EE100A00B223
:10184000F84991ED010AB1EE400AF2EE040A20EEE9
:10185000200ABDEEC00A10EE101A09B2F24A92ED4B
:10186000000AF2EE040A20EE200ABDEEC00A10EED5
:10187000102A12B2CDE90023CDE90210EB4890ED19
:10188000010AF2EE040A20EE200ABDEEC00A10EEB4
:10189000100A00B21A4601461390184610F04AFF8B
:1018A00005E70022089209920A92E1480B9290ED16
:1018B000060AF2EE040A20EE200ABDEEC00A10EE7F
:1018C000100A00B2CDE904200692DA48079290EDA2
:1018D000050AB1EE400ABDEEC00A10EE100A00B2D1
:1018E000D54991ED010AB1EE400ABDEEC00A10EEF5
:1018F000101A09B20023D14A92ED0E0AB1EE400A45
:10190000BDEEC00A10EE102A12B2CDE90023CDE9D7
:101910000210CB4890ED010ABDEEC00A10EE100A8D
:1019200000B21A4601461390184610F003FFBEE6B7
:10193000C44890F8240018B9C3480078002867D03C
:10194000C24800682BF04AF99FEDC10B53EC102BF5
:10195000CDE90E019DED0E0B51EC100B2AF048FE67
:10196000CDE910019DED100B51EC100B2AF0AAFDF2
:1019700000B21390B84800682BF030F99FEDB40B1B
:1019800053EC102BCDE90E019DED0E0B51EC100B1D
:101990002AF02EFECDE910019DED100B51EC100B3D
:1019A0002AF090FD00B212900020089009900A9051
:1019B00003460B90A34A128C12B2DDE91201CDE965
:1019C0000613CDE904209F48808B00B29D49098B06
:1019D00009B29C4A928A12B29A4B1B8A1BB2CDE979
:1019E0000032CDE902109748808900B211909548E5
:1019F000008900B210909348808800B20F909148FF
:101A0000008800B20E900FA90EC910F093FE4EE6AA
:101A1000924800781A2881F09C84DFE810F01A00C0
:101A2000D50089019A0C17028A02FE02CB03010439
:101A30006E04DD049A0C8F05000682069A0CF606E9
:101A400068070C088308FA087B092E0ABF0A3F0BB7
:101A5000160C834800682BF0C1F89FED820B53EC05
:101A6000102BCDE90A019DED0A0B51EC100B2AF069
:101A7000BFFDCDE90C019DED0C0B51EC100B2AF0D4
:101A800021FD00B21390684800682BF0A7F89FED85
:101A9000750B53EC102BCDE90A019DED0A0B51ECAF
:101AA000100B2AF0A5FDCDE90C019DED0C0B51ECBE
:101AB000100B2AF007FD00B212906C4890ED000A5E
:101AC000F2EE040A80EE201ABDEEC10A10EE100AF2
:101AD00000B21190664801680A2091FBF0F000B254
:101AE0001090644800680A2190FBF1F000B20021D8
:101AF0000F90614890ED000ABDEEC00A10EE100A8A
:101B000000B2CDE908010A910B915C48DDE9122190
:101B100090ED000AF2EE040A20EE200ABDEEC00AA3
:101B200010EE100A00B2564B5B79CDE90430CDE9D6
:101B30000621544890ED000A5FEDD20A20EE200AFB
:101B4000BDEEC00A10EE100A02B24F4890ED000A36
:101B50005FEDD80A20EE200ABDEEC00A10EE100A92
:101B600000B24A4B119993ED000A5FEDDE0A20EEB8
:101B7000200ABDEEC00A10EE103A1BB2CDE90031CA
:101B8000CDE90202424890ED000A5FEDE60A20EE40
:101B9000200ABDEEC00A10EE100A00B20E903D48B9
:101BA00090ED000A5FEDED0A20EE200ABDEEC00ABE
:101BB00010EE100A00B20D900246DDE90E301099C9
:101BC00010F0B8FD01F0C6BB334800682BF006F8F2
:101BD0009FED240B53EC102BCDE90C019DED0C0B6C
:101BE00051EC100B2AF004FDCDE90E019DED0E0B1A
:101BF00051EC100B2AF066FC00B2139027480068E5
:101C00002AF0ECFF9FED170B53EC102BCDE90C01E4
:101C10009DED0C0B51EC100B2AF0EAFC40E00000AB
:101C20001C9400201C9100204C000020A492002055
:101C30003C9800202C96002058900020EC79002041
:101C4000D4920020686E0020750000204000002023
:101C5000000000000088C340200000207400002025
:101C60005000002000000000000024403C0800203C
:101C700038050020340500206806002054000020AC
:101C800070010020EC100020200F00202C0F0020FD
:101C9000340F0020300F0020DC0D0020E00D00206C
:101CA000CDE90E019DED0E0B51EC100B2AF00AFC54
:101CB00000B21290FE4800682AF090FF1FED170B4B
:101CC00053EC102BCDE90C019DED0C0B51EC100BDE
:101CD0002AF08EFCCDE90E019DED0E0B51EC100BA0
:101CE0002AF0F0FB00B211900020089009900A90B1
:101CF0000B900023DDE912211198CDE90430CDE9E4
:101D00000621EC48B0F8480000B2EA49B1F8541096
:101D100009B2CDE90013CDE90203E648B0F85C0052
:101D200000B21A4601461090184610F003FD49E72C
:101D3000E14840680B902AF051FF1FED360B53EC41
:101D4000102BCDE90C019DED0C0B51EC100B2AF082
:101D50004FFCCDE90E019DED0E0B51EC100B2AF05E
:101D6000B1FB00B21390D448016808460B912AF0E9
:101D700035FF1FED440B53EC102BCDE90C019DED0D
:101D80000C0B51EC100B2AF033FCCDE90E019DED4C
:101D90000E0B51EC100B2AF095FB00B21290C748C5
:101DA00090ED000AF2EE040A80EE201ABDEEC10AA0
:101DB00010EE100A00B21190C14890ED000AF2EE48
:101DC000040A80EE201ABDEEC10A10EE100A00B21D
:101DD00010900020089009900A900B90B64890ED62
:101DE000020AF2EE040A20EE200ABDEEC00A10EE4E
:101DF000100A01B20023DDE91202CDE90430CDE979
:101E000006211A46AA4890ED000AF2EE040A20EED6
:101E1000200ABDEEC00A10EE100A00B2A94991EDE9
:101E2000000AB1EE400ADFEDA80A20EE200ABDEE5E
:101E3000C00A10EE101A09B2CDE90013CDE9020272
:101E40001846DDE9101210F075FCBBE69F48D0F88B
:101E5000E0000D902AF0C2FE1FED7E0B53EC102B1C
:101E6000CDE90E019DED0E0B51EC100B2AF0C0FBDD
:101E7000CDE910019DED100B51EC100B2AF022FB67
:101E800000B213909248416808460D912AF0A6FED0
:101E90001FED8C0B53EC102BCDE90E019DED0E0BBD
:101EA00051EC100B2AF0A4FBCDE910019DED100BB5
:101EB00051EC100B2AF006FB00B2002108910991A9
:101EC0000A910A460B91129000231399CDE9043030
:101ED000CDE906127D4890ED270AF2EE040A20EEC5
:101EE000200ABDEEC00A10EE100A00B2774991ED4B
:101EF000410AF2EE040A20EE200ABDEEC00A10EEFE
:101F0000101A09B2CDE90013CDE90230714890ED05
:101F1000130AF2EE040A20EE200ABDEEC00A10EE0B
:101F2000100A00B21A4601461190184610F002FC41
:101F300048E66948D0F8E0000D902AF04FFE1FED0A
:101F4000B70B53EC102BCDE90E019DED0E0B51ECB0
:101F5000100B2AF04DFBCDE910019DED100B51EC5B
:101F6000100B2AF0AFFA00B213905C4841680846A3
:101F70000D912AF033FE1FEDC50B53EC102BCDE96C
:101F80000E019DED0E0B51EC100B2AF031FBCDE94B
:101F900010019DED100B51EC100B2AF093FA00B2DA
:101FA00012900020089009900A9002460B9000239E
:101FB000DDE91201CDE90430CDE90612464890ED85
:101FC000270AF2EE040A20EE200ABDEEC00A10EE47
:101FD000100A00B2404991ED410AF2EE040A20EEE7
:101FE000200ABDEEC00A10EE101A09B2CDE90013A6
:101FF000CDE902303A4890ED130AF2EE040A20EEE1
:10200000200ABDEEC00A10EE100A00B21A460146C0
:102010001190184610F08EFBD4E5324800682AF083
:10202000DDFD1FEDF00B53EC102BCDE90E019DED06
:102030000E0B51EC100B2AF0DBFACDE910019DEDEF
:10204000100B51EC100B2AF03DFA00B21390264809
:1020500000682AF0C3FD9FED250B53EC102BCDE952
:102060000E019DED0E0B51EC100B2AF0C1FACDE9DB
:1020700010019DED100B51EC100B2AF023FA00B269
:10208000002112901B4890ED000ABDEEC00A10EE30
:10209000100A00B2CDE908010A910B91044ADDE96A
:1020A000120192ED000AF2EE040A20EE200A23E06B
:1020B000E40D0020AC6D002064C100203C0800202D
:1020C000BC070020140F00200000C8423C980020EC
:1020D000A49200201C9100204C9A0020D492002051
:1020E00058900020DC0D0020E00D002000000000D2
:1020F0000000244068060020BDEEC00A10EE102A41
:1021000012B2FE4B93ED050A5FED110A20EE200A94
:10211000BDEEC00A10EE103A1BB2CDE90432CDE993
:102120000601F64890ED040A5FED190A20EE200A38
:10213000BDEEC00A10EE100A00B20023EF4991ED87
:10214000050A5FED1F0A20EE200ABDEEC00A10EE60
:10215000101A09B2E94A92ED030A5FED250A20EE52
:10216000200ABDEEC00A10EE102A12B2CDE901130A
:1021700000920390E14890ED040A5FED2D0A20EEF5
:10218000200ABDEEC00A10EE100A00B21190DB4822
:1021900090ED020A5FED340A20EE200ABDEEC00A7F
:1021A00010EE100A00B2109001461846119A10F075
:1021B000C1FA07E50020089009900A9002460B90AA
:1021C000CF48808800B2CE49098809B20023CDE902
:1021D0000431CDE90602CB48808B00B2C949098B96
:1021E00009B2C84A928A12B2C64B1B8A1BB2CDE909
:1021F0000032CDE90210C348808900B21390C14873
:10220000008900B21290BF48808800B21190BD488A
:10221000008800B2109011A90EC910F08BFAD1E419
:10222000B948D0F864010D902AF0D8FC1FED510B8D
:1022300053EC102BCDE90E019DED0E0B51EC100B64
:102240002AF0D6F9CDE910019DED100B51EC100BE1
:102250002AF038F900B21390AC4800682AF0BEFCAE
:102260001FED5E0B53EC102BCDE90E019DED0E0B17
:1022700051EC100B2AF0BCF9CDE910019DED100BCB
:1022800051EC100B2AF01EF900B2129000200890B9
:1022900009900A9002460B900023DDE91201CDE976
:1022A0000430CDE906129A4890ED040ABDEEC00A4A
:1022B00010EE100A00B2944991ED620ABDEEC00A18
:1022C00010EE101A09B2CDE90013CDE902309148A1
:1022D00090ED000ABDEEC00A10EE100A00B20246F0
:1022E00011908D4890ED000ABDEEC00A10EE100A64
:1022F00001B2184610F01EFA64E48348D0F8640175
:102300000D902AF06BFC1FED870B53EC102BCDE9E1
:102310000E019DED0E0B51EC100B2AF069F9CDE981
:1023200010019DED100B51EC100B2AF0CBF800B210
:102330001390764800682AF051FC1FED940B53EC83
:10234000102BCDE90E019DED0E0B51EC100B2AF078
:102350004FF9CDE910019DED100B51EC100B2AF057
:10236000B1F800B212900020089009900A9002463D
:102370000B900023DDE91201CDE90430CDE906120E
:10238000634890ED040ABDEEC00A10EE100A00B2D8
:102390005D4991ED620ABDEEC00A10EE101A09B255
:1023A000CDE90013CDE902305C4890ED010ABDEEA5
:1023B000C00A10EE100A00B21190584890ED000AC1
:1023C000BDEEC00A10EE100A00B210900146184689
:1023D000119A10F0AFF9AAE44B48D0F864010D90BF
:1023E0002AF0FCFB1FEDBF0B53EC102BCDE90E01C7
:1023F0009DED0E0B51EC100B2AF0FAF8CDE910010F
:102400009DED100B51EC100B2AF05CF800B213900C
:102410003E4800682AF0E2FB1FEDCC0B53EC102B7A
:10242000CDE90E019DED0E0B51EC100B2AF0E0F8FA
:10243000CDE910019DED100B51EC100B2AF042F884
:1024400000B212900020089009900A9003460B9069
:10245000334ADDE9120192ED020AF2EE040A20EE9F
:10246000200ABDEEC00A10EE102A12B2CDE9061302
:10247000CDE904202B4890ED000AF2EE040A20EE8C
:10248000200ABDEEC00A10EE100A00B20023244953
:1024900091ED000AF2EE040A20EE200ABDEEC00A19
:1024A00010EE101A09B2204A92ED000AF2EE040A68
:1024B00020EE200ABDEEC00A10EE102A12B2CDE9BD
:1024C000011300920390164890ED010AF2EE040AFF
:1024D00020EE200ABDEEC00A10EE100A00B21190E4
:1024E000124890ED000AF2EE040A20EE200ABDEE3A
:1024F000C00A10EE100A00B2109019E0AC6D002076
:10250000001200203CC300204C9A0020D407002079
:1025100060A100209CA100204C080020C8080020D9
:1025200084180020E40D0020DC0D0020E00D0020C8
:1025300001461846119A10F0FDF886E4FD48D0F8DF
:1025400064010D902AF04AFB9FEDFB0B53EC102B1E
:10255000CDE90E019DED0E0B51EC100B2AF048F861
:10256000CDE910019DED100B51EC100B29F0AAFFE5
:1025700000B21390F248816808460D912AF02EFBB4
:102580009FEDED0B53EC102BCDE90E019DED0E0BE5
:1025900051EC100B2AF02CF8CDE910019DED100B39
:1025A00051EC100B29F08EFF00B212900020089021
:1025B00009900A9003460B90E24ADDE9120192ED80
:1025C000010AF2EE040A20EE200ABDEEC00A10EE67
:1025D000102A12B2CDE90613CDE90420D94890EDB6
:1025E000000AF2EE040A20EE200ABDEEC00A10EE48
:1025F000100A01B20022D448808BB23800B2CDE973
:102600000020D148CDE90221008BA03800B213464A
:10261000024600211190084610F08CF815E4C548D8
:10262000D0F864010B902AF0D9FA9FEDC30B53EC5C
:10263000102BCDE90C019DED0C0B51EC100B29F08A
:10264000D7FFCDE90E019DED0E0B51EC100B29F0DB
:1026500039FF00B21390BA48816808460B912AF0FE
:10266000BDFA9FEDB50B53EC102BCDE90C019DEDA0
:102670000C0B51EC100B29F0BBFFCDE90E019DEDC9
:102680000E0B51EC100B29F01DFF00B29FEDAA0BB1
:1026900053EC102B1290AD4890ED000B51EC100B49
:1026A00029F0A6FFCDE90E019DED0E0B51EC100BAC
:1026B00029F008FF00B29FEDA00B53EC102B1190F6
:1026C000A34890ED000B51EC100B29F091FFCDE9E0
:1026D0000E019DED0E0B51EC100B29F0F3FE00B234
:1026E00010900020089009900A9003460B90DDE9B5
:1026F00012211198CDE90613CDE904020021954875
:1027000090ED120ABDEEC00A10EE100A00B2CDE93B
:10271000001002910B4603910846109A10F00AF837
:1027200006E48448D0F864010D902AF057FA9FED32
:10273000820B53EC102BCDE90E019DED0E0B51ECED
:10274000100B29F055FFCDE910019DED100B51EC58
:10275000100B29F0B7FE00B2139079488168084643
:102760000D912AF03BFA9FED740B53EC102BCDE941
:102770000E019DED0E0B51EC100B29F039FFCDE948
:1027800010019DED100B51EC100B29F09BFE00B2D7
:102790000022089209920A9213460B9212906E4AF6
:1027A000139992ED000ABDEEC00A10EE102A12B283
:1027B000CDE90613CDE90420684890ED000ABDEE8E
:1027C000C00A10EE100A00B20022654991ED000A1D
:1027D000DFED640A20EE200ABDEEC00A10EE101AEA
:1027E00009B2CDE900211346CDE902205E480088F8
:1027F00002B25E4890ED000ABDEEC00A10EE100A6B
:1028000001B200200FF096FF06E44A48D0F86401B8
:102810000D902AF0E3F99FED480B53EC102BCDE916
:102820000E019DED0E0B51EC100B29F0E1FECDE9F0
:1028300010019DED100B51EC100B29F043FE00B27E
:1028400013903F48816808460D912AF0C7F99FED23
:102850003A0B53EC102BCDE90E019DED0E0B51EC14
:10286000100B29F0C5FECDE910019DED100B51ECC8
:10287000100B29F027FE00B212900020089009905A
:102880000A9003460B90364ADDE9120192ED000AE8
:10289000DFED340A20EE200ABDEEC00A10EE102A49
:1028A00012B2CDE90613CDE90420314890ED000ABB
:1028B000BDEEC00A10EE100A00B200222D4991EDC3
:1028C000000ADFED280A20EE200ABDEEC00A10EE55
:1028D000101A09B2CDE900211346CDE902202248A1
:1028E000008802B2002108460FF024FF11E21148CF
:1028F000D0F864010D902AF071F99FED0F0B53ECA5
:10290000102BCDE90E019DED0E0B51EC100B29F0B3
:102910006FFECDE910019DED100B51EC100B29F06D
:10292000D1FD00B213900648816808460D912AF047
:1029300055F921E04C9A00200000000000002440DE
:1029400084180020C808002000A60020E00600200F
:10295000D806002058900020BC070020D407002093
:10296000200F002000007A44B4050020B0070020AA
:10297000C4070020240F00201FED110B53EC102B77
:10298000CDE90E019DED0E0B51EC100B29F030FE40
:10299000CDE910019DED100B51EC100B29F092FDCB
:1029A00000B212900020089009900A9003460B9004
:1029B000FE4ADDE9120192ED010AF2EE040A20EE70
:1029C000200ABDEEC00A10EE102A12B2CDE906139D
:1029D000CDE90420F54890ED000AF2EE040A20EE5D
:1029E000200ABDEEC00A10EE100A00B20022F04923
:1029F00091ED010AF2EE040A20EE200ABDEEC00AB3
:102A000010EE101A09B2CDE90021CDE90220E84804
:102A100090ED000AF2EE040A20EE200ABDEEC00A94
:102A200010EE100A00B20023024619461190184613
:102A30000FF080FE6DE1DF4800682AF0CFF81FED4F
:102A4000420B53EC102BCDE90E019DED0E0B51EC1A
:102A5000100B29F0CDFDCDE910019DED100B51ECCF
:102A6000100B29F02FFD00B21390D34800682AF014
:102A7000B5F81FED4F0B53EC102BCDE90E019DED7A
:102A80000E0B51EC100B29F0B3FDCDE910019DEDBB
:102A9000100B51EC100B29F015FD00B20021129023
:102AA000C64890ED000ABDEEC00A10EE100A00B252
:102AB000CDE908010A910B91C14ADDE9120192EDBD
:102AC000000AF2EE040A20EE200ABDEEC00A10EE63
:102AD000102A12B20023CDE90432CDE90601B9482B
:102AE00090ED010AF2EE040A20EE200ABDEEC00AC3
:102AF00010EE100A00B2CDE900300293B148039302
:102B000090ED000AF2EE040A20EE200ABDEEC00AA3
:102B100010EE100A00B202461946119018460FF046
:102B200009FEF6E0A34800682AF058F81FED7E0B76
:102B300053EC102BCDE90E019DED0E0B51EC100B5B
:102B400029F056FDCDE910019DED100B51EC100B55
:102B500029F0B8FC00B21390974800682AF03EF8BC
:102B60001FED8B0B53EC102BCDE90E019DED0E0BE1
:102B700051EC100B29F03CFDCDE910019DED100B3F
:102B800051EC100B29F09EFC00B2002112908B48F2
:102B900090ED000ABDEEC00A10EE100A00B2CDE9B9
:102BA00008010A910B91864ADDE9120192ED000AB3
:102BB000F2EE040A20EE200ABDEEC00A10EE102A42
:102BC00012B20023CDE90432CDE906017E4890ED32
:102BD000010ADFED7E0A20EE200ABDEEC00A10EEEB
:102BE000100A00B2CDE9003002937948039390EDCA
:102BF000010ADFED760A20EE200ABDEEC00A10EED3
:102C0000100A00B202461946119018460FF092FDC4
:102C1000A0E36848006829F0E1FF1FEDB90B53EC11
:102C2000102BCDE90E019DED0E0B51EC100B29F090
:102C3000DFFCCDE910019DED100B51EC100B29F0DC
:102C400041FC00B213905C48006829F0C7FF1FEDFB
:102C5000C60B53EC102BCDE90E019DED0E0B51EC84
:102C6000100B29F0C5FCCDE910019DED100B51ECC6
:102C7000100B29F027FC00B2002112904F4890ED74
:102C8000000ABDEEC00A10EE100A00B2CDE908013C
:102C90000A910B914A48DDE9121290ED000AF2EE1A
:102CA000040A20EE200ABDEEC00A10EE100A00B29F
:102CB000484B93ED000ABDEEC00A10EE103A1BB26D
:102CC000CDE90430CDE90612434890ED040ABDEE8B
:102CD000C00A10EE100A01B20023404890ED530ADA
:102CE000BDEEC00A10EE100A00B23D4AB2F904204F
:102CF000CDE90231CDE900203948B0F9000011904A
:102D00003748B0F90200109001461846119A0FF0AA
:102D100011FD1FE32748006829F060FF1FEDFA0B43
:102D200053EC102BCDE90E019DED0E0B51EC100B69
:102D300029F05EFCCDE910019DED100B51EC100B5C
:102D400029F0C0FB00B213901B48006829F046FF31
:102D50009FED240B53EC102BCDE90E019DED0E0BD6
:102D600051EC100B29F044FCCDE910019DED100B46
:102D700051EC100B29F0A6FB00B2002112900F4875
:102D800090ED000ABDEEC00A10EE100A00B2CDE9C7
:102D900008010A910B910A4ADDE9120192ED000A3D
:102DA000F2EE040A20EE200A20E00000A4920020A7
:102DB000E0080020DC0D0020E00D00206806002067
:102DC000E40D002084180020F80800200000C8420C
:102DD000F00800204C08002060A100204C9A002040
:102DE000F46C00200000000000002440BDEEC00A8A
:102DF00010EE102A12B20023CDE90432CDE906010B
:102E00001A46FE4890ED030ADFEDFD0A20EE200A87
:102E1000BDEEC00A10EE100A00B2F84991ED020AA8
:102E2000DFEDF70A20EE200ABDEEC00A10EE101A00
:102E300009B2CDE90232CDE90010F04890ED010A67
:102E4000DFEDEF0A20EE200ABDEEC00A10EE100AF8
:102E500000B21190E94890ED000ADFEDE90A20EE9A
:102E6000200ABDEEC00A10EE100A00B21090014612
:102E70001846119A0FF05EFC6CE2E248006829F0F7
:102E8000ADFE1FED280B53EC102BCDE90E019DED8F
:102E90000E0B51EC100B29F0ABFBCDE910019DEDB1
:102EA000100B51EC100B29F00DFB00B21390D6481B
:102EB000006829F093FE1FED350B53EC102BCDE984
:102EC0000E019DED0E0B51EC100B29F091FBCDE99D
:102ED00010019DED100B51EC100B29F0F3FA00B22C
:102EE00000211290C94890ED000ABDEEC00A10EE14
:102EF000100A00B2CDE908010A910B91C44ADDE93C
:102F0000120192ED000AF2EE040A20EE200ABDEE54
:102F1000C00A10EE102A12B20023CDE90432CDE926
:102F200006011A46B54890ED030ADFEDBA0A20EE15
:102F3000200ABDEEC00A10EE100A00B2B64991EDAB
:102F4000010AF7EE000A20EE200ABDEEC00A10EEDC
:102F5000101A09B2CDE90232CDE90010A74890ED70
:102F6000010ADFEDAC0A20EE200ABDEEC00A10EE29
:102F7000100A00B21190A84890ED000AF7EE000A7E
:102F800020EE200ABDEEC00A10EE100A00B210902A
:102F900001461846119A0FF0CDFBDBE19948006815
:102FA00029F01CFE1FED710B53EC102BCDE90C0129
:102FB0009DED0C0B51EC100B29F01AFBCDE90E0125
:102FC0009DED0E0B51EC100B29F07CFA00B2139022
:102FD0008D48006829F002FE1FED7E0B53EC102B8C
:102FE000CDE90C019DED0C0B51EC100B29F000FB11
:102FF000CDE90E019DED0E0B51EC100B29F062FA9C
:1030000000B21290854890ED000AF2EE040A80EEBC
:10301000201ABDEEC10A10EE100A00B211908048CD
:1030200090ED000AF2EE040A80EE201ABDEEC10A0D
:1030300010EE100A00B200211090744890ED000AC2
:10304000BDEEC00A10EE100A00B2CDE908010A91E7
:103050000B916F48DDE9121290ED000AF2EE040ABE
:1030600020EE200ABDEEC00A10EE100A00B20023C6
:10307000CDE90430CDE90612DDE910128DE80E002D
:103080006848039390ED000ABDEEC00A10EE100AE6
:1030900002B2002108460FF04DFB5BE15948006881
:1030A00029F09CFD1FEDB10B53EC102BCDE90C0169
:1030B0009DED0C0B51EC100B29F09AFACDE90E01A5
:1030C0009DED0E0B51EC100B29F0FCF900B21390A2
:1030D0004D48006829F082FD1FEDBE0B53EC102B0C
:1030E000CDE90C019DED0C0B51EC100B29F080FA91
:1030F000CDE90E019DED0E0B51EC100B29F0E2F91C
:1031000000B21290484890ED000B8DED0C0B1FEDB6
:10311000CB0B53EC102B9DED0C0B51EC100B29F04D
:1031200067FACDE90E019DED0E0B51EC100B29F065
:10313000C9F900B200211190344890ED000ABDEEAB
:10314000C00A10EE100A00B2CDE908010A910B91F5
:103150003648DDE9122190ED000AF2EE040A20EE75
:10316000200ABDEEC00A10EE100A00B20023CDE91D
:103170000430CDE906212E4890ED000AF2EE040A53
:1031800020EE200ABDEEC00A10EE100A00B211991E
:103190000093CDE901310390264890ED030AF2EE49
:1031A000040A20EE200ABDEEC00A10EE100A00B29A
:1031B0001090204890ED010AF2EE040A20EE200A59
:1031C000BDEEC00A10EE100A00B20F90194890ED43
:1031D000000AF2EE040A20EE200ABDEEC00A10EE4C
:1031E000100A00B20E90134890ED040AF2EE040AA1
:1031F00020EE200ABDEEC00A1EE00000906E002006
:1032000000007A44DC0D0020E00D0020680600205C
:10321000E40D00200000000030C30020D40700208F
:10322000BC070020DC07002090C1002054000020D3
:10323000800E002064C1002010EE100A00B20D9034
:103240000EA90EC90FF076FA84E0AB48006829F0A9
:10325000C5FC9FEDAA0B53EC102BCDE90E019DEDA3
:103260000E0B51EC100B29F0C3F9CDE910019DEDC7
:10327000100B51EC100B29F025F900B21390A14866
:10328000006829F0ABFC9FED9D0B53EC102BCDE9B2
:103290000E019DED0E0B51EC100B29F0A9F9CDE9B3
:1032A00010019DED100B51EC100B29F00BF900B241
:1032B00000211290944890ED000ABDEEC00A10EE75
:1032C000100A00B2CDE908010A910B918F4ADDE99D
:1032D000120192ED000AF2EE040A20EE200ABDEE81
:1032E000C00A10EE102A12B20023CDE90432CDE953
:1032F0000601874890ED010ADFED860A20EE200ADC
:10330000BDEEC00A10EE100A00B21A46824991EDD5
:10331000000A5FED450A20EE200ABDEEC00A10EE5D
:10332000101A09B2CDE90031CDE902207B4890EDB9
:10333000000A5FED4D0A20EE200ABDEEC00A10EE35
:10334000100A00B202461946119018460FF0F2F921
:1033500000E000BF00BF01228021714801F044F964
:103360006221704807F0E6F86F48C178C078401CC9
:103370006D4AD070012940DD00201146C8706B49AC
:103380006B4802F0D4FEC0B36849694802F0EBFE16
:1033900068480078052826D2DFE800F0030A1118F3
:1033A0001E00012063490870002010F03EF81AE06A
:1033B000022060490870032010F037F813E0032062
:1033C0005C490870012010F030F80CE004205949E5
:1033D000087010F02AF806E0002056490870052011
:1033E00010F023F800BF00BF01228021524801F0F5
:1033F000FBF842214E4807F09DF8052000F03DF90A
:10340000FEF7AAB82DED028B5CE007F031FA11F05F
:1034100079FE08F05DF84948007850B948480078CE
:1034200038B1012047498870C87000204870087082
:1034300003E007F09FFB07F0B7FC43490868096801
:10344000491C414B196029F083F841EC180B9FEDA2
:103450003F0B53EC102B29F0C9F902D200203D4953
:1034600008703D4991F8220091F82210491C3A4B0E
:1034700083F8221029F06CF841EC180B9FED330B08
:1034800053EC102B29F0B2F903D20020324981F815
:103490002100324890ED000AB5EEC00AF1EE10FAB4
:1034A00003D02F4890F8220020B101202C4981F848
:1034B0002D0003E000202A4981F82D004FF4FA7016
:1034C00000F0DBF8A1E7274A1278052A04D1002290
:1034D000254B1A80234B1A70234A1288234B1B78E2
:1034E0001A44214B1A801F4A1278521C1D4B1A7025
:1034F0007047704770470000DC0D0020000000009E
:1035000000002440E00D002068060020E40D0020AB
:1035100008C200200000C842340200203802002007
:1035200000100140B8640240B200002020000020DA
:1035300070600240B6000020004C0040CC0100202A
:103540005C06002070010020D40200200000000072
:1035500000002040D802002000A60020F4A1002096
:10356000106E0020B700002084000020F000002032
:103570000948804709480047FEE7FEE7FEE7FEE707
:10358000FEE7FEE7FEE7FEE7FEE7FEE70448054943
:10359000054A064B70470000AD3700088901000856
:1035A000C0C30020C0C90020C0C50020C0C5002085
:1035B000704700BFFEE700BFFEE700BFFEE700BFA9
:1035C000FEE770477047000010B502F08CFF03F073
:1035D000D0F802F0A3FF10BD70B504466FF00400F0
:1035E00000F0D0F9E11704EB5171C1F3C701344A7F
:1035F0001170E11704EB5171CD1041F28830454351
:103600000520304908804FF0E020006940F00200BA
:103610004FF0E021086108464561006940F0010073
:10362000086170BD2DE9F047074600264FF0E02005
:10363000D0F814902248007807FB00F800BF02F091
:10364000A5FF4FF0E020856911E04FF0E02084698C
:10365000AC420CD0AC4202D2281B064403E0A9EBDA
:103660000400284406442546464500D300E0ECE724
:1036700000BF02F0D0FFBDE8F08770B504461248E5
:103680000078012814D11148007888B90D480088C5
:10369000844206DB0B48008894FBF0F5284605F0D1
:1036A000B3F80848008894FBF0F100FB114084B2A5
:1036B0004FF47A7104FB01F0FFF7B4FF70BD000016
:1036C000BA000020BC0000200A010020FE000020FB
:1036D0000CB50020019000907648006840F48030DE
:1036E0007449086000BF7348006800F4003000901F
:1036F0000198401C0190009818B90198B0F5A04FAE
:10370000F1D16C48006800F4003010B10120009045
:1037100001E0002000900098012846D16548403023
:10372000006840F08050634940310860624800689A
:1037300040F44040604908605E48083000685D49D8
:10374000083108600846006840F4004008600846F8
:10375000006840F4A05008605848091F0860081F1E
:10376000006840F08070091F086000BF5148006881
:1037700000F000700028F9D040F205705049086050
:103780004C480830006820F003004A4908310860BE
:103790000846006840F00200086000BF4548083055
:1037A000006800F00C000828F8D10CBD10B54548A1
:1037B000006840F47000434908603E48006840F0EB
:1037C00001003C49086000203A4908310860394846
:1037D00000683D490840374908603C48091D0860B9
:1037E000081F006820F48020091F0860002031496C
:1037F0000C310860FFF76CFF4FF0006031498039F1
:10380000086010BD70B500200022022300240221B0
:10381000284D08352D6805F00C0020B1042806D08D
:10382000082834D107E02A4D2A4E356033E02A4D6E
:10383000284E35602FE01F4D2D1D2D68C5F3805497
:103840001C4D2D1D2D6805F03F0154B1224DB5FBD7
:10385000F1F5184E361D3668C6F3881605FB06F2DC
:1038600009E01B4DB5FBF1F5124E361D3668C6F367
:10387000881605FB06F20F4D2D1D2D68C5F3014579
:103880006D1C6B00B2FBF3F5124E356003E0104D7A
:10389000104E356000BF00BF064D08352D68C5F3DA
:1038A00003150E4E705D0B4D2D68C540094E3560F9
:1038B00070BD00000038024000700040085440070E
:1038C000003C024088ED00E0FFFFF6FE10300024CF
:1038D0000024F400C000002000127A00C400002080
:1038E00032490143324A1160704770B5002100230C
:1038F0000F22C4781CB32E4C246804F4E064C4F591
:10390000E064C4F30721C1F10404E3B20A4144783E
:103910009C40E1B28478144021430C07210E254CD1
:1039200005786155047804F01F050124AC40057842
:103930006D11AD0005F1E025C5F8004109E00478FE
:1039400004F01F050124AC401B4D0678761145F8A4
:10395000264070BD194A0A400243154B1B1F1A60CE
:10396000704739B1124A121D12680243104B1B1DD9
:103970001A6006E00E4A121D126882430C4B1B1D92
:103980001A607047042808D14FF0E021096941F01E
:1039900004014FF0E022116107E04FF0E0210969D6
:1039A00021F004014FF0E022116170470000FA0598
:1039B0000CED00E000E400E080E100E080FFFF1F8C
:1039C00010B504469848844208D10121084600F009
:1039D00086FB0021012000F082FB76E093488442C0
:1039E00008D10121022000F07AFB0021022000F022
:1039F00076FB6AE08E48844208D10121042000F061
:103A00006EFB0021042000F06AFB5EE089488442DE
:103A100008D10121082000F062FB0021082000F0FD
:103A20005EFB52E08448844208D10121102000F05E
:103A300056FB0021102000F052FB46E07F488442F4
:103A400008D10121202000F04AFB0021202000F0B5
:103A500046FB3AE07A48844208D10121402000F038
:103A60003EFB0021402000F03AFB2EE075488442E6
:103A700008D10121802000F032FB0021802000F0DD
:103A80002EFB22E07048844208D10121801500F00D
:103A900026FB0021A01500F022FB16E06B488442B3
:103AA00008D10121401500F01AFB0021601500F03B
:103AB00016FB0AE06648844207D10121001500F098
:103AC0000EFB0021201500F00AFB10BDF0B50A46E0
:103AD00000210023002400BF3DE0012505FA01F389
:103AE000156805EA03049C4234D105684F0003269B
:103AF000BE40B543056015794E00B54006683543B4
:103B000005601579012D02D01579022D16D1856831
:103B10004F000326BE40B543856055794E00B54041
:103B2000866835438560456801268E40B54345600B
:103B3000456896798E40B6B235434560C5684F00FA
:103B40000326BE40B543C560D5794E00B540C66872
:103B50003543C560491C1029BFD3F0BD4FF6FF7136
:103B600001600021017141718171C171704708B517
:103B70004FF480320092009A0A430092009AC26188
:103B8000C161009AC261C2690092C269009208BD17
:103B90000246002013690B400BB1012000E0002019
:103BA00070470146086980B2704702460020536999
:103BB0000B400BB1012000E000207047014648692E
:103BC00080B2704701837047418370470AB1018317
:103BD00000E0418370474161704742694A40426159
:103BE0007047F0B5002300244D07ED0E02FA05F3EF
:103BF000CE1000F1200555F826504E07F70E0F267F
:103C0000BE40B543CF1000F1200646F82750CE1035
:103C100000F1200555F8265045EA0304CE1000F1C6
:103C2000200545F82640F0BD000002400004024097
:103C300000080240000C0240001002400014024044
:103C400000180240001C02400020024000240240F4
:103C500000280240F948006840F00100F749086078
:103C60000020F64908310860F4480068F44908402B
:103C7000F2490860F348091D0860F348EF498431B0
:103C80000860F0481038091D0860EC48006820F40E
:103C90008020EA4908600020E8490C310860E749C3
:103CA0008C31086070470021E44A921C1170114663
:103CB0000870704710B501460022002300204A1109
:103CC000012A02D1DD4C236808E0022A03D1DB4C33
:103CD0007034236802E0D94C7434236801F01F0269
:103CE000012494401C400CB1012000E0002010BDD4
:103CF00038B5002000900024002500BF3120FFF7D8
:103D0000D9FF05460098401C00900098B0F5A04FE0
:103D100001D0002DF2D03120FFF7CCFF08B10124F3
:103D200000E00024204638BD01460020C34A106848
:103D300020F0F80040EAC10010607047C3490860F5
:103D400070470021BD4A703211701170012802D0F5
:103D500004280AD104E00121B84A7032117005E04C
:103D60000521B64A7032117000E000BF00BF7047F5
:103D7000B7490860704770B5049C41EA8215012676
:103D8000C6EB530645EA0645054345EA0465AB4ED6
:103D9000361D356070BDAD4908667047820142EA44
:103DA0000172A64B84331A607047A8498866704731
:103DB00010B5830143EA016343EA02739F4C8834E0
:103DC000236010BDA14908677047A049C8647047C7
:103DD00002460020994B0833186820F0EC6042EA54
:103DE00001031843954B08331860704702460020C2
:103DF000924B0833186820F0784042EA01031843D8
:103E00008E4B083318607047014600208B4A0832F9
:103E1000106820F00300084310607047874808309E
:103E2000006800F00C00704701460020834A083209
:103E3000106820F0F0000843106070470146002031
:103E40007E4A0832106820F4E05008431060704742
:103E500001460020794A0832106820F4604040EAA8
:103E6000C10010607047F0B5002100220024022537
:103E700000260223714F08373F6807F00C0121B17B
:103E8000042905D0082937D105E0724F076036E0D4
:103E9000714F076033E0694F3F1D3F68C7F380569D
:103EA000664F3F1D3F6807F03F036EB16A4FB7FB97
:103EB000F3F7DFF888C10CF1040CDCF800C0CCF398
:103EC000881C07FB0CF40CE0624FB7FBF3F7DFF83C
:103ED0006CC10CF1040CDCF800C0CCF3881C07FBAF
:103EE0000CF4564F3F1D3F68C7F301477F1C7D0010
:103EF000B4FBF5F7076002E0564F076000BF00BF54
:103F00004E4F08373F6807F0F0010909534F7A5CBC
:103F10000768D7404760494F08373F6807F4E051CA
:103F2000890A4E4F7A5C4768D7408760434F08370D
:103F30003F6807F46041490B484F7A5C4768D740B7
:103F4000C760F0BD002100F44072B2F5407F0AD195
:103F50003A4A0832116821F4F811414A02401143EB
:103F6000364A08321160354A70321268C0F30B03CA
:103F70001A43324B70331A60704735494439086030
:103F800070473349403908607047364908607047C8
:103F900001460020294A8C32106820F01F004A1E7A
:103FA0001043264A8C321060704701460020234A95
:103FB0008C32106820F4F8504A1E40EA02201F4A52
:103FC0008C3210607047014600201C4A8C32106809
:103FD00020F4401008431060704701460020174A43
:103FE0008C32106820F4400008431060704701468E
:103FF0000020124A8C32106820F4403008431060D0
:10400000704719490860704739B10C4A303212685C
:1040100002430A4B30331A6006E0084A3032126815
:104020008243064B30331A607047F9B1034A343289
:1040300012680243014B34331A601CE0003802401E
:10404000FFFFF6EA10300024003000200000474255
:10405000800E47420024F40000127A00D4000020B1
:10406000FFFCFF0F5C014742E01147428F4A126894
:1040700082438E4B1A60704739B18C4A121D126808
:1040800002438A4B1B1D1A6006E0884A121D126803
:104090008243864B1B1D1A60704739B1834A0C322C
:1040A00012680243814B0C331A6006E07F4A0C32DF
:1040B000126882437D4B0C331A60704739B17B4ADA
:1040C000103212680243794B10331A6006E0774AC7
:1040D000103212688243754B10331A60704739B141
:1040E000724A243A12680243704B243B1A6006E07D
:1040F0006E4A243A126882436C4B243B1A60704724
:1041000039B16A4A203A12680243684B203B1A6070
:1041100006E0664A203A12688243644B203B1A60EC
:10412000704739B1614A1C3A126802435F4B1C3B2D
:104130001A6006E05D4A1C3A126882435B4B1C3BE6
:104140001A60704739B1594A143A12680243574B02
:10415000143B1A6006E0554A143A12688243534BE6
:10416000143B1A60704739B1504A103A1268024342
:104170004E4B103B1A6006E04C4A103A12688243DC
:104180004A4B103B1A60704739B1484A1C321268DA
:104190000243464B1C331A6006E0444A1C32126844
:1041A0008243424B1C331A60704739B13F4A203278
:1041B000126802433D4B20331A6006E03B4A20322E
:1041C00012688243394B20331A60704739B1374A3D
:1041D000243212680243354B24331A6006E0334A16
:1041E000243212688243314B24331A60704739B14C
:1041F0002E4A2C32126802432C4B2C331A6006E0F4
:104200002A4A2C3212688243284B2C331A6070479A
:1042100039B1264A303212680243244B30331A60D7
:1042200006E0224A303212688243204B30331A6053
:104230007047012808D11D493C31096841F0080147
:104240001A4A3C32116007E018493C31096821F0F4
:104250000801164A3C321160704739B1134A273AB7
:1042600012780243114B273B1A7006E00F4A273A97
:10427000127882430D4B273B1A7070470B48403031
:10428000006840F08070094940310860704701467D
:104290000020064A283A12680A400AB1012000E0CC
:1042A00000207047014926390870704734380240B1
:1042B00010B50446FA48844208D101211020FFF7C6
:1042C00052FF00211020FFF74EFF57E0F5488442CF
:1042D00009D101214804FFF735FF00214FF40030D8
:1042E000FFF730FF4AE0F048844209D101218804F9
:1042F000FFF728FF00214FF48020FFF723FF3DE068
:10430000EA48844209D10121C804FFF71BFF0021BC
:104310004FF40020FFF716FF30E0E548844209D152
:1043200001210805FFF70EFF00214FF48010FFF771
:1043300009FF23E0DF48844208D101212020FFF754
:1043400012FF00212020FFF70EFF17E0DA48844219
:1043500009D101218807FFF7F5FE00214FF08040C9
:10436000FFF7F0FE0AE0D548844207D1012140055D
:10437000FFF7E8FE00216005FFF7E4FE10BD2DE920
:10438000FF4705460E460024A14600BFA046B0895F
:1043900000B100BF2C8A24F44054F08804432C82DE
:1043A000AC8941F20C608443B0883189084371893B
:1043B00008430443AC81AC8A24F44074B0890443BC
:1043C000AC826846FFF74FFDB548854202D0B94838
:1043D000854202D1DDF80C9001E0DDF80890A88953
:1043E00000F4004040B109EBC90000EB091031684E
:1043F0004900B0FBF1F707E009EBC90000EB091039
:1044000031688900B0FBF1F76420B7FBF0F00401DC
:104410002009642101FB1078A88900F4004040B114
:10442000322000EBC800B0FBF1F000F007000443BD
:1044300008E0322000EB08106421B0FBF1F000F03E
:104440000F0004432C81BDE8FF874FF41651016033
:1044500000218180C18001810C2141810021818165
:10446000704710B502460020108A20F470600B8857
:104470004C8823438C882343CC88234318431082E1
:1044800010BD0021018041808180C180704721B131
:10449000828942F40052828104E082894DF6FF73E2
:1044A0001A4082817047028B02F47F420283028BA2
:1044B0000A430283704721B1828942F4004282811B
:1044C00003E08289C2F30E028281704721B1828AA1
:1044D00042F40062828204E0828A4FF2FF731A4043
:1044E00082827047C1F30802828070470146888843
:1044F000C0F308007047028A4FF6F0731A40028238
:10450000028A0A430282704721B1828942F0020284
:10451000828104E082894FF6FD731A4082817047E0
:1045200082894FF2FF731A40828182890A43828115
:104530007047028A4FF6DF731A400282028A0A43EA
:104540000282704721B1028A42F48042028204E072
:10455000028A4BF6FF731A4002827047818941F04C
:1045600001018181704721B1828A42F00802828272
:1045700004E0828A4FF6F7731A4082827047028BFA
:10458000D2B20283028B42EA01220283704721B138
:10459000828A42F02002828204E0828A4FF6DF7330
:1045A0001A408282704721B1828A42F010028282D0
:1045B00004E0828A4FF6EF731A4082827047828A43
:1045C0004FF6FB731A408282828A0A4382827047C6
:1045D00021B1828A42F00202828204E0828A4FF68E
:1045E000FD731A40828270471AB1838A0B4383821B
:1045F00002E0838A8B4383827047F0B50346002430
:1046000000260025002040F66A17B94200D100BFFD
:104610001846C1F3421401F01F06012707FA06F5F8
:10462000012C01D10C3004E0022C01D1103000E04B
:1046300014301AB107682F43076002E00768AF43E0
:104640000760F0BD02460020B1F5007F00D100BF39
:1046500013880B400BB1012000E00020704701F4EB
:104660000072B2F5007F00D100BFCA4302807047DC
:1046700070B50246002400230025002040F66A168B
:10468000B14200D100BFC1F3421501F01F03012662
:1046900006FA03F3012D13D19689334017E0000089
:1046A000001001400044004000480040004C004021
:1046B000005000400014014000780040007C0040A1
:1046C000022D02D1168A334001E0968A33400C1243
:1046D000012606FA04F41688344013B10CB1012007
:1046E00000E0002070BD10B50022002340F66A14DF
:1046F000A14200D100BF0A1201249440A3B2DC43BE
:10470000048010BD10B50446FE48844208D1012142
:104710000846FFF728FD00210120FFF724FD9DE05A
:10472000B4F1804F08D101210846FFF70BFD0021AD
:104730000120FFF707FD91E0F348844208D10121F1
:104740000220FFF7FFFC00210220FFF7FBFC85E0C1
:10475000EE48844208D101210420FFF7F3FC002138
:104760000420FFF7EFFC79E0E948844208D10121F9
:104770000820FFF7E7FC00210820FFF7E3FC6DE0CD
:10478000E448844208D101211020FFF7DBFC00211E
:104790001020FFF7D7FC61E0DF48844208D10121F7
:1047A0002020FFF7CFFC00212020FFF7CBFC55E0B5
:1047B000DA48844208D101210220FFF7D4FC00210D
:1047C0000220FFF7D0FC49E0D548844209D10121FD
:1047D0000804FFF7C8FC00214FF48030FFF7C3FC4A
:1047E0003CE0D048844209D101214804FFF7BBFCDA
:1047F00000214FF40030FFF7B6FC2FE0CA48844296
:1048000009D101218804FFF7AEFC00214FF480207C
:10481000FFF7A9FC22E0C548844208D101214020CD
:10482000FFF790FC00214020FFF78CFC16E0C04809
:10483000844208D101218020FFF784FC00218020E0
:10484000FFF780FC0AE0BB48844207D101218015B4
:10485000FFF778FC0021A015FFF774FC10BD0022C3
:104860000288A84B98420ED0AC4B98420BD0B0F1C6
:10487000804F08D0A44B984205D0A44B984202D058
:10488000A34B984204D14FF68F731A404B881A43BA
:10489000A04B984207D0A04B984204D04FF6FF435C
:1048A0001A400B891A4302804B68C3620B88038548
:1048B000944B984202D0994B984201D18B7A03864F
:1048C0000123838270474FF0FF3141600021018056
:1048D00001814180817270470185828270470A465A
:1048E000002101884FF68F731940114301807047F2
:1048F00041627047C16270470146486A704701468D
:10490000088D704721B1028842F00202028004E063
:1049100002884FF6FD731A400280704721B1028869
:1049200042F00402028004E002884FF6FB731A4052
:104930000280704721B1028842F08002028004E0C8
:1049400002884FF67F731A400280704702884FF644
:10495000F7731A40028002880A4302807047028877
:104960004FF6FF431A40028002880A4302807047D4
:1049700021B1028842F00102028004E002884FF671
:10498000FE731A400280704770B500240022002395
:10499000058C4FF6FE7635400584028C8388048BA7
:1049A0004FF68F752C40B51E2C400D882C43751E7C
:1049B0002A408D892A434D882A43524DA84202D06D
:1049C000564DA84213D14FF6F7752A40CD892A4398
:1049D0004FF6FB752A408D882A434FF6FF652B4022
:1049E0004FF6FF552B400D8A2B434D8A2B43838076
:1049F00004838D684563028470BD70B50024002275
:104A00000023058C4FF6EF7635400584028C8388B1
:104A1000048B48F6FF752C404FF6FF452C400D885F
:104A20004FF6FF7606EA05252C434FF6DF752A4040
:104A30008D8906EA05152A434D8806EA05152A439D
:104A4000304DA84202D0354DA8421DD14FF67F759A
:104A50002A40CD894FF6FF7606EA05152A434FF620
:104A6000BF752A408D8806EA05152A434FF6FF35A3
:104A70002B404FF2FF752B400D8A06EA85052B432C
:104A80004D8A06EA85052B43838004838D68856300
:104A9000028470BD70B5002400220023058C4FF6FF
:104AA000FF6635400584028C8388848B4FF68F75B2
:104AB0002C404FF6FC752C400D882C434FF6FF55CB
:104AC0002A408D894FF6FF7606EA05252A434D8850
:104AD00006EA05252A430B4DA84202D00F4DA842F5
:104AE00038D14FF2FF752A40CD894FF6FF7606EA9E
:104AF00005252A434FF6FF352A408D8806EA05250D
:104B00002A4319E000000140000400400008004072
:104B1000000C004000100040001400400004014060
:104B2000004001400044014000480140001800409E
:104B3000001C0040002000404EF6FF752B404DF653
:104B4000FF752B400D8A06EA05152B434D8A06EAB0
:104B500005152B43838084838D68C563028470BDF3
:104B600070B5002200230024058C4EF6FF763540F8
:104B70000584038C8488828B48F6FF752A404FF6A3
:104B8000FF452A400D884FF6FF7606EA05252A43A1
:104B90004DF6FF752B408D8906EA05352B434D8870
:104BA00006EA05352B43FE4DA84202D0FD4DA84232
:104BB00008D14BF6FF752C400D8A4FF6FF7606EABA
:104BC00085152C43848082838D680564038470BDC1
:104BD000002101804180818081608181C1810182C9
:104BE0004182704770B503460020002418461830F3
:104BF00001258D40ACB21D8CA5431D8409B1082947
:104C00000AD100EB610005684FF68F7635400560EC
:104C10000568154305600FE00D1FC5F34E052844D8
:104C2000056848F6FF763540056005684FF6FF7663
:104C300006EA02263543056070BD41637047816313
:104C40007047C1637047016470470A460021018BB9
:104C50004FF68F7319401143018370470A460021B4
:104C6000018B48F6FF7319404FF6FF7303EA0223E6
:104C70001943018370470A460021818B4FF68F73D9
:104C800019401143818370470A460021818B48F601
:104C9000FF7319404FF6FF7303EA02231943818320
:104CA00070470A460021018B4FF6F77319401143F4
:104CB000018370470A460021018B4FF2FF731940B0
:104CC0004FF6FF7303EA02231943018370470A4634
:104CD0000021818B4FF6F773194011438183704790
:104CE0000A460021818B4FF2FF7319404FF6FF7384
:104CF00003EA02231943818370470A460021018B8E
:104D00004FF6FB7319401143018370470A46002197
:104D1000018B4FF6FF3319404FF6FF7303EA02236E
:104D20001943018370470A460021818B4FF6FB73BC
:104D300019401143818370470A460021818B4FF649
:104D4000FF3319404FF6FF7303EA022319438183AF
:104D500070470A460021018B4FF67F7319401143BB
:104D6000018370470A460021018BC1F30E014FF603
:104D7000FF7303EA02231943018370470A460021A7
:104D8000818B4FF67F7319401143818370470A4628
:104D90000021818BC1F30E014FF6FF7303EA02235A
:104DA0001943818370470A460021018C4FF6FD7339
:104DB00019401143018470470A460021018C4FF6C7
:104DC000F77319401143018470470A460021018C92
:104DD0004FF6DF7319404FF6FF7303EA02131943CE
:104DE000018470470A460021018C4FF67F731940F9
:104DF0004FF6FF7303EA02131943018470470A4612
:104E00000021018C4FF6FF5319404FF6FF7303EA60
:104E100002231943018470470A460021018C4FF296
:104E2000FF7319404FF6FF7303EA0223194301840D
:104E300070470A460021018C4DF6FF7319404FF66A
:104E4000FF7303EA023319430184704730B500232E
:104E500001248C40A3B2048C9C430484048C02FA89
:104E600001F5ADB22C43048430BD30B500230424D9
:104E70008C40A3B2048C9C430484048C02FA01F598
:104E8000ADB22C43048430BD828B4FF2FF331A4005
:104E90008283828B4FF6FF7303EA01231A438283D6
:104EA0007047F0B50C461546002100220026078CFD
:104EB0004EF6FF7C07EA0C070784818B028C4FF6C5
:104EC000FF7707EA043640F6FF4739404FF6FF7791
:104ED00007EA052739434FF6FF7707EA03373943D7
:104EE00045F6FF773A4046F480573A43818302847F
:104EF000F0BD828B4FF6F3731A408283828B0A4394
:104F000082837047F0B50C4615460021002200262A
:104F1000078C4FF6FF6C07EA0C070784818B028C25
:104F20004FF6FF7707EA04264FF60C7739404FF625
:104F3000FF7707EA03172F4339434FF2FF573A40F1
:104F400046F480773A4381830284F0BD028B4FF2AE
:104F5000FF331A400283028B4FF6FF7303EA0123EB
:104F60001A4302837047F0B50C4615460021002213
:104F70000026078C4FF6EF7C07EA0C070784018BAD
:104F8000028C4FF6FF7707EA041640F6FF473940D8
:104F90004FF6FF7707EA033739434FF6FF7703E011
:104FA000000001400004014007EA052739434FF69D
:104FB0005F773A4046F010073A4301830284F0BD20
:104FC000028B4FF6F3731A400283028B0A4302836B
:104FD0007047F0B50C46154600210022068C4FF6AE
:104FE000FE773E400684018B028C4FF60C763140F2
:104FF0007E1C06EA03162E4331434FF6F576324007
:1050000044F00106324301830284F0BD70B50546C9
:105010000C46208850B92389A28861882846FFF76A
:10502000D8FFE1882846FFF7CBFF25E02088042839
:105030000AD12389A28861882846FFF794FFE18876
:105040002846FFF783FF17E0208808280AD1238924
:10505000A28861882846FFF755FFE1882846FFF7B8
:1050600048FF09E02389A28861882846FFF719FFD5
:10507000E1882846FFF708FF70BD002101804180CC
:10508000012181800021C180018170472DE9F0411B
:1050900005460C4600260127608808B9022600E074
:1050A0000026A088012801D1022700E001272088DE
:1050B000A0B92389A28861882846FFF78AFFE18882
:1050C0002846FFF77DFF23893A4631462846FFF7F9
:1050D0004AFFE1882846FFF739FF13E02389A288B9
:1050E00061882846FFF73FFFE1882846FFF72EFF3B
:1050F00023893A4631462846FFF76BFFE188284668
:10510000FFF75EFFBDE8F0810146486B704701463E
:10511000886B70470146C86B70470146086C704742
:105120000A884B881A438B881A43CB881A430B8909
:105130001A434B891A438B891A43A0F844207047BD
:105140000021018041808180C18001814181818174
:10515000704731B1B0F8442042F40042A0F8442036
:1051600005E0B0F84420C2F30E02A0F844207047D6
:1051700021B1828842F00402828004E082884FF6E6
:10518000FB731A408280704721B1828842F001028D
:10519000828004E082884FF6FE731A408280704756
:1051A0001AB183890B43838102E083898B43838116
:1051B00070478182704702460020138A0B400BB172
:1051C000012000E000207047CA430282704730B5DA
:1051D0000246002000230024158A05EA0103958970
:1051E00005EA010413B10CB1012000E0002030BD3C
:1051F000CA430282704741EA0203A0F84830704770
:105200001AB183890B43838102E083898B438381B5
:10521000704721B1828842F00802828004E08288CF
:105220004FF6F7731A408280704701894FF6F87283
:105230001140018170470A46002101894FF68F73A2
:10524000194011430181704730B504460D46294687
:105250002046FFF7F0FF208940F00700208130BD95
:105260002DE9F04104460D4616461F46602D06D135
:105270003B46012231462046FFF775FE05E03B46DE
:10528000012231462046FFF7A4FE29462046FFF7BB
:10529000D2FF208940F007002081BDE8F08130B5C1
:1052A0000C4600210189C9B24FF6FF7505EA0325B6
:1052B000154325432943018130BD2DE9F0410546C1
:1052C0000E4617469846002443463A46314628463D
:1052D000FFF7E5FF2C894FF6F870044044F007040F
:1052E0004FF68F70044044F070042C81BDE8F081CB
:1052F000F0B504460D4616461F463B463246294643
:105300002046FFF7CCFF208940F480402081F0BD8B
:1053100082884FF68F731A40828082880A43828087
:10532000704702894FF6F8731A40028102890A43D6
:105330000281704702894FF67F731A400281028909
:105340000A4302817047F0B50C4615461E460021FF
:10535000002200230189028B038C4FF6F877394035
:1053600021434FF6FC473A4040F201173A434FF6CB
:10537000DD773B404FF6FF7707EA06172F433B43A5
:10538000018102830384F0BD21B1828842F0800252
:10539000828004E082884FF67F731A4082807047D3
:1053A000A0F8501070470000FE4A1070704730B1EE
:1053B000FC49096841F48071FA4A116005E0F94935
:1053C000096821F48071F74A1160704730B1F549DE
:1053D000096841F40071F34A116005E0F149096878
:1053E00021F40071EF4A1160704730B1ED4909684E
:1053F00041F48061EB4A116005E0EA49096821F453
:105400008061E84A11607047E648006840F4006037
:10541000E44908607047E348006840F48050E1497F
:1054200008607047DF481030006800F0004028B185
:10543000DD48DC49091D0860DC4808607047D94830
:105440001030006840F00040D649103108607047C5
:105450000920D4490C31096801F48031B1F5803F4D
:1054600001D1012020E0CF490C31096801F0100181
:1054700009B1062018E0CB490C31096801F48071AC
:1054800009B1022010E0C7490C31096801F0EF01B1
:1054900009B1072008E0C3490C31096801F0020195
:1054A00009B1082000E00920704708B509200090E4
:1054B000FFF7CEFF009002E0FFF7CAFF00909DF8D3
:1054C00000000128F8D09DF8000008BD70B5044622
:1054D0000A460026092502B909E0012A01D116026F
:1054E00005E0022A01D1160201E04FF44076FFF7F1
:1054F000DCFF0546092D2DD1AA481030006820F4A4
:105500004070A849103108600846006830430860C0
:105510000846006820F0F80008600846006844F07B
:10552000020108439F49103108600846006840F4B2
:1055300080300860FFF7B9FF05469A4810300068D0
:1055400020F002009749103108600846006820F0FA
:10555000F8000860284670BD30B5024600250924D1
:10556000FFF7A3FF044602B909E0012A01D11502A1
:1055700005E0022A01D1150201E04FF44075092C23
:1055800020D188481030006820F4407085491031DF
:10559000086008460068284308600846006840F034
:1055A000040008600846006840F480300860FFF797
:1055B0007CFF04467B481030006820F004007949E5
:1055C00010310860204630BD30B502460025092460
:1055D000FFF76BFF044602B909E0012A01D1150269
:1055E00005E0022A01D1150201E04FF44075092CB3
:1055F00020D16C481030006820F4407069491031A7
:10560000086008460068284308600846006840F0C3
:10561000040008600846006840F480300860FFF726
:1056200044FF04465F481030006820F004005D49E4
:1056300010310860204630BD30B5024600250924EF
:10564000FFF733FF044602B909E0012A01D1150230
:1056500005E0022A01D1150201E04FF44075092C42
:1056600020D150481030006820F440704D4910316E
:10567000086008460068284308600846006840F44F
:10568000004008600846006840F480300860FFF77A
:105690000CFF044643481030006820F400404149A4
:1056A00010310860204630BD70B5064614461D46D0
:1056B0000922FFF7FAFE0246092A1ED139481030A6
:1056C000006820F4407037491031086008460068CF
:1056D00040F4407008600846006840F0010008602F
:1056E00034607560FFF7E1FE02462E481030006816
:1056F00020F001002B4910310860104670BD30B514
:1057000002460C460925FFF7D0FE0546092D1DD19E
:1057100024481030006820F440702249103108609D
:105720000846006840F4007008600846006840F0D1
:10573000010008601460FFF7B8FE054619481030F4
:10574000006820F00100174910310860284630BD7C
:1057500030B502460C460925FFF7A7FE0546092D80
:105760001DD110481030006820F440700D491031F0
:1057700008600846006840F48070086008460068C9
:1057800040F0010008601480FFF78FFE05460548D1
:105790001030006820F001000249103108602846EE
:1057A00030BD0000003C024023016745AB89EFCDCE
:1057B00030B502460C460925FFF777FE0546092D50
:1057C00017D19B48006820F440709949086008464A
:1057D000006808600846006840F001000860147026
:1057E000FFF763FE05469248006820F001009049EB
:1057F0000860284630BD8E48001D006800F001009A
:1058000028B18C488A49083908608B48086070477D
:105810008748001D006840F001008549091D0860A7
:10582000704730B502460C460925FFF73EFE054697
:10583000092D10D13CB17E48801D008890437C49E1
:10584000891D088007E07A48801D008891B20843CE
:105850007749891D088030BD30B502460C460925C0
:10586000FFF723FE0546092D10D13CB170480A30E0
:10587000008890436E490A31088007E06C480A307E
:10588000008891B208436A490A31088030BDFF217F
:10589000674AD21D127802F07F0140EA0102644B90
:1058A000DB1D1A70704730B502460C460925FFF71C
:1058B000FCFD0546092D10D144B15D48801D0088CE
:1058C00091B208435A49891D088006E05848801D56
:1058D000008890435649891D088030BD30B5024686
:1058E0000C460925FFF7E1FD0546092D10D144B10D
:1058F0004F480A30008891B208434D490A31088068
:1059000006E04B480A300088904349490A31088034
:1059100030BD10B502460924FFF7C7FD0446092C27
:1059200002D14348401D027010BDF0B504460D463B
:10593000FF260927FFF7B9FD0746092F0BD13C4881
:10594000001D007800F00F0645EA060010432043D2
:105950003749091D0870F0BD3549091D097821F046
:105960001001334A121D117011460978014311705C
:1059700070472F49091D097821F00C012C4A121D8E
:1059800011701146097801431170704700B5092262
:105990002748001D007840F002002549091D0870C5
:1059A000FFF783FD0246104600BD2148001D006838
:1059B000C0F3471070471E48801D008870471C4880
:1059C0000A30008870471A48801D008870471848C0
:1059D0000A300088704700201549491D0978AA2916
:1059E00001D0012000E0002070471148001D007820
:1059F00000F00C00704729B10D4A126802430C4BAD
:105A00001A6004E00A4A12688243094B1A60704720
:105A100001460020064A121F12680A400AB10120FE
:105A200000E0002070470249091F0860704700002D
:105A3000103C02403B2A19087F6E5D4C10B50446AD
:105A4000FB48844208D101218014FEF78CFB002121
:105A5000A014FEF788FB3CE0F648844208D10121FF
:105A60000014FEF76FFB00212014FEF76BFB30E003
:105A7000F148844208D10121C013FEF763FB0021E5
:105A8000E013FEF75FFB24E0EC48844208D10121DB
:105A90004014FEF768FB00216014FEF764FB18E079
:105AA000E748844209D101210805FEF75CFB00218B
:105AB0004FF48010FEF757FB0BE0E248844208D118
:105AC00001214805FEF74FFB00214FF40010FEF7BF
:105AD0004AFB10BD10B50022028802F441520B8827
