:020000040800F2
:1000000020BF0020B5320008F5320008F7320008A2
:10001000FB320008FF320008033300080000000034
:10002000000000000000000000000000073300088E
:100030000933000800000000ED8600080D330008B9
:10004000CF320008CF320008CF320008CF3200088C
:10005000CF320008CF320008CF320008CF3200087C
:10006000CF320008CF320008CF320008CF3200086C
:10007000CF320008CF320008CF320008CF3200085C
:10008000CF320008CF320008CF320008CF3200084C
:10009000CF320008CF320008CF320008CF3200083C
:1000A000CF320008CF320008CF320008CF3200082C
:1000B000CF320008290E0008CF320008CF320008E6
:1000C000CF320008CF320008CF320008CF3200080C
:1000D000CF320008F3F5000879D20008290D010895
:1000E000CF320008CF320008CF320008CF320008EC
:1000F000CF320008CF320008CF320008CF320008DC
:10010000CF320008CF320008CF320008CF320008CB
:100110000DFA000815E20008CF320008CF320008BF
:10012000CF320008CF320008CF320008CF320008AB
:10013000CF320008CF320008CF320008CF3200089B
:10014000CF320008CF320008CF320008CF3200088B
:10015000CF320008CF320008CF320008CF3200087B
:10016000CF320008CF320008CF320008CF3200086B
:10017000CF320008CF320008CF320008CF3200085B
:10018000CF320008CF32000800F002F800F05CF82F
:100190000AA090E8000C82448344AAF10107DA45E2
:1001A00001D100F051F8AFF2090EBAE80F0013F0D8
:1001B000010F18BFFB1A43F001031847F4D20200E5
:1001C00014D302000A444FF0000C10F8013B13F066
:1001D000070408BF10F8014B1D1108BF10F8015BA0
:1001E000641E05D010F8016B641E01F8016BF9D193
:1001F00013F0080F1EBF10F8014BAD1C0C1B09D1EA
:100200006D1E58BF01F801CBFAD505E014F8016B5B
:1002100001F8016B6D1EF9D59142D6D370470000ED
:100220000023002400250026103A28BF78C1FBD8FF
:10023000520728BF30C148BF0B6070471FB52CF074
:1002400042FA1FBD10B510BD29F0A6F81146FFF700
:10025000F5FF00F09EF829F0C4F803B4FFF7F2FFB1
:1002600003BC29F0C7F80000E44800887047E34861
:1002700012380068E2490860E0480E3800684860BB
:10028000DE480A380068886070477FB5044600255C
:1002900000BF002006F0A1FBDA4908604FF480712E
:1002A000D94806F099FDD949086003A9002005F056
:1002B000F9FFD749086005F095FD03A8D5A10022F4
:1002C000D64BCDE90021029002220A21084607F010
:1002D000E4FED349086003A9D148006808F06FF82C
:1002E00003A8D0A10022D14BCDE900210290022227
:1002F00005210A2007F0D1FECD49086003A9CC48AA
:10030000006808F05CF808F0C9F905460423C94AFA
:100310000021C94807F088FA0223C84A0021C848CA
:1003200007F082FA0323C74A0021C74807F07CFA86
:100330000E23C64A0021C64807F076FA0523C54AAF
:100340000021C54807F070FA1123C44A0021C448AF
:1003500007F06AFA1223C34A0021C34807F064FA7F
:100360000F23C24A0021C24807F05EFA0623C14AA1
:100370000021C14807F058FA1323C04A0021C048A1
:1003800007F052FA142007F0CFFC284608F08AF94B
:100390007FBD1CB5FFF76BFF4FF4A06003F042F97F
:1003A000A82002F0BBFF09F0B2FC4FF4C87009F0BE
:1003B000A0FB09F0CEFD642009F079FD08F0DBFA1E
:1003C000642009F074FD14F0FDFA1420AD490870A2
:1003D0000846007813F07DFD642009F068FD0020D8
:1003E000A949087013F027FC0120A7490870642070
:1003F00009F05DFD4FF4E1300DF0DFFF01204221F7
:10040000A24BA34ACDE90010C106A24809F0DEFACA
:100410004FF461200BF0D8FC4FF47A300FF0B4FBAE
:10042000002042219C4B9D4ACDE9001089069C4842
:1004300009F0CCFA4FF4613010F032FB4FF4613028
:100440000DF098FD642009F032FD00F0C9FC08F0C1
:100450000CFF02E0642009F02AFD08F076FE4EF65B
:1004600015718842F6D109F08EF800208D4981F887
:1004700033009FED8D0A8D4880ED0A0AB0EE020A26
:100480008B4880ED0A0A9FED8B0A80ED090A9FEDEB
:100490008A0A80ED0B0A9FED890A80ED0C0A9FED18
:1004A000880A80ED0D0A0020864908707D4981F890
:1004B0002B0081F82E0081F84300012081F82F00E5
:1004C000002081F83000C87481F84000012081F8D4
:1004D000280081F85100002081F822000120C87511
:1004E000002081F8290081F82A00487181F8440031
:1004F00001200872002081F84600012081F83D00AB
:100500000020087681F8200081F8210081F83F0062
:1005100008700120487300204874012088754872D3
:10052000C8730020087581F83100087481F8210033
:1005300001204875002088740120887348708870F5
:10054000C870002008710120C87200208872012044
:100550000873002081F84C0040F2DC505A49C880F2
:10056000088048804FF47A708880002057490860DE
:1005700048608860C8604FF4FA7053490881488128
:100580008881C881012280214448001F03F0CEFEEB
:100590004221434809F076FA012280213C48001F9D
:1005A00003F0C4FE42213B4809F06CFA322009F006
:1005B0007EFC42F2CF01F92009F0EEFC05F0D3FAFF
:1005C0001423434A0021AFF23D3007F02DF905F026
:1005D000F1FB00201CBD1CB50FE001A80023032285
:1005E0001F2100900A48006805F0C2FF01AB0022FD
:1005F0001F210748006806F0FBF8EEE7227AFF1F8C
:100600009C12002000000020A812002004000020FE
:1006100008000020746D72310000000043320008B1
:1006200078000020746D7232000000006F32000804
:100630007C00002080210020F30E0008801B002099
:100640003D0E0008802500205B0F0008802D002053
:10065000D7110008803A00203914000880300020AB
:10066000BF120008804000204D1400088038002090
:10067000D1130008803C0020431400088041002072
:10068000893100080C00002046010020C6730020BC
:1006900004100140B86402404E740020044C004035
:1006A00070600240906A00209A99A93FA09B0020A8
:1006B000E89B00209A990940CDCC4C3E0000A04216
:1006C0000080D444C8010020A8650020C86500202F
:1006D0009812002010B52DED048BFE49FE4B0DCB7A
:1006E00040310DC1FB4AFC4BD3E903105B69C2E901
:1006F0001403D164F948F84B18330ECB08300EC000
:10070000F54890ED0A0AF34880ED190AF4480068AC
:100710006FF03011084428B1A0F5D8102038002817
:100720007ED101E19FEDEF0AEF4880ED100A80EDE8
:100730000C0A90ED0C0ADFEDED0A20EE200ABCEE6B
:10074000C00A10EE100AEA49C8809FEDEA0AE6489E
:1007500080ED120A80ED0E0A90ED0E0ADFEDE30A3D
:1007600020EE200ABCEEC00A10EE100A08819FEDB0
:10077000E20ADD4880ED110A80ED0D0A90ED0D0AC8
:10078000DFEDDA0A20EE200ABCEEC00A10EE100AF5
:1007900048819FEDDA0AD44880ED040A80ED000A12
:1007A00090ED000ADFEDD10A20EE200ABCEEC00A6F
:1007B00010EE100A08809FEDD20ACB4880ED060AA1
:1007C00080ED020A90ED020ADFEDC80A20EE200A51
:1007D000BCEEC00A10EE100A4880B0EE000AC24813
:1007E00080ED050A80ED010A90ED010ADFEDBF0AF8
:1007F00020EE200ABCEEC00A10EE100A88809FEDA1
:10080000BF0AB94880ED140A90ED140ADFEDB70A6B
:1008100020EE200ABCEEC00A10EE100A088200E0AA
:10082000ADE19FEDB40AB04880ED160A90ED160ACE
:10083000DFEDAE0A20EE200ABCEEC00A10EE100A70
:10084000C8819FEDAC0AA84880ED150A9FEDAB0A60
:1008500080ED080A90ED080ADFEDA40A20EE200AD8
:10086000BCEEC00A10EE100A88819FEDA50A9E48D2
:1008700080ED0A0AB7EE000A80ED090AB7EE000A19
:1008800080ED070A80ED030AB7EE000A80ED0B0A3F
:10089000B1EE040A9B4880ED000AB5EE000A80ED37
:1008A000010A9FED940A80ED020A9FED940A80ED03
:1008B000080A9FED950A80ED090A9FED940A80EDE4
:1008C0000A0A9FED930A80ED060A9FED910A80EDDA
:1008D0000E0A90ED0E0A10EE101A08462BF052FE8A
:1008E00041EC190B9FED8B0B53EC102B2BF054FBB1
:1008F00041EC180B2BF038F88249C8639FED800A51
:10090000084680ED200A0F21844880F8B61180F84F
:100910004E1080F8C6104221814880F8B61180F848
:100920004E1080F8C61026E29FED6E0A6E4880EDEC
:10093000100A80ED0C0A90ED0C0ADFED6C0A20EE37
:10094000200ABCEEC00A10EE100A6949C8809FED6B
:10095000690A654880ED120A80ED0E0A90ED0E0AD4
:10096000DFED620A20EE200ABCEEC00A10EE100A8B
:1009700008819FED610A5C4880ED110A80ED0D0A47
:1009800090ED0D0ADFED590A20EE200ABCEEC00AF8
:1009900010EE100A48819FED630A534880ED040A67
:1009A00080ED000A90ED000ADFED500A20EE200AEB
:1009B000BCEEC00A10EE100A08809FED510A4A48AA
:1009C00080ED060A80ED020A90ED020ADFED470A8B
:1009D00020EE200ABCEEC00A10EE100A4880B0EEED
:1009E000000A414880ED050A80ED010A90ED010AF8
:1009F000DFED3E0A20EE200ABCEEC00A10EE100A1F
:100A000088809FED3E0A384880ED140A90ED140A64
:100A1000DFED360A20EE200ABCEEC00A10EE100A06
:100A200008829FED340A304880ED160A90ED160AD0
:100A3000DFED2E0A20EE200ABCEEC00A10EE100AEE
:100A4000C8819FED2C0A284880ED150A9FED2B0ADE
:100A500080ED080A90ED080ADFED240A20EE200A56
:100A6000BCEEC00A10EE100A88819FED250A1E48D0
:100A700080ED0A0AB7EE000A80ED090AB7EE000A17
:100A800080ED070A80ED030AB7EE000A80ED0B0A3D
:100A90009FED180A1B4880ED000A9FED160A80EDB5
:100AA000010A9FED210A80ED080A9FED200A80EDE2
:100AB000090A9FED160A80ED0A0A9FED0A0A80EDE9
:100AC000060A9FED130A80ED0E0A90ED0E0A10EE55
:100AD000101A2DE04C760020A816002010030020EC
:100AE0009C120020CDCCCC3EE816002000007A44B9
:100AF000B6670020000000009A99993ECDCC4C3F8B
:100B0000CDCCCC3D346800200AD7A33BCDCC4C3EA5
:100B1000CDCCCC3C000000000000F83F808F0020CE
:100B2000609100203333333F6666263F0AD7233C6B
:100B300008462BF027FD41EC190B1FED0A0B53EC77
:100B4000102B2BF029FA41EC180B2AF00DFFA949C4
:100B5000C8631FED150A084680ED200A4621A64805
:100B600080F8B61180F84E1080F8C6106421A348B2
:100B700080F8B61180F84E1080F8C610FBE09FEDAB
:100B8000A00AA04880ED100A80ED0C0A90ED0C0A36
:100B90005FED2A0A20EE200ABCEEC00A10EE100A11
:100BA0009949C8801FED2D0A964880ED120A80ED04
:100BB0000E0A90ED0E0A5FED330A20EE200ABCEE1D
:100BC000C00A10EE100A0881B6EE000A8D4880EDCA
:100BD000110A80ED0D0A90ED0D0A5FED3C0A20EE42
:100BE000200ABCEEC00A10EE100A48819FED840A6C
:100BF000844880ED040A80ED000A90ED000A5FED64
:100C0000450A20EE200ABCEEC00A10EE100A088049
:100C10001FED450A7B4880ED060A80ED020A90ED43
:100C2000020A5FED4E0A20EE200ABCEEC00A10EE6A
:100C3000100A4880B2EE000A724880ED050A80ED85
:100C4000010A90ED010A5FED570A20EE200ABCEE82
:100C5000C00A10EE100A88801FED580A694880ED1E
:100C6000140A90ED140A5FED5F0A20EE200ABCEE34
:100C7000C00A10EE100A08829FED640A614880EDF8
:100C8000160A90ED160A5FED670A20EE200ABCEE08
:100C9000C00A10EE100AC8811FED690A594880ED9C
:100CA000150A1FED6A0A80ED080A90ED080A5FED4B
:100CB000710A20EE200ABCEEC00A10EE100A8881EC
:100CC0001FED710A4F4880ED0A0AB7EE000A80ED69
:100CD000090AB7EE000A80ED070A80ED030AB7EEB5
:100CE000000A80ED0B0AB0EE000A424880ED000ACF
:100CF0001FED800A80ED010A9FED450A80ED080A8C
:100D00001FED760A80ED090AB7EE000A80ED0A0AA7
:100D10001FED7A0A80ED060A9FED3E0A80ED0E0A6D
:100D200090ED0E0A10EE101A08462BF02BFC41EC49
:100D3000190B1FED880B53EC102B2BF02DF941EC08
:100D4000180B2AF011FE2B49C8639FED330A0846A1
:100D500080ED200A6421314880F8B61180F84E10E9
:100D600080F8C6104221254880F8B61180F84E1050
:100D700080F8C61000BF00BF2948224C1ECC54305A
:100D80001EC064381F4CD4E905322169E469C0E90A
:100D90001B24C0E919131B4CD4E90932216AE46A07
:100DA000C0E91F24C0E91D131E49164C30341DCC68
:100DB00054311DC11B481349D1E911430A6CC96C58
:100DC000C0E91A43426601670E49D1E91442D1E9EC
:100DD0001631C0E91D42C0E91F31BDEC048B10BDC6
:100DE00010B5FFF777FC15F061F919F08DFC19F0DB
:100DF0006BFC10BD34680020808F002060910020C3
:100E00009A99D93EE8160020B6670020CDCC4C3D1B
:100E1000CDCC0C3FBC74133D8FC2753D4093002078
:100E2000C88B00208C8C002010B50121FE4804F0F6
:100E300070F80121FC4804F07DF810BD2DED028B07
:100E400056E0072009F03FF8B0EE408AB5EEC08AC0
:100E5000F1EE10FA03DDF54880ED008A04E0B6EE0D
:100E6000000AF24880ED000AF148007880B9F148A4
:100E700001780078401CEF4A1070282902DD01201B
:100E8000EB4908709FEDEC0AE84880ED000A2BE082
:100E900012F03DFFE54890ED000A13F0C8F9E7486D
:100EA00001780078401CE54A1070022904DB00201C
:100EB0001146087012F0D9FDE14801780078401C15
:100EC000DF4A1070022904DB00201146087013F07D
:100ED000CAFFDC48D54991ED000A09F0A3FAD348CE
:100EE00090ED000A17F0BBFA022002F068FA00BF8A
:100EF000A7E72DED028B2FE00B2008F0E4FFB0EE0A
:100F0000408AB5EEC08AF1EE10FA03DDCE4880EDDE
:100F1000008A04E09FEDCD0ACB4880ED000ACC4862
:100F2000007880B9CB4801780078401CC94A10701D
:100F3000282902DD0120C64908709FEDC70AC24872
:100F400080ED000A04E0C04890ED000A15F0C0F8FA
:100F5000052002F034FA00BFCEE72DED0C8B82B0F5
:100F600038E1BE48007880B9BD4801780078401C5F
:100F7000BB4A1070282902DD0120B84908709FED96
:100F8000B60AB84880ED000A21E1052008F09BFF71
:100F9000B0EE408AB5EEC08AF1EE10FA03DDB1483A
:100FA00080ED008A04E09FEDA90AAE4880ED000ABA
:100FB000AD4801780078401CAB4A1070012955DD1E
:100FC000002011460870A948D0ED0F0AB0EE600A63
:100FD000F6EE000A21F0C6F8F0EE408AA348D0ED04
:100FE0000E0AB0EE600ADFEDA20A21F0BBF8B0EE07
:100FF000409A9E48D0ED0D0AB0EE600ADFED9C0AE3
:1010000021F0B0F8F0EE409A9A48D0ED0A0AF0EEDE
:10101000604AD0ED090AB0EE604AD0ED080AF0EE61
:10102000603A9248D0ED060AB0EE603AD0ED050A7B
:10103000F0EE602AD0ED040AB0EE602A8948D0EDC7
:10104000000AB6EE001A60EE810AB0EE001A60EEF9
:10105000810AB0EE600A884A694601A8F0EE681A73
:10106000B0EE491AF0EE690A23F088FA7F4890ED55
:10107000060A10EE101A08462BF084FA41EC1C0BFD
:101080009FED7E0B53EC102B2AF05CFD41EC1B0B0B
:101090002AF06AFC08EE900A744890ED050A10EEFA
:1010A000101A08462BF06EFA41EC1C0B9FED730BE7
:1010B00053EC102B2AF046FD41EC1B0B2AF054FC9C
:1010C00009EE100A694890ED040A10EE101A08465D
:1010D0002BF058FA41EC1C0B9FED680B53EC102BD6
:1010E0002AF030FD41EC1B0B2AF03EFC09EE900A81
:1010F0005E48D0ED0F0AB0EE600AF6EE000A21F06D
:1011000031F810EE104A20462BF03CFA41EC1C0B53
:101110009FED5C0B53EC102B2AF014FD41EC1B0BE4
:101120002AF022FC0AEE100A5048D0ED0E0AB0EE6A
:10113000600AF6EE000A21F015F810EE104A20467B
:101140002BF020FA41EC1C0B9FED4E0B53EC102BB7
:101150002AF0F8FC41EC1B0B2AF006FC0AEE900A80
:101160004248D0ED0D0AB0EE600AF6EE000A20F01B
:10117000F9FF10EE104A20462BF004FA41EC1C0B4C
:101180009FED400B53EC102B2AF0DCFC41EC1B0BC9
:101190002AF0EAFB0DEE100A3C4A3D493D48DFEDDE
:1011A000344A9FED334ADFED323AB0EE683AF0EE62
:1011B000492AB0EE692AF0EE4A1AB0EE6A1AF0EE49
:1011C0004D0A284B93ED000A23F07FFE00BF052057
:1011D00002F0F5F8C5E62DED028B6FE02E480178A0
:1011E0000078401C2C4A1070042903DD00201146B1
:1011F000087000BF294908780978491C274B1970E5
:101200002AF07AFE41EC180B9FED250B53EC102BC6
:101210002AF0C0FF4BD2244890F83E0010B10020C5
:101220001E4943E043E00000000400402400002089
:101230008D0000208E0000200AD7A33B8A000020EA
:101240008B0000207417002044000020CDCC4C3EC1
:1012500092000020930000200AD7233C9700002032
:10126000980000204800002095000020D075002044
:101270000000000040030020540000200000000097
:101280000000B0406666666666A64C4058000020C6
:101290004C00002050000020990000209B000020FE
:1012A0009A9999999999B93F906A002008709FED91
:1012B000FD0A1CF030FC142002F081F88EE786E075
:1012C000F94801680068401CF74A10601E2905D9DA
:1012D0001F20114608600120F4490870F448016895
:1012E0000068401CF24A10601E2905D91F201146D3
:1012F00008600020EF490870EF480078EF4981F856
:101300003E00ED48407881F83100EB488078487124
:10131000E948C078EA4908700120E84981F82500C9
:1013200081F84600E748C07981F84700E548C07871
:1013300008B9012000E00020E0494875E248B0F912
:10134000080040F2DC51884204DD0120DB4981F8CD
:10135000220003E00020D94981F82200D948807991
:1013600080B1D848407968B1D648C07850B1D548E6
:10137000807838B1D348407820B1D248007808B19D
:10138000012000E00020CD4981F84100084690F896
:10139000410078B9CB488078CC498978884209D017
:1013A000C748007830B9CA48007818B10120C94947
:1013B00081F82C00002405E0C248005DC3490855AF
:1013C000601CC4B2072CF7DD322001F0F8FF77E78C
:1013D0002DED028B2FE0C048007880B9BF4801880E
:1013E0000088401CBD4A1080282902DD0120BA492E
:1013F00008709FEDAC0ABA4880ED000A18E004209E
:1014000008F061FDB0EE408AB5EEC08AF1EE10FA48
:1014100003DDB34880ED008A04E09FEDB20AB048D6
:1014200080ED000AAE4890ED000A24F08DFE00BF6A
:101430000A2001F0C4FFCEE702E0322001F0BFFF36
:10144000FBE702E00A2001F0BAFFFBE794B001F0ED
:1014500099BEA54801780078401CA34A1070022963
:1014600006DD002011460870A04800780FF0F1FC5E
:101470009D4841784078401C9B4A5070012904DD0A
:101480000020114648700CF057FD0DF00FFF9648F4
:1014900081788078401C944A9070012941F3EB8553
:1014A0000020114688704FF02051914804F097F9C0
:1014B000002801F0E0854FF020518D4804F0ABF991
:1014C0007E4890F8410000287ED07E48C079E8B37D
:1014D0000020089009900A90014602460B9085482A
:1014E00090ED050ADFED840A20EE200ABDEEC00A69
:1014F00010EE100A00B20023CDE90430CDE9062138
:101500007E4890ED040AB1EE400AF2EE040A20EEA5
:10151000200ABDEEC00A10EE100A00B2784991ED23
:10152000010AB1EE400AF2EE040A20EE200ABDEEF6
:10153000C00A10EE101A09B2724A92ED000AB1EE1A
:10154000400AF2EE040A20EE200A00E01EE0BDEEA2
:10155000C00A10EE102A12B2CDE90023CDE9021024
:10156000694890ED000AB1EE400AF2EE040A20EE5E
:10157000200ABDEEC00A10EE100A00B21A4601465B
:10158000139018460FF08FFF01F06CBD00200890FB
:1015900009900A90014602460B90564890ED050AC4
:1015A000F2EE040A20EE200ABDEEC00A10EE100A88
:1015B00000B20023CDE90430CDE90621534890ED77
:1015C000040AB1EE400A00E02DE0BDEEC00A10EEC4
:1015D000100A00B24E4991ED010AB1EE400ABDEE8B
:1015E000C00A10EE101A09B24A4A92ED0D0AB1EE85
:1015F000400ABDEEC00A10EE102A12B2CDE9002357
:10160000CDE90210444890ED000AB1EE400ABDEE6B
:10161000C00A10EE100A00B21A460146139018468E
:101620000FF041FFB0E73D4890F8240018B93C485E
:10163000007800287ED03B4800682AF0A3FF9FED89
:101640003A0B53EC102BCDE90E019DED0E0B51EC36
:10165000100B2AF0A1FCCDE910019DED100B51EC0F
:10166000100B2AF003FC00B21390314800682AF0F6
:1016700089FF9FED2D0B53EC102BCDE90E019DED55
:101680000E0B51EC100B2AF087FCCDE910019DEDFB
:10169000100B51EC100B2AF0E9FB00B21290002065
:1016A000089048E00AD7A33C00020020FC0100207B
:1016B0001C0200201B02002017020020906A00205C
:1016C000C80100200F0200208C6900209E0000202D
:1016D0003C06002010030020AC000020AE000020DB
:1016E00070000020CDCCCC3DB20000207600002060
:1016F000B8640240409300200000C842808F002060
:101700008C8C002050000020148E0020609100205E
:10171000C88B00204C760020448E0020E86A002010
:101720007500002040000020000000000088C34039
:101730002000002031E009900A9003460B90FE4AF9
:10174000128C12B2DDE91201CDE90613CDE90420B5
:10175000F948808B00B2F849098B09B2F64A928A9F
:1017600012B2F54B1B8A1BB2CDE90032CDE9021053
:10177000F148808900B21190EF48008900B21090C2
:10178000ED48808800B20F90EB48008800B20E90C0
:101790000FA90EC90FF087FEF6E6E84800781A2870
:1017A00081F05E84DFE810F01A00CD003E015C0C91
:1017B000F9016D02E1028903BF034D04BC045C0C16
:1017C0005305C40565065C0CDA064C07CD076608B0
:1017D000DD085E09EF09A10A210BD80BD848006883
:1017E0002AF0D0FE9FEDD70B53EC102BCDE90C0166
:1017F0009DED0C0B51EC100B2AF0CEFBCDE90E0148
:101800009DED0E0B51EC100B2AF030FB00B2139043
:10181000CE4800682AF0B6FE9FEDCA0B53EC102BA1
:10182000CDE90C019DED0C0B51EC100B2AF0B4FB33
:10183000CDE90E019DED0E0B51EC100B2AF016FBBD
:1018400000B21290C24890ED000AF2EE040A80EE57
:10185000201ABDEEC10A10EE100A00B21190BD4868
:1018600000680A2190FBF1F000B200211090BA4804
:1018700090ED000ABDEEC00A10EE100A00B2CDE9EC
:1018800008010A910B91B548DDE9122190ED000A9B
:10189000F2EE040A20EE200ABDEEC00A10EE100A95
:1018A00000B20023CDE90430CDE90621AC4890ED2B
:1018B000000A5FED6F0A20EE200ABDEEC00A10EEAE
:1018C000100A00B2A74A119992ED000A5FED760A5C
:1018D00020EE200ABDEEC00A10EE102A12B2CDE9A9
:1018E0000113009203909E4890ED000A5FED7E0A7E
:1018F00020EE200ABDEEC00A10EE100A00B20F90D2
:10190000994890ED000A5FED840A20EE200ABDEEB2
:10191000C00A10EE100A00B20E90944890ED000A32
:101920005FED8B0A20EE200ABDEEC00A10EE100A11
:1019300000B20D90DDE90E2310990FF0B4FD01F017
:1019400090BB8B4800682AF01DFE9FED7E0B53EC88
:10195000102BCDE90C019DED0C0B51EC100B2AF076
:101960001BFBCDE90E019DED0E0B51EC100B2AF087
:101970007DFA00B213907F4800682AF003FE9FEDC5
:10198000710B53EC102BCDE90C019DED0C0B51ECC0
:10199000100B2AF001FBCDE90E019DED0E0B51EC71
:1019A000100B2AF063FA00B21290734800682AF014
:1019B000E9FD9FED640B53EC102BCDE90C019DED7F
:1019C0000C0B51EC100B2AF0E7FACDE90E019DED5E
:1019D0000E0B51EC100B2AF049FA00B200210891CD
:1019E00009910A910B9111900023DDE91212CDE9C2
:1019F0000430CDE906126148B0F8480000B25F49F2
:101A0000B1F8541009B2CDE90013CDE902035B48E7
:101A1000B0F85C0000B21A460146109018460FF06C
:101A200042FD8CE7564840680B902AF0ABFD9FEDD5
:101A3000450B53EC102BCDE90C019DED0C0B51EC3B
:101A4000100B2AF0A9FACDE90E019DED0E0B51EC19
:101A5000100B2AF00BFA00B21390494801680846AF
:101A60000B912AF08FFD9FED370B53EC102BCDE936
:101A70000C019DED0C0B51EC100B2AF08DFACDE909
:101A80000E019DED0E0B51EC100B2AF0EFF900B298
:101A900012902F4890ED000AF2EE040A80EE201A10
:101AA000BDEEC10A10EE100A00B21190354890ED5B
:101AB000000AF2EE040A80EE201ABDEEC10A10EE12
:101AC000100A00B210900020089009900A900B9024
:101AD0002B4890ED020AF2EE040A20EE200ABDEE39
:101AE000C00A10EE100A01B20023DDE91202CDE9AE
:101AF0000430CDE906211A461F4890ED000AF2EEA7
:101B0000040A20EE200ABDEEC00A10EE100A01B24F
:101B10001D4890ED000AB1EE400ADFED1C0A20EEF0
:101B2000200ABDEEC00A10EE100A00B2CDE9013164
:101B30000392009018462BE0E86A00207400002011
:101B40005000002000000000000024404C00002055
:101B5000F00700202805002048060020540000203F
:101B60006C0F0020640F0020680F0020580F002029
:101B7000140E0020180E00201C0E00202C6A0020DD
:101B8000E4B60020700700204C0F00200000C8427F
:101B9000DDE910120FF087FCD1E6FE48D0F8CC004A
:101BA0000D902AF0EFFC1FED190B53EC102BCDE933
:101BB0000E019DED0E0B51EC100B2AF0EDF9CDE965
:101BC00010019DED100B51EC100B2AF04FF900B2F3
:101BD0001390F148416808460D912AF0D3FC1FED9F
:101BE000270B53EC102BCDE90E019DED0E0B51ECA4
:101BF000100B2AF0D1F9CDE910019DED100B51EC3D
:101C0000100B2AF033F900B21290002008900990CE
:101C10000A9002460B900023DDE91201CDE9043061
:101C2000CDE90612DB4890ED230AF2EE040A20EE1D
:101C3000200ABDEEC00A10EE100A00B2D54991ED9F
:101C40003B0AF2EE040A20EE200ABDEEC00A10EEB6
:101C5000101A09B2CDE90013CDE90230CF4890ED5A
:101C6000130AF2EE040A20EE200ABDEEC00A10EEBE
:101C7000100A00B21A460146119018460FF013FCE4
:101C80005DE6C748D0F8CC000D902AF07BFC1FED34
:101C9000530B53EC102BCDE90E019DED0E0B51ECC7
:101CA000100B2AF079F9CDE910019DED100B51ECE4
:101CB000100B2AF0DBF800B21390BA4841680846CE
:101CC0000D912AF05FFC1FED610B53EC102BCDE959
:101CD0000E019DED0E0B51EC100B2AF05DF9CDE9D4
:101CE00010019DED100B51EC100B2AF0BFF800B263
:101CF00012900020089009900A9002460B90002351
:101D0000DDE91201CDE90430CDE90612A44890EDD9
:101D1000230AF2EE040A20EE200ABDEEC00A10EEFD
:101D2000100A00B29E4991ED3B0AF2EE040A20EE41
:101D3000200ABDEEC00A10EE101A09B2CDE9001358
:101D4000CDE90230984890ED130AF2EE040A20EE35
:101D5000200ABDEEC00A10EE100A00B21A46014673
:101D6000119018460FF09FFBE9E5904800682AF0B3
:101D700009FC1FED8C0B53EC102BCDE90E019DEDF2
:101D80000E0B51EC100B2AF007F9CDE910019DED77
:101D9000100B51EC100B2AF069F800B21390844834
:101DA00000682AF0EFFB1FED990B53EC102BCDE9E7
:101DB0000E019DED0E0B51EC100B2AF0EDF8CDE964
:101DC00010019DED100B51EC100B2AF04FF800B2F2
:101DD00000211290774890ED000ABDEEC00A10EE87
:101DE000100A00B2CDE908010A910B917249DDE9B0
:101DF000120291ED000AF2EE040A20EE200ABDEE76
:101E0000C00A10EE101A09B26C4B93ED050A5FED93
:101E1000A10A20EE200ABDEEC00A10EE103A1BB255
:101E2000CDE90431CDE90602644890ED040A5FED86
:101E3000A90A20EE200ABDEEC00A10EE100A01B277
:101E400000235E4890ED050A5FEDB00A20EE200AFF
:101E5000BDEEC00A10EE100A00B2584A92ED030A15
:101E60005FEDB60A20EE200ABDEEC00A10EE102A81
:101E700012B2CDE90231CDE90020504890ED040ABC
:101E80005FEDBE0A20EE200ABDEEC00A10EE100A79
:101E900000B21190494890ED020A5FEDC40A20EEAD
:101EA000200ABDEEC00A10EE100A00B210900146E2
:101EB0001846119A0FF0F7FA41E5002008900990B2
:101EC0000A9002460B903E48808800B23C4909883F
:101ED00009B20023CDE90431CDE906023948808BEF
:101EE00000B23849098B09B2364A928A12B2354B90
:101EF0001B8A1BB2CDE90032CDE90210314880893E
:101F000000B213902F48008900B212902D488088AB
:101F100000B211902B48008800B2109011A90EC990
:101F20000FF0C1FA0BE51E48D0F844010D902AF0DD
:101F300029FB1FEDFC0B53EC102BCDE90E019DEDA1
:101F40000E0B51EC100B2AF027F8CDE910019DED96
:101F5000100B51EC100B29F089FF00B213901A48B6
:101F600000682AF00FFB9FED190B53EC102BCDE905
:101F70000E019DED0E0B51EC100B2AF00DF8CDE982
:101F800010019DED100B51EC100B29F06FFF00B20A
:101F900012901FE040930020148E00208C8C0020B3
:101FA00020950020448E0020C88B0020140E0020B5
:101FB000180E0020480600201C0E00202C6A00206D
:101FC000701100209CB8002088070020000000004D
:101FD000000024400020089009900A9002460B90CF
:101FE0000023DDE91201CDE90430CDE90612FE48F7
:101FF00090ED040ABDEEC00A10EE100A00B2FB49D3
:1020000091ED590ABDEEC00A10EE101A09B2CDE9E1
:102010000013CDE90230F64890ED000ABDEEC00A8B
:1020200010EE100A00B202461190F24890ED000A3C
:10203000BDEEC00A10EE100A01B218460FF033FAD6
:102040007DE4EA48D0F844010D902AF09BFA1FED98
:10205000210B53EC102BCDE90E019DED0E0B51EC35
:10206000100B29F099FFCDE910019DED100B51ECFB
:10207000100B29F0FBFE00B21390DF4800682AF035
:1020800081FA1FED2E0B53EC102BCDE90E019DEDC7
:102090000E0B51EC100B29F07FFFCDE910019DEDE7
:1020A000100B51EC100B29F0E1FE00B21290002051
:1020B000089009900A9002460B900023DDE9120176
:1020C000CDE90430CDE90612C74890ED040ABDEE13
:1020D000C00A10EE100A00B2C44991ED590ABDEED3
:1020E000C00A10EE101A09B2CDE90013CDE9023092
:1020F000C24890ED010ABDEEC00A10EE100A00B20F
:102100001190BE4890ED000ABDEEC00A10EE100A14
:1021100000B2109001461846119A0FF0C4F90EE46F
:10212000B248D0F844010D902AF02CFA1FED590B5B
:1021300053EC102BCDE90E019DED0E0B51EC100B65
:1021400029F02AFFCDE910019DED100B51EC100B89
:1021500029F08CFE00B21390A74800682AF012FA0A
:102160001FED660B53EC102BCDE90E019DED0E0B10
:1021700051EC100B29F010FFCDE910019DED100B73
:1021800051EC100B29F072FE00B212900020089062
:1021900009900A9003460B90994ADDE9120192EDED
:1021A000020AF2EE040A20EE200ABDEEC00A10EE8A
:1021B000102A12B2CDE90613CDE90420914890ED22
:1021C000000AF2EE040A20EE200ABDEEC00A10EE6C
:1021D000100A01B200238A4890ED000AF2EE040AC8
:1021E00020EE200ABDEEC00A10EE100A00B2864AA8
:1021F00092ED000AF2EE040A20EE200ABDEEC00ABB
:1022000010EE102A12B2CDE90231CDE900207C484F
:1022100090ED010AF2EE040A20EE200ABDEEC00A9B
:1022200010EE100A00B21190784890ED000AF2EE1C
:10223000040A20EE200ABDEEC00A10EE100A00B219
:10224000109001461846119A0FF02DF9A4E4674842
:10225000D0F844010D902AF095F91FEDA40B53EC32
:10226000102BCDE90E019DED0E0B51EC100B29F05A
:1022700093FECDE910019DED100B51EC100B29F0F0
:10228000F5FD00B213905E48816808460D912AF072
:1022900079F91FEDB20B53EC102BCDE90E019DED3A
:1022A0000E0B51EC100B29F077FECDE910019DEDDE
:1022B000100B51EC100B29F0D9FD00B21290002048
:1022C000089009900A9003460B904C4ADDE91201F0
:1022D00092ED010AF2EE040A20EE200ABDEEC00AD9
:1022E00010EE102A12B2CDE90613CDE904204348BE
:1022F00090ED000AF2EE040A20EE200ABDEEC00ABC
:1023000010EE100A01B200224148008AB23800B231
:10231000CDE900203E48CDE902218089A03800B2F5
:10232000134602460021119008460FF0BCF833E432
:102330002E48D0F844010B902AF024F91FEDDD0B54
:1023400053EC102BCDE90C019DED0C0B51EC100B57
:1023500029F022FECDE90E019DED0E0B51EC100B84
:1023600029F084FD00B213902548816808460B913E
:102370002AF008F91FEDEB0B53EC102BCDE90C0103
:102380009DED0C0B51EC100B29F006FECDE90E0172
:102390009DED0E0B51EC100B29F068FD00B21FED06
:1023A000F50B53EC102B12901A4890ED000B51ECEA
:1023B000100B29F0F1FDCDE90E019DED0E0B51EC56
:1023C000100B29F053FD00B29FED130B53EC102BB3
:1023D0001190134890ED000B51EC100B29F0DCFD2F
:1023E000CDE90E011EE0000000970020209500209E
:1023F0003C97002000080020880700207C0800206F
:10240000681700201C0E0020140E0020180E00205B
:10241000A09B0020A806002000000000000024402F
:10242000A00600209DED0E0B51EC100B29F01EFDB7
:1024300000B210900020089009900A9003460B907B
:1024400011A807C8CDE90623CDE904010021F84809
:1024500090ED120ABDEEC00A10EE100A00B2CDE9EE
:10246000001002910B4603910846109A0FF01BF8DA
:1024700006E4F048D0F844010D902AF083F81FEDEF
:102480001A0B53EC102BCDE90E019DED0E0B51EC08
:10249000100B29F081FDCDE910019DED100B51ECE1
:1024A000100B29F0E3FC00B21390E3488168084662
:1024B0000D912AF067F81FED280B53EC102BCDE996
:1024C0000E019DED0E0B51EC100B29F065FDCDE9D1
:1024D00010019DED100B51EC100B29F0C7FC00B260
:1024E00012900020089009900A9003460B90D34A5E
:1024F000DDE9120192ED000ABDEEC00A10EE102ACD
:1025000012B2CDE90613CDE90420CD4890ED000AC2
:10251000BDEEC00A10EE100A00B20022C94991EDCA
:10252000000ADFEDC90A20EE200ABDEEC00A10EE57
:10253000101A09B2CDE900211346CDE90220C348A3
:10254000008802B2C24890ED000ABDEEC00A10EE4B
:10255000100A01B200200EF0A6FF05E4B548D0F83D
:1025600044010D902AF00EF81FED550B53EC102B83
:10257000CDE90E019DED0E0B51EC100B29F00CFD79
:10258000CDE910019DED100B51EC100B29F06EFC04
:1025900000B21390A848816808460D9129F0F2FF17
:1025A0001FED630B53EC102BCDE90E019DED0E0BCF
:1025B00051EC100B29F0F0FCCDE910019DED100B52
:1025C00051EC100B29F052FC00B212900020089040
:1025D00009900A9003460B909A4ADDE9120192EDA8
:1025E000000ADFED990A20EE200ABDEEC00A10EEC7
:1025F000102A12B2CDE90613CDE90420954890EDDA
:10260000000ABDEEC00A10EE100A00B20022924984
:1026100091ED000ADFED8C0A20EE200ABDEEC00A23
:1026200010EE101A09B2CDE900211346CDE90220BF
:102630008648008802B2002108460EF034FF10E2FE
:102640007C48D0F844010D9029F09CFF1FED8E0BC3
:1026500053EC102BCDE90E019DED0E0B51EC100B40
:1026600029F09AFCCDE910019DED100B51EC100BF7
:1026700029F0FCFB00B213906F48816808460D9169
:1026800029F080FF1FED9C0B53EC102BCDE90E01C0
:102690009DED0E0B51EC100B29F07EFCCDE91001E5
:1026A0009DED100B51EC100B29F0E0FB00B21290E5
:1026B0000020089009900A9003460B90674ADDE9D4
:1026C000120192ED010AF2EE040A20EE200ABDEE9C
:1026D000C00A10EE102A12B2CDE90613CDE904208B
:1026E0005E4890ED000AF2EE040A20EE200ABDEEEC
:1026F000C00A10EE100A00B20022594991ED010AF9
:10270000F2EE040A20EE200ABDEEC00A10EE101A06
:1027100009B2CDE90021CDE90220514890ED000A2F
:10272000F2EE040A20EE200ABDEEC00A10EE100AF6
:1027300000B2002302461946119018460EF0B3FE6F
:102740008FE14848006829F01DFF1FEDCD0B53ECC9
:10275000102BCDE90E019DED0E0B51EC100B29F065
:102760001BFCCDE910019DED100B51EC100B29F075
:102770007DFB00B213903C48006829F003FF1FED79
:10278000DA0B53EC102BCDE90E019DED0E0B51EC45
:10279000100B29F001FCCDE910019DED100B51EC5F
:1027A000100B29F063FB00B2002112902F4890ED2E
:1027B000000ABDEEC00A10EE100A00B2CDE9080111
:1027C0000A910B912A4ADDE9120192ED000AF2EE1C
:1027D000040A20EE200ABDEEC00A10EE102A12B242
:1027E0000023CDE90432CDE90601134890ED010A3A
:1027F000F2EE040A20EE200ABDEEC00A10EE100A26
:1028000000B2CDE9003002930B48039390ED000A2B
:10281000F2EE040A20EE200ABDEEC00A10EE100A05
:1028200000B202461946119018460EF03CFE18E11F
:10283000C88B00202095002068170020700700201A
:1028400088070020580F002000007A44A4050020CB
:1028500064070020780700205C0F0020148E002001
:1028600094080020140E0020180E002048060020B6
:102870001C0E0020FE48006829F084FE9FEDFD0B31
:1028800053EC102BCDE90E019DED0E0B51EC100B0E
:1028900029F082FBCDE910019DED100B51EC100BDE
:1028A00029F0E4FA00B21390F448006829F06AFEB7
:1028B0009FEDF00B53EC102BCDE90E019DED0E0BAF
:1028C00051EC100B29F068FBCDE910019DED100BC8
:1028D00051EC100B29F0CAFA00B200211290E8481E
:1028E00090ED000ABDEEC00A10EE100A00B2CDE96C
:1028F00008010A910B91E34ADDE9120192ED000A09
:10290000F2EE040A20EE200ABDEEC00A10EE102AF4
:1029100012B20023CDE90432CDE90601DA4890ED88
:10292000010ADFEDDA0A20EE200ABDEEC00A10EE41
:10293000100A00B2CDE900300293D548039390ED20
:10294000010ADFEDD20A20EE200ABDEEC00A10EE29
:10295000100A00B202461946119018460EF0A3FD67
:102960007FE3C348006829F00DFE9FEDC20B53ECD6
:10297000102BCDE90E019DED0E0B51EC100B29F043
:102980000BFBCDE910019DED100B51EC100B29F064
:102990006DFA00B21390B948006829F0F3FD9FED7D
:1029A000B50B53EC102BCDE90E019DED0E0B51EC48
:1029B000100B29F0F1FACDE910019DED100B51EC4F
:1029C000100B29F053FA00B200211290AC4890EDA0
:1029D000000ABDEEC00A10EE100A00B2CDE90801EF
:1029E0000A910B91A74ADDE9120192ED000AF2EE7D
:1029F000040A20EE200ABDEEC00A10EE102A12B220
:102A0000A44B93ED000ABDEEC00A10EE103A1BB2C3
:102A1000CDE90432CDE906019F4890ED040ABDEEF0
:102A2000C00A10EE100A01B200239C4890ED4B0A38
:102A3000BDEEC00A10EE100A00B2994AB2F90420A5
:102A4000CDE90231CDE900209548B0F900001190A0
:102A50009348B0F90200109001461846119A0EF002
:102A600022FDFEE28248006829F08CFD9FED810B7B
:102A700053EC102BCDE90E019DED0E0B51EC100B1C
:102A800029F08AFACDE910019DED100B51EC100BE5
:102A900029F0ECF900B213907848006829F072FD33
:102AA0009FED740B53EC102BCDE90E019DED0E0B39
:102AB00051EC100B29F070FACDE910019DED100BCF
:102AC00051EC100B29F0D2F900B2002112906C48A1
:102AD00090ED000ABDEEC00A10EE100A00B2CDE97A
:102AE00008010A910B91674ADDE9120192ED000A93
:102AF000F2EE040A20EE200ABDEEC00A10EE102A03
:102B000012B20023CDE90432CDE906011A46654828
:102B100090ED030A5FEDB40A20EE200ABDEEC00A74
:102B200010EE100A00B25F4991ED020A5FEDBA0A99
:102B300020EE200ABDEEC00A10EE101A09B2CDE94F
:102B40000232CDE90010574890ED010A5FEDC20A4C
:102B500020EE200ABDEEC00A10EE100A00B211905D
:102B6000504890ED000A5FEDC80A20EE200ABDEE45
:102B7000C00A10EE100A00B2109001461846119AD1
:102B80000EF091FC6DE23A48006829F0FBFC9FEDE5
:102B9000390B53EC102BCDE90E019DED0E0B51ECD2
:102BA000100B29F0F9F9CDE910019DED100B51EC56
:102BB000100B29F05BF900B213903048006829F03F
:102BC000E1FC9FED2C0B53EC102BCDE90E019DED9C
:102BD0000E0B51EC100B29F0DFF9CDE910019DED42
:102BE000100B51EC100B29F041F900B200211290AA
:102BF000234890ED000ABDEEC00A10EE100A00B2A4
:102C0000CDE908010A910B911E4ADDE9120192ED0E
:102C1000000AF2EE040A20EE200ABDEEC00A10EE11
:102C2000102A12B20023CDE90432CDE906011A467A
:102C30001C4890ED030ADFED1C0A20EE200ABDEED1
:102C4000C00A10EE100A00B2184991ED010AF7EE21
:102C5000000A20EE200ABDEEC00A10EE101A09B2DA
:102C6000CDE90232CDE900100E4890ED010A1FE0D7
:102C7000140E00200000000000002440180E002068
:102C8000480600201C0E0020AC0800200000C842AE
:102C9000A4080020000800200097002020950020B4
:102CA00074690020106B00200000000090B8002024
:102CB0005FED030A20EE200ABDEEC00A10EE100AF6
:102CC00000B21190FB4890ED000AF7EE000A20EEEA
:102CD000200ABDEEC00A10EE100A00B210900146A4
:102CE0001846119A0EF0DFFBBBE1F348006829F0AB
:102CF00049FC1FED200B53EC102BCDE90C019DED91
:102D00000C0B51EC100B29F047F9CDE90E019DEDAC
:102D10000E0B51EC100B29F0A9F800B21390E74804
:102D2000006829F02FFC1FED2D0B53EC102BCDE983
:102D30000C019DED0C0B51EC100B29F02DF9CDE998
:102D40000E019DED0E0B51EC100B29F08FF800B227
:102D50001290DB4890ED000AF2EE040A80EE201A91
:102D6000BDEEC10A10EE100A00B21190D54890EDE8
:102D7000000AF2EE040A80EE201ABDEEC10A10EE3F
:102D8000100A00B200211090CF4890ED000ABDEE6D
:102D9000C00A10EE100A00B2CDE908010A910B91A9
:102DA000CA48DDE9121290ED000AF2EE040A20EEA4
:102DB000200ABDEEC00A10EE100A00B20023CDE9D1
:102DC0000430CDE90612DDE910018DE80B00C048A2
:102DD000039390ED000ABDEEC00A10EE100A02B295
:102DE000002108460EF05FFB3BE1B348006829F084
:102DF000C9FB1FED600B53EC102BCDE90C019DEDD1
:102E00000C0B51EC100B29F0C7F8CDE90E019DED2C
:102E10000E0B51EC100B29F029F800B21390A748C3
:102E2000006829F0AFFB1FED6D0B53EC102BCDE9C3
:102E30000C019DED0C0B51EC100B29F0ADF8CDE918
:102E40000E019DED0E0B51EC100B29F00FF800B2A6
:102E50001290A04890ED000B8DED0C0B1FED7B0B3D
:102E600053EC102B9DED0C0B51EC100B29F094F84A
:102E7000CDE90E019DED0E0B51EC100B28F0F6FF85
:102E800000B200211190904890ED000ABDEEC00AFA
:102E900010EE100A00B2CDE908010A910B918E489C
:102EA000DDE9122190ED000AF2EE040A20EE200A7C
:102EB000BDEEC00A10EE100A00B20023CDE90430C6
:102EC000CDE90621854890ED000AF2EE040A20EED5
:102ED000200ABDEEC00A10EE100A00B2119900934C
:102EE000CDE9013103907E4890ED030AF2EE040A29
:102EF00020EE200ABDEEC00A10EE100A00B21090BB
:102F0000774890ED010AF2EE040A20EE200ABDEEA9
:102F1000C00A10EE100A00B20F90714890ED000A3E
:102F2000F2EE040A20EE200ABDEEC00A10EE100AEE
:102F300000B20E906A4890ED040AF2EE040A20EE08
:102F4000200ABDEEC00A10EE100A00B20D900EA9C4
:102F50000EC90EF0A8FA84E05748006829F012FB69
:102F60001FEDBC0B53EC102BCDE90E019DED0E0BAC
:102F700051EC100B29F010F8CDE910019DED100B6C
:102F800051EC100B28F072FF00B213904B48006810
:102F900029F0F8FA1FEDC90B53EC102BCDE90E0107
:102FA0009DED0E0B51EC100B28F0F6FFCDE9100152
:102FB0009DED100B51EC100B28F058FF00B20021D2
:102FC0001290414890ED000ABDEEC00A10EE100AC2
:102FD00000B2CDE908010A910B913C4ADDE91201EA
:102FE00092ED000AF2EE040A20EE200ABDEEC00ABD
:102FF00010EE102A12B20023CDE90432CDE9060109
:10300000384890ED010A5FEDDF0A20EE200ABDEEA0
:10301000C00A10EE100A00B21A46334991ED000AB8
:10302000DFED320A20EE200ABDEEC00A10EE101AC3
:1030300009B2CDE90031CDE902202D4890ED000A1A
:10304000DFED2A0A20EE200ABDEEC00A10EE100ABB
:1030500000B202461946119018460EF024FA00E01C
:1030600000BF00BF01228021224801F05FF9422108
:10307000214806F007FD2148C178C078401C1F4A4E
:10308000D07001297BDD00201146C8701C491D4805
:1030900002F0A5FBE0B31A491A4802F0BCFB1A483B
:1030A000C078B0B3194890F8310090BB05200EF0FD
:1030B0006CFF5BE090B80020140E0020180E00207A
:1030C0008807002070070020480600201C0E002002
:1030D0009007002010B7002054000020B80E0020F8
:1030E000E4B6002088B700203002002000007A44B7
:1030F0003402002000100140B8640240B2000020F9
:1031000020000020706002400F020020906A002022
:1031100035E0FFE757480078052826D2DFE800F0C1
:10312000030A11181E0001205249087000200EF0F9
:103130002CFF1AE002204F49087003200EF025FFF3
:1031400013E003204B49087001200EF01EFF0CE035
:103150000420484908700EF018FF06E00020454999
:10316000087005200EF011FF00BF00BF0122802172
:10317000414801F0DBF84221404806F083FC05207D
:1031800000F01DF9FEF765B92DED028B58E006F051
:10319000D3FD10F063FD07F0F1FB3948007850B91A
:1031A0003848007838B1012037498870C87000204D
:1031B0004870087003E006F033FF07F04BF833491E
:1031C00008680968491C314B196028F095FE41ECEC
:1031D000180B9FED2F0B53EC102B28F0DBFF02D2C6
:1031E00000202D4908702D49887D897D491C2B4B75
:1031F000997528F081FE41EC180B9FED250B53ECDF
:10320000102B28F0C7FF02D200202449487524481B
:1032100090ED000AB5EEC00AF1EE10FA03D0214895
:1032200090F8220020B101201E4981F82D0003E012
:1032300000201C4981F82D004FF4FA7000F0BFF80F
:10324000A5E7194A1278052A04D10022174B1A80E3
:10325000154B1A70154A1288154B1B781A44134BDC
:103260001A80114A1278521C0F4B1A70704770471F
:1032700070470000B6000020004C00407060024023
:10328000C80100203C06002070010020D002002070
:103290000000000000002040D4020020A09B00207D
:1032A00094970020906A0020B7000020840000203E
:1032B000F00000200948804709480047FEE7FEE784
:1032C000FEE7FEE7FEE7FEE7FEE7FEE7FEE7FEE7D6
:1032D00004480549054A064B70470000F1340008D0
:1032E0008901000820B9002020BF002020BB002059
:1032F00020BB0020704700BFFEE700BFFEE700BF15
:10330000FEE700BFFEE770477047000010B502F00F
:1033100042FC02F086FD02F059FC10BD70B5044677
:103320006FF0040000F0D0F9E11704EB5171C1F324
:10333000C701344A1170E11704EB5171CD104FF4FD
:103340007A7045430120304908804FF0E020006941
:1033500040F002004FF0E021086108464561006935
:1033600040F00100086170BD2DE9F04707460026D6
:103370004FF0E020D0F814902248007807FB00F8C6
:1033800000BF02F05BFC4FF0E020856911E04FF0D8
:10339000E0208469AC420CD0AC4202D2281B064427
:1033A00003E0A9EB0400284406442546464500D323
:1033B00000E0ECE700BF02F086FCBDE8F08770B5E6
:1033C000044612480078012814D11148007888B9C1
:1033D0000D480088844206DB0B48008894FBF0F51A
:1033E000284604F069FD0848008894FBF0F100FBD2
:1033F000114084B24FF47A7104FB01F0FFF7B4FF7F
:1034000070BD0000BA000020BC0000200A010020AE
:10341000FE0000200CB50020019000907648006866
:1034200040F480307449086000BF7348006800F4BD
:10343000003000900198401C0190009818B9019844
:10344000B0F5A04FF1D16C48006800F4003010B125
:103450000120009001E0002000900098012846D152
:1034600065484030006840F0805063494031086052
:103470006248006840F44040604908605E48083097
:1034800000685D49083108600846006840F4004063
:1034900008600846006840F4A05008605848091FBA
:1034A0000860081F006840F08070091F086000BFB6
:1034B0005148006800F000700028F9D040F2057013
:1034C000504908604C480830006820F003004A4921
:1034D000083108600846006840F00200086000BF3C
:1034E00045480830006800F00C000828F8D10CBDF1
:1034F00010B54548006840F47000434908603E48F4
:10350000006840F001003C49086000203A49083159
:103510000860394800683D490840374908603C4820
:10352000091D0860081F006820F48020091F08603A
:10353000002031490C310860FFF76CFF4FF000604C
:1035400031498039086010BD70B500200022022387
:1035500000240221284D08352D6805F00C0020B10B
:10356000042806D0082834D107E02A4D2A4E3560B9
:1035700033E02A4D284E35602FE01F4D2D1D2D685C
:10358000C5F380541C4D2D1D2D6805F03F0154B12D
:10359000224DB5FBF1F5184E361D3668C6F3881678
:1035A00005FB06F209E01B4DB5FBF1F5124E361D89
:1035B0003668C6F3881605FB06F20F4D2D1D2D68E3
:1035C000C5F301456D1C6B00B2FBF3F5124E35607F
:1035D00003E0104D104E356000BF00BF064D0835AA
:1035E0002D68C5F303150E4E705D0B4D2D68C5405B
:1035F000094E356070BD0000003802400070004088
:1036000008544007003C024088ED00E0FFFFF6FE52
:10361000103000240024F400C000002000127A00C2
:10362000C400002032490143324A1160704770B52E
:10363000002100230F22C4781CB32E4C246804F40C
:10364000E064C4F5E064C4F30721C1F10404E3B20B
:103650000A4144789C40E1B28478144021430C072D
:10366000210E254C05786155047804F01F050124CE
:10367000AC4005786D11AD0005F1E025C5F80041BD
:1036800009E0047804F01F050124AC401B4D0678C6
:10369000761145F8264070BD194A0A400243154B81
:1036A0001B1F1A60704739B1124A121D126802437B
:1036B000104B1B1D1A6006E00E4A121D1268824351
:1036C0000C4B1B1D1A607047042808D14FF0E021F5
:1036D000096941F004014FF0E022116107E04FF069
:1036E000E021096921F004014FF0E02211617047E7
:1036F0000000FA050CED00E000E400E080E100E0ED
:1037000080FFFF1F10B504469848844208D101216C
:10371000084600F086FB0021012000F082FB76E0E5
:103720009348844208D10121022000F07AFB002155
:10373000022000F076FB6AE08E48844208D1012125
:10374000042000F06EFB0021042000F06AFB5EE024
:103750008948844208D10121082000F062FB002141
:10376000082000F05EFB52E08448844208D1012129
:10377000102000F056FB0021102000F052FB46E024
:103780007F48844208D10121202000F04AFB00211B
:10379000202000F046FB3AE07A48844208D101211B
:1037A000402000F03EFB0021402000F03AFB2EE0DC
:1037B0007548844208D10121802000F032FB0021AD
:1037C000802000F02EFB22E07048844208D10121C5
:1037D000801500F026FB0021A01500F022FB16E06A
:1037E0006B48844208D10121401500F01AFB0021EA
:1037F000601500F016FB0AE06648844207D10121FB
:10380000001500F00EFB0021201500F00AFB10BD92
:10381000F0B50A4600210023002400BF3DE0012549
:1038200005FA01F3156805EA03049C4234D10568E2
:103830004F000326BE40B543056015794E00B540E4
:103840000668354305601579012D02D01579022DE2
:1038500016D185684F000326BE40B5438560557973
:103860004E00B540866835438560456801268E4028
:10387000B5434560456896798E40B6B2354345609C
:10388000C5684F000326BE40B543C560D5794E00DC
:10389000B540C6683543C560491C1029BFD3F0BD8B
:1038A0004FF6FF7101600021017141718171C17199
:1038B000704708B54FF480320092009A0A43009294
:1038C000009AC261C161009AC261C2690092C26974
:1038D000009208BD0246002013690B400BB1012085
:1038E00000E0002070470146086980B27047024638
:1038F000002053690B400BB1012000E0002070470D
:103900000146486980B27047018370474183704720
:103910000AB1018300E04183704741617047426909
:103920004A4042617047F0B5002300244D07ED0E78
:1039300002FA05F3CE1000F1200555F826504E0787
:10394000F70E0F26BE40B543CF1000F1200646F813
:103950002750CE1000F1200555F8265045EA030403
:10396000CE1000F1200545F82640F0BD00000240D1
:103970000004024000080240000C02400010024017
:103980000014024000180240001C024000200240C7
:103990000024024000280240F948006840F001007D
:1039A000F74908600020F64908310860F4480068CB
:1039B000F4490840F2490860F348091D0860F348DB
:1039C000EF4984310860F0481038091D0860EC4860
:1039D000006820F48020EA4908600020E8490C31A2
:1039E0000860E7498C31086070470021E44A921C66
:1039F000117011460870704710B50146002200236F
:103A000000204A11012A02D1DD4C236808E0022A75
:103A100003D1DB4C7034236802E0D94C7434236842
:103A200001F01F02012494401C400CB1012000E071
:103A3000002010BD38B5002000900024002500BFF4
:103A40003120FFF7D9FF05460098401C00900098F0
:103A5000B0F5A04F01D0002DF2D03120FFF7CCFF00
:103A600008B1012400E00024204638BD01460020B2
:103A7000C34A106820F0F80040EAC10010607047A7
:103A8000C349086070470021BD4A7032117011703F
:103A9000012802D004280AD104E00121B84A70327A
:103AA000117005E00521B64A7032117000E000BFC8
:103AB00000BF7047B7490860704770B5049C41EA81
:103AC00082150126C6EB530645EA0645054345EA3D
:103AD0000465AB4E361D356070BDAD490866704754
:103AE000820142EA0172A64B84331A607047A849EA
:103AF0008866704710B5830143EA016343EA0273A5
:103B00009F4C8834236010BDA14908677047A049C5
:103B1000C864704702460020994B0833186820F0AB
:103B2000EC6042EA01031843954B08331860704774
:103B300002460020924B0833186820F0784042EA91
:103B4000010318438E4B083318607047014600206C
:103B50008B4A0832106820F0030008431060704759
:103B600087480830006800F00C00704701460020CC
:103B7000834A0832106820F0F00008431060704754
:103B8000014600207E4A0832106820F4E0500843C5
:103B90001060704701460020794A0832106820F40E
:103BA000604040EAC10010607047F0B5002100227B
:103BB0000024022500260223714F08373F6807F0D2
:103BC0000C0121B1042905D0082937D105E0724F35
:103BD000076036E0714F076033E0694F3F1D3F6873
:103BE000C7F38056664F3F1D3F6807F03F036EB135
:103BF0006A4FB7FBF3F7DFF888C10CF1040CDCF86F
:103C000000C0CCF3881C07FB0CF40CE0624FB7FB40
:103C1000F3F7DFF86CC10CF1040CDCF800C0CCF356
:103C2000881C07FB0CF4564F3F1D3F68C7F3014744
:103C30007F1C7D00B4FBF5F7076002E0564F07607C
:103C400000BF00BF4E4F08373F6807F0F001090979
:103C5000534F7A5C0768D7404760494F08373F6841
:103C600007F4E051890A4E4F7A5C4768D740876075
:103C7000434F08373F6807F46041490B484F7A5C6F
:103C80004768D740C760F0BD002100F44072B2F52C
:103C9000407F0AD13A4A0832116821F4F811414AAA
:103CA00002401143364A08321160354A70321268B8
:103CB000C0F30B031A43324B70331A607047354917
:103CC00044390860704733494039086070473649C5
:103CD0000860704701460020294A8C32106820F0A5
:103CE0001F004A1E1043264A8C321060704701465E
:103CF0000020234A8C32106820F4F8504A1E40EA13
:103D000002201F4A8C3210607047014600201C4A76
:103D10008C32106820F44010084310607047014650
:103D20000020174A8C32106820F4400008431060CD
:103D3000704701460020124A8C32106820F440304F
:103D400008431060704719490860704739B10C4A40
:103D50003032126802430A4B30331A6006E0084AD8
:103D6000303212688243064B30331A607047F9B123
:103D7000034A343212680243014B34331A601CE0A8
:103D800000380240FFFFF6EA103000240030002027
:103D900000004742800E47420024F40000127A00DF
:103DA000D4000020FFFCFF0F5C014742E0114742B6
:103DB0008F4A126882438E4B1A60704739B18C4A21
:103DC000121D126802438A4B1B1D1A6006E0884AC6
:103DD000121D12688243864B1B1D1A60704739B151
:103DE000834A0C3212680243814B0C331A6006E09E
:103DF0007F4A0C32126882437D4B0C331A60704745
:103E000039B17B4A103212680243794B10331A6081
:103E100006E0774A103212688243754B10331A60FD
:103E2000704739B1724A243A12680243704B243BFE
:103E30001A6006E06E4A243A126882436C4B243BB7
:103E40001A60704739B16A4A203A12680243684BD7
:103E5000203B1A6006E0664A203A12688243644BAF
:103E6000203B1A60704739B1614A1C3A126802431C
:103E70005F4B1C3B1A6006E05D4A1C3A12688243A5
:103E80005B4B1C3B1A60704739B1594A143A1268AF
:103E90000243574B143B1A6006E0554A143A126825
:103EA0008243534B143B1A60704739B1504A103A61
:103EB000126802434E4B103B1A6006E04C4A103A1F
:103EC000126882434A4B103B1A60704739B1484A26
:103ED0001C3212680243464B1C331A6006E0444A07
:103EE0001C3212688243424B1C331A60704739B14E
:103EF0003F4A2032126802433D4B20331A6006E0ED
:103F00003B4A203212688243394B20331A60704793
:103F100039B1374A243212680243354B24331A60D0
:103F200006E0334A243212688243314B24331A604C
:103F3000704739B12E4A2C32126802432C4B2C3375
:103F40001A6006E02A4A2C3212688243284B2C332E
:103F50001A60704739B1264A303212680243244B46
:103F600030331A6006E0224A303212688243204B16
:103F700030331A607047012808D11D493C31096867
:103F800041F008011A4A3C32116007E018493C31FF
:103F9000096821F00801164A3C321160704739B1B6
:103FA000134A273A12780243114B273B1A7006E056
:103FB0000F4A273A127882430D4B273B1A707047FD
:103FC0000B484030006840F080700949403108607B
:103FD000704701460020064A283A12680A400AB192
:103FE000012000E000207047014926390870704721
:103FF0003438024010B50446FA48844208D1012101
:104000001020FFF752FF00211020FFF74EFF57E06E
:10401000F548844209D101214804FFF735FF00210A
:104020004FF40030FFF730FF4AE0F048844209D1F6
:1040300001218804FFF728FF00214FF48020FFF7BB
:1040400023FF3DE0EA48844209D10121C804FFF77B
:104050001BFF00214FF40020FFF716FF30E0E5487A
:10406000844209D101210805FFF70EFF00214FF41A
:104070008010FFF709FF23E0DF48844208D10121C7
:104080002020FFF712FF00212020FFF70EFF17E08E
:10409000DA48844209D101218807FFF7F5FE0021A3
:1040A0004FF08040FFF7F0FE0AE0D548844207D188
:1040B00001214005FFF7E8FE00216005FFF7E4FE5F
:1040C00010BD2DE9FF4705460E460024A14600BF5E
:1040D000A046B08900B100BF2C8A24F44054F08877
:1040E00004432C82AC8941F20C608443B08831894E
:1040F0000843718908430443AC81AC8A24F44074BA
:10410000B0890443AC826846FFF74FFDB54885424D
:1041100002D0B948854202D1DDF80C9001E0DDF80B
:104120000890A88900F4004040B109EBC90000EBF9
:10413000091031684900B0FBF1F707E009EBC9004D
:1041400000EB091031688900B0FBF1F76420B7FB80
:10415000F0F004012009642101FB1078A88900F423
:10416000004040B1322000EBC800B0FBF1F000F09D
:104170000700044308E0322000EB08106421B0FB84
:10418000F1F000F00F0004432C81BDE8FF874FF4ED
:104190001651016000218180C18001810C21418183
:1041A00000218181704710B502460020108A20F45A
:1041B00070600B884C8823438C882343CC8823432E
:1041C0001843108210BD0021018041808180C18090
:1041D000704721B1828942F40052828104E08289D1
:1041E0004DF6FF731A4082817047028B02F47F42C2
:1041F0000283028B0A430283704721B1828942F411
:104200000042828103E08289C2F30E0282817047FC
:1042100021B1828A42F40062828204E0828A4FF2F3
:10422000FF731A4082827047C1F308028280704790
:1042300001468888C0F308007047028A4FF6F07381
:104240001A400282028A0A430282704721B182899F
:1042500042F00202828104E082894FF6FD731A4027
:104260008281704782894FF2FF731A40828182896E
:104270000A4382817047028A4FF6DF731A40028236
:10428000028A0A430282704721B1028A42F48042C4
:10429000028204E0028A4BF6FF731A4002827047E2
:1042A000818941F001018181704721B1828A42F008
:1042B0000802828204E0828A4FF6F7731A408282F3
:1042C0007047028BD2B20283028B42EA0122028340
:1042D000704721B1828A42F02002828204E0828A01
:1042E0004FF6DF731A408282704721B1828A42F012
:1042F0001002828204E0828A4FF6EF731A408282B3
:104300007047828A4FF6FB731A408282828A0A4380
:104310008282704721B1828A42F00202828204E0E6
:10432000828A4FF6FD731A40828270471AB1838ADF
:104330000B43838202E0838A8B4383827047F0B50C
:104340000346002400260025002040F66A17B942E3
:1043500000D100BF1846C1F3421401F01F06012727
:1043600007FA06F5012C01D10C3004E0022C01D132
:10437000103000E014301AB107682F43076002E0E4
:104380000768AF430760F0BD02460020B1F5007F2B
:1043900000D100BF13880B400BB1012000E00020CA
:1043A000704701F40072B2F5007F00D100BFCA432C
:1043B0000280704770B502460024002300250020CB
:1043C00040F66A16B14200D100BFC1F3421501F0B8
:1043D0001F03012606FA03F3012D13D196893340FA
:1043E00017E0000000100140004400400048004079
:1043F000004C004000500040001401400078004094
:10440000007C0040022D02D1168A334001E0968ADA
:1044100033400C12012606FA04F41688344013B116
:104420000CB1012000E0002070BD10B50022002377
:1044300040F66A14A14200D100BF0A120124944040
:10444000A3B2DC43048010BD10B50446FE4884428C
:1044500008D101210846FFF728FD00210120FFF7C0
:1044600024FD9DE0B4F1804F08D101210846FFF7FB
:104470000BFD00210120FFF707FD91E0F348844286
:1044800008D101210220FFF7FFFC00210220FFF7E5
:10449000FBFC85E0EE48844208D101210420FFF7AF
:1044A000F3FC00210420FFF7EFFC79E0E9488442A7
:1044B00008D101210820FFF7E7FC00210820FFF7C1
:1044C000E3FC6DE0E448844208D101211020FFF7AD
:1044D000DBFC00211020FFF7D7FC61E0DF488442BD
:1044E00008D101212020FFF7CFFC00212020FFF779
:1044F000CBFC55E0DA48844208D101210220FFF7C5
:10450000D4FC00210220FFF7D0FC49E0D5488442CA
:1045100009D101210804FFF7C8FC00214FF48030C5
:10452000FFF7C3FC3CE0D048844209D10121480494
:10453000FFF7BBFC00214FF40030FFF7B6FC2FE083
:10454000CA48844209D101218804FFF7AEFC00214A
:104550004FF48020FFF7A9FC22E0C548844208D12F
:1045600001214020FFF790FC00214020FFF78CFC48
:1045700016E0C048844208D101218020FFF784FC66
:1045800000218020FFF780FC0AE0BB48844207D16D
:1045900001218015FFF778FC0021A015FFF774FCBE
:1045A00010BD00220288A84B98420ED0AC4B984216
:1045B0000BD0B0F1804F08D0A44B984205D0A44B4B
:1045C000984202D0A34B984204D14FF68F731A4001
:1045D0004B881A43A04B984207D0A04B984204D076
:1045E0004FF6FF431A400B891A4302804B68C3629F
:1045F0000B880385944B984202D0994B984201D185
:104600008B7A03860123838270474FF0FF3141602C
:104610000021018001814180817270470185828281
:1046200070470A46002101884FF68F7319401143E5
:104630000180704741627047C16270470146486A15
:1046400070470146088D704721B1028842F002028E
:10465000028004E002884FF6FD731A400280704722
:1046600021B1028842F00402028004E002884FF681
:10467000FB731A400280704721B1028842F0800229
:10468000028004E002884FF67F731A400280704770
:1046900002884FF6F7731A40028002880A430280AC
:1046A000704702884FF6FF431A40028002880A438F
:1046B0000280704721B1028842F00102028004E0CA
:1046C00002884FF6FE731A400280704770B50024CE
:1046D00000220023058C4FF6FE7635400584028CBF
:1046E0008388048B4FF68F752C40B51E2C400D88A7
:1046F0002C43751E2A408D892A434D882A43524DEA
:10470000A84202D0564DA84213D14FF6F7752A4061
:10471000CD892A434FF6FB752A408D882A434FF6F0
:10472000FF652B404FF6FF552B400D8A2B434D8ADA
:104730002B43838004838D684563028470BD70B50C
:10474000002400220023058C4FF6EF7635400584C7
:10475000028C8388048B48F6FF752C404FF6FF458A
:104760002C400D884FF6FF7606EA05252C434FF6C0
:10477000DF752A408D8906EA05152A434D8806EA29
:1047800005152A43304DA84202D0354DA8421DD10F
:104790004FF67F752A40CD894FF6FF7606EA05155C
:1047A0002A434FF6BF752A408D8806EA05152A432D
:1047B0004FF6FF352B404FF2FF752B400D8A06EA6E
:1047C00085052B434D8A06EA85052B4383800483A8
:1047D0008D688563028470BD70B5002400220023BB
:1047E000058C4FF6FF6635400584028C8388848BE8
:1047F0004FF68F752C404FF6FC752C400D882C43DE
:104800004FF6FF552A408D894FF6FF7606EA0525BB
:104810002A434D8806EA05252A430B4DA84202D0BB
:104820000F4DA84238D14FF2FF752A40CD894FF67F
:10483000FF7606EA05252A434FF6FF352A408D8884
:1048400006EA05252A4319E0000001400004004063
:1048500000080040000C0040001000400014004020
:104860000004014000400140004401400048014074
:1048700000180040001C0040002000404EF6FF756C
:104880002B404DF6FF752B400D8A06EA05152B438C
:104890004D8A06EA05152B43838084838D68C563A2
:1048A000028470BD70B5002200230024058C4EF6F2
:1048B000FF7635400584038C8488828B48F6FF752B
:1048C0002A404FF6FF452A400D884FF6FF7606EA4C
:1048D00005252A434DF6FF752B408D8906EA0535DF
:1048E0002B434D8806EA05352B43FE4DA84202D0E6
:1048F000FD4DA84208D14BF6FF752C400D8A4FF6AE
:10490000FF7606EA85152C43848082838D680564D2
:10491000038470BD0021018041808180816081819C
:10492000C18101824182704770B503460020002496
:104930001846183001258D40ACB21D8CA5431D844E
:1049400009B108290AD100EB610005684FF68F769E
:10495000354005600568154305600FE00D1FC5F380
:104960004E052844056848F6FF7635400560056821
:104970004FF6FF7606EA02263543056070BD4163B7
:10498000704781637047C1637047016470470A468E
:104990000021018B4FF68F7319401143018370473B
:1049A0000A460021018B48F6FF7319404FF6FF734A
:1049B00003EA02231943018370470A460021818BD1
:1049C0004FF68F7319401143818370470A460021C7
:1049D000818B48F6FF7319404FF6FF7303EA0223F9
:1049E0001943818370470A460021018B4FF6F77304
:1049F00019401143018370470A460021018B4FF291
:104A0000FF7319404FF6FF7303EA02231943018332
:104A100070470A460021818B4FF6F7731940114306
:104A2000818370470A460021818B4FF2FF73194042
:104A30004FF6FF7303EA02231943818370470A4646
:104A40000021018B4FF6FB7319401143018370471E
:104A50000A460021018B4FF6FF3319404FF6FF73D2
:104A600003EA02231943018370470A460021818B20
:104A70004FF6FB7319401143818370470A460021AA
:104A8000818B4FF6FF3319404FF6FF7303EA022381
:104A90001943818370470A460021018B4FF67F73CB
:104AA00019401143018370470A460021018BC1F36D
:104AB0000E014FF6FF7303EA022319430183704787
:104AC0000A460021818B4FF67F7319401143818381
:104AD00070470A460021818BC1F30E014FF6FF7328
:104AE00003EA02231943818370470A460021018C9F
:104AF0004FF6FD7319401143018470470A460021A7
:104B0000018C4FF6F77319401143018470470A4630
:104B10000021018C4FF6DF7319404FF6FF7303EA53
:104B200002131943018470470A460021018C4FF695
:104B30007F7319404FF6FF7303EA02131943018490
:104B400070470A460021018C4FF6FF5319404FF67B
:104B5000FF7303EA02231943018470470A460021C8
:104B6000018C4FF2FF7319404FF6FF7303EA0223E3
:104B70001943018470470A460021018C4DF6FF73EA
:104B800019404FF6FF7303EA02331943018470475B
:104B900030B5002301248C40A3B2048C9C430484D0
:104BA000048C02FA01F5ADB22C43048430BD30B55B
:104BB000002304248C40A3B2048C9C430484048C02
:104BC00002FA01F5ADB22C43048430BD828B4FF262
:104BD000FF331A408283828B4FF6FF7303EA01236F
:104BE0001A4382837047F0B50C4615460021002217
:104BF0000026078C4EF6FF7C07EA0C070784818BA2
:104C0000028C4FF6FF7707EA043640F6FF4739403B
:104C10004FF6FF7707EA052739434FF6FF7707EA94
:104C20000337394345F6FF773A4046F480573A4315
:104C300081830284F0BD828B4FF6F3731A40828326
:104C4000828B0A4382837047F0B50C4615460021DB
:104C500000220026078C4FF6FF6C07EA0C0707843A
:104C6000818B028C4FF6FF7707EA04264FF60C770C
:104C700039404FF6FF7707EA03172F4339434FF2C6
:104C8000FF573A4046F480773A4381830284F0BD6F
:104C9000028B4FF2FF331A400283028B4FF6FF73F1
:104CA00003EA01231A4302837047F0B50C46154608
:104CB000002100220026078C4FF6EF7C07EA0C0744
:104CC0000784018B028C4FF6FF7707EA041640F643
:104CD000FF4739404FF6FF7707EA033739434FF66E
:104CE000FF7703E0000001400004014007EA0527C8
:104CF00039434FF65F773A4046F010073A43018355
:104D00000284F0BD028B4FF6F3731A400283028BCC
:104D10000A4302837047F0B50C4615460021002275
:104D2000068C4FF6FE773E400684018B028C4FF6D0
:104D30000C7631407E1C06EA03162E4331434FF6B3
:104D4000F576324044F00106324301830284F0BD1F
:104D500070B505460C46208850B92389A288618821
:104D60002846FFF7D8FFE1882846FFF7CBFF25E06C
:104D7000208804280AD12389A28861882846FFF761
:104D800094FFE1882846FFF783FF17E02088082872
:104D90000AD12389A28861882846FFF755FFE18858
:104DA0002846FFF748FF09E02389A2886188284642
:104DB000FFF719FFE1882846FFF708FF70BD0021C3
:104DC00001804180012181800021C18001817047E3
:104DD0002DE9F04105460C4600260127608808B9F8
:104DE000022600E00026A088012801D1022700E069
:104DF00001272088A0B92389A28861882846FFF767
:104E00008AFFE1882846FFF77DFF23893A4631462D
:104E10002846FFF74AFFE1882846FFF739FF13E0ED
:104E20002389A28861882846FFF73FFFE18828464A
:104E3000FFF72EFF23893A4631462846FFF76BFFDE
:104E4000E1882846FFF75EFFBDE8F0810146486B28
:104E500070470146886B70470146C86B7047014632
:104E6000086C70470A884B881A438B881A43CB8892
:104E70001A430B891A434B891A438B891A43A0F8AA
:104E8000442070470021018041808180C1800181E0
:104E900041818181704731B1B0F8442042F4004231
:104EA000A0F8442005E0B0F84420C2F30E02A0F8B8
:104EB0004420704721B1828842F00402828004E0DD
:104EC00082884FF6FB731A408280704721B1828836
:104ED00042F00102828004E082884FF6FE731A409D
:104EE000828070471AB183890B43838102E08389F2
:104EF0008B43838170478182704702460020138A6A
:104F00000B400BB1012000E000207047CA43028231
:104F1000704730B50246002000230024158A05EAB8
:104F20000103958905EA010413B10CB1012000E0E9
:104F3000002030BDCA430282704741EA0203A0F854
:104F4000483070471AB183890B43838102E083891B
:104F50008B438381704721B1828842F008028280AE
:104F600004E082884FF6F7731A4082807047018907
:104F70004FF6F8721140018170470A4600210189FD
:104F80004FF68F73194011430181704730B50446C5
:104F90000D4629462046FFF7F0FF208940F0070024
:104FA000208130BD2DE9F04104460D4616461F46CE
:104FB000602D06D13B46012231462046FFF775FEA3
:104FC00005E03B46012231462046FFF7A4FE294674
:104FD0002046FFF7D2FF208940F007002081BDE87E
:104FE000F08130B50C4600210189C9B24FF6FF753A
:104FF00005EA0325154325432943018130BD2DE9E9
:10500000F04105460E4617469846002443463A4668
:1050100031462846FFF7E5FF2C894FF6F87004402B
:1050200044F007044FF68F70044044F070042C8164
:10503000BDE8F081F0B504460D4616461F463B46D6
:10504000324629462046FFF7CCFF208940F48040B5
:105050002081F0BD82884FF68F731A40828082884B
:105060000A438280704702894FF6F8731A40028122
:1050700002890A430281704702894FF67F731A4002
:10508000028102890A4302817047F0B50C46154639
:105090001E460021002200230189028B038C4FF65B
:1050A000F877394021434FF6FC473A4040F2011768
:1050B0003A434FF6DD773B404FF6FF7707EA061796
:1050C0002F433B43018102830384F0BD21B18288D9
:1050D00042F08002828004E082884FF67F731A409B
:1050E00082807047A0F850107047000010B5044649
:1050F000FB48844208D101218014FEF7D6FE00212E
:10510000A014FEF7D2FE3CE0F648844208D101210B
:105110000014FEF7B9FE00212014FEF7B5FE30E0C2
:10512000F148844208D10121C013FEF7ADFE0021F1
:10513000E013FEF7A9FE24E0EC48844208D10121E7
:105140004014FEF7B2FE00216014FEF7AEFE18E038
:10515000E748844209D101210805FEF7A6FE002197
:105160004FF48010FEF7A1FE0BE0E248844208D124
:1051700001214805FEF799FE00214FF40010FEF7CB
:1051800094FE10BD10B50022028802F441520B8833
:105190004C8823438C882343CC8823430C892343A6
:1051A0004C8923438C892343CC8923431A430280AF
:1051B000838B4FF2FF74234083830B8A038210BDDD
:1051C0002DE9F04F0025022300244FF001090022B1
:1051D0000026002794469046B0F81CA04FF2400BE2
:1051E0000AEA0B0AA0F81CA04FF0020AA0F820A0BF
:1051F000858BD1F808A0BAF1020F01D100BF82E07F
:10520000B1F804A0BAF1000F02D14FF0010901E09A
:105210004FF00209DFF8E0A2DAF800A00AF4000A71
:10522000BAF1000F09D0DFF8D0A2DAF800A02AF412
:10523000000ADFF8C4B2CBF800A0DFF8BCA20AF184
:105240007C0ADAF800A0CAF3881CDFF8ACA20AF1E5
:105250007C0ADAF800A0CAF30278DFF89CA2AAF16F
:10526000040ADAF800A00AF03F07DFF88CA2AAF1DE
:10527000040ADAF800A00AF4800ABAF5800F08D10F
:10528000DFF878A2BAFBF7FA0AFB0CFABAFBF8F6D9
:1052900007E0DFF86CA2BAFBF7FA0AFB0CFABAFBDC
:1052A000F8F6B1F806A0BAF5007F0ED14FEA162A3B
:1052B0000AEB8A0A4FEA4A0AD1F808B0BAFBFBFAAD
:1052C0000AF1050A1FFA8AF20FE04FEA491AB6FB03
:1052D000FAFA0AEB8A0A4FEA4A0AD1F808B0BAFB8E
:1052E000FBFA0AF1050A1FFA8AF24FF00A0AB2FB2A
:1052F000FAF202F00104A2EB040ACAF34F034FF6DC
:10530000FF7A0AEA0424022B01DBFF2B01DD0223D2
:105310000024B1F806A04AEA040A4AEA030AA0F8FF
:1053200020A0B1F804A0B1F80CB04AEA0B0AB1F819
:1053300002B04AEA0B0AB1F800B04AEA0B0A4AF492
:10534000006A4AEA05058583BDE8F08F00210180E7
:1053500041808180C180018141818181C18107219A
:10536000018270470021018041808180C18002213B
:10537000816000218181704721B1028842F04002A2
:10538000028004E002884FF6BF731A400280704723
:1053900021B1828B42F48062828304E0828B4FF6DB
:1053A000FF331A408283704702884FF2FF731A401E
:1053B000028002880A4302807047B1F5804F04D111
:1053C000028842F48042028004E002884BF6FF73B8
:1053D0001A40028070474FF6FF62914204D0028863
:1053E00042F48072028004E002884FF6FF631A40A4
:1053F0000280704721B1828842F00402828004E07A
:1054000082884FF6FB731A408280704721B18288F0
:1054100042F01002828004E082884FF6EF731A4057
:105420008280704730B500220023848B4FF2400504
:105430002C40848302240484828B0C88B4F5007F82
:1054400001D00C8814B94FF4807308E00C88B4F5CF
:10545000407F03D00C88B4F5807F00D100238C8876
:105460008D892C434D882C431C4344F40064224313
:10547000828330BD0146888970478181704721B1A0
:10548000028842F40052028004E002884DF6FF7365
:105490001A4002807047018841F4805101807047B2
:1054A00002460020012901D0108B00E0908A70474D
:1054B0000146088A70471AB183880B43838002E053
:1054C00083888B438380704730B5002400230C1100
:1054D0000125A540ABB2AAB185881D43858014E0A3
:1054E0000030014000380040003C004000340140E2
:1054F00000500140005401400838024000127A0078
:105500000024F40085889D43858030BD024600203C
:1055100013890B400BB1012000E000207047CA4303
:1055200002817047F0B502460020002400230025C8
:1055300001F00F070126BE40B4B20B1101269E40B8
:10554000B3B2968806EA03051689264016B10DB156
:10555000012000E00020F0BD10B5002201F00F0492
:105560000123A3409AB2D343038110BD016821F007
:10557000010101600021016041608160C160016141
:1055800021214161DB49884204D13D21D94A103AA9
:1055900091608CE0D7491831884205D14FF474618D
:1055A000D44A103A916082E0D2493031884205D124
:1055B0004FF47411CF4A103A916078E0CD494831E8
:1055C000884205D14FF07461CA4A103A91606EE08A
:1055D000C8496031884204D1C749C64A103AD160EF
:1055E00065E0C4497831884204D1C449C14A103ABF
:1055F000D1605CE0BF499031884204D1C049BD4AC6
:10560000103AD16053E0BB49A831884205D14FF030
:105610003D51B84A103AD16049E0BA49884204D1B4
:105620003D21B84A083A116041E0B6491831884234
:1056300005D14FF47461B34A083A116037E0B149BB
:105640003031884205D14FF47411AE4A083A1160E6
:105650002DE0AC494831884205D14FF07461A94A28
:10566000083A116023E0A7496031884204D1A24979
:10567000A44A121F11601AE0A2497831884204D16D
:105680009E49A04A121F116011E09E499031884244
:1056900004D19B499B4A121F116008E09949A83127
:1056A000884204D14FF03D51964A121F1160704755
:1056B00010B500220268944B1A40CC680B68234353
:1056C0004C6923438C692343CC6923430C6A2343ED
:1056D0004C6A23438C6A23434C6B23438C6B2343D8
:1056E0001A430260426922F00702D1E90B342343D6
:1056F0001A4342610B6943604B6883608B68C360E7
:1057000010BD0021016041608160C16001614161A3
:105710008161C161016241628162C1620163416371
:105720008163704721B1026842F00102026003E028
:10573000026822F001020260704721B1026842F45F
:105740000042026003E0026822F4004202607047F7
:1057500021B1026842F02002026003E0026822F0F8
:10576000200202607047416070470146486880B27D
:10577000704722B1036843F40023036003E0036829
:1057800023F4002303600161704721B1026842F4F1
:105790008022026003E0026822F4802202607047E7
:1057A0000AB1016100E0C1607047014600200A684B
:1057B00002F400220AB1012000E0002070470146F7
:1057C00000200A6802F001020AB1012000E0002076
:1057D0007047014600204A6902F03800704730B532
:1057E00003460A4600200024464DAB4202D24149FE
:1057F000103901E04349103902F000550DB14C68F1
:1058000000E00C68414D2C4004EA02050DB1012076
:1058100000E0002030BD02463A4B9A4202D23548A1
:10582000103801E03748103801F000531BB1374BF6
:105830000B40C36002E0354B0B408360704710B5EE
:1058400001F080034BB122B1436943F0800343610F
:1058500003E0436923F08003436180290BD02AB120
:10586000036801F01E042343036004E0036801F0B1
:105870001E04A343036010BD70B50246002000243F
:105880000025204EB24202D21A4B103B01E01D4BC4
:10589000103B1F4E0E4036B11E2606EAD124166874
:1058A00006EA040502E0566906F0800501F000569C
:1058B0000EB15C6800E01C68144E344004EA010636
:1058C00016B10DB1012000E0002070BD02460D4B65
:1058D0009A4202D20748103801E00A48103801F015
:1058E00000531BB1094B0B40C36002E0074B0B4058
:1058F00083607047106002403D000020400F002090
:1059000000003D20106402403F801CF07D0F7D0FA1
:105910003C0F3C0F7CB5002514E06946284602F098
:10592000C1F9064666B9F84850F8254044B1012C43
:1059300006D0D4E9020100EB810060640198A06404
:10594000681CC5B23F2DE8D97CBD002400BF02E031
:10595000C82002F0B1FAED4800780028F8D0EC48F1
:1059600000686421B0FBF1F0E9490860084600686E
:1059700028B90020E7490870FF2002F0D5F900BFE0
:1059800002F08CFE0446E4480068E4490860002008
:10599000E1490860204602F085FEE0480068DC49E5
:1059A0000968B0FBF1F0C0F16400DA49087002F058
:1059B000E1FEFFF7AFFF642002F07EFAE0E700B5FA
:1059C00087B0032000218022D54BCDE90132CDE9FB
:1059D00003104FF6FE703E23D24A0090AFF29500BE
:1059E00001F079FF06AAD0A13E2002F0DDF807B051
:1059F00000BD002400BF00BF02F050FE0446C648B0
:105A00000068401CC4490860204602F04BFE02F0CA
:105A1000B0FEF1E700B587B0032000218022C64B1D
:105A2000CDE90132CDE903104FF6FF703F23C34AA1
:105A30000090AFF2410001F04EFF06AAC0A13F2046
:105A400002F0B2F807B000BD04E0002200F8012B1C
:105A50004A1E91B20029F8D1704770B5C821BC48E0
:105A6000FFF7F2FF00230FE0581C85B203EB830021
:105A7000B74901EB800405EB850001EB80060020AF
:105A800020706660581C83B2092BEDD303EB8300B2
:105A9000AF4901EB80040020207060600846AD49EA
:105AA000086070BD70B54FF4E761AB48FFF7CCFFFD
:105AB0004FF480719448FFF7C7FF002413E0601C87
:105AC000C5B2C4EBC40000EB4000A34901EB800366
:105AD000C5EBC50000EB400001EB80065E619FA0B6
