:020000040800F2
:1000000030C70020413500088135000883350008DD
:10001000873500088B3500088F3500080000000088
:100020000000000000000000000000009335000800
:1000300095350008000000000D9000089935000873
:100040005B3500085B3500085B3500085B35000850
:100050005B3500085B3500085B3500085B35000840
:100060005B3500085B3500085B3500085B35000830
:100070005B3500085B3500085B3500085B35000820
:100080005B3500085B3500085B3500085B35000810
:100090005B3500085B3500085B3500085B35000800
:1000A0005B3500085B3500085B3500085B350008F0
:1000B0005B350008090F00085B3500085B35000858
:1000C0005B3500085B3500085B3500085B350008D0
:1000D0005B350008B107010899DD0008FF1E010823
:1000E0005B3500085B3500085B3500085B350008B0
:1000F0005B3500085B3500085B3500085B350008A0
:100100005B3500085B3500085B3500085B3500088F
:10011000E30B010821ED00085B3500085B350008A2
:100120005B3500085B3500085B3500085B3500086F
:100130005B3500085B3500085B3500085B3500085F
:100140005B3500085B3500085B3500085B3500084F
:100150005B3500085B3500085B3500085B3500083F
:100160005B3500085B3500085B3500085B3500082F
:100170005B3500085B3500085B3500085B3500081F
:100180005B3500085B35000800F002F800F05CF811
:100190000AA090E8000C82448344AAF10107DA45E2
:1001A00001D100F051F8AFF2090EBAE80F0013F0D8
:1001B000010F18BFFB1A43F001031847F4060300B0
:1001C000140703000A444FF0000C10F8013B13F031
:1001D000070408BF10F8014B1D1108BF10F8015BA0
:1001E000641E05D010F8016B641E01F8016BF9D193
:1001F00013F0080F1EBF10F8014BAD1C0C1B09D1EA
:100200006D1E58BF01F801CBFAD505E014F8016B5B
:1002100001F8016B6D1EF9D59142D6D370470000ED
:100220000023002400250026103A28BF78C1FBD8FF
:10023000520728BF30C148BF0B6070471FB52FF071
:100240003EFC1FBD10B510BD2CF0A2FA1146FFF701
:10025000F5FF00F09EF82CF0C0FA03B4FFF7F2FFB0
:1002600003BC2CF0C3FA0000E24800887047E14864
:1002700012380068E0490860DE480E3800684860BF
:10028000DC480A380068886070477FB5044600255E
:1002900000BF002007F031F8D84908604FF48071A2
:1002A000D74807F029FAD749086003A9002006F0CB
:1002B00089FCD549086006F025FA03A8D3A10022DD
:1002C000D44BCDE90021029002220A21084608F011
:1002D00074FBD149086003A9CF48006808F0FFFC0F
:1002E00003A8CEA10022CF4BCDE90021029002222B
:1002F00005210A2008F061FBCB49086003A9CA4820
:10030000006808F0ECFC08F059FE05460423C74AD3
:100310000021C74807F018FF0223C64A0021C6483B
:1003200007F012FF0323C54A0021C54807F00CFF60
:100330000E23C44A0021C44807F006FF0523C34A20
:100340000021C34807F000FF1123C24A0021C24820
:1003500007F0FAFE1223C14A0021C14807F0F4FE5B
:100360000F23C04A0021C04807F0EEFE0623BF4A13
:100370000021BF4807F0E8FE1323BE4A0021BE4813
:1003800007F0E2FE142008F05FF9284608F01AFE94
:100390007FBD1CB5FFF76BFF4FF4A06003F088FA38
:1003A000A82003F001F90AF027FA4FF4C8700AF008
:1003B000ECF80AF050FB64200AF0FBFA08F06BFF3F
:1003C00064200AF0F6FA15F0DDFC1420AB49087041
:1003D0000846007814F05DFF64200AF0EAFA002075
:1003E000A749087014F006FE0120A5490870642092
:1003F0000AF0DFFA4FF4E1300EF065FD01206221D2
:10040000A04BA14ACDE90010C106A0480AF01CF893
:100410004FF461200CF068FA4FF47A3010F076FC5B
:10042000002042219A4B9B4ACDE9001089069A4848
:100430000AF00AF84FF4613011F016FC4FF4613005
:100440000EF017FB64200AF0B4FA00F039FD09F051
:100450009BFB02E064200AF0ACFA09F006FB4EF6C2
:1004600015718842F6D109F0B2FD00208B4981F860
:1004700033009FED8B0A8B4880ED0A0AB0EE020A2A
:10048000894880ED0A0A9FED890A80ED090A9FEDEF
:10049000880A80ED0B0A9FED870A80ED0C0A9FED1C
:1004A000860A80ED0D0A0020844908707B4981F896
:1004B0002B0081F82E0081F84300012081F82F00E5
:1004C000002081F83000C87481F84000012081F8D4
:1004D000280081F85100002081F822000120C87511
:1004E000002081F8290081F82A00487181F8440031
:1004F00001200872002081F84600012081F83D00AB
:100500000020087681F8200081F8210081F83F0062
:1005100008700120487300204874012088754872D3
:10052000C8730020087581F83100087481F8210033
:1005300001204875002088740120887348708870F5
:10054000C870002008710120C87200208872012044
:100550000873002081F84C0040F2DC505849C880F4
:10056000088048804FF47A708880002055490860E0
:1005700048608860C8604FF4FA705149088148812A
:100580008881C881012280214248001F04F014F8AC
:100590004221414809F0B4FF012280213A48001F5E
:1005A00004F00AF86221394809F0AAFF32200AF063
:1005B00000FA05F068FF1423434A0021AFF23530FA
:1005C00007F0C2FD06F086F800201CBD1CB50FE048
:1005D00001A8002303221F2100900B48006806F0A9
:1005E00057FC01AB00221F210748006806F090FD70
:1005F000EEE70000227AFF1FAC130020000000206D
:10060000B81300200400002008000020746D72312F
:10061000000000009F34000878000020746D7232E2
:1006200000000000CB3400087C0000201C230020C8
:10063000DF0F00081C1D00201D0F00081C270020D4
:10064000531000081C2F0020DB1200081C3C002067
:100650003F1500081C320020B91300081C4200207E
:10066000531500081C3A0020CB1400081C3E002043
:10067000491500081C430020E53300080C00002049
:1006800046010020C675002004100140B8640240F5
:100690006E760020044C004070600240906C002098
:1006A0009A99A93F90A30020D8A300209A990940C5
:1006B000CDCC4C3E0000A0420080D444C8010020B4
:1006C000A8670020C8670020A813002010B52DEDF2
:1006D0000A8B0020FE490870012048709FEDFD0A3A
:1006E000084680ED010A9FEDFC0A80ED020A042015
:1006F00008749FEDFA0A084680ED080A9FEDF80A93
:1007000080ED050A9FEDF70A80ED070A9FEDF60AD6
:1007100080ED060A0078E8BB084690ED050A10EE69
:10072000101A08462FF02AF941EC1C0B9FEDEF0B35
:1007300053EC102B2EF02CFE41EC1B0B9FEDED0B20
:1007400053EC102B2EF024FE41EC190BE04890EDF9
:10075000080AD0ED020AB0EE001A01EE200AF0EE0F
:10076000000A60EE200A90ED011A90ED060A10EEE4
:10077000810A10EE101A08462FF000F941EC1A0B0E
:1007800053EC192B2EF0DAFB41EC180B2EF0E8FAA3
:10079000CF4900E002E0C863C86200BF00BFBDEC03
:1007A0000A8B10BD10B52DED048BFFF78FFFD34AD8
:1007B000D34B0BCB40320BC2D048D14B0C330ECBBA
:1007C0004C300EC0CF48CE4B18330ECB08300EC085
:1007D000CB4890ED0A0AC94880ED190ACA4800685A
:1007E0006FF03011084428B1A0F5D8102038002847
:1007F0007ED101E19FEDC50AC54880ED100A80ED6C
:100800000C0A90ED0C0ADFEDC30A20EE200ABCEEC4
:10081000C00A10EE100AC049C8809FEDC00ABC484B
:1008200080ED120A80ED0E0A90ED0E0ADFEDB90A96
:1008300020EE200ABCEEC00A10EE100A08819FEDDF
:10084000B80AB34880ED110A80ED0D0A90ED0D0A4B
:10085000DFEDB00A20EE200ABCEEC00A10EE100A4E
:1008600048819FEDB00AAA4880ED040A80ED000A95
:1008700090ED000ADFEDA70A20EE200ABCEEC00AC8
:1008800010EE100A08809FEDA80AA14880ED060A24
:1008900080ED020A90ED020ADFED9E0A20EE200AAA
:1008A000BCEEC00A10EE100A4880B0EE000A98486C
:1008B00080ED050A80ED010A90ED010ADFED950A51
:1008C00020EE200ABCEEC00A10EE100A88809FEDD0
:1008D000950A8F4880ED140A90ED140ADFED8D0A19
:1008E00020EE200ABCEEC00A10EE100A088200E0DA
:1008F000BEE19FED8A0A864880ED160A90ED160A41
:10090000DFED840A20EE200ABCEEC00A10EE100AC9
:10091000C8819FED820A7E4880ED150A9FED810A0D
:1009200080ED080A90ED080ADFED7A0A20EE200A31
:10093000BCEEC00A10EE100A88819FED7B0A744855
:1009400080ED0A0AB7EE000A80ED090AB7EE000A48
:1009500080ED070A80ED030AB7EE000A80ED0B0A6E
:10096000B1EE040A714880ED000AB5EE000A80ED90
:10097000010A9FED6A0A80ED020A9FED6A0A80ED86
:10098000080A9FED550A80ED090A9FED690A80ED7E
:100990000A0A9FED680A80ED060A9FED660A80ED5F
:1009A0000E0A90ED0E0A10EE101A08462EF0E6FF21
:1009B00041EC190B9FED600B53EC102B2EF0E8FC73
:1009C00041EC180B2EF0CCF95849C8639FED560A3C
:1009D000084680ED200A0F21594880F8E21180F87E
:1009E000561080F8DA104221564880F8E21180F85B
:1009F000561080F8DA1027E29FED440A444880ED53
:100A0000100A80ED0C0A90ED0C0ADFED420A20EE90
:100A1000200ABCEEC00A10EE100A3F49C8809FEDC4
:100A20003F0A3B4880ED120A80ED0E0A90ED0E0A57
:100A3000DFED380A20EE200ABCEEC00A10EE100AE4
:100A400008819FED370A324880ED110A80ED0D0ACA
:100A500090ED0D0ADFED2F0A20EE200ABCEEC00A51
:100A600010EE100A48819FED380A294880ED040AEB
:100A700080ED000A90ED000ADFED260A20EE200A44
:100A8000BCEEC00A10EE100A08809FED270A20482D
:100A900080ED060A80ED020A90ED020ADFED1D0AE4
:100AA00020EE200ABCEEC00A10EE100A4880B0EE1C
:100AB000000A174880ED050A80ED010A90ED010A51
:100AC000DFED140A20EE200ABCEEC00A3EE0000072
:100AD00078180020295C0F3E0AD7A33B8FC2F53C53
:100AE0000AD7233B4260653C16FB8BBE6666666692
:100AF00066A64C40EC51B81E85EB16406C78002081
:100B0000B817002018030020AC130020CDCCCC3E39
:100B1000F817002000007A44B669002000000000A9
:100B20009A99993ECDCC4C3FCDCCCC3D346A002037
:100B3000CDCC4C3ECDCCCC3C000000000000F83FBA
:100B4000AC910020BC9300203333333F10EE100AE9
:100B500088801FED0C0ADF4880ED140A90ED140A1E
:100B60005FED140A20EE200ABCEEC00A10EE100A57
:100B700008821FED160AD74880ED160A90ED160A76
:100B80005FED1C0A20EE200ABCEEC00A10EE100A2F
:100B9000C8811FED1E0ACF4880ED150A1FED1F0A00
:100BA00080ED080A90ED080A5FED260A20EE200A83
:100BB000BCEEC00A10EE100A88811FED250AC54858
:100BC00080ED0A0AB7EE000A80ED090AB7EE000AC6
:100BD00080ED070A80ED030AB7EE000A80ED0B0AEC
:100BE0001FED320ABC4880ED000A1FED340A80ED8B
:100BF000010A9FEDBA0A80ED080A9FEDB90A80ED5F
:100C0000090A1FED350A80ED0A0A1FED400A80ED42
:100C1000060A1FED380A80ED0E0A90ED0E0A10EE5E
:100C2000101A08462EF0AAFE41EC190B1FED3E0BE0
:100C300053EC102B2EF0ACFB41EC180B2EF090F87F
:100C4000A549C8631FED480A084680ED200A4621E1
:100C5000A44880F8E21180F8561080F8DA10642178
:100C6000A14880F8E21180F8561080F8DA10EBE025
:100C70001FED5A0A974880ED100A80ED0C0A90ED9E
:100C80000C0A5FED5C0A20EE200ABCEEC00A10EEF2
:100C9000100A9649C8809FED960A8E4880ED120A88
:100CA00080ED0E0A90ED0E0A5FED660A20EE200A36
:100CB000BCEEC00A10EE100A08811FED660A8548D6
:100CC00080ED110A80ED0D0A90ED0D0A5FED6F0ABF
:100CD00020EE200ABCEEC00A10EE100A4881B6EEE3
:100CE000000A7C4880ED040A80ED000A90ED000ABD
:100CF0005FED780A20EE200ABCEEC00A10EE100A62
:100D000008809FED7B0A734880ED060A80ED020A99
:100D100090ED020A5FED810A20EE200ABCEEC00AC7
:100D200010EE100A4880B2EE000A6A4880ED050A0B
:100D300080ED010A90ED010A5FED8A0A20EE200A9B
:100D4000BCEEC00A10EE100A88801FED8A0A6148C6
:100D500080ED140A90ED140A5FED920A20EE200A4D
:100D6000BCEEC00A10EE100A08829FED610A5948D5
:100D700080ED160A90ED160A5FED9A0A20EE200A21
:100D8000BCEEC00A10EE100AC8811FED9B0A514844
:100D900080ED150A1FED9D0A80ED080A90ED080A06
:100DA0005FEDA40A20EE200ABCEEC00A10EE100A85
:100DB00088811FEDA30A474880ED0A0AB7EE000AB2
:100DC00080ED090AB7EE000A80ED070A80ED030AFC
:100DD000B7EE000A80ED0B0AB0EE000A3E4880ED47
:100DE000000A1FEDB20A80ED010A9FED420A80ED74
:100DF000080A9FED3B0A80ED090AB7EE000A80ED74
:100E00000A0A9FED370A80ED060A9FED3B0A80ED46
:100E10000E0A90ED0E0A10EE101A08462EF0AEFDE6
:100E200041EC190B1FEDBC0B53EC102B2EF0B0FA5C
:100E300041EC180B2DF094FF2749C8639FED2F0A52
:100E4000084680ED200A00BF00BF2D48214BD3E9A2
:100E500001421968DB68C0E91642036641651D4C12
:100E6000D4E90423D4E90614C0E91B14C0E919230A
:100E7000184CD4E90831D4E90A24C0E91F24C0E998
:100E80001D312048134CD4E90D13226BE46BC0E9EB
:100E90001734C0E915210F49D1E911240B6CC96C35
:100EA000C0E91A24436601670A49D1E91434D1E93B
:100EB0001621C0E91D34C0E91F21BDEC048B10BD13
:100EC00010B5FFF76FFC16F0D1FA1CF039F91CF0E1
:100ED00017F910BDF8170020346A00206666263F17
:100EE0000AD7233CAC910020BC930020B6690020B7
:100EF000CDCC4C3DCDCC0C3FBC74133D8FC2753D69
:100F0000E88D0020AC8E002010B50121FE4804F0D1
:100F100046F90121FC4804F053F910BD2DED028B78
:100F20005CE0072009F051FD10EE104A20462EF03B
:100F300025FD41EC180B9FEDF50B53EC102B2EF01B
:100F400025FB02D2F348046004E09FEDF30AF14868
:100F500080ED000AF148007880B9F1480178007806
:100F6000401CEF4A1070282902DD0120EB4908706F
:100F70009FEDE90AE74880ED000A2BE014F0A7F89E
:100F8000E44890ED000A14F032FBE648017800785E
:100F9000401CE44A1070022904DB0020114608704E
:100FA00013F041FFE04801780078401CDE4A1070E1
:100FB000022904DB00201146087015F034F9DB48E3
:100FC000D44991ED000A09F0AFFFD24890ED000A34
:100FD00018F00BFE052002F038FB00BFA1E72DED55
:100FE000028B35E00B2009F0F0FC10EE104A204691
:100FF0002EF0C4FC41EC180B9FEDC40B53EC102BEE
:101000002EF0C4FA02D2CA48046004E09FEDC90A77
:10101000C74880ED000AC848007880B9C748017801
:101020000078401CC54A1070282902DD0120C24901
:1010300008709FEDC00ABE4880ED000A04E0BC487D
:1010400090ED000A16F024FA0A2002F0FEFA00BF22
:10105000C8E72DED0A8B82B03EE1B948007880B92F
:10106000B84801780078401CB64A1070282902DD83
:101070000120B34908709FEDAF0AB34880ED000A24
:1010800027E1052009F0A1FC10EE104A20462EF0C1
:1010900075FC41EC180B9FED9D0B53EC102B2EF0C3
:1010A00075FA02D2A848046004E09FEDA20AA6489F
:1010B00080ED000AA54801780078401CA34A107012
:1010C000012955DD002011460870A148D0ED0F0A16
:1010D000B0EE600AF6EE000A23F07AFEB0EE408A27
:1010E0009B48D0ED0E0AB0EE600ADFED9A0A23F0BD
:1010F0006FFEF0EE408A9648D0ED0D0AB0EE600A21
:10110000DFED940A23F064FEB0EE409A9248D0EDF1
:101110000A0AF0EE604AD0ED090AB0EE604AD0ED5E
:10112000080AF0EE603A8A48D0ED060AB0EE603A5E
:10113000D0ED050AF0EE602AD0ED040AB0EE602A88
:101140008148D0ED000AB6EE001A60EE810AB0EEDA
:10115000001A60EE810AB0EE600A804A694601A872
:10116000F0EE481AB0EE681AF0EE490A26F03CF8A4
:10117000774890ED060A10EE101A08462EF0FEFB96
:1011800041EC1C0B9FED760B53EC102B2DF0D6FE93
:1011900041EC1B0B2DF0E4FD08EE100A6C4890EDBD
:1011A000050A10EE101A08462EF0E8FB41EC1C0B65
:1011B0009FED6B0B53EC102B2DF0C0FE41EC1B0B85
:1011C0002DF0CEFD08EE900A614890ED040A10EE75
:1011D000101A08462EF0D2FB41EC1C0B9FED600B61
:1011E00053EC102B2DF0AAFE41EC1B0B2DF0B8FD9B
:1011F00009EE100A5648D0ED0F0AB0EE600AF6EE7E
:10120000000A23F0E5FD10EE105A28462EF0B6FB3A
:1012100041EC1C0B9FED540B53EC102B2DF08EFE6C
:1012200041EC1B0B2DF09CFD09EE900A4848D0EDD7
:101230000E0AB0EE600AF6EE000A23F0C9FD10EEC9
:10124000105A28462EF09AFB41EC1C0B9FED460BE2
:1012500053EC102B2DF072FE41EC1B0B2DF080FD9A
:101260000AEE100A3A48D0ED0D0AB0EE600AF6EE2A
:10127000000A23F0ADFD10EE105A28462EF07EFB3A
:1012800041EC1C0B9FED380B53EC102B2DF056FE50
:1012900041EC1B0B2DF064FD0AEE900A344A3549EF
:1012A0003548DFED2C4A9FED2B4ADFED2A3AB0EEB0
:1012B000483AF0EE682AB0EE492AF0EE691AB0EE2C
:1012C0004A1AF0EE6A0A204B93ED000A26F033FC2E
:1012D00000BF0A2002F0B9F9BFE62DED028B6AE0EB
:1012E000264801780078401C244A1070042903DD48
:1012F00000201146087000BF214908780978491C70
:101300001F4B19703EE0000000040040FCA9F1D220
:101310004D62503F240000200AD7A33B8D000020DF
:101320008E0000208A0000208B0000201019002071
:10133000440000200AD7233C9200002093000020A4
:101340009700002098000020480000209500002011
:10135000F077002000000000480300205400002027
:10136000000000000000B0406666666666A64C405D
:10137000580000204C000020500000209900002060
:101380009B0000202DF0B4FF41EC180B9FEDFD0BEE
:1013900053EC102B2EF0FAF806D2FC4890F83E00E1
:1013A00010B10020FA4908709FEDFA0A1FF000FA08
:1013B000142002F04AF993E786E0F74801680068D4
:1013C000401CF54A10601E2905D91F2011460860EF
:1013D0000120F2490870F24801680068401CF04A98
:1013E00010601E2905D91F20114608600020ED4914
:1013F0000870ED480078E54981F83E00EA484078F9
:1014000081F83100E84880784871E748C078E749BA
:1014100008700120DD4981F8250081F84600E44884
:10142000C07981F84700E248C07808B9012000E09F
:101430000020D6494875DF48B0F9080040F2DC5179
:10144000884204DD0120D14981F8220003E0002018
:10145000CE4981F82200D648807980B1D4484079BD
:1014600068B1D348C07850B1D148807838B1D048FD
:10147000407820B1CE48007808B1012000E000207B
:10148000C24981F84100084690F8410078B9C8483F
:101490008078C9498978884209D0C448007830B931
:1014A000C648007818B10120C54981F82C000024F5
:1014B00005E0BF48005DC0490855601CC4B2072C58
:1014C000F7DD322002F0C1F877E72DED028B35E031
:1014D000BC48007880B9BC4801880088401CBA4AE2
:1014E0001080282902DD0120B64908709FEDA90A65
:1014F000B64880ED000A1EE0042009F066FA10EEFE
:10150000104A20462EF03AFA41EC180B1FED810BE1
:1015100053EC102B2EF03AF802D2AC48046004E0F1
:101520001FED7C0AA94880ED000AA84890ED000A4A
:1015300027F018FE00BF0A2002F087F8C8E702E093
:10154000322002F082F8FBE702E00A2002F07DF888
:10155000FBE794B001F044BF9D4801780078401C3F
:101560009B4A1070022906DD002011460870994838
:10157000007810F059FD964841784078401C944A14
:101580005070052904DD0020114648700DF053FA13
:101590004FF02051904804F0B2FD002801F0D486AD
:1015A0004FF020518C4804F0C6FD00208B49087094
:1015B0000EF046FF864881788078401C844A9070FF
:1015C000012941F3B8860020114688706F4890F8D1
:1015D000410000287ED082480068824988427AD142
:1015E000814890ED150AB5EEC00AF1EE10FA60D010
:1015F0006F48C079E8B30020089009900A9001462E
:1016000002460B90794890ED060ADFED790A20EE4C
:10161000200ABDEEC00A10EE100A00B20023CDE988
:101620000430CDE90621734890ED050AB1EE400A79
:10163000F2EE040A20EE200ABDEEC00A10EE100AF7
:1016400001B2694890ED010AB1EE400AF2EE040AD7
:1016500020EE200ABDEEC00A10EE100A00B2664A63
:1016600092ED000AB1EE400AF2EE040A20EE200AE2
:1016700000E01EE0BDEEC00A10EE102A12B2CDE965
:101680000023CDE902015D4890ED000AB1EE400A69
:10169000F2EE040A20EE200ABDEEC00A10EE100A97
:1016A00000B21A4601461390184610F0D0FF01F020
:1016B00042BE0020089009900A90014602460B9015
:1016C0004A4890ED060AF2EE040A20EE200ABDEE2A
:1016D000C00A01E028E13AE010EE100A00B200234F
:1016E000CDE90430CDE90621454890ED050AB1EE7B
:1016F000400ABDEEC00A10EE100A01B2414890ED5A
:10170000010AB1EE400ABDEEC00A10EE100A00B2A6
:101710003D4A92ED0D0AB1EE400ABDEEC00A10EE50
:10172000102A12B2CDE90023CDE90201374890ED2D
:10173000000AB1EE400ABDEEC00A10EE100A00B277
:101740001A4601461390184610F081FFAFE718487B
:10175000C079B0B10020089009900A900146024675
:101760000B90224890ED060ADFED210A20EE200AB8
:10177000BDEEC00A10EE100A00B20023CDE904301D
:1017800046E086E09A9999999999B93F906C002022
:101790009B0000200AD7A33C00020020FC0100208F
:1017A0001C0200201B02002017020020C80100209C
:1017B0000F0200208C6B00209E00002054060020A9
:1017C00018030020AC000020AE00002070000020B4
:1017D000B200002076000020B8640240F802002029
:1017E000AC1300202E005100AC8E0020CC950020C0
:1017F0000000C842AC91002050000020349000202E
:10180000BC930020E88D00206C78002064900020BC
:10181000CDE90621FE4890ED050AB1EE400AF2EE50
:10182000040A20EE200ABDEEC00A10EE100A00B233
:10183000F84991ED010AB1EE400AF2EE040A20EEF9
:10184000200ABDEEC00A10EE101A09B2F24A92ED5B
:10185000000AF2EE040A20EE200ABDEEC00A10EEE5
:10186000102A12B2CDE90023CDE90210EB4890ED29
:10187000010AF2EE040A20EE200ABDEEC00A10EEC4
:10188000100A00B21A4601461390184610F0DFFE07
:101890000DE70020089009900A90014602460B903F
:1018A000DF4890ED060AF2EE040A20EE200ABDEEB3
:1018B000C00A10EE100A00B20023CDE90430CDE9D1
:1018C0000621D84890ED050AB1EE400ABDEEC00AE7
:1018D00010EE100A00B2D44991ED010AB1EE400AAF
:1018E000BDEEC00A10EE101A09B2D04A92ED0D0AF0
:1018F000B1EE400ABDEEC00A10EE102A12B2CDE9D8
:101900000023CDE90210CA4890ED000AB1EE400A6A
:10191000BDEEC00A10EE100A00B21A46014613903E
:10192000184610F094FEC2E6C24890F8240018B998
:10193000C1480078002867D0C04800682EF01EF823
:101940009FEDBF0B53EC102BCDE90E019DED0E0B5F
:1019500051EC100B2DF01CFDCDE910019DED100B8D
:1019600051EC100B2DF07EFC00B21390B6480068CD
:101970002EF004F89FEDB20B53EC102BCDE90E01C5
:101980009DED0E0B51EC100B2DF002FDCDE9100179
:101990009DED100B51EC100B2DF064FC00B2129079
:1019A0000020089009900A9003460B90A14A128CDF
:1019B00012B2DDE91201CDE90613CDE904209D48FC
:1019C000808B00B29B49098B09B29A4A928A12B263
:1019D000984B1B8A1BB2CDE90032CDE90210954825
:1019E000808900B211909348008900B2109091480C
:1019F000808800B20F908F48008800B20E900FA927
:101A00000EC910F024FE52E6904800781A2881F0A2
:101A10009084DFE810F01A00CD007B018E0C0902E3
:101A20007D02F102BB03F1035E04CD048E0C83053D
:101A3000F40575068E0CEA065C0700087708EE08C8
:101A40006F091E0AAF0A2F0B0A0C814800682DF09F
:101A500095FF9FED800B53EC102BCDE90C019DED14
:101A60000C0B51EC100B2DF093FCCDE90E019DED0C
:101A70000E0B51EC100B2DF0F5FB00B213906648E5
:101A800000682DF07BFF9FED730B53EC102BCDE91D
:101A90000C019DED0C0B51EC100B2DF079FCCDE9F8
:101AA0000E019DED0E0B51EC100B2DF0DBFB00B287
:101AB00012906A4890ED000AF2EE040A80EE201AB5
:101AC000BDEEC10A10EE100A00B211906448006821
:101AD0000A2190FBF1F000B200211090614890EDD6
:101AE000000ABDEEC00A10EE100A00B2CDE90801EE
:101AF0000A910B915C48DDE9122190ED000AF2EEAB
:101B0000040A20EE200ABDEEC00A10EE100A00B250
:101B10000023CDE90430CDE90621544890ED000AB8
:101B20005FEDCD0A20EE200ABDEEC00A10EE100ACD
:101B300001B24F4A119892ED000A5FEDD30A20EEF0
:101B4000200ABDEEC00A10EE102A12B2CDE9023111
:101B5000CDE90020454890ED000A5FEDDB0A20EE5C
:101B6000200ABDEEC00A10EE100A00B20F904148E4
:101B700090ED000A5FEDE20A20EE200ABDEEC00AF9
:101B800010EE100A00B20E903B4890ED000A5FED97
:101B9000E80A20EE200ABDEEC00A10EE100A00B2DC
:101BA0000D90DDE90E23109910F051FD01F0C2BB3C
:101BB000324800682DF0E2FE9FED260B53EC102B0F
:101BC000CDE90C019DED0C0B51EC100B2DF0E0FB61
:101BD000CDE90E019DED0E0B51EC100B2DF042FBEB
:101BE00000B21390264800682DF0C8FE9FED190B37
:101BF00053EC102BCDE90C019DED0C0B51EC100BAF
:101C00002DF0C6FBCDE90E019DED0E0B3AE0000074
:101C1000AC910020AC8E00204C00002034900020BD
:101C2000CC950020BC930020E88D00206C7800202B
:101C300064900020E86C0020750000204000002027
:101C4000000000000088C340200000207400002035
:101C50005000002000000000000024403408002054
:101C6000300500206006002054000020C40F002032
:101C7000BC0F0020C00F0020B00F00206C0E002011
:101C8000700E002051EC100B2DF0ECFA00B2129007
:101C9000FE4800682DF072FE1FED120B53EC102B66
:101CA000CDE90C019DED0C0B51EC100B2DF070FBF0
:101CB000CDE90E019DED0E0B51EC100B2DF0D2FA7B
:101CC00000B211900020089009900A900B90002318
:101CD000DDE912211198CDE90430CDE90621EC4867
:101CE000B0F8480000B2EA49B1F8541009B2CDE9A1
:101CF0000013CDE90203E648B0F85C0000B21A46D2
:101D000001461090184610F0A2FC4FE7E1484068E9
:101D10000B902DF033FE1FED310B53EC102BCDE962
:101D20000C019DED0C0B51EC100B2DF031FBCDE9AE
:101D30000E019DED0E0B51EC100B2DF093FA00B23D
:101D40001390D448016808460B912DF017FE1FED43
:101D50003F0B53EC102BCDE90C019DED0C0B51EC1E
:101D6000100B2DF015FBCDE90E019DED0E0B51EC86
:101D7000100B2DF077FA00B21290C74890ED000AD0
:101D8000F2EE040A80EE201ABDEEC10A10EE100A2F
:101D900000B21190C14890ED000AF2EE040A80EE04
:101DA000201ABDEEC10A10EE100A00B210900020F9
:101DB000089009900A900B90B64890ED020AF2EE56
:101DC000040A20EE200ABDEEC00A10EE100A01B28D
:101DD0000023DDE91202CDE90430CDE906211A46DF
:101DE000AA4890ED000AF2EE040A20EE200ABDEEA9
:101DF000C00A10EE100A00B2A94991ED000AB1EE36
:101E0000400ADFEDA80A20EE200ABDEEC00A10EE5F
:101E1000101A09B2CDE90013CDE902021846DDE936
:101E2000101210F014FCC1E69F48D0F8E0000D90AD
:101E30002DF0A4FD1FED790B53EC102BCDE90E0115
:101E40009DED0E0B51EC100B2DF0A2FACDE9100117
:101E50009DED100B51EC100B2DF004FA00B2139015
:101E60009248416808460D912DF088FD1FED870BC3
:101E700053EC102BCDE90E019DED0E0B51EC100B28
:101E80002DF086FACDE910019DED100B51EC100BF1
:101E90002DF0E8F900B212900020089009900A9005
:101EA00002460B900023DDE91201CDE90430CDE9B3
:101EB00006127D4890ED270AF2EE040A20EE200A71
:101EC000BDEEC00A10EE100A00B2774991ED410A4A
:101ED000F2EE040A20EE200ABDEEC00A10EE101A3F
:101EE00009B2CDE90013CDE90230714890ED130A33
:101EF000F2EE040A20EE200ABDEEC00A10EE100A2F
:101F000000B21A4601461190184610F0A0FB4DE6AB
:101F10006848D0F8E0000D902DF030FD1FEDB30BB8
:101F200053EC102BCDE90E019DED0E0B51EC100B77
:101F30002DF02EFACDE910019DED100B51EC100B98
:101F40002DF090F900B213905B48416808460D915E
:101F50002DF014FD1FEDC10B53EC102BCDE90E013C
:101F60009DED0E0B51EC100B2DF012FACDE9100186
:101F70009DED100B51EC100B2DF074F900B2129086
:101F80000020089009900A9002460B900023DDE99A
:101F90001201CDE90430CDE90612464890ED270A3A
:101FA000F2EE040A20EE200ABDEEC00A10EE100A7E
:101FB00001B2404890ED410AF2EE040A20EE200AF8
:101FC000BDEEC00A10EE100A00B2CDE900033B4896
:101FD000CDE9023190ED130AF2EE040A20EE200A58
:101FE000BDEEC00A10EE100A00B21A46014611906A
:101FF000184610F02CFBD9E5314800682DF0BEFCE6
:102000001FEDEC0B53EC102BCDE90E019DED0E0BEB
:1020100051EC100B2DF0BCF9CDE910019DED100B2A
:1020200051EC100B2DF01EF900B2139025480068FA
:102030002DF0A4FC1FEDF90B53EC102BCDE90E0194
:102040009DED0E0B51EC100B2DF0A2F9CDE9100116
:102050009DED100B51EC100B2DF004F900B2002196
:102060001290194890ED000ABDEEC00A10EE100A59
:1020700000B2CDE908010A910B91044ADDE9120191
:1020800092ED000AF2EE040A20E00000740E002037
:102090002C6C0020D4BE002034080020B40700209F
:1020A000A40F00200000C842CC95002034900020EE
:1020B000AC8E0020DC97002064900020E88D00208A
:1020C0006C0E0020700E00206006002020EE200A1A
:1020D000BDEEC00A10EE102A12B2FE4B93ED050AB7
:1020E0005FED100A20EE200ABDEEC00A10EE103A95
:1020F0001BB2CDE90432CDE90601F64890ED040AA1
:102100005FED180A20EE200ABDEEC00A10EE100A9C
:1021100001B20023EF4890ED050A5FED1E0A20EEA4
:10212000200ABDEEC00A10EE100A00B2E94A92ED94
:10213000030A5FED240A20EE200ABDEEC00A10EE6D
:10214000102A12B2CDE90231CDE90020E14890ED2C
:10215000040A5FED2C0A20EE200ABDEEC00A10EE44
:10216000100A00B21190DB4890ED020A5FED330ACD
:1021700020EE200ABDEEC00A10EE100A00B2109048
:1021800001461846119A10F062FA0FE500200890F7
:1021900009900A9002460B90CF48808800B2CE4941
:1021A000098809B20023CDE90431CDE90602CB4804
:1021B000808B00B2C949098B09B2C84A928A12B20F
:1021C000C64B1B8A1BB2CDE90032CDE90210C348D1
:1021D000808900B21390C148008900B21290BF48B4
:1021E000808800B21190BD48008800B2109011A9FB
:1021F0000EC910F02CFAD9E4B948D0F864010D905A
:102200002DF0BCFB9FEDB70B53EC102BCDE90E016D
:102210009DED0E0B51EC100B2DF0BAF8CDE910012D
:102220009DED100B51EC100B2DF01CF800B213902B
:10223000AE4800682DF0A2FB9FEDAA0B53EC102BCB
:10224000CDE90E019DED0E0B51EC100B2DF0A0F819
:10225000CDE910019DED100B51EC100B2DF002F8A3
:1022600000B212900020089009900A9002460B904C
:102270000023DDE91201CDE90430CDE906129C48C6
:1022800090ED040ABDEEC00A10EE100A00B29449A7
:1022900091ED620ABDEEC00A10EE101A09B2CDE946
:1022A0000013CDE90230934890ED000ABDEEC00A5C
:1022B00010EE100A00B2024611908F4890ED000A0D
:1022C000BDEEC00A10EE100A01B2184610F0BFF9B8
:1022D0006CE48348D0F864010D902DF04FFB9FED26
:1022E000810B53EC102BCDE90E019DED0E0B51EC43
:1022F000100B2DF04DF8CDE910019DED100B51ECB8
:10230000100B2CF0AFFF00B21390784800682DF04E
:1023100035FB9FED740B53EC102BCDE90E019DEDB9
:102320000E0B51EC100B2DF033F8CDE910019DEDA3
:10233000100B51EC100B2CF095FF00B21290002006
:10234000089009900A9002460B900023DDE91201E3
:10235000CDE90430CDE90612654890ED040ABDEEE2
:10236000C00A10EE100A00B25D4991ED620ABDEE9E
:10237000C00A10EE101A09B2CDE90013CDE90230FF
:102380005E4890ED010ABDEEC00A10EE100A00B2E0
:1023900011905A4890ED000ABDEEC00A10EE100AE6
:1023A00000B2109001461846119A10F050F9ACE4B2
:1023B0004B48D0F864010D902DF0E0FA9FED490BE9
:1023C00053EC102BCDE90E019DED0E0B51EC100BD3
:1023D0002CF0DEFFCDE910019DED100B51EC100B40
:1023E0002CF040FF00B21390404800682DF0C6FA70
:1023F0009FED3C0B53EC102BCDE90E019DED0E0B28
:1024000051EC100B2CF0C4FFCDE910019DED100B29
:1024100051EC100B2CF026FF00B212900020089017
:1024200009900A9003460B90354ADDE9120192EDBE
:10243000020AF2EE040A20EE200ABDEEC00A10EEF7
:10244000102A12B2CDE90613CDE904202D4890EDF3
:10245000000AF2EE040A20EE200ABDEEC00A10EED9
:10246000100A00B20023264991ED000AF2EE040A98
:1024700020EE200ABDEEC00A10EE101A09B2224A60
:1024800092ED000AF2EE040A20EE200ABDEEC00A28
:1024900010EE102A12B2CDE90113009203901848F1
:1024A00090ED010AF2EE040A20EE200ABDEEC00A09
:1024B00010EE100A00B21190144890ED000AF2EEEE
:1024C000040A20EE200ABDEEC00A10EE100A00B287
:1024D00010901DE02C6C002080120020ACC0002069
:1024E000DC9700200000000000002440CC07002002
:1024F000F09E00202C9F002044080020C0080020EF
:1025000004190020740E00206C0E0020700E0020B4
:1025100001461846119A10F09AF884E4FE48D0F863
:1025200064010D902DF02AFA1FED120B53EC102BC5
:10253000CDE90E019DED0E0B51EC100B2CF028FF98
:10254000CDE910019DED100B51EC100B2CF08AFE23
:1025500000B21390F148816808460D912DF00EFAF3
:102560001FED200B53EC102BCDE90E019DED0E0B52
:1025700051EC100B2CF00CFFCDE910019DED100B70
:1025800051EC100B2CF06EFE00B21290002008905F
:1025900009900A9003460B90E14ADDE9120192EDA1
:1025A000010AF2EE040A20EE200ABDEEC00A10EE87
:1025B000102A12B2CDE90613CDE90420D84890EDD7
:1025C000000AF2EE040A20EE200ABDEEC00A10EE68
:1025D000100A01B20022D348008AB23800B2CDE915
:1025E0000020D048CDE902218089A03800B21346EE
:1025F000024600211190084610F029F813E4C6485D
:10260000D0F864010B902DF0B9F91FED4A0B53EC93
:10261000102BCDE90C019DED0C0B51EC100B2CF0A7
:10262000B7FECDE90E019DED0E0B51EC100B2CF019
:1026300019FE00B21390B948816808460B912DF03D
:102640009DF91FED580B53EC102BCDE90C019DEDBE
:102650000C0B51EC100B2CF09BFECDE90E019DED07
:102660000E0B51EC100B2CF0FDFD00B21FED630BB7
:1026700053EC102B1290AC4890ED000B51EC100B6A
:102680002CF086FECDE90E019DED0E0B51EC100BEA
:102690002CF0E8FD00B21FED6D0B53EC102B1190E8
:1026A000A24890ED000B51EC100B2CF071FECDE91F
:1026B0000E019DED0E0B51EC100B2CF0D3FD00B272
:1026C00010900020089009900A9003460B9011A8E2
:1026D00007C8CDE90623CDE904010021944890ED17
:1026E000120ABDEEC00A10EE100A00B2CDE90010C9
:1026F00002910B4603910846109A0FF0A8FF06E4DA
:102700008548D0F864010D902DF038F91FED8B0B42
:1027100053EC102BCDE90E019DED0E0B51EC100B7F
:102720002CF036FECDE910019DED100B51EC100B95
:102730002CF098FD00B213907848816808460D91FE
:102740002DF01CF91FED990B53EC102BCDE90E0168
:102750009DED0E0B51EC100B2CF01AFECDE9100183
:102760009DED100B51EC100B2CF07CFD00B2129083
:102770000020089009900A9003460B906D4ADDE90D
:10278000120192ED000ABDEEC00A10EE102A12B23C
:10279000CDE90613CDE90420674890ED000ABDEEAF
:1027A000C00A10EE100A00B20022644991ED000A3E
:1027B000DFED630A20EE200ABDEEC00A10EE101A0B
:1027C00009B2CDE900211346CDE902205D48008819
:1027D00002B25D4890ED000ABDEEC00A10EE100A8C
:1027E00001B200200FF033FF05E44B48D0F864013C
:1027F0000D902DF0C3F81FEDC50B53EC102BCDE958
:102800000E019DED0E0B51EC100B2CF0C1FDCDE92E
:1028100010019DED100B51EC100B2CF023FD00B2BC
:1028200013903E48816808460D912DF0A7F81FEDE2
:10283000D30B53EC102BCDE90E019DED0E0B51EC9B
:10284000100B2CF0A5FDCDE910019DED100B51EC06
:10285000100B2CF007FD00B2129000200890099098
:102860000A9003460B90354ADDE9120192ED000A09
:10287000DFED330A20EE200ABDEEC00A10EE102A6A
:1028800012B2CDE90613CDE90420304890ED000ADC
:10289000BDEEC00A10EE100A00B200222C4991EDE4
:1028A000000ADFED270A20EE200ABDEEC00A10EE76
:1028B000101A09B2CDE900211346CDE902202148C2
:1028C000008802B2002108460FF0C1FE11E2124852
:1028D000D0F864010D902DF051F89FED1E0B53ECD4
:1028E000102BCDE90E019DED0E0B51EC100B2CF0D1
:1028F0004FFDCDE910019DED100B51EC100B2CF0AC
:10290000B1FC00B213900548816808460D912DF086
:1029100035F89FED100B21E0DC9700200419002012
:10292000C008002090A30020D8060020D006002078
:10293000E88D0020B4070020CC070020B00F002055
:1029400000007A44AC050020A8070020BC07002046
:10295000B40F0020000000000000244053EC102BB6
:10296000CDE90E019DED0E0B51EC100B2CF010FD7E
:10297000CDE910019DED100B51EC100B2CF072FC09
:1029800000B212900020089009900A9003460B9024
:10299000FE4ADDE9120192ED010AF2EE040A20EE90
:1029A000200ABDEEC00A10EE102A12B2CDE90613BD
:1029B000CDE90420F54890ED000AF2EE040A20EE7D
:1029C000200ABDEEC00A10EE100A00B20022F04943
:1029D00091ED010AF2EE040A20EE200ABDEEC00AD3
:1029E00010EE101A09B2CDE90021CDE90220E84825
:1029F00090ED000AF2EE040A20EE200ABDEEC00AB5
:102A000010EE100A00B20023024619461190184633
:102A10000FF01DFE6DE1DF4800682CF0AFFF1FEDE9
:102A2000330B53EC102BCDE90E019DED0E0B51EC49
:102A3000100B2CF0ADFCCDE910019DED100B51EC0D
:102A4000100B2CF00FFC00B21390D34800682CF050
:102A500095FF1FED400B53EC102BCDE90E019DEDC2
:102A60000E0B51EC100B2CF093FCCDE910019DEDF9
:102A7000100B51EC100B2CF0F5FB00B20021129062
:102A8000C64890ED000ABDEEC00A10EE100A00B272
:102A9000CDE908010A910B91C14ADDE9120192EDDD
:102AA000000AF2EE040A20EE200ABDEEC00A10EE83
:102AB000102A12B20023CDE90432CDE90601B9484B
:102AC00090ED010AF2EE040A20EE200ABDEEC00AE3
:102AD00010EE100A00B2CDE900300293B148039322
:102AE00090ED000AF2EE040A20EE200ABDEEC00AC4
:102AF00010EE100A00B202461946119018460FF067
:102B0000A6FDF6E0A34800682CF038FF1FED6F0B20
:102B100053EC102BCDE90E019DED0E0B51EC100B7B
:102B20002CF036FCCDE910019DED100B51EC100B93
:102B30002CF098FB00B21390974800682CF01EFF11
:102B40001FED7C0B53EC102BCDE90E019DED0E0B10
:102B500051EC100B2CF01CFCCDE910019DED100B7D
:102B600051EC100B2CF07EFB00B2002112908B4830
:102B700090ED000ABDEEC00A10EE100A00B2CDE9D9
:102B800008010A910B91864ADDE9120192ED000AD3
:102B9000F2EE040A20EE200ABDEEC00A10EE102A62
:102BA00012B20023CDE90432CDE906017E4890ED52
:102BB000010ADFED7E0A20EE200ABDEEC00A10EE0B
:102BC000100A00B2CDE9003002937948039390EDEA
:102BD000010ADFED760A20EE200ABDEEC00A10EEF3
:102BE000100A00B202461946119018460FF02FFD48
:102BF000A0E3684800682CF0C1FE1FEDAA0B53EC5F
:102C0000102BCDE90E019DED0E0B51EC100B2CF0AD
:102C1000BFFBCDE910019DED100B51EC100B2CF01A
:102C200021FB00B213905C4800682CF0A7FE1FED5A
:102C3000B70B53EC102BCDE90E019DED0E0B51ECB3
:102C4000100B2CF0A5FBCDE910019DED100B51EC04
:102C5000100B2CF007FB00B2002112904F4890EDB2
:102C6000000ABDEEC00A10EE100A00B2CDE908015C
:102C70000A910B914A48DDE9122190ED000AF2EE2B
:102C8000040A20EE200ABDEEC00A10EE100A00B2BF
:102C9000484B93ED000ABDEEC00A10EE103A1BB28D
:102CA000CDE90430CDE90621434890ED040ABDEE9C
:102CB000C00A10EE100A01B20023404890ED530AFA
:102CC000BDEEC00A10EE100A00B23D4AB2F904206F
:102CD000CDE90231CDE900203948B0F9000011906A
:102CE0003748B0F90200109001461846119A0FF0CB
:102CF000AEFC1FE3274800682CF040FE1FEDEB0BF5
:102D000053EC102BCDE90E019DED0E0B51EC100B89
:102D10002CF03EFBCDE910019DED100B51EC100B9A
:102D20002CF0A0FA00B213901B4800682CF026FE8D
:102D30001FEDF80B53EC102BCDE90E019DED0E0BA2
:102D400051EC100B2CF024FBCDE910019DED100B84
:102D500051EC100B2CF086FA00B2002112900F48B3
:102D600090ED000ABDEEC00A10EE100A00B2CDE9E7
:102D700008010A910B910A4ADDE9120192ED000A5D
:102D8000F2EE040A20EE200A1CE00000349000203D
:102D9000D80800206C0E0020700E00206006002075
:102DA000740E002004190020F00800200000C84222
:102DB000E808002044080020F09E0020DC97002056
:102DC000746B0020BDEEC00A10EE102A12B2002370
:102DD000CDE90432CDE906011A46FE4890ED030A1A
:102DE000DFEDFD0A20EE200ABDEEC00A10EE100A4B
:102DF00000B2F84991ED020ADFEDF70A20EE200A51
:102E0000BDEEC00A10EE101A09B2CDE90232CDE9CA
:102E10000010F04890ED010ADFEDEF0A20EE200AE5
:102E2000BDEEC00A10EE100A00B21190E94890ED14
:102E3000000ADFEDE90A20EE200ABDEEC00A10EE1E
:102E4000100A00B2109001461846119A0FF0FFFBCD
:102E500070E2E24800682CF091FD9FEDE10B53EC2D
:102E6000102BCDE90E019DED0E0B51EC100B2CF04B
:102E70008FFACDE910019DED100B51EC100B2CF0E9
:102E8000F1F900B21390D84800682CF077FD9FED5F
:102E9000D40B53EC102BCDE90E019DED0E0B51EC34
:102EA000100B2CF075FACDE910019DED100B51ECD3
:102EB000100B2CF0D7F900B200211290CB4890ED06
:102EC000000ABDEEC00A10EE100A00B2CDE90801FA
:102ED0000A910B91C64ADDE9120192ED000AF2EE69
:102EE000040A20EE200ABDEEC00A10EE102A12B22B
:102EF0000023CDE90432CDE906011A46B54890ED2C
:102F0000030ADFEDBC0A20EE200ABDEEC00A10EE77
:102F1000100A00B2B84991ED010AF7EE000A20EE5E
:102F2000200ABDEEC00A10EE101A09B2CDE9023235
:102F3000CDE90010A74890ED010ADFEDAE0A20EEC2
:102F4000200ABDEEC00A10EE100A00B21190AA4885
:102F500090ED000AF7EE000A20EE200ABDEEC00A4E
:102F600010EE100A00B2109001461846119A0FF0A8
:102F70006EFBDFE1994800682CF000FD9FED980B97
:102F800053EC102BCDE90C019DED0C0B51EC100B0B
:102F90002CF0FEF9CDE90E019DED0E0B51EC100B5E
:102FA0002CF060F900B213908F4800682CF0E6FC1A
:102FB0009FED8B0B53EC102BCDE90C019DED0C0B11
:102FC00051EC100B2CF0E4F9CDE90E019DED0E0B48
:102FD00051EC100B2CF046F900B21290874890ED9E
:102FE000000AF2EE040A80EE201ABDEEC10A10EECD
:102FF000100A00B21190824890ED000AF2EE040A25
:1030000080EE201ABDEEC10A10EE100A00B20021B7
:103010001090764890ED000ABDEEC00A10EE100A3E
:1030200000B2CDE908010A910B917148DDE9122146
:1030300090ED000AF2EE040A20EE200ABDEEC00A6E
:1030400010EE100A00B20023CDE90430CDE90621CC
:10305000DDE910018DE80B006A48039390ED000A4A
:10306000BDEEC00A10EE100A02B2002108460FF0B1
:10307000EEFA5FE1594800682CF080FC9FED580B98
:1030800053EC102BCDE90C019DED0C0B51EC100B0A
:103090002CF07EF9CDE90E019DED0E0B51EC100BDD
:1030A0002CF0E0F800B213904F4800682CF066FC5A
:1030B0009FED4B0B53EC102BCDE90C019DED0C0B50
:1030C00051EC100B2CF064F9CDE90E019DED0E0BC7
:1030D00051EC100B2CF0C6F800B212904A4890ED5B
:1030E000000B8DED0C0B9FED3E0B53EC102B9DED6B
:1030F0000C0B51EC100B2CF04BF9CDE90E019DEDB2
:103100000E0B51EC100B2CF0ADF800B20021119019
:10311000364890ED000ABDEEC00A10EE100A00B26B
:10312000CDE908010A910B913848DDE9121290EDC2
:10313000000AF2EE040A20EE200ABDEEC00A10EEEC
:10314000100A00B20023CDE90430CDE90612304860
:1031500090ED000AF2EE040A20EE200ABDEEC00A4D
:1031600010EE100A00B211990093CDE901310390DD
:10317000284890ED030AF2EE040A20EE200ABDEE84
:10318000C00A10EE100A00B21090224890ED010A19
:10319000F2EE040A20EE200ABDEEC00A10EE100A7C
:1031A00000B20F901B4890ED000AF2EE040A20EEE8
:1031B000200ABDEEC00A10EE100A00B20E901548AB
:1031C00090ED040AF2EE040A20EE200ABDEEC00AD9
:1031D00022E00000106D002000007A446C0E0020F8
:1031E0000000000000002440700E00206006002057
:1031F000740E002000000000A0C00020CC070020BA
:10320000B4070020D407002000BF00205400002095
:10321000100F0020D4BE002010EE100A00B20D9056
:103220000EA90EC90FF013FA84E0A94800682CF02B
:10323000A5FB1FED150B53EC102BCDE90E019DEDF9
:103240000E0B51EC100B2CF0A3F8CDE910019DED05
:10325000100B51EC100B2CF005F800B213909D48A8
:1032600000682CF08BFB1FED220B53EC102BCDE9EB
:103270000E019DED0E0B51EC100B2CF089F8CDE9F1
:1032800010019DED100B51EC100B2BF0EBFF00B279
:1032900000211290904890ED000ABDEEC00A10EE99
:1032A000100A00B2CDE908010A910B918B4ADDE9C1
:1032B000120192ED000AF2EE040A20EE200ABDEEA1
:1032C000C00A10EE102A12B20023CDE90432CDE973
:1032D0000601834890ED010ADFED820A20EE200A04
:1032E000BDEEC00A10EE100A00B21A467E4991EDFA
:1032F000000A5FED470A20EE200ABDEEC00A10EE7C
:10330000101A09B2CDE90031CDE90220774890EDDD
:10331000000A5FED4F0A20EE200ABDEEC00A10EE53
:10332000100A00B202461946119018460FF08FF9A4
:1033300000E000BF00BF012280216D4801F03CF990
:1033400062216C4807F0DCF86B48C178C078401CFB
:10335000694AD070012940DD00201146C8706749D4
:10336000674802F0CCFEC0B36449654802F0E3FE52
:1033700064480078052826D2DFE800F0030A111817
:103380001E0001205F49087000200FF0DCFF1AE0EA
:1033900002205C49087003200FF0D5FF13E00320E2
:1033A0005849087001200FF0CEFF0CE00420554969
:1033B00008700FF0C8FF06E0002052490870052091
:1033C0000FF0C1FF00BF00BF012280214E4801F075
:1033D000F3F842214A4807F093F8052000F035F948
:1033E000FEF7BAB82DED028B58E007F01AFA11F08B
:1033F00015FE08F045F84548007850B94448007873
:1034000038B1012043498870C870002048700870A6
:1034100003E007F087FB07F09FFC3F490868096855
:10342000491C3D4B19602BF063FF41EC180B9FEDDD
:103430003B0B53EC102B2CF0A9F802D20020394999
:1034400008703949887D897D491C374B99752BF067
:103450004FFF41EC180B9FED310B53EC102B2CF070
:1034600095F802D2002030494875304890ED000AA6
:10347000B5EEC00AF1EE10FA03D02D4890F8220004
:1034800020B101202A4981F82D0003E000202849BD
:1034900081F82D004FF4FA7000F0D7F8A5E7254A1F
:1034A0001278052A04D10022234B1A80214B1A706E
:1034B000214A1288214B1B781A441F4B1A801D4A3F
:1034C0001278521C1B4B1A707047704770470000EF
:1034D0006C0E0020700E002060060020740E00208C
:1034E00078BF00200000C8423002002034020020D3
:1034F00000100140B8640240B2000020200000200B
:1035000070600240B6000020004C0040C80100205E
:103510005406002070010020D002002000000000AE
:1035200000002040D402002090A30020849F0020AF
:10353000906C0020B700002084000020F0000020E4
:103540000948804709480047FEE7FEE7FEE7FEE737
:10355000FEE7FEE7FEE7FEE7FEE7FEE70448054973
:10356000054A064B704700007D37000889010008B6
:1035700030C1002030C7002030C3002030C30020FD
:10358000704700BFFEE700BFFEE700BFFEE700BFD9
:10359000FEE770477047000010B502F08CFF03F0A3
:1035A000D0F802F0A3FF10BD70B504466FF0040020
:1035B00000F0D0F9E11704EB5171C1F3C701344AAF
:1035C0001170E11704EB5171CD1041F28830454381
:1035D0000520304908804FF0E020006940F00200EB
:1035E0004FF0E021086108464561006940F00100A4
:1035F000086170BD2DE9F047074600264FF0E02036
:10360000D0F814902248007807FB00F800BF02F0C1
:10361000A5FF4FF0E020856911E04FF0E0208469BC
:10362000AC420CD0AC4202D2281B064403E0A9EB0A
:103630000400284406442546464500D300E0ECE754
:1036400000BF02F0D0FFBDE8F08770B50446124815
:103650000078012814D11148007888B90D480088F5
:10366000844206DB0B48008894FBF0F5284605F001
:10367000B3F80848008894FBF0F100FB114084B2D5
:103680004FF47A7104FB01F0FFF7B4FF70BD000046
:10369000BA000020BC0000200A010020FE0000202B
:1036A0000CB50020019000907648006840F480300E
:1036B0007449086000BF7348006800F4003000904F
:1036C0000198401C0190009818B90198B0F5A04FDE
:1036D000F1D16C48006800F4003010B10120009076
:1036E00001E0002000900098012846D16548403054
:1036F000006840F0805063494031086062480068CB
:1037000040F44040604908605E48083000685D4908
:10371000083108600846006840F400400860084628
:10372000006840F4A05008605848091F0860081F4E
:10373000006840F08070091F086000BF51480068B1
:1037400000F000700028F9D040F205705049086080
:103750004C480830006820F003004A4908310860EE
:103760000846006840F00200086000BF4548083085
:10377000006800F00C000828F8D10CBD10B54548D1
:10378000006840F47000434908603E48006840F01B
:1037900001003C49086000203A4908310860394876
:1037A00000683D490840374908603C48091D0860E9
:1037B000081F006820F48020091F0860002031499C
:1037C0000C310860FFF76CFF4FF000603149803921
:1037D000086010BD70B500200022022300240221E1
:1037E000284D08352D6805F00C0020B1042806D0BE
:1037F000082834D107E02A4D2A4E356033E02A4D9F
:10380000284E35602FE01F4D2D1D2D68C5F38054C7
:103810001C4D2D1D2D6805F03F0154B1224DB5FB07
:10382000F1F5184E361D3668C6F3881605FB06F20C
:1038300009E01B4DB5FBF1F5124E361D3668C6F397
:10384000881605FB06F20F4D2D1D2D68C5F30145A9
:103850006D1C6B00B2FBF3F5124E356003E0104DAA
:10386000104E356000BF00BF064D08352D68C5F30A
:1038700003150E4E705D0B4D2D68C540094E356029
:1038800070BD00000038024000700040085440073E
:10389000003C024088ED00E0FFFFF6FE10300024FF
:1038A0000024F400C000002000127A00C4000020B0
:1038B00032490143324A1160704770B5002100233C
:1038C0000F22C4781CB32E4C246804F4E064C4F5C1
:1038D000E064C4F30721C1F10404E3B20A4144786F
:1038E0009C40E1B28478144021430C07210E254C02
:1038F00005786155047804F01F050124AC40057873
:103900006D11AD0005F1E025C5F8004109E004782E
:1039100004F01F050124AC401B4D0678761145F8D4
:10392000264070BD194A0A400243154B1B1F1A60FE
:10393000704739B1124A121D12680243104B1B1D09
:103940001A6006E00E4A121D126882430C4B1B1DC2
:103950001A607047042808D14FF0E021096941F04E
:1039600004014FF0E022116107E04FF0E021096906
:1039700021F004014FF0E022116170470000FA05C8
:103980000CED00E000E400E080E100E080FFFF1FBC
:1039900010B504469848844208D10121084600F039
:1039A00086FB0021012000F082FB76E093488442F0
:1039B00008D10121022000F07AFB0021022000F052
:1039C00076FB6AE08E48844208D10121042000F091
:1039D0006EFB0021042000F06AFB5EE0894884420F
:1039E00008D10121082000F062FB0021082000F02E
:1039F0005EFB52E08448844208D10121102000F08F
:103A000056FB0021102000F052FB46E07F48844224
:103A100008D10121202000F04AFB0021202000F0E5
:103A200046FB3AE07A48844208D10121402000F068
:103A30003EFB0021402000F03AFB2EE07548844216
:103A400008D10121802000F032FB0021802000F00D
:103A50002EFB22E07048844208D10121801500F03D
:103A600026FB0021A01500F022FB16E06B488442E3
:103A700008D10121401500F01AFB0021601500F06B
:103A800016FB0AE06648844207D10121001500F0C8
:103A90000EFB0021201500F00AFB10BDF0B50A4610
:103AA00000210023002400BF3DE0012505FA01F3B9
:103AB000156805EA03049C4234D105684F000326CB
:103AC000BE40B543056015794E00B54006683543E4
:103AD00005601579012D02D01579022D16D1856862
:103AE0004F000326BE40B543856055794E00B54072
:103AF000866835438560456801268E40B54345603C
:103B0000456896798E40B6B235434560C5684F002A
:103B10000326BE40B543C560D5794E00B540C668A2
:103B20003543C560491C1029BFD3F0BD4FF6FF7166
:103B300001600021017141718171C171704708B547
:103B40004FF480320092009A0A430092009AC261B8
:103B5000C161009AC261C2690092C269009208BD47
:103B60000246002013690B400BB1012000E0002049
:103B700070470146086980B27047024600205369C9
:103B80000B400BB1012000E000207047014648695E
:103B900080B2704701837047418370470AB1018347
:103BA00000E0418370474161704742694A40426189
:103BB0007047F0B5002300244D07ED0E02FA05F31F
:103BC000CE1000F1200555F826504E07F70E0F26AF
:103BD000BE40B543CF1000F1200646F82750CE1066
:103BE00000F1200555F8265045EA0304CE1000F1F7
:103BF000200545F82640F0BD0000024000040240C8
:103C000000080240000C0240001002400014024074
:103C100000180240001C0240002002400024024024
:103C200000280240F948006840F00100F7490860A8
:103C30000020F64908310860F4480068F44908405B
:103C4000F2490860F348091D0860F348EF498431E0
:103C50000860F0481038091D0860EC48006820F43E
:103C60008020EA4908600020E8490C310860E749F3
:103C70008C31086070470021E44A921C1170114693
:103C80000870704710B501460022002300204A1139
:103C9000012A02D1DD4C236808E0022A03D1DB4C63
:103CA0007034236802E0D94C7434236801F01F0299
:103CB000012494401C400CB1012000E0002010BD04
:103CC00038B5002000900024002500BF3120FFF708
:103CD000D9FF05460098401C00900098B0F5A04F11
:103CE00001D0002DF2D03120FFF7CCFF08B1012424
:103CF00000E00024204638BD01460020C34A106879
:103D000020F0F80040EAC10010607047C349086025
:103D100070470021BD4A703211701170012802D025
:103D200004280AD104E00121B84A7032117005E07C
:103D30000521B64A7032117000E000BF00BF704725
:103D4000B7490860704770B5049C41EA82150126A6
:103D5000C6EB530645EA0645054345EA0465AB4E06
:103D6000361D356070BDAD4908667047820142EA74
:103D70000172A64B84331A607047A8498866704761
:103D800010B5830143EA016343EA02739F4C883410
:103D9000236010BDA14908677047A049C8647047F7
:103DA00002460020994B0833186820F0EC6042EA84
:103DB00001031843954B08331860704702460020F2
:103DC000924B0833186820F0784042EA0103184308
:103DD0008E4B083318607047014600208B4A08322A
:103DE000106820F0030008431060704787480830CF
:103DF000006800F00C00704701460020834A08323A
:103E0000106820F0F0000843106070470146002061
:103E10007E4A0832106820F4E05008431060704772
:103E200001460020794A0832106820F4604040EAD8
:103E3000C10010607047F0B5002100220024022567
:103E400000260223714F08373F6807F00C0121B1AB
:103E5000042905D0082937D105E0724F076036E004
:103E6000714F076033E0694F3F1D3F68C7F38056CD
:103E7000664F3F1D3F6807F03F036EB16A4FB7FBC7
:103E8000F3F7DFF888C10CF1040CDCF800C0CCF3C8
:103E9000881C07FB0CF40CE0624FB7FBF3F7DFF86C
:103EA0006CC10CF1040CDCF800C0CCF3881C07FBDF
:103EB0000CF4564F3F1D3F68C7F301477F1C7D0040
:103EC000B4FBF5F7076002E0564F076000BF00BF84
:103ED0004E4F08373F6807F0F0010909534F7A5CED
:103EE0000768D7404760494F08373F6807F4E051FB
:103EF000890A4E4F7A5C4768D7408760434F08373E
:103F00003F6807F46041490B484F7A5C4768D740E7
:103F1000C760F0BD002100F44072B2F5407F0AD1C5
:103F20003A4A0832116821F4F811414A024011431B
:103F3000364A08321160354A70321268C0F30B03FA
:103F40001A43324B70331A60704735494439086060
:103F500070473349403908607047364908607047F8
:103F600001460020294A8C32106820F01F004A1EAA
:103F70001043264A8C321060704701460020234AC5
:103F80008C32106820F4F8504A1E40EA02201F4A82
:103F90008C3210607047014600201C4A8C32106839
:103FA00020F4401008431060704701460020174A73
:103FB0008C32106820F440000843106070470146BE
:103FC0000020124A8C32106820F440300843106000
:103FD000704719490860704739B10C4A303212688D
:103FE00002430A4B30331A6006E0084A3032126846
:103FF0008243064B30331A607047F9B1034A3432BA
:1040000012680243014B34331A601CE0003802404E
:10401000FFFFF6EA10300024003000200000474285
:10402000800E47420024F40000127A00D4000020E1
:10403000FFFCFF0F5C014742E01147428F4A1268C4
:1040400082438E4B1A60704739B18C4A121D126838
:1040500002438A4B1B1D1A6006E0884A121D126833
:104060008243864B1B1D1A60704739B1834A0C325C
:1040700012680243814B0C331A6006E07F4A0C320F
:10408000126882437D4B0C331A60704739B17B4A0A
:10409000103212680243794B10331A6006E0774AF7
:1040A000103212688243754B10331A60704739B171
:1040B000724A243A12680243704B243B1A6006E0AD
:1040C0006E4A243A126882436C4B243B1A60704754
:1040D00039B16A4A203A12680243684B203B1A60A1
:1040E00006E0664A203A12688243644B203B1A601D
:1040F000704739B1614A1C3A126802435F4B1C3B5E
:104100001A6006E05D4A1C3A126882435B4B1C3B16
:104110001A60704739B1594A143A12680243574B32
:10412000143B1A6006E0554A143A12688243534B16
:10413000143B1A60704739B1504A103A1268024372
:104140004E4B103B1A6006E04C4A103A126882430C
:104150004A4B103B1A60704739B1484A1C3212680A
:104160000243464B1C331A6006E0444A1C32126874
:104170008243424B1C331A60704739B13F4A2032A8
:10418000126802433D4B20331A6006E03B4A20325E
:1041900012688243394B20331A60704739B1374A6D
:1041A000243212680243354B24331A6006E0334A46
:1041B000243212688243314B24331A60704739B17C
:1041C0002E4A2C32126802432C4B2C331A6006E024
:1041D0002A4A2C3212688243284B2C331A607047CB
:1041E00039B1264A303212680243244B30331A6008
:1041F00006E0224A303212688243204B30331A6084
:104200007047012808D11D493C31096841F0080177
:104210001A4A3C32116007E018493C31096821F024
:104220000801164A3C321160704739B1134A273AE7
:1042300012780243114B273B1A7006E00F4A273AC7
:10424000127882430D4B273B1A7070470B48403061
:10425000006840F0807009494031086070470146AD
:104260000020064A283A12680A400AB1012000E0FC
:1042700000207047014926390870704734380240E1
:1042800010B50446FA48844208D101211020FFF7F6
:1042900052FF00211020FFF74EFF57E0F5488442FF
:1042A00009D101214804FFF735FF00214FF4003008
:1042B000FFF730FF4AE0F048844209D10121880429
:1042C000FFF728FF00214FF48020FFF723FF3DE098
:1042D000EA48844209D10121C804FFF71BFF0021ED
:1042E0004FF40020FFF716FF30E0E548844209D183
:1042F00001210805FFF70EFF00214FF48010FFF7A2
:1043000009FF23E0DF48844208D101212020FFF784
:1043100012FF00212020FFF70EFF17E0DA48844249
:1043200009D101218807FFF7F5FE00214FF08040F9
:10433000FFF7F0FE0AE0D548844207D1012140058D
:10434000FFF7E8FE00216005FFF7E4FE10BD2DE950
:10435000FF4705460E460024A14600BFA046B0898F
:1043600000B100BF2C8A24F44054F08804432C820E
:10437000AC8941F20C608443B0883189084371896B
:1043800008430443AC81AC8A24F44074B0890443EC
:10439000AC826846FFF74FFDB548854202D0B94868
:1043A000854202D1DDF80C9001E0DDF80890A88983
:1043B00000F4004040B109EBC90000EB091031687E
:1043C0004900B0FBF1F707E009EBC90000EB091069
:1043D00031688900B0FBF1F76420B7FBF0F004010D
:1043E0002009642101FB1078A88900F4004040B145
:1043F000322000EBC800B0FBF1F000F007000443EE
:1044000008E0322000EB08106421B0FBF1F000F06E
:104410000F0004432C81BDE8FF874FF41651016063
:1044200000218180C18001810C2141810021818195
:10443000704710B502460020108A20F470600B8887
:104440004C8823438C882343CC8823431843108211
:1044500010BD0021018041808180C180704721B161
:10446000828942F40052828104E082894DF6FF7312
:104470001A4082817047028B02F47F420283028BD2
:104480000A430283704721B1828942F4004282814B
:1044900003E08289C2F30E028281704721B1828AD1
:1044A00042F40062828204E0828A4FF2FF731A4073
:1044B00082827047C1F30802828070470146888873
:1044C000C0F308007047028A4FF6F0731A40028268
:1044D000028A0A430282704721B1828942F00202B5
:1044E000828104E082894FF6FD731A408281704711
:1044F00082894FF2FF731A40828182890A43828146
:104500007047028A4FF6DF731A400282028A0A431A
:104510000282704721B1028A42F48042028204E0A2
:10452000028A4BF6FF731A4002827047818941F07C
:1045300001018181704721B1828A42F008028282A2
:1045400004E0828A4FF6F7731A4082827047028B2A
:10455000D2B20283028B42EA01220283704721B168
:10456000828A42F02002828204E0828A4FF6DF7360
:104570001A408282704721B1828A42F01002828200
:1045800004E0828A4FF6EF731A4082827047828A73
:104590004FF6FB731A408282828A0A4382827047F6
:1045A00021B1828A42F00202828204E0828A4FF6BE
:1045B000FD731A40828270471AB1838A0B4383824B
:1045C00002E0838A8B4383827047F0B50346002460
:1045D00000260025002040F66A17B94200D100BF2E
:1045E0001846C1F3421401F01F06012707FA06F529
:1045F000012C01D10C3004E0022C01D1103000E07C
:1046000014301AB107682F43076002E00768AF4310
:104610000760F0BD02460020B1F5007F00D100BF69
:1046200013880B400BB1012000E00020704701F41B
:104630000072B2F5007F00D100BFCA43028070470C
:1046400070B50246002400230025002040F66A16BB
:10465000B14200D100BFC1F3421501F01F03012692
:1046600006FA03F3012D13D19689334017E00000B9
:10467000001001400044004000480040004C004051
:10468000005000400014014000780040007C0040D1
:10469000022D02D1168A334001E0968A33400C1273
:1046A000012606FA04F41688344013B10CB1012037
:1046B00000E0002070BD10B50022002340F66A140F
:1046C000A14200D100BF0A1201249440A3B2DC43EE
:1046D000048010BD10B50446FE48844208D1012173
:1046E0000846FFF728FD00210120FFF724FD9DE08B
:1046F000B4F1804F08D101210846FFF70BFD0021DE
:104700000120FFF707FD91E0F348844208D1012121
:104710000220FFF7FFFC00210220FFF7FBFC85E0F1
:10472000EE48844208D101210420FFF7F3FC002168
:104730000420FFF7EFFC79E0E948844208D1012129
:104740000820FFF7E7FC00210820FFF7E3FC6DE0FD
:10475000E448844208D101211020FFF7DBFC00214E
:104760001020FFF7D7FC61E0DF48844208D1012127
:104770002020FFF7CFFC00212020FFF7CBFC55E0E5
:10478000DA48844208D101210220FFF7D4FC00213D
:104790000220FFF7D0FC49E0D548844209D101212D
:1047A0000804FFF7C8FC00214FF48030FFF7C3FC7A
:1047B0003CE0D048844209D101214804FFF7BBFC0A
:1047C00000214FF40030FFF7B6FC2FE0CA488442C6
:1047D00009D101218804FFF7AEFC00214FF48020AD
:1047E000FFF7A9FC22E0C548844208D101214020FE
:1047F000FFF790FC00214020FFF78CFC16E0C0483A
:10480000844208D101218020FFF784FC0021802010
:10481000FFF780FC0AE0BB48844207D101218015E4
:10482000FFF778FC0021A015FFF774FC10BD0022F3
:104830000288A84B98420ED0AC4B98420BD0B0F1F6
:10484000804F08D0A44B984205D0A44B984202D088
:10485000A34B984204D14FF68F731A404B881A43EA
:10486000A04B984207D0A04B984204D04FF6FF438C
:104870001A400B891A4302804B68C3620B88038578
:10488000944B984202D0994B984201D18B7A03867F
:104890000123838270474FF0FF3141600021018086
:1048A00001814180817270470185828270470A468A
:1048B000002101884FF68F73194011430180704722
:1048C00041627047C16270470146486A70470146BD
:1048D000088D704721B1028842F00202028004E094
:1048E00002884FF6FD731A400280704721B102889A
:1048F00042F00402028004E002884FF6FB731A4083
:104900000280704721B1028842F08002028004E0F8
:1049100002884FF67F731A400280704702884FF674
:10492000F7731A40028002880A43028070470288A7
:104930004FF6FF431A40028002880A430280704704
:1049400021B1028842F00102028004E002884FF6A1
:10495000FE731A400280704770B5002400220023C5
:10496000058C4FF6FE7635400584028C8388048BD7
:104970004FF68F752C40B51E2C400D882C43751EAC
:104980002A408D892A434D882A43524DA84202D09D
:10499000564DA84213D14FF6F7752A40CD892A43C8
:1049A0004FF6FB752A408D882A434FF6FF652B4052
:1049B0004FF6FF552B400D8A2B434D8A2B438380A6
:1049C00004838D684563028470BD70B500240022A5
:1049D0000023058C4FF6EF7635400584028C8388E2
:1049E000048B48F6FF752C404FF6FF452C400D8890
:1049F0004FF6FF7606EA05252C434FF6DF752A4071
:104A00008D8906EA05152A434D8806EA05152A43CD
:104A1000304DA84202D0354DA8421DD14FF67F75CA
:104A20002A40CD894FF6FF7606EA05152A434FF650
:104A3000BF752A408D8806EA05152A434FF6FF35D3
:104A40002B404FF2FF752B400D8A06EA85052B435C
:104A50004D8A06EA85052B43838004838D68856330
:104A6000028470BD70B5002400220023058C4FF62F
:104A7000FF6635400584028C8388848B4FF68F75E2
:104A80002C404FF6FC752C400D882C434FF6FF55FB
:104A90002A408D894FF6FF7606EA05252A434D8880
:104AA00006EA05252A430B4DA84202D00F4DA84225
:104AB00038D14FF2FF752A40CD894FF6FF7606EACE
:104AC00005252A434FF6FF352A408D8806EA05253D
:104AD0002A4319E0000001400004004000080040A3
:104AE000000C004000100040001400400004014091
:104AF00000400140004401400048014000180040CF
:104B0000001C0040002000404EF6FF752B404DF683
:104B1000FF752B400D8A06EA05152B434D8A06EAE0
:104B200005152B43838084838D68C563028470BD23
:104B300070B5002200230024058C4EF6FF76354028
:104B40000584038C8488828B48F6FF752A404FF6D3
:104B5000FF452A400D884FF6FF7606EA05252A43D1
:104B60004DF6FF752B408D8906EA05352B434D88A0
:104B700006EA05352B43FE4DA84202D0FD4DA84262
:104B800008D14BF6FF752C400D8A4FF6FF7606EAEA
:104B900085152C43848082838D680564038470BDF1
:104BA000002101804180818081608181C1810182F9
:104BB0004182704770B50346002000241846183023
:104BC00001258D40ACB21D8CA5431D8409B1082977
:104BD0000AD100EB610005684FF68F76354005601D
:104BE0000568154305600FE00D1FC5F34E05284409
:104BF000056848F6FF763540056005684FF6FF7694
:104C000006EA02263543056070BD41637047816343
:104C10007047C1637047016470470A460021018BE9
:104C20004FF68F7319401143018370470A460021E4
:104C3000018B48F6FF7319404FF6FF7303EA022316
:104C40001943018370470A460021818B4FF68F7309
:104C500019401143818370470A460021818B48F631
:104C6000FF7319404FF6FF7303EA02231943818350
:104C700070470A460021018B4FF6F7731940114324
:104C8000018370470A460021018B4FF2FF731940E0
:104C90004FF6FF7303EA02231943018370470A4664
:104CA0000021818B4FF6F7731940114381837047C0
:104CB0000A460021818B4FF2FF7319404FF6FF73B4
:104CC00003EA02231943818370470A460021018BBE
:104CD0004FF6FB7319401143018370470A460021C8
:104CE000018B4FF6FF3319404FF6FF7303EA02239F
:104CF0001943018370470A460021818B4FF6FB73ED
:104D000019401143818370470A460021818B4FF679
:104D1000FF3319404FF6FF7303EA022319438183DF
:104D200070470A460021018B4FF67F7319401143EB
:104D3000018370470A460021018BC1F30E014FF633
:104D4000FF7303EA02231943018370470A460021D7
:104D5000818B4FF67F7319401143818370470A4658
:104D60000021818BC1F30E014FF6FF7303EA02238A
:104D70001943818370470A460021018C4FF6FD7369
:104D800019401143018470470A460021018C4FF6F7
:104D9000F77319401143018470470A460021018CC2
:104DA0004FF6DF7319404FF6FF7303EA02131943FE
:104DB000018470470A460021018C4FF67F73194029
:104DC0004FF6FF7303EA02131943018470470A4642
:104DD0000021018C4FF6FF5319404FF6FF7303EA91
:104DE00002231943018470470A460021018C4FF2C7
:104DF000FF7319404FF6FF7303EA0223194301843E
:104E000070470A460021018C4DF6FF7319404FF69A
:104E1000FF7303EA023319430184704730B500235E
:104E200001248C40A3B2048C9C430484048C02FAB9
:104E300001F5ADB22C43048430BD30B50023042409
:104E40008C40A3B2048C9C430484048C02FA01F5C8
:104E5000ADB22C43048430BD828B4FF2FF331A4035
:104E60008283828B4FF6FF7303EA01231A43828306
:104E70007047F0B50C461546002100220026078C2D
:104E80004EF6FF7C07EA0C070784818B028C4FF6F5
:104E9000FF7707EA043640F6FF4739404FF6FF77C1
:104EA00007EA052739434FF6FF7707EA0337394307
:104EB00045F6FF773A4046F480573A4381830284AF
:104EC000F0BD828B4FF6F3731A408283828B0A43C4
:104ED00082837047F0B50C4615460021002200265B
:104EE000078C4FF6FF6C07EA0C070784818B028C56
:104EF0004FF6FF7707EA04264FF60C7739404FF656
:104F0000FF7707EA03172F4339434FF2FF573A4021
:104F100046F480773A4381830284F0BD028B4FF2DE
:104F2000FF331A400283028B4FF6FF7303EA01231B
:104F30001A4302837047F0B50C4615460021002243
:104F40000026078C4FF6EF7C07EA0C070784018BDD
:104F5000028C4FF6FF7707EA041640F6FF47394008
:104F60004FF6FF7707EA033739434FF6FF7703E041
:104F7000000001400004014007EA052739434FF6CD
:104F80005F773A4046F010073A4301830284F0BD50
:104F9000028B4FF6F3731A400283028B0A4302839B
:104FA0007047F0B50C46154600210022068C4FF6DE
:104FB000FE773E400684018B028C4FF60C76314022
:104FC0007E1C06EA03162E4331434FF6F576324037
:104FD00044F00106324301830284F0BD70B50546FA
:104FE0000C46208850B92389A28861882846FFF79B
:104FF000D8FFE1882846FFF7CBFF25E0208804286A
:105000000AD12389A28861882846FFF794FFE188A6
:105010002846FFF783FF17E0208808280AD1238954
:10502000A28861882846FFF755FFE1882846FFF7E8
:1050300048FF09E02389A28861882846FFF719FF05
:10504000E1882846FFF708FF70BD002101804180FC
:10505000012181800021C180018170472DE9F0414B
:1050600005460C4600260127608808B9022600E0A4
:105070000026A088012801D1022700E0012720880E
:10508000A0B92389A28861882846FFF78AFFE188B2
:105090002846FFF77DFF23893A4631462846FFF729
:1050A0004AFFE1882846FFF739FF13E02389A288E9
:1050B00061882846FFF73FFFE1882846FFF72EFF6B
:1050C00023893A4631462846FFF76BFFE188284698
:1050D000FFF75EFFBDE8F0810146486B704701466F
:1050E000886B70470146C86B70470146086C704773
:1050F0000A884B881A438B881A43CB881A430B893A
:105100001A434B891A438B891A43A0F844207047ED
:105110000021018041808180C180018141818181A4
:10512000704731B1B0F8442042F40042A0F8442066
:1051300005E0B0F84420C2F30E02A0F84420704706
:1051400021B1828842F00402828004E082884FF616
:10515000FB731A408280704721B1828842F00102BD
:10516000828004E082884FF6FE731A408280704786
:105170001AB183890B43838102E083898B43838146
:1051800070478182704702460020138A0B400BB1A2
:10519000012000E000207047CA430282704730B50A
:1051A0000246002000230024158A05EA01039589A0
:1051B00005EA010413B10CB1012000E0002030BD6C
:1051C000CA430282704741EA0203A0F848307047A0
:1051D0001AB183890B43838102E083898B438381E6
:1051E000704721B1828842F00802828004E0828800
:1051F0004FF6F7731A408280704701894FF6F872B4
:105200001140018170470A46002101894FF68F73D2
:10521000194011430181704730B504460D462946B7
:105220002046FFF7F0FF208940F00700208130BDC5
:105230002DE9F04104460D4616461F46602D06D165
:105240003B46012231462046FFF775FE05E03B460E
:10525000012231462046FFF7A4FE29462046FFF7EB
:10526000D2FF208940F007002081BDE8F08130B5F1
:105270000C4600210189C9B24FF6FF7505EA0325E6
:10528000154325432943018130BD2DE9F0410546F1
:105290000E4617469846002443463A46314628466D
:1052A000FFF7E5FF2C894FF6F870044044F007043F
:1052B0004FF68F70044044F070042C81BDE8F081FB
:1052C000F0B504460D4616461F463B463246294673
:1052D0002046FFF7CCFF208940F480402081F0BDBC
:1052E00082884FF68F731A40828082880A438280B8
:1052F000704702894FF6F8731A40028102890A4307
:105300000281704702894FF67F731A400281028939
:105310000A4302817047F0B50C4615461E4600212F
:10532000002200230189028B038C4FF6F877394065
:1053300021434FF6FC473A4040F201173A434FF6FB
:10534000DD773B404FF6FF7707EA06172F433B43D5
:10535000018102830384F0BD21B1828842F0800282
:10536000828004E082884FF67F731A408280704703
:10537000A0F8501070470000FE4A1070704730B11E
:10538000FC49096841F48071FA4A116005E0F94965
:10539000096821F48071F74A1160704730B1F5490E
:1053A000096841F40071F34A116005E0F1490968A8
:1053B00021F40071EF4A1160704730B1ED4909687E
:1053C00041F48061EB4A116005E0EA49096821F483
:1053D0008061E84A11607047E648006840F4006068
:1053E000E44908607047E348006840F48050E149B0
:1053F00008607047DF481030006800F0004028B1B6
:10540000DD48DC49091D0860DC4808607047D94860
:105410001030006840F00040D649103108607047F5
:105420000920D4490C31096801F48031B1F5803F7D
:1054300001D1012020E0CF490C31096801F01001B1
:1054400009B1062018E0CB490C31096801F48071DC
:1054500009B1022010E0C7490C31096801F0EF01E1
:1054600009B1072008E0C3490C31096801F00201C5
:1054700009B1082000E00920704708B50920009014
:10548000FFF7CEFF009002E0FFF7CAFF00909DF803
:1054900000000128F8D09DF8000008BD70B5044652
:1054A0000A460026092502B909E0012A01D116029F
:1054B00005E0022A01D1160201E04FF44076FFF721
:1054C000DCFF0546092D2DD1AA481030006820F4D4
:1054D0004070A849103108600846006830430860F1
:1054E0000846006820F0F80008600846006844F0AC
:1054F000020108439F49103108600846006840F4E3
:1055000080300860FFF7B9FF05469A481030006800
:1055100020F002009749103108600846006820F02A
:10552000F8000860284670BD30B502460025092401
:10553000FFF7A3FF044602B909E0012A01D11502D1
:1055400005E0022A01D1150201E04FF44075092C53
:1055500020D188481030006820F44070854910310F
:10556000086008460068284308600846006840F064
:10557000040008600846006840F480300860FFF7C7
:105580007CFF04467B481030006820F00400794915
:1055900010310860204630BD30B502460025092490
:1055A000FFF76BFF044602B909E0012A01D1150299
:1055B00005E0022A01D1150201E04FF44075092CE3
:1055C00020D16C481030006820F4407069491031D7
:1055D000086008460068284308600846006840F0F4
:1055E000040008600846006840F480300860FFF757
:1055F00044FF04465F481030006820F004005D4915
:1056000010310860204630BD30B50246002509241F
:10561000FFF733FF044602B909E0012A01D1150260
:1056200005E0022A01D1150201E04FF44075092C72
:1056300020D150481030006820F440704D4910319E
:10564000086008460068284308600846006840F47F
:10565000004008600846006840F480300860FFF7AA
:105660000CFF044643481030006820F400404149D4
:1056700010310860204630BD70B5064614461D4600
:105680000922FFF7FAFE0246092A1ED139481030D6
:10569000006820F4407037491031086008460068FF
:1056A00040F4407008600846006840F0010008605F
:1056B00034607560FFF7E1FE02462E481030006846
:1056C00020F001002B4910310860104670BD30B544
:1056D00002460C460925FFF7D0FE0546092D1DD1CF
:1056E00024481030006820F44070224910310860CE
:1056F0000846006840F4007008600846006840F002
:10570000010008601460FFF7B8FE05461948103024
:10571000006820F00100174910310860284630BDAC
:1057200030B502460C460925FFF7A7FE0546092DB0
:105730001DD110481030006820F440700D49103120
:1057400008600846006840F48070086008460068F9
:1057500040F0010008601480FFF78FFE0546054801
:105760001030006820F0010002491031086028461E
:1057700030BD0000003C024023016745AB89EFCDFE
:1057800030B502460C460925FFF777FE0546092D80
:1057900017D19B48006820F440709949086008467A
:1057A000006808600846006840F001000860147056
:1057B000FFF763FE05469248006820F0010090491B
:1057C0000860284630BD8E48001D006800F00100CA
:1057D00028B18C488A49083908608B4808607047AE
:1057E0008748001D006840F001008549091D0860D8
:1057F000704730B502460C460925FFF73EFE0546C8
:10580000092D10D13CB17E48801D008890437C4911
:10581000891D088007E07A48801D008891B20843FE
:105820007749891D088030BD30B502460C460925F0
:10583000FFF723FE0546092D10D13CB170480A3010
:10584000008890436E490A31088007E06C480A30AE
:10585000008891B208436A490A31088030BDFF21AF
:10586000674AD21D127802F07F0140EA0102644BC0
:10587000DB1D1A70704730B502460C460925FFF74C
:10588000FCFD0546092D10D144B15D48801D0088FE
:1058900091B208435A49891D088006E05848801D86
:1058A000008890435649891D088030BD30B50246B6
:1058B0000C460925FFF7E1FD0546092D10D144B13D
:1058C0004F480A30008891B208434D490A31088098
:1058D00006E04B480A300088904349490A31088065
:1058E00030BD10B502460924FFF7C7FD0446092C58
:1058F00002D14348401D027010BDF0B504460D466C
:10590000FF260927FFF7B9FD0746092F0BD13C48B1
:10591000001D007800F00F0645EA06001043204302
:105920003749091D0870F0BD3549091D097821F076
:105930001001334A121D117011460978014311708C
:1059400070472F49091D097821F00C012C4A121DBE
:1059500011701146097801431170704700B5092292
:105960002748001D007840F002002549091D0870F5
:10597000FFF783FD0246104600BD2148001D006868
:10598000C0F3471070471E48801D008870471C48B0
:105990000A30008870471A48801D008870471848F0
:1059A0000A300088704700201549491D0978AA2946
:1059B00001D0012000E0002070471148001D007850
:1059C00000F00C00704729B10D4A126802430C4BDD
:1059D0001A6004E00A4A12688243094B1A60704751
:1059E00001460020064A121F12680A400AB101202F
:1059F00000E0002070470249091F0860704700005E
:105A0000103C02403B2A19087F6E5D4C10B50446DD
:105A1000FB48844208D101218014FEF78CFB002151
:105A2000A014FEF788FB3CE0F648844208D101212F
:105A30000014FEF76FFB00212014FEF76BFB30E033
:105A4000F148844208D10121C013FEF763FB002115
:105A5000E013FEF75FFB24E0EC48844208D101210B
:105A60004014FEF768FB00216014FEF764FB18E0A9
:105A7000E748844209D101210805FEF75CFB0021BB
:105A80004FF48010FEF757FB0BE0E248844208D148
:105A900001214805FEF74FFB00214FF40010FEF7EF
:105AA0004AFB10BD10B50022028802F441520B8857
:105AB0004C8823438C882343CC8823430C8923437D
:105AC0004C8923438C892343CC8923431A43028086
:105AD000838B4FF2FF74234083830B8A038210BDB4
