:020000040800F2
:1000000040BF0020C5320008053300080733000850
:100010000B3300080F330008133300080000000002
:10002000000000000000000000000000173300087E
:100030001933000800000000FD8600081D33000889
:10004000DF320008DF320008DF320008DF3200084C
:10005000DF320008DF320008DF320008DF3200083C
:10006000DF320008DF320008DF320008DF3200082C
:10007000DF320008DF320008DF320008DF3200081C
:10008000DF320008DF320008DF320008DF3200080C
:10009000DF320008DF320008DF320008DF320008FC
:1000A000DF320008DF320008DF320008DF320008EC
:1000B000DF320008210E0008DF320008DF320008BE
:1000C000DF320008DF320008DF320008DF320008CC
:1000D000DF3200086BFA0008CDD200082D110108AC
:1000E000DF320008DF320008DF320008DF320008AC
:1000F000DF320008DF320008DF320008DF3200089C
:10010000DF320008DF320008DF320008DF3200088B
:100110005DFE000869E20008DF320008DF320008F7
:10012000DF320008DF320008DF320008DF3200086B
:10013000DF320008DF320008DF320008DF3200085B
:10014000DF320008DF320008DF320008DF3200084B
:10015000DF320008DF320008DF320008DF3200083B
:10016000DF320008DF320008DF320008DF3200082B
:10017000DF320008DF320008DF320008DF3200081B
:10018000DF320008DF32000800F002F800F05CF80F
:100190000AA090E8000C82448344AAF10107DA45E2
:1001A00001D100F051F8AFF2090EBAE80F0013F0D8
:1001B000010F18BFFB1A43F00103184734DA02009D
:1001C00054DA02000A444FF0000C10F8013B13F01F
:1001D000070408BF10F8014B1D1108BF10F8015BA0
:1001E000641E05D010F8016B641E01F8016BF9D193
:1001F00013F0080F1EBF10F8014BAD1C0C1B09D1EA
:100200006D1E58BF01F801CBFAD505E014F8016B5B
:1002100001F8016B6D1EF9D59142D6D370470000ED
:100220000023002400250026103A28BF78C1FBD8FF
:10023000520728BF30C148BF0B6070471FB52CF074
:10024000E2FD1FBD10B510BD29F046FC1146FFF7B9
:10025000F5FF00F09EF829F064FC03B4FFF7F2FF0D
:1002600003BC29F067FC0000E24800887047E148C1
:1002700012380068E0490860DE480E3800684860BF
:10028000DC480A380068886070477FB5044600255E
:1002900000BF002006F0A9FBD84908604FF4807128
:1002A000D74806F0A1FDD749086003A9002006F051
:1002B00001F8D549086005F09DFD03A8D3A10022EF
:1002C000D44BCDE90021029002220A21084607F012
:1002D000ECFED149086003A9CF48006808F077F820
:1002E00003A8CEA10022CF4BCDE90021029002222B
:1002F00005210A2007F0D9FECB49086003A9CA48A6
:10030000006808F064F808F0D1F905460423C74AEC
:100310000021C74807F090FA0223C64A0021C648C8
:1003200007F08AFA0323C54A0021C54807F084FA7A
:100330000E23C44A0021C44807F07EFA0523C34AAD
:100340000021C34807F078FA1123C24A0021C248AD
:1003500007F072FA1223C14A0021C14807F06CFA73
:100360000F23C04A0021C04807F066FA0623BF4A9F
:100370000021BF4807F060FA1323BE4A0021BE489F
:1003800007F05AFA142007F0D7FC284608F092F933
:100390007FBD1CB5FFF76BFF4FF4A06003F04AF977
:1003A000A82002F0C3FF09F0BAFC4FF4C87009F0AE
:1003B000A8FB09F0D6FD642009F081FD08F0E3FAFE
:1003C000642009F07CFD14F0FFFD1420AB49087097
:1003D0000846007814F07FF8642009F070FD0020D2
:1003E000A749087013F029FF0120A549087064206F
:1003F00009F065FD4FF4E1300EF009F801206221AB
:10040000A04BA14ACDE90010C106A04809F0E6FAC8
:100410004FF461200BF002FD4FF47A300FF0B3FD82
:10042000002042219A4B9B4ACDE9001089069A4848
:1004300009F0D4FA4FF4613010F036FD4FF461301A
:100440000DF0C2FD642009F03AFD00F0C5FC08F093
:1004500014FF02E0642009F032FD08F07EFE4EF643
:1004600015718842F6D109F096F800208B4981F881
:1004700033009FED8B0A8B4880ED0A0AB0EE020A2A
:10048000894880ED0A0A9FED890A80ED090A9FEDEF
:10049000880A80ED0B0A9FED870A80ED0C0A9FED1C
:1004A000860A80ED0D0A0020844908707B4981F896
:1004B0002B0081F82E0081F84300012081F82F00E5
:1004C000002081F83000C87481F84000012081F8D4
:1004D000280081F85100002081F822000120C87511
:1004E000002081F8290081F82A00487181F8440031
:1004F00001200872002081F84600012081F83D00AB
:100500000020087681F8200081F8210081F83F0062
:1005100008700120487300204874012088754872D3
:10052000C8730020087581F83100087481F8210033
:1005300001204875002088740120887348708870F5
:10054000C870002008710120C87200208872012044
:100550000873002081F84C0040F2DC505849C880F4
:10056000088048804FF47A708880002055490860E0
:1005700048608860C8604FF4FA705149088148812A
:100580008881C881012280214248001F03F0D6FEE5
:100590004221414809F07EFA012280213A48001F99
:1005A00003F0CCFE6221394809F074FA322009F0D8
:1005B00086FC05F0E0FA1423434A0021AFF23530FF
:1005C00007F03AF905F0FEFB00201CBD1CB50FE05A
:1005D00001A8002303221F2100900B48006805F0AA
:1005E000CFFF01AB00221F210748006806F008F981
:1005F000EEE70000227AFF1F9C120020000000207E
:10060000A81200200400002008000020746D723140
:10061000000000005532000878000020746D72322E
:1006200000000000813200087C00002080210020B2
:10063000F70E0008801B0020350E000880250020E2
:100640006B0F0008802D0020F3110008803A002075
:100650005714000880300020D1120008804000208C
:100660006B14000880380020E3130008803C002051
:1006700061140008804100209B3100080C0000201C
:1006800046010020C673002004100140B8640240F7
:100690006E740020044C004070600240906A00209C
:1006A0009A99A93FC09B0020089C00209A99094074
:1006B000CDCC4C3E0000A0420080D444C8010020B4
:1006C000A8650020C86500209812002010B52DED07
:1006D000048BFE49FE4B0DCB40310DC1FB4AFC4B58
:1006E000D3E903105B69C2E91403D164F948F84BFC
:1006F00018330ECB08300EC0F54890ED0A0AF348C7
:1007000080ED190AF44800686FF03011084428B1F0
:10071000A0F5D810203800287ED101E19FEDEF0A26
:10072000EF4880ED100A80ED0C0A90ED0C0ADFED29
:10073000ED0A20EE200ABCEEC00A10EE100AEA49CB
:10074000C8809FEDEA0AE64880ED120A80ED0E0AA5
:1007500090ED0E0ADFEDE30A20EE200ABCEEC00A9F
:1007600010EE100A08819FEDE20ADD4880ED110AC3
:1007700080ED0D0A90ED0D0ADFEDDA0A20EE200A79
:10078000BCEEC00A10EE100A48819FEDDA0AD44888
:1007900080ED040A80ED000A90ED000ADFEDD10A39
:1007A00020EE200ABCEEC00A10EE100A08809FED71
:1007B000D20ACB4880ED060A80ED020A90ED020ACB
:1007C000DFEDC80A20EE200ABCEEC00A10EE100AC7
:1007D0004880B0EE000AC24880ED050A80ED010AAB
:1007E00090ED010ADFEDBF0A20EE200ABCEEC00A40
:1007F00010EE100A88809FEDBF0AB94880ED140AF8
:1008000090ED140ADFEDB70A20EE200ABCEEC00A14
:1008100010EE100A088200E0ADE19FEDB40AB04886
:1008200080ED160A90ED160ADFEDAE0A20EE200AE2
:10083000BCEEC00A10EE100AC8819FEDAC0AA848B1
:1008400080ED150A9FEDAB0A80ED080A90ED080ACD
:10085000DFEDA40A20EE200ABCEEC00A10EE100A5A
:1008600088819FEDA50A9E4880ED0A0AB7EE000A2E
:1008700080ED090AB7EE000A80ED070A80ED030A51
:10088000B7EE000A80ED0B0AB1EE040A9B4880ED3A
:10089000000AB5EE000A80ED010A9FED940A80ED92
:1008A000020A9FED940A80ED080A9FED950A80EDFB
:1008B000090A9FED940A80ED0A0A9FED930A80EDE4
:1008C000060A9FED910A80ED0E0A90ED0E0A10EED9
:1008D000101A08462CF0F6F941EC190B9FED8B0B22
:1008E00053EC102B2BF0F8FE41EC180B2BF0DCFB3B
:1008F0008249C8639FED800A084680ED200A0F21D7
:10090000844880F8B61180F84E1080F8C610422155
:10091000814880F8B61180F84E1080F8C61026E2A3
:100920009FED6E0A6E4880ED100A80ED0C0A90ED86
:100930000C0ADFED6C0A20EE200ABCEEC00A10EEB5
:10094000100A6949C8809FED690A654880ED120A5E
:1009500080ED0E0A90ED0E0ADFED620A20EE200A0D
:10096000BCEEC00A10EE100A08819FED610A5C48D7
:1009700080ED110A80ED0D0A90ED0D0ADFED590AA8
:1009800020EE200ABCEEC00A10EE100A48819FED4E
:10099000630A534880ED040A80ED000A90ED000AD6
:1009A000DFED500A20EE200ABCEEC00A10EE100A5D
:1009B00008809FED510A4A4880ED060A80ED020A40
:1009C00090ED020ADFED470A20EE200ABCEEC00AD5
:1009D00010EE100A4880B0EE000A414880ED050A8A
:1009E00080ED010A90ED010ADFED3E0A20EE200ABB
:1009F000BCEEC00A10EE100A88809FED3E0A38480F
:100A000080ED140A90ED140ADFED360A20EE200A7C
:100A1000BCEEC00A10EE100A08829FED340A30487E
:100A200080ED160A90ED160ADFED2E0A20EE200A60
:100A3000BCEEC00A10EE100AC8819FED2C0A2848AF
:100A400080ED150A9FED2B0A80ED080A90ED080A4B
:100A5000DFED240A20EE200ABCEEC00A10EE100AD8
:100A600088819FED250A1E4880ED0A0AB7EE000A2C
:100A700080ED090AB7EE000A80ED070A80ED030A4F
:100A8000B7EE000A80ED0B0A9FED180A1B4880EDB7
:100A9000000A9FED160A80ED010A9FED210A80ED04
:100AA000080A9FED200A80ED090A9FED160A80EDE5
:100AB0000A0A9FED0A0A80ED060A9FED130A80EDEF
:100AC0000E0A90ED0E0A10EE101A2DE06C76002042
:100AD000A8160020100300209C120020CDCCCC3E94
:100AE000E816002000007A44B667002000000000ED
:100AF0009A99993ECDCC4C3FCDCCCC3D346800206A
:100B00000AD7A33BCDCC4C3ECDCCCC3C0000000062
:100B10000000F83FA08F0020809100203333333F46
:100B20006666263F0AD7233C08462CF0CBF841ECFA
:100B3000190B1FED0A0B53EC102B2BF0CDFD41ECE4
:100B4000180B2BF0B1FAA949C8631FED150A084626
:100B500080ED200A4621A64880F8B61180F84E1094
:100B600080F8C6106421A34880F8B61180F84E10B2
:100B700080F8C610FBE09FEDA00AA04880ED100AA7
:100B800080ED0C0A90ED0C0A5FED2A0A20EE200A97
:100B9000BCEEC00A10EE100A9949C8801FED2D0A5C
:100BA000964880ED120A80ED0E0A90ED0E0A5FED78
:100BB000330A20EE200ABCEEC00A10EE100A0881AB
:100BC000B6EE000A8D4880ED110A80ED0D0A90ED19
:100BD0000D0A5FED3C0A20EE200ABCEEC00A10EEC2
:100BE000100A48819FED840A844880ED040A80ED54
:100BF000000A90ED000A5FED450A20EE200ABCEEE7
:100C0000C00A10EE100A08809FED7E0A7B4880ED36
:100C1000060A80ED020A90ED020A5FED4E0A20EE10
:100C2000200ABCEEC00A10EE100A4880B1EE000A9D
:100C3000724880ED050A80ED010A90ED010A5FED32
:100C4000570A20EE200ABCEEC00A10EE100A888077
:100C50001FED580A694880ED140A90ED140A5FED03
:100C60005F0A20EE200ABCEEC00A10EE100A0882CD
:100C70009FED640A614880ED160A90ED160A5FED5B
:100C8000670A20EE200ABCEEC00A10EE100AC881E6
:100C90001FED690A594880ED150A1FED6A0A80EDBB
:100CA000080A90ED080A5FED710A20EE200ABCEEFA
:100CB000C00A10EE100A88811FED710A4F4880EDBE
:100CC0000A0AB7EE000A80ED090AB7EE000A80EDC5
:100CD000070A80ED030AB7EE000A80ED0B0AB0EEBA
:100CE000000A424880ED000A1FED800A80ED010AEB
:100CF0009FED450A80ED080A1FED760A80ED090A8E
:100D0000B7EE000A80ED0A0A1FED7A0A80ED060AA6
:100D10009FED3E0A80ED0E0A90ED0E0A10EE101ABD
:100D200008462BF0CFFF41EC190B1FED880B53EC5D
:100D3000102B2BF0D1FC41EC180B2BF0B5F92B4903
:100D4000C8639FED330A084680ED200A162131481A
:100D500080F8B61180F84E1080F8C6104221254860
:100D600080F8B61180F84E1080F8C61000BF00BFA2
:100D70002948224C1ECC54301EC064381F4CD4E984
:100D800005322169E469C0E91B24C0E919131B4C31
:100D9000D4E90932216AE46AC0E91F24C0E91D13BD
:100DA0001E49164C30341DCC54311DC11B4813490B
:100DB000D1E911430A6CC96CC0E91A434266016764
:100DC0000E49D1E91442D1E91631C0E91D42C0E90A
:100DD0001F31BDEC048B10BD10B5FFF777FC15F08B
:100DE00067FC1AF031F81AF00FF810BD34680020D3
:100DF000A08F0020809100203333B33EE8160020FE
:100E0000B6670020CDCC4C3DCDCC0C3FBC74133D1F
:100E10008FC2753D60930020E88B0020AC8C0020D1
:100E200010B50121FE4804F07CF80121FC4804F0D3
:100E300089F810BD2DED028B5CE0072009F04BF81E
:100E400010EE104A20462BF03DFF41EC180B9FEDB1
:100E5000F50B53EC102B2BF03DFD02D2F348046050
:100E600004E09FEDF30AF14880ED000AF1480078B4
:100E700080B9F14801780078401CEF4A10702829A9
:100E800002DD0120EB4908709FEDE90AE74880ED9B
:100E9000000A2BE013F03DFAE44890ED000A13F04D
:100EA000C8FCE64801780078401CE44A107002292A
:100EB00004DB00201146087013F0D9F8E0480178EF
:100EC0000078401CDE4A1070022904DB0020114625
:100ED000087014F0CAFADB48D44991ED000A09F011
:100EE000A9FAD24890ED000A17F03DFE052002F065
:100EF0006EFA00BFA1E72DED028B35E00B2008F064
:100F0000EAFF10EE104A20462BF0DCFE41EC180BF5
:100F10009FEDC40B53EC102B2BF0DCFC02D2CA4823
:100F2000046004E09FEDC90AC74880ED000AC84884
:100F3000007880B9C74801780078401CC54A107015
:100F4000282902DD0120C24908709FEDC00ABE4871
:100F500080ED000A04E0BC4890ED000A15F0BAFBF1
:100F60000A2002F034FA00BFC8E72DED0A8B82B0E8
:100F70003EE1B948007880B9B84801780078401C53
:100F8000B64A1070282902DD0120B34908709FED90
:100F9000AF0AB34880ED000A27E1052008F09BFF67
:100FA00010EE104A20462BF08DFE41EC180B9FED01
:100FB0009D0B53EC102B2BF08DFC02D2A848046043
:100FC00004E09FEDA20AA64880ED000AA54801783A
:100FD0000078401CA34A1070012955DD00201146FD
:100FE0000870A148D0ED0F0AB0EE600AF6EE000AD4
:100FF00021F058FCB0EE408A9B48D0ED0E0AB0EECE
:10100000600ADFED9A0A21F04DFCF0EE408A964826
:10101000D0ED0D0AB0EE600ADFED940A21F042FC3B
:10102000B0EE409A9248D0ED0A0AF0EE604AD0ED58
:10103000090AB0EE604AD0ED080AF0EE603A8A483C
:10104000D0ED060AB0EE603AD0ED050AF0EE602A67
:10105000D0ED040AB0EE602A8148D0ED000AB6EE69
:10106000001A60EE810AB0EE001A60EE810AB0EE5E
:10107000600A804A694601A8F0EE481AB0EE681A84
:10108000F0EE490A23F01AFE774890ED060A10EEBA
:10109000101A08462BF016FE41EC1C0B9FED760B48
:1010A00053EC102B2BF0EEF841EC1B0B2AF0FCFF5D
:1010B00008EE100A6C4890ED050A10EE101A08466A
:1010C0002BF000FE41EC1C0B9FED6B0B53EC102B37
:1010D0002BF0D8F841EC1B0B2AF0E6FF08EE900A43
:1010E000614890ED040A10EE101A08462BF0EAFD54
:1010F00041EC1C0B9FED600B53EC102B2BF0C2F856
:1011000041EC1B0B2AF0D0FF09EE100A5648D0ED37
:101110000F0AB0EE600AF6EE000A21F0C3FB10EEF3
:10112000105A28462BF0CEFD41EC1C0B9FED540BC2
:1011300053EC102B2BF0A6F841EC1B0B2AF0B4FF5C
:1011400009EE900A4848D0ED0E0AB0EE600AF6EEBD
:10115000000A21F0A7FB10EE105A28462BF0B2FD32
:1011600041EC1C0B9FED460B53EC102B2BF08AF837
:1011700041EC1B0B2AF098FF0AEE100A3A48D0ED1A
:101180000D0AB0EE600AF6EE000A21F08BFB10EEBD
:10119000105A28462BF096FD41EC1C0B9FED380BA6
:1011A00053EC102B2BF06EF841EC1B0B2AF07CFF5C
:1011B0000AEE900A344A35493548DFED2C4A9FED56
:1011C0002B4ADFED2A3AB0EE483AF0EE682AB0EE4C
:1011D000492AF0EE691AB0EE4A1AF0EE6A0A204B7C
:1011E00093ED000A24F011FA00BF0A2002F0EFF894
:1011F000BFE62DED028B6AE0264801780078401C9E
:10120000244A1070042903DD00201146087000BF35
:10121000214908780978491C1F4B19703EE00000ED
:1012200000040040FCA9F1D24D62503F2400002090
:101230000AD7A33B8D0000208E0000208A000020EA
:101240008B00002074170020440000200AD7233CA4
:1012500092000020930000209700002098000020BA
:101260004800002095000020F075002000000000DC
:101270004003002054000020000000000000B040A7
:101280006666666666A64C40580000204C0000204A
:1012900050000020990000209B0000202BF0CCF98A
:1012A00041EC180B9FEDFE0B53EC102B2BF012FBB7
:1012B00006D2FD4890F83E0010B10020FB490870AE
:1012C0009FEDFB0A1CF0C7FF142002F080F893E7A3
:1012D00086E0F84801680068401CF64A10601E2944
:1012E00005D91F20114608600120F3490870F34812
:1012F00001680068401CF14A10601E2905D91F20B2
:10130000114608600020EE490870EE480078E64972
:1013100081F83E00EB48407881F83100E948807858
:101320004871E848C078E84908700120DE4981F832
:10133000250081F84600E548C07981F84700E34878
:10134000C07808B9012000E00020D7494875E0487E
:10135000B0F9080040F2DC51884204DD0120D24996
:1013600081F8220003E00020CF4981F82200D7480D
:10137000807980B1D548407968B1D448C07850B1FF
:10138000D248807838B1D148407820B1CF48007831
:1013900008B1012000E00020C34981F8410008465F
:1013A00090F8410078B9C9488078CA49897888425C
:1013B00009D0C548007830B9C748007818B1012075
:1013C000C64981F82C00002405E0C048005DC149F1
:1013D0000855601CC4B2072CF7DD322001F0F7FF7E
:1013E00077E72DED028B35E0BD48007880B9BD4828
:1013F00001880088401CBB4A1080282902DD01209A
:10140000B74908709FEDAA0AB74880ED000A1EE0B0
:10141000042008F060FD10EE104A20462BF052FC2C
:1014200041EC180B1FED810B53EC102B2BF052FAF3
:1014300002D2AD48046004E01FED7C0AAA4880EDAA
:10144000000AA94890ED000A25F01EFA00BF0A2004
:1014500001F0BDFFC8E702E0322001F0B8FFFBE772
:1014600002E00A2001F0B3FFFBE794B001F093BE65
:101470009E4801780078401C9C4A1070022906DDC5
:101480000020114608709A4800780FF0E4FE974853
:1014900041784078401C954A5070052904DD0020B1
:1014A000114648700CF072FD4FF02051914804F045
:1014B0009EF9002801F0F5854FF020518D4804F089
:1014C000B2F900208C4908700EF0F3F88748817853
:1014D0008078401C854A9070012941F3D98500200D
:1014E00011468870704890F8410000287ED07748F7
:1014F000C079E8B30020089009900A90024601469E
:101500000B907E4890ED050ADFED7D0A20EE200A63
:10151000BDEEC00A10EE100A00B20023CDE904307F
:10152000CDE90612774890ED040AB1EE400AF2EEDA
:10153000040A20EE200ABDEEC00A10EE100A00B226
:10154000714991ED010AB1EE400AF2EE040A20EE73
:10155000200ABDEEC00A10EE101A09B26B4A92EDD5
:10156000000AF2EE040A20EE200ABDEEC00A00E0F6
:101570001AE010EE102A12B2CDE90023CDE90210D4
:10158000634890ED010AF2EE040A20EE200ABDEE57
:10159000C00A10EE100A00B21A460146139018460F
:1015A00010F082F901F074BD0020089009900A90B3
:1015B000014602460B90514890ED050AF2EE040AEE
:1015C00020EE200ABDEEC00A10EE100A00B2002381
:1015D000CDE90430CDE906214E4890ED040AB1EE84
:1015E000400ABDEEC00A10EE100A00E029E001B288
:1015F000494890ED010AB1EE400ABDEEC00A10EE76
:10160000100A00B2454A92ED0D0AB1EE400ABDEE55
:10161000C00A10EE102A12B2CDE90023CDE9020172
:101620003F4890ED000AB1EE400ABDEEC00A10EE50
:10163000100A00B21A4601461390184610F034F909
:10164000B0E7384890F8240018B9374800780028E7
:1016500074D0364800682BF035FB9FED350B53EC0A
:10166000102BCDE90E019DED0E0B51EC100B2BF064
:1016700033F8CDE910019DED100B51EC100B2AF061
:1016800095FF00B213902C4800682BF01BFB9FEDD8
:10169000280B53EC102BCDE90E019DED0E0B4EE007
:1016A0009A9999999999B93F906A00209B000020D6
:1016B0000AD7A33C00020020FC0100201C020020ED
:1016C0001B02002017020020C80100200F0200208A
:1016D0008C6900209E0000203C06002010030020A2
:1016E000AC000020AE00002070000020B2000020FE
:1016F00076000020B8640240F802002060930020C9
:101700000000C842A08F0020AC8C00204C000020BC
:10171000348E002080910020E88B00206C76002021
:10172000648E0020E86A0020750000204000002040
:10173000000000000088C3402000002041E051EC80
:10174000100B2AF0C9FFCDE910019DED100B51ECF3
:10175000100B2AF02BFF00B2129000200890099085
:101760000A9003460B90FE4A128C12B2DDE9120178
:10177000CDE90613CDE90420F948808B00B2F84981
:10178000098B09B2F64A928A12B2F54B1B8A1BB238
:10179000CDE90032CDE90210F148808900B2119004
:1017A000EF48008900B21090ED48808800B20F9099
:1017B000EB48008800B20E900FA90EC910F074F823
:1017C000F0E6E84800781A2881F06084DFE810F03D
:1017D0001A00CD003E015E0CF9016D02E1028903A1
:1017E000BF034D04BC045E0C5305C40566065E0CC5
:1017F000DB064D07CE076808DF086009F109A30A78
:10180000230BDA0BD84800682BF05CFA9FEDD70B5E
:1018100053EC102BCDE90C019DED0C0B51EC100B92
:101820002AF05AFFCDE90E019DED0E0B51EC100B85
:101830002AF0BCFE00B21390CE4800682BF042FAAA
:101840009FEDCA0B53EC102BCDE90C019DED0C0B59
:1018500051EC100B2AF040FFCDE90E019DED0E0B6F
:1018600051EC100B2AF0A2FE00B21290C24890ED8B
:10187000000AF2EE040A80EE201ABDEEC10A10EE54
:10188000100A00B21190BD4800680A2190FBF1F0E7
:1018900000B200211090BA4890ED000ABDEEC00AD7
:1018A00010EE100A00B2CDE908010A910B91B5487B
:1018B000DDE9121290ED000AF2EE040A20EE200A91
:1018C000BDEEC00A10EE100A00B20023CDE90430CC
:1018D000CDE90612AC4890ED000A5FED770A20EEE4
:1018E000200ABDEEC00A10EE100A01B2A74A1198F4
:1018F00092ED000A5FED7E0A20EE200ABDEEC00ADE
:1019000010EE102A12B2CDE90231CDE900209E4836
:1019100090ED000A5FED860A20EE200ABDEEC00AB7
:1019200010EE100A00B20F90994890ED000A5FED9A
:101930008C0A20EE200ABDEEC00A10EE100A00B29A
:101940000E90944890ED000A5FED930A20EE200A75
:10195000BDEEC00A10EE100A00B20D90DDE90E23B4
:1019600010990FF0A1FF01F092BB8B4800682BF09B
:10197000A9F99FED7E0B53EC102BCDE90C019DEDE9
:101980000C0B51EC100B2AF0A7FECDE90E019DEDDA
:101990000E0B51EC100B2AF009FE00B213907F4899
:1019A00000682BF08FF99FED710B53EC102BCDE9F4
:1019B0000C019DED0C0B51EC100B2AF08DFECDE9C6
:1019C0000E019DED0E0B51EC100B2AF0EFFD00B255
:1019D0001290734800682BF075F99FED640B53EC7F
:1019E000102BCDE90C019DED0C0B51EC100B2AF0E6
:1019F00073FECDE90E019DED0E0B51EC100B2AF09C
:101A0000D5FD00B20021089109910A910B91119026
:101A10000023DDE91212CDE90430CDE90612614858
:101A2000B0F8480000B25F49B1F8541009B2CDE9EE
:101A30000013CDE902035B48B0F85C0000B21A461F
:101A40000146109018460FF02FFF8CE7564840686B
:101A50000B902BF037F99FED450B53EC102BCDE994
:101A60000C019DED0C0B51EC100B2AF035FECDE96D
:101A70000E019DED0E0B51EC100B2AF097FD00B2FC
:101A800013904948016808460B912BF01BF99FED14
:101A9000370B53EC102BCDE90C019DED0C0B51ECE9
:101AA000100B2AF019FECDE90E019DED0E0B51EC45
:101AB000100B2AF07BFD00B212902F4890ED000A27
:101AC000F2EE040A80EE201ABDEEC10A10EE100AF2
:101AD00000B21190354890ED000AF2EE040A80EE53
:101AE000201ABDEEC10A10EE100A00B210900020BC
:101AF000089009900A900B902B4890ED020AF2EEA4
:101B0000040A20EE200ABDEEC00A10EE100A01B24F
:101B10000023DDE91202CDE90430CDE906211A46A1
:101B20001F4890ED000AF2EE040A20EE200ABDEEF6
:101B3000C00A10EE100A00B21D4991ED000AB1EE84
:101B4000400ADFED1C0A20EE200ABDEEC00A10EEAE
:101B5000101A09B2CDE90013CDE9020218462BE0B4
:101B6000E86A0020740000205000002000000000FF
:101B7000000024404C000020F00700202805002031
:101B800048060020540000206C0F0020640F002045
:101B9000680F0020580F0020140E0020180E00209F
:101BA0001C0E00202C6A002004B7002070070020C3
:101BB0004C0F00200000C842DDE910120FF074FE47
:101BC000D1E6FE48D0F8CC000D902BF07BF81FED4D
:101BD000190B53EC102BCDE90E019DED0E0B51ECC2
:101BE000100B2AF079FDCDE910019DED100B51ECA1
:101BF000100B2AF0DBFC00B21390F1484168084654
:101C00000D912BF05FF81FED270B53EC102BCDE956
:101C10000E019DED0E0B51EC100B2AF05DFDCDE990
:101C200010019DED100B51EC100B2AF0BFFC00B21F
:101C300012900020089009900A9002460B90002311
:101C4000DDE91201CDE90430CDE90612DB4890ED63
:101C5000230AF2EE040A20EE200ABDEEC00A10EEBE
:101C6000100A00B2D54991ED3B0AF2EE040A20EECB
:101C7000200ABDEEC00A10EE101A09B2CDE9001319
:101C8000CDE90230CF4890ED130AF2EE040A20EEBF
:101C9000200ABDEEC00A10EE100A00B21A46014634
:101CA000119018460FF000FE5DE6C748D0F8CC0052
:101CB0000D902BF007F81FED530B53EC102BCDE9D3
:101CC0000E019DED0E0B51EC100B2AF005FDCDE938
:101CD00010019DED100B51EC100B2AF067FC00B2C7
:101CE0001390BA48416808460D912AF0EBFF1FEDAA
:101CF000610B53EC102BCDE90E019DED0E0B51EC59
:101D0000100B2AF0E9FCCDE910019DED100B51EC10
:101D1000100B2AF04BFC00B21290002008900990A2
:101D20000A9002460B900023DDE91201CDE9043050
:101D3000CDE90612A44890ED230AF2EE040A20EE43
:101D4000200ABDEEC00A10EE100A00B29E4991EDC5
:101D50003B0AF2EE040A20EE200ABDEEC00A10EEA5
:101D6000101A09B2CDE90013CDE90230984890ED80
:101D7000130AF2EE040A20EE200ABDEEC00A10EEAD
:101D8000100A00B21A460146119018460FF08CFD59
:101D9000E9E5904800682AF095FF1FED8C0B53ECA5
:101DA000102BCDE90E019DED0E0B51EC100B2AF01E
:101DB00093FCCDE910019DED100B51EC100B2AF0B6
:101DC000F5FB00B21390844800682AF07BFF1FEDFA
:101DD000990B53EC102BCDE90E019DED0E0B51EC40
:101DE000100B2AF079FCCDE910019DED100B51ECA0
:101DF000100B2AF0DBFB00B200211290774890ED27
:101E0000000ABDEEC00A10EE100A00B2CDE90801CA
:101E10000A910B91724ADDE9120192ED000AF2EE8D
:101E2000040A20EE200ABDEEC00A10EE102A12B2FB
:101E30006C4B93ED050A5FEDA10A20EE200ABDEE82
:101E4000C00A10EE103A1BB2CDE90432CDE906010A
:101E5000644890ED040A5FEDA90A20EE200ABDEE69
:101E6000C00A10EE100A01B200235E4890ED050A88
:101E70005FEDB00A20EE200ABDEEC00A10EE100A97
:101E800000B2584A92ED030A5FEDB60A20EE200A2E
:101E9000BDEEC00A10EE102A12B2CDE90231CDE932
:101EA0000020504890ED040A5FEDBE0A20EE200AA3
:101EB000BDEEC00A10EE100A00B21190494890ED34
:101EC000020A5FEDC40A20EE200ABDEEC00A10EE41
:101ED000100A00B2109001461846119A0FF0E4FC67
:101EE00041E50020089009900A9002460B903E4878
:101EF000808800B23C49098809B20023CDE9043149
:101F0000CDE906023948808B02B23848008B01B215
:101F10003648808A00B2354B1B8A1BB2CDE90030AF
:101F2000CDE902123148808900B213902F48008910
:101F300000B212902D48808800B211902B48008882
:101F400000B2109011A90EC90FF0AEFC0BE51E48AF
:101F5000D0F844010D902AF0B5FE1FEDFC0B53ECB8
:101F6000102BCDE90E019DED0E0B51EC100B2AF05C
:101F7000B3FBCDE910019DED100B51EC100B2AF0D5
:101F800015FB00B213901A4800682AF09BFE9FEDE3
:101F9000190B53EC102BCDE90E019DED0E0B51ECFE
:101FA000100B2AF099FBCDE910019DED100B51ECBF
:101FB000100B2AF0FBFA00B212901FE06093002091
:101FC000348E0020AC8C002040950020648E0020D0
:101FD000E88B0020140E0020180E00204806002078
:101FE0001C0E00202C6A002070110020BCB80020BC
:101FF0008807002000000000000024400020089016
:1020000009900A9002460B900023DDE91201CDE908
:102010000430CDE90612FE4890ED040ABDEEC00A78
:1020200010EE100A00B2FB4991ED590ABDEEC00A4C
:1020300010EE101A09B2CDE90013CDE90230F648CE
:1020400090ED000ABDEEC00A10EE100A00B2024682
:102050001190F24890ED000ABDEEC00A10EE100A91
:1020600001B218460FF020FC7DE4EA48D0F84401A4
:102070000D902AF027FE1FED210B53EC102BCDE91C
:102080000E019DED0E0B51EC100B2AF025FBCDE956
:1020900010019DED100B51EC100B2AF087FA00B2E5
:1020A0001390DF4800682AF00DFE1FED2E0B53EC55
:1020B000102BCDE90E019DED0E0B51EC100B2AF00B
:1020C0000BFBCDE910019DED100B51EC100B2AF02C
:1020D0006DFA00B212900020089009900A90024612
:1020E0000B900023DDE91201CDE90430CDE90612A1
:1020F000C74890ED040ABDEEC00A10EE100A00B207
:10210000C44991ED590ABDEEC00A10EE101A09B289
:10211000CDE90013CDE90230C24890ED010ABDEED1
:10212000C00A10EE100A00B21190BE4890ED000AED
:10213000BDEEC00A10EE100A00B21090014618461B
:10214000119A0FF0B1FB0EE4B248D0F844010D90A3
:102150002AF0B8FD1FED590B53EC102BCDE90E0101
:102160009DED0E0B51EC100B2AF0B6FACDE91001E3
:102170009DED100B51EC100B2AF018FA00B21390E1
:10218000A74800682AF09EFD1FED660B53EC102B4C
:10219000CDE90E019DED0E0B51EC100B2AF09CFACF
:1021A000CDE910019DED100B51EC100B2AF0FEF95A
:1021B00000B212900020089009900A9003460B90FC
:1021C000994ADDE9120192ED020AF2EE040A20EECC
:1021D000200ABDEEC00A10EE102A12B2CDE9061395
:1021E000CDE90420914890ED000AF2EE040A20EEB9
:1021F000200ABDEEC00A10EE100A00B200238A4980
:1022000091ED000AF2EE040A20EE200ABDEEC00AAB
:1022100010EE101A09B2864A92ED000AF2EE040A94
:1022200020EE200ABDEEC00A10EE102A12B2CDE94F
:102230000113009203907C4890ED010AF2EE040A2B
:1022400020EE200ABDEEC00A10EE100A00B2119076
:10225000784890ED000AF2EE040A20EE200ABDEE66
:10226000C00A10EE100A00B2109001461846119AEA
:102270000FF01AFBA4E46748D0F844010D902AF04F
:1022800021FD1FEDA40B53EC102BCDE90E019DEDAC
:102290000E0B51EC100B2AF01FFACDE910019DED49
:1022A000100B51EC100B2AF081F900B213905E482C
:1022B000816808460D912AF005FD1FEDB20B53EC25
:1022C000102BCDE90E019DED0E0B51EC100B2AF0F9
:1022D00003FACDE910019DED100B51EC100B2AF023
:1022E00065F900B212900020089009900A90034608
:1022F0000B904C48DDE9122190ED010AF2EE040A40
:1023000020EE200ABDEEC00A10EE100A00B2CDE9A0
:102310000613CDE90402434890ED000AF2EE040AE8
:1023200020EE200ABDEEC00A10EE100A01B2002213
:102330004148008AB23800B2CDE900203E48CDE9DC
:1023400002218089A03800B2134602460021119074
:1023500008460FF0A9FA33E42E48D0F844010B9058
:102360002AF0B0FC1FEDDD0B53EC102BCDE90C0176
:102370009DED0C0B51EC100B2AF0AEF9CDE90E01DE
:102380009DED0E0B51EC100B2AF010F900B21390DA
:102390002548816808460B912AF094FC1FEDEB0B51
:1023A00053EC102BCDE90C019DED0C0B51EC100BF7
:1023B0002AF092F9CDE90E019DED0E0B51EC100BB8
:1023C0002AF0F4F800B21FEDF50B53EC102B12902D
:1023D0001A4890ED000B51EC100B2AF07DF9CDE975
:1023E0000E019DED0E0B51EC100B2AF0DFF800B240
:1023F0009FED130B53EC102B1190134890ED000B35
:1024000051EC100B2AF068F9CDE90E011EE0000036
:1024100020970020409500205C97002000080020B5
:10242000880700207C080020681700201C0E002070
:10243000140E0020180E0020C09B0020A8060020CB
:102440000000000000002440A00600209DED0E0BBF
:1024500051EC100B2AF0AAF800B21090002008905E
:1024600009900A9003460B90DDE912211198CDE9FD
:102470000613CDE904020021F84890ED120ABDEEE2
:10248000C00A10EE100A00B2CDE9001002910B460E
:1024900003910846109A0FF007FA05E4F048D0F8C7
:1024A00044010D902AF00EFC1FED1B0B53EC102B7A
:1024B000CDE90E019DED0E0B51EC100B2AF00CF93D
:1024C000CDE910019DED100B51EC100B2AF06EF8C8
:1024D00000B21390E348816808460D912AF0F2FBA0
:1024E0001FED290B53EC102BCDE90E019DED0E0BCA
:1024F00051EC100B2AF0F0F8CDE910019DED100B16
:1025000051EC100B2AF052F800B212900020089003
:1025100009900A9003460B90D34ADDE9120192ED2F
:10252000000ABDEEC00A10EE102A12B2CDE9061361
:10253000CDE90420CD4890ED000ABDEEC00A10EEB2
:10254000100A00B20022CA4991ED000ADFEDC90A63
:1025500020EE200ABDEEC00A10EE101A09B2CDE935
:1025600000211346CDE90220C348008802B2C348C7
:1025700090ED000ABDEEC00A10EE100A01B2002074
:102580000FF092F904E4B648D0F844010D902AF017
:1025900099FB1FED550B53EC102BCDE90E019DED72
:1025A0000E0B51EC100B2AF097F8CDE910019DEDC0
:1025B000100B51EC100B29F0F9FF00B21390A94851
:1025C000816808460D912AF07DFB1FED630B53ECEB
:1025D000102BCDE90E019DED0E0B51EC100B2AF0E6
:1025E0007BF8CDE910019DED100B51EC100B29F09B
:1025F000DDFF00B212900020089009900A90034677
:102600000B909B4ADDE9120192ED000ADFED990A79
:1026100020EE200ABDEEC00A10EE102A12B2CDE95B
:102620000613CDE90420964890ED000ABDEEC00ADD
:1026300010EE100A00B20022924991ED000ADFED7F
:102640008D0A20EE200ABDEEC00A10EE101A09B263
:10265000CDE900211346CDE902208748008802B267
:10266000002108460FF020F911E27D48D0F844011E
:102670000D902AF027FB1FED8E0B53EC102BCDE9AC
:102680000E019DED0E0B51EC100B2AF025F8CDE953
:1026900010019DED100B51EC100B29F087FF00B2DB
:1026A00013907048816808460D912AF00BFB1FEDCE
:1026B0009C0B53EC102BCDE90E019DED0E0B51EC54
:1026C000100B2AF009F8CDE910019DED100B51EC2B
:1026D000100B29F06BFF00B21290002008900990B7
:1026E0000A9003460B90684ADDE9120192ED010A57
:1026F000F2EE040A20EE200ABDEEC00A10EE102A07
:1027000012B2CDE90613CDE904205F4890ED000A2E
:10271000F2EE040A20EE200ABDEEC00A10EE100A06
:1027200000B20022594991ED010AF2EE040A20EEAE
:10273000200ABDEEC00A10EE101A09B2CDE9002140
:10274000CDE90220514890ED000AF2EE040A20EE95
:10275000200ABDEEC00A10EE100A00B200230246A5
:102760001946119018460FF09FF890E1484800680C
:102770002AF0A8FA1FEDCE0B53EC102BCDE90E0179
:102780009DED0E0B51EC100B29F0A6FFCDE91001C9
:102790009DED100B51EC100B29F008FF00B21390C7
:1027A0003C4800682AF08EFA1FEDDB0B53EC102B2F
:1027B000CDE90E019DED0E0B51EC100B29F08CFFB5
:1027C000CDE910019DED100B51EC100B29F0EEFE40
:1027D00000B200211290304890ED000ABDEEC00A10
:1027E00010EE100A00B2CDE908010A910B912B4AB4
:1027F000DDE9120192ED000AF2EE040A20EE200A51
:10280000BDEEC00A10EE102A12B20023CDE9043248
:10281000CDE90601134890ED010AF2EE040A20EE1C
:10282000200ABDEEC00A10EE100A00B2CDE9003059
:1028300002930C48039390ED000AF2EE040A20EE96
:10284000200ABDEEC00A10EE100A00B20246194678
:10285000119018460FF028F819E10000E88B0020CD
:10286000409500206817002070070020880700208E
:10287000580F002000007A44A405002064070020BF
:10288000780700205C0F0020348E00209408002080
:10289000140E0020180E0020480600201C0E0020F8
:1028A000FE4800682AF00EFA9FEDFD0B53EC102B4A
:1028B000CDE90E019DED0E0B51EC100B29F00CFF34
:1028C000CDE910019DED100B51EC100B29F06EFEBF
:1028D00000B21390F44800682AF0F4F99FEDF00B71
:1028E00053EC102BCDE90E019DED0E0B51EC100BAE
:1028F00029F0F2FECDE910019DED100B51EC100B0B
:1029000029F054FE00B200211290E84890ED000A30
:10291000BDEEC00A10EE100A00B2CDE908010A911E
:102920000B91E34ADDE9120192ED000AF2EE040A8E
:1029300020EE200ABDEEC00A10EE102A12B20023CB
:10294000CDE90432CDE90601DA4890ED010ADFED68
:10295000DA0A20EE200ABDEEC00A10EE100A00B21C
:10296000CDE900300293D548039390ED010ADFEDE5
:10297000D20A20EE200ABDEEC00A10EE100A00B204
:1029800002461946119018460EF08EFF7FE3C348A9
:1029900000682AF097F99FEDC20B53EC102BCDE99C
:1029A0000E019DED0E0B51EC100B29F095FECDE9BB
:1029B00010019DED100B51EC100B29F0F7FD00B24A
:1029C0001390B94800682AF07DF99FEDB50B53ECE0
:1029D000102BCDE90E019DED0E0B51EC100B29F0E3
:1029E0007BFECDE910019DED100B51EC100B29F091
:1029F000DDFD00B200211290AC4890ED000ABDEE62
:102A0000C00A10EE100A00B2CDE908010A910B913C
:102A1000A74ADDE9120192ED000AF2EE040A20EE67
:102A2000200ABDEEC00A10EE102A12B2A44B93ED9C
:102A3000000ABDEEC00A10EE103A1BB2CDE9043216
:102A4000CDE906019F4890ED040ABDEEC00A10EEE4
:102A5000100A01B200239C4890ED4B0ABDEEC00A5B
:102A600010EE100A00B2994AB2F90420CDE9023101
:102A7000CDE900209548B0F9000011909348B0F9D5
:102A80000200109001461846119A0EF00DFFFEE26A
:102A9000824800682AF016F99FED810B53EC102B49
:102AA000CDE90E019DED0E0B51EC100B29F014FE3B
:102AB000CDE910019DED100B51EC100B29F076FDC6
:102AC00000B21390784800682AF0FCF89FED740B70
:102AD00053EC102BCDE90E019DED0E0B51EC100BBC
:102AE00029F0FAFDCDE910019DED100B51EC100B12
:102AF00029F05CFD00B2002112906C4890ED000AB4
:102B0000BDEEC00A10EE100A00B2CDE908010A912C
:102B10000B91674ADDE9120192ED000AF2EE040A18
:102B200020EE200ABDEEC00A10EE102A12B20023D9
:102B3000CDE90432CDE906011A46654890ED030A55
:102B40005FEDB40A20EE200ABDEEC00A10EE100AB6
:102B500000B25F4991ED020A5FEDBA0A20EE200A49
:102B6000BDEEC00A10EE101A09B2CDE90232CDE96D
:102B70000010574890ED010A5FEDC20A20EE200ACE
:102B8000BDEEC00A10EE100A00B21190504890ED50
:102B9000000A5FEDC80A20EE200ABDEEC00A10EE62
:102BA000100A00B2109001461846119A0EF07CFEF1
:102BB0006DE23A4800682AF085F89FED390B53EC36
:102BC000102BCDE90E019DED0E0B51EC100B29F0F1
:102BD00083FDCDE910019DED100B51EC100B29F098
:102BE000E5FC00B21390304800682AF06BF89FEDC6
:102BF0002C0B53EC102BCDE90E019DED0E0B51EC7F
:102C0000100B29F069FDCDE910019DED100B51EC81
:102C1000100B29F0CBFC00B200211290234890ED5C
:102C2000000ABDEEC00A10EE100A00B2CDE908019C
:102C30000A910B911E4ADDE9120192ED000AF2EEB3
:102C4000040A20EE200ABDEEC00A10EE102A12B2CD
:102C50000023CDE90432CDE906011A461C4890ED67
:102C6000030ADFED1C0A20EE200ABDEEC00A10EEBA
:102C7000100A00B2184991ED010AF7EE000A20EEA1
:102C8000200ABDEEC00A10EE101A09B2CDE90232D8
:102C9000CDE900100E4890ED010A1FE0140E00204F
:102CA0000000000000002440180E0020480600200C
:102CB0001C0E0020AC0800200000C842A408002020
:102CC0000008002020970020409500207469002013
:102CD000106B002000000000B0B800205FED030A78
:102CE00020EE200ABDEEC00A10EE100A00B21190CC
:102CF000F84890ED000AF7EE000A20EE200ABDEE3B
:102D0000C00A10EE100A00B2109001461846119A3F
:102D10000EF0CAFDBBE1F048006829F0D3FF1FEDBB
:102D2000200B53EC102BCDE90C019DED0C0B51EC5D
:102D3000100B29F0D1FCCDE90E019DED0E0B51ECED
:102D4000100B29F033FC00B21390E448006829F01E
:102D5000B9FF1FED2D0B53EC102BCDE90C019DEDB0
:102D60000C0B51EC100B29F0B7FCCDE90E019DEDD9
:102D70000E0B51EC100B29F019FC00B21290D84840
:102D800090ED000AF2EE040A80EE201ABDEEC10AB0
:102D900010EE100A00B21190D24890ED000AF2EE47
:102DA000040A80EE201ABDEEC10A10EE100A00B22D
:102DB00000211090CC4890ED000ABDEEC00A10EE44
:102DC000100A00B2CDE908010A910B91C748DDE96C
:102DD000122190ED000AF2EE040A20EE200ABDEE68
:102DE000C00A10EE100A00B20023CDE90430CDE98C
:102DF0000621DDE910018DE80B00BD48039390ED3D
:102E0000000ABDEEC00A10EE100A02B20021084608
:102E10000EF04AFD3BE1B048006829F053FF1FED7A
:102E2000600B53EC102BCDE90C019DED0C0B51EC1C
:102E3000100B29F051FCCDE90E019DED0E0B51EC6C
:102E4000100B29F0B3FB00B21390A448006829F0DE
:102E500039FF1FED6D0B53EC102BCDE90C019DEDEF
:102E60000C0B51EC100B29F037FCCDE90E019DED58
:102E70000E0B51EC100B29F099FB00B212909D48FB
:102E800090ED000B8DED0C0B1FED7B0B53EC102B1D
:102E90009DED0C0B51EC100B29F01EFCCDE90E0141
:102EA0009DED0E0B51EC100B29F080FB00B20021C0
:102EB00011908D4890ED000ABDEEC00A10EE100A88
:102EC00000B2CDE908010A910B918B48DDE912218E
:102ED00090ED000AF2EE040A20EE200ABDEEC00AD0
:102EE00010EE100A00B20023CDE90430CDE906212E
:102EF000824890ED000AF2EE040A20EE200ABDEEB0
:102F0000C00A10EE100A00B211990093CDE9013108
:102F100003907B4890ED030AF2EE040A20EE200AAB
:102F2000BDEEC00A10EE100A00B21090744890ED89
:102F3000010AF2EE040A20EE200ABDEEC00A10EEED
:102F4000100A00B20F906E4890ED000AF2EE040AEB
:102F500020EE200ABDEEC00A10EE100A00B20E905C
:102F6000674890ED040AF2EE040A20EE200ABDEE56
:102F7000C00A10EE100A00B20D900EA90EC90EF094
:102F800093FC84E05448006829F09CFE1FEDBC0BC4
:102F900053EC102BCDE90E019DED0E0B51EC100BF7
:102FA00029F09AFBCDE910019DED100B51EC100BAF
:102FB00029F0FCFA00B213904848006829F082FE1C
:102FC0001FEDC90B53EC102BCDE90E019DED0E0B3F
:102FD00051EC100B29F080FBCDE910019DED100B99
:102FE00051EC100B29F0E2FA00B2002112903E4899
:102FF00090ED000ABDEEC00A10EE100A00B2CDE955
:1030000008010A910B91394ADDE9120192ED000A9B
:10301000F2EE040A20EE200ABDEEC00A10EE102ADD
:1030200012B20023CDE90432CDE90601354890ED16
:10303000010A5FEDDF0A20EE200ABDEEC00A10EEA5
:10304000100A00B21A46304991ED000ADFED2F0A4E
:1030500020EE200ABDEEC00A10EE101A09B2CDE92A
:103060000031CDE902202A4890ED000ADFED270A61
:1030700020EE200ABDEEC00A10EE100A00B2024691
:103080001946119018460EF00FFC00E000BF00BF7B
:10309000012280211F4801F051F962211E4806F0EB
:1030A000F9FC1E48C178C078401C1C4AD070012928
:1030B0006EDD00201146C87019491A4802F097FBCE
:1030C000A0B31749174802F0AEFB1748007805284F
:1030D00054D22CE0B0B80020140E0020180E0020AE
:1030E0008807002070070020480600201C0E0020E2
:1030F0009007002030B7002054000020B80E0020B8
:1031000004B70020A8B700203002002000007A4455
:103110003402002000100140B8640240B2000020D8
:103120002000002070600240B600002030E0DFE8A0
:1031300000F0030A11181E000120524908700020F7
:103140000FF025FA1AE002204E49087003200FF014
:103150001EFA13E003204B49087001200FF017FA04
:103160000CE00420474908700FF011FA06E0002037
:103170004449087005200FF00AFA00BF00BF012281
:103180008021414801F0DAF84221404806F082FCF3
:10319000052000F01CF9FEF76BB92DED028B58E00D
:1031A00006F0D2FD11F05CF807F0F0FB384800782B
:1031B00050B93848007838B1012037498870C87054
:1031C00000204870087003E006F032FF07F04AF86C
:1031D000324908680968491C304B196029F02CFAFB
:1031E00041EC180B9FED2E0B53EC102B29F072FBCA
:1031F00002D200202C4908702C49887D897D491C09
:103200002A4B997529F018FA41EC180B9FED240B05
:1032100053EC102B29F05EFB02D2002023494875A5
:10322000234890ED000AB5EEC00AF1EE10FA03D083
:10323000204890F8220020B101201E4981F82D007D
:1032400003E000201B4981F82D004FF4FA7000F0D4
:10325000BEF8A5E7184A1278052A04D10022174BB8
:103260001A80154B1A70154A1288154B1B781A4490
:10327000124B1A80104A1278521C0F4B1A7070476A
:1032800070477047B6000020004C0040706002405C
:10329000C80100203C06002070010020D002002060
:1032A0000000000000002040D4020020C09B00204D
:1032B000B4970020906A0020B7000020840000200E
:1032C000F00000200948804709480047FEE7FEE774
:1032D000FEE7FEE7FEE7FEE7FEE7FEE7FEE7FEE7C6
:1032E00004480549054A064B7047000001350008AF
:1032F0008901000840B9002040BF002040BB0020E9
:1033000040BB0020704700BFFEE700BFFEE700BFE4
:10331000FEE700BFFEE770477047000010B502F0FF
:1033200042FC02F086FD02F059FC10BD70B5044667
:103330006FF0040000F0D0F9E11704EB5171C1F314
:10334000C701344A1170E11704EB5171CD1041F2FD
:10335000883045430520304908804FF0E02000695F
:1033600040F002004FF0E021086108464561006925
:1033700040F00100086170BD2DE9F04707460026C6
:103380004FF0E020D0F814902248007807FB00F8B6
:1033900000BF02F05BFC4FF0E020856911E04FF0C8
:1033A000E0208469AC420CD0AC4202D2281B064417
:1033B00003E0A9EB0400284406442546464500D313
:1033C00000E0ECE700BF02F086FCBDE8F08770B5D6
:1033D000044612480078012814D11148007888B9B1
:1033E0000D480088844206DB0B48008894FBF0F50A
:1033F000284604F069FD0848008894FBF0F100FBC2
:10340000114084B24FF47A7104FB01F0FFF7B4FF6E
:1034100070BD0000BA000020BC0000200A0100209E
:10342000FE0000200CB50020019000907648006856
:1034300040F480307449086000BF7348006800F4AD
:10344000003000900198401C0190009818B9019834
:10345000B0F5A04FF1D16C48006800F4003010B115
:103460000120009001E0002000900098012846D142
:1034700065484030006840F0805063494031086042
:103480006248006840F44040604908605E48083087
:1034900000685D49083108600846006840F4004053
:1034A00008600846006840F4A05008605848091FAA
:1034B0000860081F006840F08070091F086000BFA6
:1034C0005148006800F000700028F9D040F2057003
:1034D000504908604C480830006820F003004A4911
:1034E000083108600846006840F00200086000BF2C
:1034F00045480830006800F00C000828F8D10CBDE1
:1035000010B54548006840F47000434908603E48E3
:10351000006840F001003C49086000203A49083149
:103520000860394800683D490840374908603C4810
:10353000091D0860081F006820F48020091F08602A
:10354000002031490C310860FFF76CFF4FF000603C
:1035500031498039086010BD70B500200022022377
:1035600000240221284D08352D6805F00C0020B1FB
:10357000042806D0082834D107E02A4D2A4E3560A9
:1035800033E02A4D284E35602FE01F4D2D1D2D684C
:10359000C5F380541C4D2D1D2D6805F03F0154B11D
:1035A000224DB5FBF1F5184E361D3668C6F3881668
:1035B00005FB06F209E01B4DB5FBF1F5124E361D79
:1035C0003668C6F3881605FB06F20F4D2D1D2D68D3
:1035D000C5F301456D1C6B00B2FBF3F5124E35606F
:1035E00003E0104D104E356000BF00BF064D08359A
:1035F0002D68C5F303150E4E705D0B4D2D68C5404B
:10360000094E356070BD0000003802400070004077
:1036100008544007003C024088ED00E0FFFFF6FE42
:10362000103000240024F400C000002000127A00B2
:10363000C400002032490143324A1160704770B51E
:10364000002100230F22C4781CB32E4C246804F4FC
:10365000E064C4F5E064C4F30721C1F10404E3B2FB
:103660000A4144789C40E1B28478144021430C071D
:10367000210E254C05786155047804F01F050124BE
:10368000AC4005786D11AD0005F1E025C5F80041AD
:1036900009E0047804F01F050124AC401B4D0678B6
:1036A000761145F8264070BD194A0A400243154B71
:1036B0001B1F1A60704739B1124A121D126802436B
:1036C000104B1B1D1A6006E00E4A121D1268824341
:1036D0000C4B1B1D1A607047042808D14FF0E021E5
:1036E000096941F004014FF0E022116107E04FF059
:1036F000E021096921F004014FF0E02211617047D7
:103700000000FA050CED00E000E400E080E100E0DC
:1037100080FFFF1F10B504469848844208D101215C
:10372000084600F086FB0021012000F082FB76E0D5
:103730009348844208D10121022000F07AFB002145
:10374000022000F076FB6AE08E48844208D1012115
:10375000042000F06EFB0021042000F06AFB5EE014
:103760008948844208D10121082000F062FB002131
:10377000082000F05EFB52E08448844208D1012119
:10378000102000F056FB0021102000F052FB46E014
:103790007F48844208D10121202000F04AFB00210B
:1037A000202000F046FB3AE07A48844208D101210B
:1037B000402000F03EFB0021402000F03AFB2EE0CC
:1037C0007548844208D10121802000F032FB00219D
:1037D000802000F02EFB22E07048844208D10121B5
:1037E000801500F026FB0021A01500F022FB16E05A
:1037F0006B48844208D10121401500F01AFB0021DA
:10380000601500F016FB0AE06648844207D10121EA
:10381000001500F00EFB0021201500F00AFB10BD82
:10382000F0B50A4600210023002400BF3DE0012539
:1038300005FA01F3156805EA03049C4234D10568D2
:103840004F000326BE40B543056015794E00B540D4
:103850000668354305601579012D02D01579022DD2
:1038600016D185684F000326BE40B5438560557963
:103870004E00B540866835438560456801268E4018
:10388000B5434560456896798E40B6B2354345608C
:10389000C5684F000326BE40B543C560D5794E00CC
:1038A000B540C6683543C560491C1029BFD3F0BD7B
:1038B0004FF6FF7101600021017141718171C17189
:1038C000704708B54FF480320092009A0A43009284
:1038D000009AC261C161009AC261C2690092C26964
:1038E000009208BD0246002013690B400BB1012075
:1038F00000E0002070470146086980B27047024628
:10390000002053690B400BB1012000E000207047FC
:103910000146486980B27047018370474183704710
:103920000AB1018300E041837047416170474269F9
:103930004A4042617047F0B5002300244D07ED0E68
:1039400002FA05F3CE1000F1200555F826504E0777
:10395000F70E0F26BE40B543CF1000F1200646F803
:103960002750CE1000F1200555F8265045EA0304F3
:10397000CE1000F1200545F82640F0BD00000240C1
:103980000004024000080240000C02400010024007
:103990000014024000180240001C024000200240B7
:1039A0000024024000280240F948006840F001006D
:1039B000F74908600020F64908310860F4480068BB
:1039C000F4490840F2490860F348091D0860F348CB
:1039D000EF4984310860F0481038091D0860EC4850
:1039E000006820F48020EA4908600020E8490C3192
:1039F0000860E7498C31086070470021E44A921C56
:103A0000117011460870704710B50146002200235E
:103A100000204A11012A02D1DD4C236808E0022A65
:103A200003D1DB4C7034236802E0D94C7434236832
:103A300001F01F02012494401C400CB1012000E061
:103A4000002010BD38B5002000900024002500BFE4
:103A50003120FFF7D9FF05460098401C00900098E0
:103A6000B0F5A04F01D0002DF2D03120FFF7CCFFF0
:103A700008B1012400E00024204638BD01460020A2
:103A8000C34A106820F0F80040EAC1001060704797
:103A9000C349086070470021BD4A7032117011702F
:103AA000012802D004280AD104E00121B84A70326A
:103AB000117005E00521B64A7032117000E000BFB8
:103AC00000BF7047B7490860704770B5049C41EA71
:103AD00082150126C6EB530645EA0645054345EA2D
:103AE0000465AB4E361D356070BDAD490866704744
:103AF000820142EA0172A64B84331A607047A849DA
:103B00008866704710B5830143EA016343EA027394
:103B10009F4C8834236010BDA14908677047A049B5
:103B2000C864704702460020994B0833186820F09B
:103B3000EC6042EA01031843954B08331860704764
:103B400002460020924B0833186820F0784042EA81
:103B5000010318438E4B083318607047014600205C
:103B60008B4A0832106820F0030008431060704749
:103B700087480830006800F00C00704701460020BC
:103B8000834A0832106820F0F00008431060704744
:103B9000014600207E4A0832106820F4E0500843B5
:103BA0001060704701460020794A0832106820F4FE
:103BB000604040EAC10010607047F0B5002100226B
:103BC0000024022500260223714F08373F6807F0C2
:103BD0000C0121B1042905D0082937D105E0724F25
:103BE000076036E0714F076033E0694F3F1D3F6863
:103BF000C7F38056664F3F1D3F6807F03F036EB125
:103C00006A4FB7FBF3F7DFF888C10CF1040CDCF85E
:103C100000C0CCF3881C07FB0CF40CE0624FB7FB30
:103C2000F3F7DFF86CC10CF1040CDCF800C0CCF346
:103C3000881C07FB0CF4564F3F1D3F68C7F3014734
:103C40007F1C7D00B4FBF5F7076002E0564F07606C
:103C500000BF00BF4E4F08373F6807F0F001090969
:103C6000534F7A5C0768D7404760494F08373F6831
:103C700007F4E051890A4E4F7A5C4768D740876065
:103C8000434F08373F6807F46041490B484F7A5C5F
:103C90004768D740C760F0BD002100F44072B2F51C
:103CA000407F0AD13A4A0832116821F4F811414A9A
:103CB00002401143364A08321160354A70321268A8
:103CC000C0F30B031A43324B70331A607047354907
:103CD00044390860704733494039086070473649B5
:103CE0000860704701460020294A8C32106820F095
:103CF0001F004A1E1043264A8C321060704701464E
:103D00000020234A8C32106820F4F8504A1E40EA02
:103D100002201F4A8C3210607047014600201C4A66
:103D20008C32106820F44010084310607047014640
:103D30000020174A8C32106820F4400008431060BD
:103D4000704701460020124A8C32106820F440303F
:103D500008431060704719490860704739B10C4A30
:103D60003032126802430A4B30331A6006E0084AC8
:103D7000303212688243064B30331A607047F9B113
:103D8000034A343212680243014B34331A601CE098
:103D900000380240FFFFF6EA103000240030002017
:103DA00000004742800E47420024F40000127A00CF
:103DB000D4000020FFFCFF0F5C014742E0114742A6
:103DC0008F4A126882438E4B1A60704739B18C4A11
:103DD000121D126802438A4B1B1D1A6006E0884AB6
:103DE000121D12688243864B1B1D1A60704739B141
:103DF000834A0C3212680243814B0C331A6006E08E
:103E00007F4A0C32126882437D4B0C331A60704734
:103E100039B17B4A103212680243794B10331A6071
:103E200006E0774A103212688243754B10331A60ED
:103E3000704739B1724A243A12680243704B243BEE
:103E40001A6006E06E4A243A126882436C4B243BA7
:103E50001A60704739B16A4A203A12680243684BC7
:103E6000203B1A6006E0664A203A12688243644B9F
:103E7000203B1A60704739B1614A1C3A126802430C
:103E80005F4B1C3B1A6006E05D4A1C3A1268824395
:103E90005B4B1C3B1A60704739B1594A143A12689F
:103EA0000243574B143B1A6006E0554A143A126815
:103EB0008243534B143B1A60704739B1504A103A51
:103EC000126802434E4B103B1A6006E04C4A103A0F
:103ED000126882434A4B103B1A60704739B1484A16
:103EE0001C3212680243464B1C331A6006E0444AF7
:103EF0001C3212688243424B1C331A60704739B13E
:103F00003F4A2032126802433D4B20331A6006E0DC
:103F10003B4A203212688243394B20331A60704783
:103F200039B1374A243212680243354B24331A60C0
:103F300006E0334A243212688243314B24331A603C
:103F4000704739B12E4A2C32126802432C4B2C3365
:103F50001A6006E02A4A2C3212688243284B2C331E
:103F60001A60704739B1264A303212680243244B36
:103F700030331A6006E0224A303212688243204B06
:103F800030331A607047012808D11D493C31096857
:103F900041F008011A4A3C32116007E018493C31EF
:103FA000096821F00801164A3C321160704739B1A6
:103FB000134A273A12780243114B273B1A7006E046
:103FC0000F4A273A127882430D4B273B1A707047ED
:103FD0000B484030006840F080700949403108606B
:103FE000704701460020064A283A12680A400AB182
:103FF000012000E000207047014926390870704711
:104000003438024010B50446FA48844208D10121F0
:104010001020FFF752FF00211020FFF74EFF57E05E
:10402000F548844209D101214804FFF735FF0021FA
:104030004FF40030FFF730FF4AE0F048844209D1E6
:1040400001218804FFF728FF00214FF48020FFF7AB
:1040500023FF3DE0EA48844209D10121C804FFF76B
:104060001BFF00214FF40020FFF716FF30E0E5486A
:10407000844209D101210805FFF70EFF00214FF40A
:104080008010FFF709FF23E0DF48844208D10121B7
:104090002020FFF712FF00212020FFF70EFF17E07E
:1040A000DA48844209D101218807FFF7F5FE002193
:1040B0004FF08040FFF7F0FE0AE0D548844207D178
:1040C00001214005FFF7E8FE00216005FFF7E4FE4F
:1040D00010BD2DE9FF4705460E460024A14600BF4E
:1040E000A046B08900B100BF2C8A24F44054F08867
:1040F00004432C82AC8941F20C608443B08831893E
:104100000843718908430443AC81AC8A24F44074A9
:10411000B0890443AC826846FFF74FFDB54885423D
:1041200002D0B948854202D1DDF80C9001E0DDF8FB
:104130000890A88900F4004040B109EBC90000EBE9
:10414000091031684900B0FBF1F707E009EBC9003D
:1041500000EB091031688900B0FBF1F76420B7FB70
:10416000F0F004012009642101FB1078A88900F413
:10417000004040B1322000EBC800B0FBF1F000F08D
:104180000700044308E0322000EB08106421B0FB74
:10419000F1F000F00F0004432C81BDE8FF874FF4DD
:1041A0001651016000218180C18001810C21418173
:1041B00000218181704710B502460020108A20F44A
:1041C00070600B884C8823438C882343CC8823431E
:1041D0001843108210BD0021018041808180C18080
:1041E000704721B1828942F40052828104E08289C1
:1041F0004DF6FF731A4082817047028B02F47F42B2
:104200000283028B0A430283704721B1828942F400
:104210000042828103E08289C2F30E0282817047EC
:1042200021B1828A42F40062828204E0828A4FF2E3
:10423000FF731A4082827047C1F308028280704780
:1042400001468888C0F308007047028A4FF6F07371
:104250001A400282028A0A430282704721B182898F
:1042600042F00202828104E082894FF6FD731A4017
:104270008281704782894FF2FF731A40828182895E
:104280000A4382817047028A4FF6DF731A40028226
:10429000028A0A430282704721B1028A42F48042B4
:1042A000028204E0028A4BF6FF731A4002827047D2
:1042B000818941F001018181704721B1828A42F0F8
:1042C0000802828204E0828A4FF6F7731A408282E3
:1042D0007047028BD2B20283028B42EA0122028330
:1042E000704721B1828A42F02002828204E0828AF1
:1042F0004FF6DF731A408282704721B1828A42F002
:104300001002828204E0828A4FF6EF731A408282A2
:104310007047828A4FF6FB731A408282828A0A4370
:104320008282704721B1828A42F00202828204E0D6
:10433000828A4FF6FD731A40828270471AB1838ACF
:104340000B43838202E0838A8B4383827047F0B5FC
:104350000346002400260025002040F66A17B942D3
:1043600000D100BF1846C1F3421401F01F06012717
:1043700007FA06F5012C01D10C3004E0022C01D122
:10438000103000E014301AB107682F43076002E0D4
:104390000768AF430760F0BD02460020B1F5007F1B
:1043A00000D100BF13880B400BB1012000E00020BA
:1043B000704701F40072B2F5007F00D100BFCA431C
:1043C0000280704770B502460024002300250020BB
:1043D00040F66A16B14200D100BFC1F3421501F0A8
:1043E0001F03012606FA03F3012D13D196893340EA
:1043F00017E0000000100140004400400048004069
:10440000004C004000500040001401400078004083
:10441000007C0040022D02D1168A334001E0968ACA
:1044200033400C12012606FA04F41688344013B106
:104430000CB1012000E0002070BD10B50022002367
:1044400040F66A14A14200D100BF0A120124944030
:10445000A3B2DC43048010BD10B50446FE4884427C
:1044600008D101210846FFF728FD00210120FFF7B0
:1044700024FD9DE0B4F1804F08D101210846FFF7EB
:104480000BFD00210120FFF707FD91E0F348844276
:1044900008D101210220FFF7FFFC00210220FFF7D5
:1044A000FBFC85E0EE48844208D101210420FFF79F
:1044B000F3FC00210420FFF7EFFC79E0E948844297
:1044C00008D101210820FFF7E7FC00210820FFF7B1
:1044D000E3FC6DE0E448844208D101211020FFF79D
:1044E000DBFC00211020FFF7D7FC61E0DF488442AD
:1044F00008D101212020FFF7CFFC00212020FFF769
:10450000CBFC55E0DA48844208D101210220FFF7B4
:10451000D4FC00210220FFF7D0FC49E0D5488442BA
:1045200009D101210804FFF7C8FC00214FF48030B5
:10453000FFF7C3FC3CE0D048844209D10121480484
:10454000FFF7BBFC00214FF40030FFF7B6FC2FE073
:10455000CA48844209D101218804FFF7AEFC00213A
:104560004FF48020FFF7A9FC22E0C548844208D11F
:1045700001214020FFF790FC00214020FFF78CFC38
:1045800016E0C048844208D101218020FFF784FC56
:1045900000218020FFF780FC0AE0BB48844207D15D
:1045A00001218015FFF778FC0021A015FFF774FCAE
:1045B00010BD00220288A84B98420ED0AC4B984206
:1045C0000BD0B0F1804F08D0A44B984205D0A44B3B
:1045D000984202D0A34B984204D14FF68F731A40F1
:1045E0004B881A43A04B984207D0A04B984204D066
:1045F0004FF6FF431A400B891A4302804B68C3628F
:104600000B880385944B984202D0994B984201D174
:104610008B7A03860123838270474FF0FF3141601C
:104620000021018001814180817270470185828271
:1046300070470A46002101884FF68F7319401143D5
:104640000180704741627047C16270470146486A05
:1046500070470146088D704721B1028842F002027E
:10466000028004E002884FF6FD731A400280704712
:1046700021B1028842F00402028004E002884FF671
:10468000FB731A400280704721B1028842F0800219
:10469000028004E002884FF67F731A400280704760
:1046A00002884FF6F7731A40028002880A4302809C
:1046B000704702884FF6FF431A40028002880A437F
:1046C0000280704721B1028842F00102028004E0BA
:1046D00002884FF6FE731A400280704770B50024BE
:1046E00000220023058C4FF6FE7635400584028CAF
:1046F0008388048B4FF68F752C40B51E2C400D8897
:104700002C43751E2A408D892A434D882A43524DD9
:10471000A84202D0564DA84213D14FF6F7752A4051
:10472000CD892A434FF6FB752A408D882A434FF6E0
:10473000FF652B404FF6FF552B400D8A2B434D8ACA
:104740002B43838004838D684563028470BD70B5FC
:10475000002400220023058C4FF6EF7635400584B7
:10476000028C8388048B48F6FF752C404FF6FF457A
:104770002C400D884FF6FF7606EA05252C434FF6B0
:10478000DF752A408D8906EA05152A434D8806EA19
:1047900005152A43304DA84202D0354DA8421DD1FF
:1047A0004FF67F752A40CD894FF6FF7606EA05154C
:1047B0002A434FF6BF752A408D8806EA05152A431D
:1047C0004FF6FF352B404FF2FF752B400D8A06EA5E
:1047D00085052B434D8A06EA85052B438380048398
:1047E0008D688563028470BD70B5002400220023AB
:1047F000058C4FF6FF6635400584028C8388848BD8
:104800004FF68F752C404FF6FC752C400D882C43CD
:104810004FF6FF552A408D894FF6FF7606EA0525AB
:104820002A434D8806EA05252A430B4DA84202D0AB
:104830000F4DA84238D14FF2FF752A40CD894FF66F
:10484000FF7606EA05252A434FF6FF352A408D8874
:1048500006EA05252A4319E0000001400004004053
:1048600000080040000C0040001000400014004010
:104870000004014000400140004401400048014064
:1048800000180040001C0040002000404EF6FF755C
:104890002B404DF6FF752B400D8A06EA05152B437C
:1048A0004D8A06EA05152B43838084838D68C56392
:1048B000028470BD70B5002200230024058C4EF6E2
:1048C000FF7635400584038C8488828B48F6FF751B
:1048D0002A404FF6FF452A400D884FF6FF7606EA3C
:1048E00005252A434DF6FF752B408D8906EA0535CF
:1048F0002B434D8806EA05352B43FE4DA84202D0D6
:10490000FD4DA84208D14BF6FF752C400D8A4FF69D
:10491000FF7606EA85152C43848082838D680564C2
:10492000038470BD0021018041808180816081818C
:10493000C18101824182704770B503460020002486
:104940001846183001258D40ACB21D8CA5431D843E
:1049500009B108290AD100EB610005684FF68F768E
:10496000354005600568154305600FE00D1FC5F370
:104970004E052844056848F6FF7635400560056811
:104980004FF6FF7606EA02263543056070BD4163A7
:10499000704781637047C1637047016470470A467E
:1049A0000021018B4FF68F7319401143018370472B
:1049B0000A460021018B48F6FF7319404FF6FF733A
:1049C00003EA02231943018370470A460021818BC1
:1049D0004FF68F7319401143818370470A460021B7
:1049E000818B48F6FF7319404FF6FF7303EA0223E9
:1049F0001943818370470A460021018B4FF6F773F4
:104A000019401143018370470A460021018B4FF280
:104A1000FF7319404FF6FF7303EA02231943018322
:104A200070470A460021818B4FF6F77319401143F6
:104A3000818370470A460021818B4FF2FF73194032
:104A40004FF6FF7303EA02231943818370470A4636
:104A50000021018B4FF6FB7319401143018370470E
:104A60000A460021018B4FF6FF3319404FF6FF73C2
:104A700003EA02231943018370470A460021818B10
:104A80004FF6FB7319401143818370470A4600219A
:104A9000818B4FF6FF3319404FF6FF7303EA022371
:104AA0001943818370470A460021018B4FF67F73BB
:104AB00019401143018370470A460021018BC1F35D
:104AC0000E014FF6FF7303EA022319430183704777
:104AD0000A460021818B4FF67F7319401143818371
:104AE00070470A460021818BC1F30E014FF6FF7318
:104AF00003EA02231943818370470A460021018C8F
:104B00004FF6FD7319401143018470470A46002196
:104B1000018C4FF6F77319401143018470470A4620
:104B20000021018C4FF6DF7319404FF6FF7303EA43
:104B300002131943018470470A460021018C4FF685
:104B40007F7319404FF6FF7303EA02131943018480
:104B500070470A460021018C4FF6FF5319404FF66B
:104B6000FF7303EA02231943018470470A460021B8
:104B7000018C4FF2FF7319404FF6FF7303EA0223D3
:104B80001943018470470A460021018C4DF6FF73DA
:104B900019404FF6FF7303EA02331943018470474B
:104BA00030B5002301248C40A3B2048C9C430484C0
:104BB000048C02FA01F5ADB22C43048430BD30B54B
:104BC000002304248C40A3B2048C9C430484048CF2
:104BD00002FA01F5ADB22C43048430BD828B4FF252
:104BE000FF331A408283828B4FF6FF7303EA01235F
:104BF0001A4382837047F0B50C4615460021002207
:104C00000026078C4EF6FF7C07EA0C070784818B91
:104C1000028C4FF6FF7707EA043640F6FF4739402B
:104C20004FF6FF7707EA052739434FF6FF7707EA84
:104C30000337394345F6FF773A4046F480573A4305
:104C400081830284F0BD828B4FF6F3731A40828316
:104C5000828B0A4382837047F0B50C4615460021CB
:104C600000220026078C4FF6FF6C07EA0C0707842A
:104C7000818B028C4FF6FF7707EA04264FF60C77FC
:104C800039404FF6FF7707EA03172F4339434FF2B6
:104C9000FF573A4046F480773A4381830284F0BD5F
:104CA000028B4FF2FF331A400283028B4FF6FF73E1
:104CB00003EA01231A4302837047F0B50C461546F8
:104CC000002100220026078C4FF6EF7C07EA0C0734
:104CD0000784018B028C4FF6FF7707EA041640F633
:104CE000FF4739404FF6FF7707EA033739434FF65E
:104CF000FF7703E0000001400004014007EA0527B8
:104D000039434FF65F773A4046F010073A43018344
:104D10000284F0BD028B4FF6F3731A400283028BBC
:104D20000A4302837047F0B50C4615460021002265
:104D3000068C4FF6FE773E400684018B028C4FF6C0
:104D40000C7631407E1C06EA03162E4331434FF6A3
:104D5000F576324044F00106324301830284F0BD0F
:104D600070B505460C46208850B92389A288618811
:104D70002846FFF7D8FFE1882846FFF7CBFF25E05C
:104D8000208804280AD12389A28861882846FFF751
:104D900094FFE1882846FFF783FF17E02088082862
:104DA0000AD12389A28861882846FFF755FFE18848
:104DB0002846FFF748FF09E02389A2886188284632
:104DC000FFF719FFE1882846FFF708FF70BD0021B3
:104DD00001804180012181800021C18001817047D3
:104DE0002DE9F04105460C4600260127608808B9E8
:104DF000022600E00026A088012801D1022700E059
:104E000001272088A0B92389A28861882846FFF756
:104E10008AFFE1882846FFF77DFF23893A4631461D
:104E20002846FFF74AFFE1882846FFF739FF13E0DD
:104E30002389A28861882846FFF73FFFE18828463A
:104E4000FFF72EFF23893A4631462846FFF76BFFCE
:104E5000E1882846FFF75EFFBDE8F0810146486B18
:104E600070470146886B70470146C86B7047014622
:104E7000086C70470A884B881A438B881A43CB8882
:104E80001A430B891A434B891A438B891A43A0F89A
:104E9000442070470021018041808180C1800181D0
:104EA00041818181704731B1B0F8442042F4004221
:104EB000A0F8442005E0B0F84420C2F30E02A0F8A8
:104EC0004420704721B1828842F00402828004E0CD
:104ED00082884FF6FB731A408280704721B1828826
:104EE00042F00102828004E082884FF6FE731A408D
:104EF000828070471AB183890B43838102E08389E2
:104F00008B43838170478182704702460020138A59
:104F10000B400BB1012000E000207047CA43028221
:104F2000704730B50246002000230024158A05EAA8
:104F30000103958905EA010413B10CB1012000E0D9
:104F4000002030BDCA430282704741EA0203A0F844
:104F5000483070471AB183890B43838102E083890B
:104F60008B438381704721B1828842F0080282809E
:104F700004E082884FF6F7731A40828070470189F7
:104F80004FF6F8721140018170470A4600210189ED
:104F90004FF68F73194011430181704730B50446B5
:104FA0000D4629462046FFF7F0FF208940F0070014
:104FB000208130BD2DE9F04104460D4616461F46BE
:104FC000602D06D13B46012231462046FFF775FE93
:104FD00005E03B46012231462046FFF7A4FE294664
:104FE0002046FFF7D2FF208940F007002081BDE86E
:104FF000F08130B50C4600210189C9B24FF6FF752A
:1050000005EA0325154325432943018130BD2DE9D8
:10501000F04105460E4617469846002443463A4658
:1050200031462846FFF7E5FF2C894FF6F87004401B
:1050300044F007044FF68F70044044F070042C8154
:10504000BDE8F081F0B504460D4616461F463B46C6
:10505000324629462046FFF7CCFF208940F48040A5
:105060002081F0BD82884FF68F731A40828082883B
:105070000A438280704702894FF6F8731A40028112
:1050800002890A430281704702894FF67F731A40F2
:10509000028102890A4302817047F0B50C46154629
:1050A0001E460021002200230189028B038C4FF64B
:1050B000F877394021434FF6FC473A4040F2011758
:1050C0003A434FF6DD773B404FF6FF7707EA061786
:1050D0002F433B43018102830384F0BD21B18288C9
:1050E00042F08002828004E082884FF67F731A408B
:1050F00082807047A0F850107047000010B5044639
:10510000FB48844208D101218014FEF7D6FE00211D
:10511000A014FEF7D2FE3CE0F648844208D10121FB
:105120000014FEF7B9FE00212014FEF7B5FE30E0B2
:10513000F148844208D10121C013FEF7ADFE0021E1
:10514000E013FEF7A9FE24E0EC48844208D10121D7
:105150004014FEF7B2FE00216014FEF7AEFE18E028
:10516000E748844209D101210805FEF7A6FE002187
:105170004FF48010FEF7A1FE0BE0E248844208D114
:1051800001214805FEF799FE00214FF40010FEF7BB
:1051900094FE10BD10B50022028802F441520B8823
:1051A0004C8823438C882343CC8823430C89234396
:1051B0004C8923438C892343CC8923431A4302809F
:1051C000838B4FF2FF74234083830B8A038210BDCD
:1051D0002DE9F04F0025022300244FF001090022A1
:1051E0000026002794469046B0F81CA04FF2400BD2
:1051F0000AEA0B0AA0F81CA04FF0020AA0F820A0AF
:10520000858BD1F808A0BAF1020F01D100BF82E06E
:10521000B1F804A0BAF1000F02D14FF0010901E08A
:105220004FF00209DFF8E0A2DAF800A00AF4000A61
:10523000BAF1000F09D0DFF8D0A2DAF800A02AF402
:10524000000ADFF8C4B2CBF800A0DFF8BCA20AF174
:105250007C0ADAF800A0CAF3881CDFF8ACA20AF1D5
:105260007C0ADAF800A0CAF30278DFF89CA2AAF15F
:10527000040ADAF800A00AF03F07DFF88CA2AAF1CE
:10528000040ADAF800A00AF4800ABAF5800F08D1FF
:10529000DFF878A2BAFBF7FA0AFB0CFABAFBF8F6C9
:1052A00007E0DFF86CA2BAFBF7FA0AFB0CFABAFBCC
:1052B000F8F6B1F806A0BAF5007F0ED14FEA162A2B
:1052C0000AEB8A0A4FEA4A0AD1F808B0BAFBFBFA9D
:1052D0000AF1050A1FFA8AF20FE04FEA491AB6FBF3
:1052E000FAFA0AEB8A0A4FEA4A0AD1F808B0BAFB7E
:1052F000FBFA0AF1050A1FFA8AF24FF00A0AB2FB1A
:10530000FAF202F00104A2EB040ACAF34F034FF6CB
:10531000FF7A0AEA0424022B01DBFF2B01DD0223C2
:105320000024B1F806A04AEA040A4AEA030AA0F8EF
:1053300020A0B1F804A0B1F80CB04AEA0B0AB1F809
:1053400002B04AEA0B0AB1F800B04AEA0B0A4AF482
:10535000006A4AEA05058583BDE8F08F00210180D7
:1053600041808180C180018141818181C18107218A
:10537000018270470021018041808180C18002212B
:10538000816000218181704721B1028842F0400292
:10539000028004E002884FF6BF731A400280704713
:1053A00021B1828B42F48062828304E0828B4FF6CB
:1053B000FF331A408283704702884FF2FF731A400E
:1053C000028002880A4302807047B1F5804F04D101
:1053D000028842F48042028004E002884BF6FF73A8
:1053E0001A40028070474FF6FF62914204D0028853
:1053F00042F48072028004E002884FF6FF631A4094
:105400000280704721B1828842F00402828004E069
:1054100082884FF6FB731A408280704721B18288E0
:1054200042F01002828004E082884FF6EF731A4047
:105430008280704730B500220023848B4FF24005F4
:105440002C40848302240484828B0C88B4F5007F72
:1054500001D00C8814B94FF4807308E00C88B4F5BF
:10546000407F03D00C88B4F5807F00D100238C8866
:105470008D892C434D882C431C4344F40064224303
:10548000828330BD0146888970478181704721B190
:10549000028842F40052028004E002884DF6FF7355
:1054A0001A4002807047018841F4805101807047A2
:1054B00002460020012901D0108B00E0908A70473D
:1054C0000146088A70471AB183880B43838002E043
:1054D00083888B438380704730B5002400230C11F0
:1054E0000125A540ABB2AAB185881D43858014E093
:1054F0000030014000380040003C004000340140D2
:1055000000500140005401400838024000127A0067
:105510000024F40085889D43858030BD024600202C
:1055200013890B400BB1012000E000207047CA43F3
:1055300002817047F0B502460020002400230025B8
:1055400001F00F070126BE40B4B20B1101269E40A8
:10555000B3B2968806EA03051689264016B10DB146
:10556000012000E00020F0BD10B5002201F00F0482
:105570000123A3409AB2D343038110BD016821F0F7
:10558000010101600021016041608160C160016131
:1055900021214161DB49884204D13D21D94A103A99
:1055A00091608CE0D7491831884205D14FF474617D
:1055B000D44A103A916082E0D2493031884205D114
:1055C0004FF47411CF4A103A916078E0CD494831D8
:1055D000884205D14FF07461CA4A103A91606EE07A
:1055E000C8496031884204D1C749C64A103AD160DF
:1055F00065E0C4497831884204D1C449C14A103AAF
:10560000D1605CE0BF499031884204D1C049BD4AB5
:10561000103AD16053E0BB49A831884205D14FF020
:105620003D51B84A103AD16049E0BA49884204D1A4
:105630003D21B84A083A116041E0B6491831884224
:1056400005D14FF47461B34A083A116037E0B149AB
:105650003031884205D14FF47411AE4A083A1160D6
:105660002DE0AC494831884205D14FF07461A94A18
:10567000083A116023E0A7496031884204D1A24969
:10568000A44A121F11601AE0A2497831884204D15D
:105690009E49A04A121F116011E09E499031884234
:1056A00004D19B499B4A121F116008E09949A83117
:1056B000884204D14FF03D51964A121F1160704745
:1056C00010B500220268944B1A40CC680B68234343
:1056D0004C6923438C692343CC6923430C6A2343DD
:1056E0004C6A23438C6A23434C6B23438C6B2343C8
:1056F0001A430260426922F00702D1E90B342343C6
:105700001A4342610B6943604B6883608B68C360D6
:1057100010BD0021016041608160C1600161416193
:105720008161C161016241628162C1620163416361
:105730008163704721B1026842F00102026003E018
:10574000026822F001020260704721B1026842F44F
:105750000042026003E0026822F4004202607047E7
:1057600021B1026842F02002026003E0026822F0E8
:10577000200202607047416070470146486880B26D
:10578000704722B1036843F40023036003E0036819
:1057900023F4002303600161704721B1026842F4E1
:1057A0008022026003E0026822F4802202607047D7
:1057B0000AB1016100E0C1607047014600200A683B
:1057C00002F400220AB1012000E0002070470146E7
:1057D00000200A6802F001020AB1012000E0002066
:1057E0007047014600204A6902F03800704730B522
:1057F00003460A4600200024464DAB4202D24149EE
:10580000103901E04349103902F000550DB14C68E0
:1058100000E00C68414D2C4004EA02050DB1012066
:1058200000E0002030BD02463A4B9A4202D2354891
:10583000103801E03748103801F000531BB1374BE6
:105840000B40C36002E0354B0B408360704710B5DE
:1058500001F080034BB122B1436943F080034361FF
:1058600003E0436923F08003436180290BD02AB110
:10587000036801F01E042343036004E0036801F0A1
:105880001E04A343036010BD70B50246002000242F
:105890000025204EB24202D21A4B103B01E01D4BB4
:1058A000103B1F4E0E4036B11E2606EAD124166864
:1058B00006EA040502E0566906F0800501F000568C
:1058C0000EB15C6800E01C68144E344004EA010626
:1058D00016B10DB1012000E0002070BD02460D4B55
:1058E0009A4202D20748103801E00A48103801F005
:1058F00000531BB1094B0B40C36002E0074B0B4048
:1059000083607047106002403D000020400F00207F
:1059100000003D20106402403F801CF07D0F7D0F91
:105920003C0F3C0F7CB5002514E06946284602F088
:10593000C1F9064666B9F84850F8254044B1012C33
:1059400006D0D4E9020100EB810060640198A064F4
:10595000681CC5B23F2DE8D97CBD002400BF02E021
:10596000282002F0B1FAED4800780028F8D0EC4881
:1059700000686421B0FBF1F0E9490860084600685E
:1059800028B90020E7490870FF2002F0D5F900BFD0
:1059900002F08CFE0446E4480068E44908600020F8
:1059A000E1490860204602F085FEE0480068DC49D5
:1059B0000968B0FBF1F0C0F16400DA49087002F048
:1059C000E1FEFFF7AFFF142002F07EFAE0E700B53A
:1059D00087B0032000218022D54BCDE90132CDE9EB
:1059E00003104FF6FE703E23D24A0090AFF29500AE
:1059F00001F079FF06AAD0A13E2002F0DDF807B041
:105A000000BD002400BF00BF02F050FE0446C6489F
:105A10000068401CC4490860204602F04BFE02F0BA
:105A2000B0FEF1E700B587B0032000218022C64B0D
:105A3000CDE90132CDE903104FF6FF703F23C34A91
:105A40000090AFF2410001F04EFF06AAC0A13F2036
:105A500002F0B2F807B000BD04E0002200F8012B0C
:105A60004A1E91B20029F8D1704770B5C821BC48D0
:105A7000FFF7F2FF00230FE0581C85B203EB830011
:105A8000B74901EB800405EB850001EB800600209F
:105A900020706660581C83B2092BEDD303EB8300A2
:105AA000AF4901EB80040020207060600846AD49DA
:105AB000086070BD70B54FF4E761AB48FFF7CCFFED
:105AC0004FF480719448FFF7C7FF002413E0601C77
:105AD000C5B2C4EBC40000EB4000A34901EB800356
